:020000040800F2
:1000000068C70120C94F0008850700088707000856
:100010008B0700088F070008930700080000000006
:10002000000000000000000000000000970700082A
:1000300099070008000000009B0700089D070008C2
:10004000E34F0008E34F0008E34F0008E34F0008C8
:10005000E34F0008E34F0008E34F0008E34F0008B8
:10006000E34F0008E34F0008E34F0008E34F0008A8
:10007000E34F0008E34F0008E34F0008E34F000898
:10008000E34F0008E34F0008E34F0008E34F000888
:10009000E34F0008E34F0008E34F0008E34F000878
:1000A000E34F0008E34F0008E34F0008E34F000868
:1000B000E34F0008E34F00086D830008E34F00089A
:1000C000E34F0008E34F0008E34F0008E34F000848
:1000D000E34F00083D4F0008E34F0008E34F0008DE
:1000E000E34F0008E34F0008E34F0008E34F000828
:1000F000E34F0008E34F0008E34F0008E34F000818
:10010000E34F0008AD4B0008E34F0008E34F000841
:10011000E34F0008E34F0008E34F0008E34F0008F7
:10012000E34F0008E34F0008E34F0008E34F0008E7
:10013000E34F0008E34F0008E34F0008E34F0008D7
:10014000E34F0008E34F0008E34F0008E34F0008C7
:10015000E34F0008E34F0008E34F0008E34F0008B7
:10016000E34F0008E34F0008E34F0008E34F0008A7
:10017000E34F0008E34F0008E34F0008E34F000897
:10018000E34F0008E34F000800F002F800F06DF8BC
:100190000AA090E8000C82448344AAF10107DA45E2
:1001A00001D100F062F8AFF2090EBAE80F0013F0C7
:1001B000010F18BFFB1A43F0010318476025010027
:1001C000802501000A444FF0000C10F8013B13F0A9
:1001D000070408BF10F8014B1D1108BF10F8015BA0
:1001E000641E05D010F8016B641E01F8016BF9D193
:1001F00013F0080F1EBF10F8014BAD1C0C1B09D1EA
:100200006D1E58BF01F801CBFAD505E014F8016B5B
:1002100001F8016B6D1EF9D59142D6D370470000ED
:100220000023002400250026103A28BF78C1FBD8FF
:10023000520728BF30C148BF0B60704764290FF0D8
:10024000B38475290FF0B08478290FF0E98463290D
:100250000FF0888773290FF08D87002070471FB536
:1002600010F025F81FBD10B510BD0FF0E7FF1146C7
:10027000FFF7F5FF00F046F810F005F803B4FFF7BC
:10028000F2FF03BC04F0F6FD30BF72B6704762B6F1
:10029000704780F308887047F0B591B00546002696
:1002A000294608A80AF0E7FD044640F2FF1007902F
:1002B0000020079907F0CBFC069004BB0698F0B12C
:1002C0001BE0694608A80AF025FE044614B99DF80B
:1002D000090000B912E00698007808B1069801E01C
:1002E0000DF10900074638460CF000F8044604F00A
:1002F000F000502801D1701C86B2E2E700BF304602
:1003000011B0F0BD2DE9F04F97B04FF0000A4FF457
:10031000A06004F079FEA82004F02AFD4FF4E1303B
:1003200004F0B6FD00F044FBE148416854208847E2
:1003300000F09EFD02F0B2FB02F0DEFC002007F0B0
:10034000C4FB022007F0C1FB0BF08CFFD94901224E
:100350000868D9A10AF01BF9D64901224868D7A13B
:100360000AF015F94FF47840D54908800020102193
:10037000D4A20B46CDE900210290C82232211E20D2
:100380000CF0D9FC00201021D3A20B46CDE90021AE
:100390000290C82246211E200CF0CDFC0020102126
:1003A000D1A20B46CDE900210290C8225A211E207D
:1003B0000CF0C1FC00201021D0A20B46CDE9002199
:1003C0000290C8226E211E200CF0B5FC00201021E6
:1003D000CDA20B46CDE900210290C82282211E2029
:1003E0000CF0A9FC00201021CCA20B46CDE9002185
:1003F0000290C82296211E200CF09DFC1AE00020DD
:100400001021C9A20B46CDE900210290F022AA21B9
:100410001E200CF090FCC82004F00CFD4FF6FF707D
:10042000BA23F022AA2100901E2002F09EF8C820D4
:1004300004F000FDC0A10EA80AF01DFD0028DED1C9
:10044000BDA0FFF729FF06461AE000201021BDA23B
:100450000B46CDE900210290F022AA211E200CF0CB
:100460006AFCC82004F0E6FC4FF6FF70BA23F022C5
:10047000AA2100901E2002F078F8C82004F0DAFCCF
:10048000002EE2D040F2FF100D9000200D9907F0F1
:10049000DEFB0C9000200D9907F0D9FB804671001F
:1004A000002007F0D4FB07461AE000201021A9A283
:1004B0000B46CDE900210290F022AA211E200CF06B
:1004C0003AFCC82004F0B6FC4FF6FF70BA23F022C5
:1004D000AA2100901E2002F048F8C82004F0AAFCCF
:1004E0000C980028E1D0B8F1000FDED0002FDCD04E
:1004F00091A10EA80AF0BFFC05462DBB002421E007
:10050000BDF83E00049006A90EA80AF003FD0546BA
:1005100015B99DF8210000B915E00C98007808B1D4
:100520000C9801E00DF12100059005980BF0DEFE1E
:10053000054605F0F000502804D1049827F814006F
:10054000601C84B2DCE700BF0020102185A20B46AE
:10055000CDE900210290F022AA211E200CF0EBFB35
:1005600040F2DC5004F066FC0EF032F8002472A178
:100570000EA80AF080FC054685E037F814100EA896
:1005800008F0D1FF06A90EA80AF0C4FC054615B96B
:100590009DF8210000B979E00C98007808B10C981A
:1005A00001E00DF12100059071A140460FF028FCFB
:1005B000404605990FF067FC002000F044FC012143
:1005C0006E484088CDE900016C480388002211463E
:1005D00040460EF0AFF8012010210B46F022CDE985
:1005E00000810290022108460CF0A5FB4FF0000BA1
:1005F00046E0002002F070FA8146BBF1FA0F01DDFF
:100600004FF0010914209BFBF0F100FB11B038B949
:100610005B48006808B9012000E0002058490860E4
:10062000B9F1020F06D114B1601E84B201E0701E50
:1006300084B226E0B9F1010F05D1601C84B2B44246
:1006400000DB00241DE0B9F1040F0FD1BAF1000F57
:1006500001D1012000E000208246BAF1000F01D153
:10066000012000E000204649091D0860BAF1000F92
:1006700003D10BF1010000F0FF0B0A2004F0DAFBBC
:10068000B7E700BF0025002D3FF477AF00BF002083
:100690000C9907F0CCFA4146002007F0C8FA394619
:1006A000002007F0C4FA002017B0BDE8F08F00006A
:1006B000600100209C030020303A0000313A000025
:1006C000140000206D63756465762053544D3332F9
:1006D00046345858000000005049435455524520B4
:1006E00073686F77000000004B4559303A4E45580B
:1006F00054204B4559313A5052455600574B5F559F
:10070000503A5041555345006D63756465762E74BB
:10071000616F62616F2E636F6D00000032303135A2
:100720002D30382D31350000504943545552452065
:100730002065727221000000303A2F504943545511
:1007400052450000C3BBD3D0CDBCC6ACCEC4BCFEAA
:1007500021000000C4DAB4E6B7D6C5E4CAA7B0DC0D
:1007600021000000446973706C61792E2E2E000008
:10077000303A2F504943545552452F00C8030020AA
:10078000A4824242704700BFFEE700BFFEE700BF01
:10079000FEE700BFFEE770477047704770470000F4
:1007A0000CB50020019000907648006840F480303D
:1007B0007449086000BF7348006800F4003000907E
:1007C0000198401C0190009818B90198B0F5A04F0D
:1007D000F1D16C48006800F4003010B101200090A5
:1007E00001E0002000900098012846D16548403083
:1007F000006840F0805063494031086062480068FA
:1008000040F44040604908605E48083000685D4937
:10081000083108600846006840F400400860084657
:10082000006840F4A05008605848091F0860081F7D
:10083000006840F08070091F086000BF51480068E0
:1008400000F000700028F9D040F2057050490860AF
:100850004C480830006820F003004A49083108601D
:100860000846006840F00200086000BF45480830B4
:10087000006800F00C000828F8D10CBD10B5454800
:10088000006840F47000434908603E48006840F04A
:1008900001003C49086000203A49083108603948A5
:1008A00000683D490840374908603C48091D086018
:1008B000081F006820F48020091F086000203149CB
:1008C0000C310860FFF76CFF4FF000603149803950
:1008D000086010BD70B50020002202230024022110
:1008E000284D08352D6805F00C0020B1042806D0ED
:1008F000082834D107E02A4D2A4E356033E02A4DCE
:10090000284E35602FE01F4D2D1D2D68C5F38054F6
:100910001C4D2D1D2D6805F03F0154B1224DB5FB36
:10092000F1F5184E361D3668C6F3881605FB06F23B
:1009300009E01B4DB5FBF1F5124E361D3668C6F3C6
:10094000881605FB06F20F4D2D1D2D68C5F30145D8
:100950006D1C6B00B2FBF3F5124E356003E0104DD9
:10096000104E356000BF00BF064D08352D68C5F339
:1009700003150E4E705D0B4D2D68C540094E356058
:1009800070BD00000038024000700040085440076D
:10099000003C024088ED00E0FFFFF6FE103000242E
:1009A0000024F4000000002000127A00040000205F
:1009B0001CB50121202005F073FB4FF4C0600090AE
:1009C00001208DF8040000208DF8060003208DF82A
:1009D000050001208DF807006946044805F0C2F8BB
:1009E0004FF4C061014805F039F91CBD0014024004
:1009F00001B5BDF800000090BDF80000FE49088078
:100A000008BD01B5BDF800000090BDF80000FA492E
:100A1000891C088008BD08B5F748801C0088009034
:100A2000BDF8000008BD03B5BDF80000F24A108013
:100A30004FF0D840A0F880100CBD01B5BDF8000003
:100A4000FFF7D6FF052004F0ADF9FFF7E4FF08BD7E
:100A5000EA480089E8490880704730B5014601F04E
:100A60001F04C1F34513CA0AE50205EB43151544FB
:100A7000A8B230BD00BF011EA0F10102D0B2FAD170
:100A8000704710B502460C46DC494889FFF7B0FFB5
:100A90001012FFF7B6FFD9494989491C88B2FFF700
:100AA000A7FFD0B2FFF7ADFFD4498889FFF7A0FFB9
:100AB0002012FFF7A6FFD1498989491C88B2FFF7A8
:100AC00097FFE0B2FFF79DFF10BD2DE9F04104460E
:100AD0000D4600270026B046C8480088A04203DD26
:100AE000C6484088A84202DC0020BDE8F0812946C3
:100AF0002046FFF7C6FF4FF43850FFF779FFBE4896
:100B0000801C008800B100270220FFF7B3FFBA481D
:100B1000801C07880220FFF7ADFF4FF0D840B0F8E7
:100B20008080FEB24FF6FF7000EA0626F812C0027F
:100B3000B11240EA411040EAE820D6E700B54FF490
:100B40002450FFF755FF00BD00B54FF42050FFF7CC
:100B50004FFF00BDF0B5054600240027A748807967
:100B6000012818D1082D15D2DFE805F00406080A7F
:100B70000C0E101206250DE007250BE0042509E0F8
:100B8000052507E0012505E0002503E0032501E038
:100B9000022500BF00BF082D1CD2DFE805F00406C7
:100BA000090C0F12151800BF14E044F0800411E086
:100BB00044F040040EE044F0C0040BE044F0200494
:100BC00008E044F0600405E044F0A00402E044F0D2
:100BD000E00400BF00BF4FF4585721463846FFF7E6
:100BE00022FF04F0200018B98448807901280DD133
:100BF0008248008881494988884214DA7F480688FB
:100C000040887E490880084646800CE07B48008882
:100C10007A494988884206DD7848068840887749BD
:100C200008800846468075494889FFF7E1FE0020A4
:100C3000FFF7E7FE71494989491C88B2FFF7D8FEE2
:100C40000020FFF7DEFE6D494989891C88B2FFF755
:100C5000CFFE6A490988491EC1F30F20FFF7D1FE74
:100C600066494989C91C88B2FFF7C2FE6349097801
:100C7000491EC8B2FFF7C5FE60498889FFF7B8FE74
:100C80000020FFF7BEFE5D498989491C88B2FFF745
:100C9000AFFE0020FFF7B5FE58498989891C88B24C
:100CA000FFF7A6FE55494988491EC1F30F20FFF7FB
:100CB000A8FE52498989C91C88B2FFF799FE4F499D
:100CC0008978491EC8B2FFF79CFEF0BD30B50446D6
:100CD0000D4629462046FFF7D4FEFFF7B9FE4848E7
:100CE00000884549891C088030BD30B504460D4652
:100CF00042494889FFF77CFE2012FFF782FE3F49F8
:100D00004989491C88B2FFF773FEE0B2FFF779FE0C
:100D10003A498889FFF76CFE2812FFF772FE3749BF
:100D20008989491C88B2FFF763FEE8B2FFF769FEC4
:100D300032480089304908804FF0D840A0F8802020
:100D400030BD10B5044694B900202C4988714FF489
:100D5000305008814FF4285048814FF42C5088813E
:100D60004FF4F07008804FF44870488011E0012083
:100D7000224988714FF4305008814FF4285048813F
:100D80004FF42C5088814FF4487008804FF4F07075
:100D900048800020FFF7DEFE10BD70B504460D460A
:100DA0001E46A018401E82B2A819401E86B21349E2
:100DB0004889FFF71DFE2012FFF723FE0F494989DE
:100DC000491C88B2FFF714FEE0B2FFF71AFE0B4988
:100DD0004989891C88B2FFF70BFE1012FFF711FE3C
:100DE00006494989C91C88B2FFF702FED0B2FFF755
:100DF00008FE0249888905E07E00006CC8030020D7
:100E000014000020FFF7F4FD2812FFF7FAFDFE4959
:100E10008989491C88B2FFF7EBFDE8B2FFF7F1FDC5
:100E2000F9498989891C88B2FFF7E2FD3012FFF782
:100E3000E8FDF5498989C91C88B2FFF7D9FDF0B2F0
:100E4000FFF7DFFD70BD70B504460026EE4805884B
:100E50004088454300210846FFF713FEFFF7F8FDE1
:100E600000BF02E0E9480480761CAE42FAD370BDB0
:100E700000B599B00020189001217A2005F010F9F2
:100E80000121084605F044F94FF400401690012076
:100E90008DF85C0002208DF85D0000208DF85E006A
:100EA00001208DF85F0016A9D94804F05BFE4CF2D2
:100EB0003370169002208DF85C0003208DF85D00E1
:100EC00016A9D44804F04EFE4FF68070169016A96D
:100ED000D14804F047FE4FF48050169016A9CF4831
:100EE00004F040FE4FF48050169016A9CC4804F050
:100EF00039FE0C220021C74804F0BFFE0C2201215C
:100F0000C44804F0BAFE0C220421C24804F0B5FE25
:100F10000C220521BF4804F0B0FE0C220821BD4878
:100F200004F0ABFE0C220921BA4804F0A6FE0C2204
:100F30000A21B84804F0A1FE0C220E21B54804F0A5
:100F40009CFE0C220F21B34804F097FE0C220721CF
:100F5000B14804F092FE0C220821AF4804F08DFE47
:100F60000C220921AC4804F088FE0C220A21AA4870
:100F700004F083FE0C220B21A74804F07EFE0C2215
:100F80001146A54804F079FE0C220D21A24804F078
:100F900074FE0C220E21A04804F06FFE0C220F21DB
:100FA0009D4804F06AFE0C2211469C4804F065FE40
:100FB0000C2211469A4804F060FE0A20009000209E
:100FC00001900F200290002003900490059006905D
:100FD0000620079000200890099010200A90002019
:100FE0000B900C900D900E900F904FF4805010903D
:100FF000002011904FF48040129000201390CDF803
:1010000050D0CDF854D007A804F05DFA0121062095
:1010100004F0E4FA322003F00DFF01210020FFF775
:1010200002FD322003F006FF0020FFF706FD76499F
:1010300088804FF47040FFF7DBFC5520FFF7E1FCA0
:101040004FF20100FFF7D4FCAA20FFF7DAFC4FF2C1
:101050000200FFF7CDFC5220FFF7D3FC4FF2030054
:10106000FFF7C6FC0820FFF7CCFC4FF20400FFF7A7
:10107000BFFC0120FFF7C5FC4FF45140FFF7B8FC5F
:101080000020FFF7BEFC4DF20110FFF7B1FC00207D
:10109000FFF7B7FC4DF20210FFF7AAFC1B20FFF789
:1010A000B0FC4DF20310FFF7A3FC4420FFF7A9FCAE
:1010B0004DF20410FFF79CFC6220FFF7A2FC4DF2FA
:1010C0000510FFF795FC0020FFF79BFC4DF2061082
:1010D000FFF78EFC7B20FFF794FC4DF20710FFF723
:1010E00087FCA120FFF78DFC4DF20810FFF780FC74
:1010F000C020FFF786FC4DF20910FFF779FCEE20C7
:10110000FFF77FFC4DF20A10FFF772FC5520FFF746
:1011100078FC4DF20B10FFF76BFC1020FFF771FC11
:101120004DF20C10FFF764FC2C20FFF76AFC4DF227
:101130000D10FFF75DFC4320FFF763FC4DF20E102E
:10114000FFF756FC5720FFF75CFC4DF20F10FFF73E
:101150004FFC5520FFF755FC4DF21010FFF748FCEF
:101160006820FFF74EFC4DF21110FFF741FC78208C
:10117000FFF747FC4DF21210FFF73AFC8720FFF70C
:1011800040FC4DF21310FFF733FC9420FFF739FCBD
:101190004DF21410FFF72CFC5520FFF732FC4DF2F6
:1011A0001510FFF725FCA020FFF72BFC4DF21610C1
:1011B000FFF71EFCAC20FFF724FC4DF21710FFF7E1
:1011C00017FCB620FFF71DFC4DF21810FFF710FCBE
:1011D000C120FFF716FC4DF21910FFF709FC55204E
:1011E000FFF70FFC4DF21A10FFF702FCCB20FFF7C0
:1011F00008FC4DF21B10FFF7FBFBCD20FFF701FCB5
:101200004DF21C100EE00000C80300208000006CAE
:1012100000040240000C0240001002400014024092
:1012200000180240FFF7E4FBD620FFF7EAFB4DF27F
:101230001D10FFF7DDFBDF20FFF7E3FB4DF21E1073
:10124000FFF7D6FB9520FFF7DCFB4DF21F10FFF7F1
:10125000CFFBE820FFF7D5FB4DF22010FFF7C8FBCE
:10126000F120FFF7CEFB4DF22110FFF7C1FBFA2072
:10127000FFF7C7FB4DF22210FFF7BAFB0220FFF782
:10128000C0FB4DF22310FFF7B3FBAA20FFF7B9FB19
:101290004DF22410FFF7ACFB0B20FFF7B2FB4DF231
:1012A0002510FFF7A5FB1320FFF7ABFB4DF226102F
:1012B000FFF79EFB1D20FFF7A4FB4DF22710FFF761
:1012C00097FB2620FFF79DFB4DF22810FFF790FBC0
:1012D000AA20FFF796FB4DF22910FFF789FB30207B
:1012E000FFF78FFB4DF22A10FFF782FB3C20FFF740
:1012F00088FB4DF22B10FFF77BFB4A20FFF781FBA9
:101300004DF22C10FFF774FB6320FFF77AFB4DF2D0
:101310002D10FFF76DFBEA20FFF773FB4DF22E1047
:10132000FFF766FB7920FFF76CFB4DF22F10FFF7FC
:101330005FFBA620FFF765FB4DF23010FFF758FB6F
:10134000D020FFF75EFB4DF23110FFF751FB20205C
:10135000FFF757FB4DF23210FFF74AFB0F20FFF764
:1013600050FB4DF23310FFF743FB8E20FFF749FB94
:101370004DF23410FFF73CFBFF20FFF742FB4FF428
:101380005240FFF735FB0020FFF73BFB4DF20120F9
:10139000FFF72EFB0020FFF734FB4DF20220FFF792
:1013A00027FB1B20FFF72DFB4DF20320FFF720FB4F
:1013B0004420FFF726FB4DF20420FFF719FB6220C3
:1013C000FFF71FFB4DF20520FFF712FB0020FFF790
:1013D00018FB4DF20620FFF70BFB7B20FFF711FBFC
:1013E0004DF20720FFF704FBA120FFF70AFB4DF2A7
:1013F0000820FFF7FDFAC020FFF703FB4DF209209C
:10140000FFF7F6FAEE20FFF7FCFA4DF20A20FFF79D
:10141000EFFA5520FFF7F5FA4DF20B20FFF7E8FA47
:101420001020FFF7EEFA4DF20C20FFF7E1FA2C2026
:10143000FFF7E7FA4DF20D20FFF7DAFA4320FFF746
:10144000E0FA4DF20E20FFF7D3FA5720FFF7D9FA52
:101450004DF20F20FFF7CCFA5520FFF7D2FA4DF2EC
:101460001020FFF7C5FA6820FFF7CBFA4DF21120E4
:10147000FFF7BEFA7820FFF7C4FA4DF21220FFF70B
:10148000B7FA8720FFF7BDFA4DF21320FFF7B0FA45
:101490009420FFF7B6FA4DF21420FFF7A9FA552071
:1014A000FFF7AFFA4DF21520FFF7A2FAA020FFF7E1
:1014B000A8FA4DF21620FFF79BFAAC20FFF7A1FA2D
:1014C0004DF21720FFF794FAB620FFF79AFA4DF283
:1014D0001820FFF78DFAC120FFF793FA4DF219207B
:1014E000FFF786FA5520FFF78CFA4DF21A20FFF726
:1014F0007FFACB20FFF785FA4DF21B20FFF778FA31
:10150000CD20FFF77EFA4DF21C20FFF771FAD620AE
:10151000FFF777FA4DF21D20FFF76AFADF20FFF799
:1015200070FA4DF21E20FFF763FA9520FFF769FA73
:101530004DF21F20FFF75CFAE820FFF762FA4DF248
:101540002020FFF755FAF120FFF75BFA4DF221203A
:10155000FFF74EFAFA20FFF754FA4DF22220FFF778
:1015600047FA0220FFF74DFA4DF22320FFF740FA29
:10157000AA20FFF746FA4DF22420FFF739FA0B2094
:10158000FFF73FFA4DF22520FFF732FA1320FFF75D
:1015900038FA4DF22620FFF72BFA1D20FFF731FA1B
:1015A0004DF22720FFF724FA2620FFF72AFA4DF202
:1015B0002820FFF71DFAAA20FFF723FA4DF2292071
:1015C000FFF716FA3020FFF71CFA4DF22A20FFF73A
:1015D0000FFA3C20FFF715FA4DF22B20FFF708FA1F
:1015E0004A20FFF70EFA4DF22C20FFF701FA632094
:1015F000FFF707FA4DF22D20FFF7FAF9EA20FFF77F
:1016000000FA4DF22E20FFF7F3F97920FFF7F9F9F0
:101610004DF22F20FFF7ECF9A620FFF7F2F94DF27B
:101620003020FFF7E5F9D020FFF7EBF94DF231203C
:10163000FFF7DEF92020FFF7E4F94DF23220FFF743
:10164000D7F90F20FFF7DDF94DF23320FFF7D0F97E
:101650008E20FFF7D6F94DF23420FFF7C9F9FF20AD
:10166000FFF7CFF94FF45340FFF7C2F90020FFF71F
:10167000C8F94DF20130FFF7BBF90020FFF7C1F9BF
:101680004DF20230FFF7B4F91B20FFF7BAF94DF223
:101690000330FFF7ADF94420FFF7B3F94DF2043002
:1016A000FFF7A6F96220FFF7ACF94DF20530FFF71E
:1016B0009FF90020FFF7A5F94DF20630FFF798F9E2
:1016C0007B20FFF79EF94DF20730FFF791F9A1203B
:1016D000FFF797F94DF20830FFF78AF9C020FFF7BE
:1016E00090F94DF20930FFF783F9EE20FFF789F901
:1016F0004DF20A30FFF77CF95520FFF782F94DF2E1
:101700000B30FFF775F91020FFF77BF94DF20C3025
:10171000FFF76EF92C20FFF774F94DF20D30FFF74B
:1017200067F94320FFF76DF94DF20E30FFF760F9CE
:101730005720FFF766F94DF20F30FFF759F95520A2
:10174000FFF75FF94DF21030FFF752F96820FFF70D
:1017500058F94DF21130FFF74BF97820FFF751F9A6
:101760004DF21230FFF744F98720FFF74AF94DF2A6
:101770001330FFF73DF99420FFF743F94DF2143091
:10178000FFF736F95520FFF73CF94DF21530FFF71A
:101790002FF9A020FFF735F94DF21630FFF728F9A1
:1017A000AC20FFF72EF94DF21730FFF721F9B620E4
:1017B000FFF727F94DF21830FFF71AF9C120FFF7AC
:1017C00020F94DF21930FFF713F95520FFF719F9F9
:1017D0004DF21A30FFF70CF9CB20FFF712F94DF25A
:1017E0001B30FFF705F9CD20FFF70BF94DF21C3048
:1017F000FFF7FEF8D620FFF704F94DF21D30FFF792
:10180000F7F8DF20FFF7FDF84DF21E30FFF7F0F894
:101810009520FFF7F6F84DF21F30FFF7E9F8E820C2
:10182000FFF7EFF84DF22030FFF7E2F8F120FFF775
:10183000E8F84DF22130FFF7DBF8FA20FFF7E1F886
:101840004DF22230FFF7D4F80220FFF7DAF84DF21C
:101850002330FFF7CDF8AA20FFF7D3F84DF224305C
:10186000FFF7C6F80B20FFF7CCF84DF22530FFF755
:10187000BFF81320FFF7C5F84DF22630FFF7B8F890
:101880001D20FFF7BEF84DF22730FFF7B1F82620F4
:10189000FFF7B7F84DF22830FFF7AAF8AA20FFF7B4
:1018A000B0F84DF22930FFF7A3F83020FFF7A9F880
:1018B0004DF22A30FFF79CF83C20FFF7A2F84DF2DA
:1018C0002B30FFF795F84A20FFF79BF84DF22C30AC
:1018D000FFF78EF86320FFF794F84DF22D30FFF7F5
:1018E00087F8EA20FFF78DF84DF22E30FFF780F8E9
:1018F0007920FFF786F84DF22F30FFF779F8A62010
:10190000FFF77FF84DF23030FFF772F8D020FFF785
:1019100078F84DF23130FFF76BF82020FFF771F8BF
:101920004DF23230FFF764F80F20FFF76AF84DF2FE
:101930003330FFF75DF88E20FFF763F84DF2343057
:10194000FFF756F8FF20FFF75CF84FF45440FFF71D
:101950004FF80020FFF755F84DF20140FFF748F827
:101960000020FFF74EF84DF20240FFF741F81B2030
:10197000FFF747F84DF20340FFF73AF84420FFF72E
:1019800040F84DF20440FFF733F86220FFF739F8D2
:101990004DF20540FFF72CF80020FFF732F84DF22A
:1019A0000640FFF725F87B20FFF72BF84DF20740A4
:1019B000FFF71EF8A120FFF724F84DF20840FFF7CB
:1019C00017F8C020FFF71DF84DF20940FFF710F897
:1019D000EE20FFF716F84DF20A40FFF709F8552000
:1019E000FFF70FF84DF20B40FFF702F81020FFF75A
:1019F00008F84DF20C40FEF7FBFF2C20FFF701F832
:101A00004DF20D40FEF7F4FF4320FEF7FAFF4DF2D2
:101A10000E40FEF7EDFF5720FEF7F3FF4DF20F40AB
:101A2000FEF7E6FF5520FEF7ECFF4DF21040FEF703
:101A3000DFFF6820FEF7E5FF4DF21140FEF7D8FF0B
:101A40007820FEF7DEFF4DF21240FEF7D1FF87202F
:101A5000FEF7D7FF4DF21340FEF7CAFF9420FEF7C2
:101A6000D0FF4DF21440FEF7C3FF5520FEF7C9FF2B
:101A70004DF21540FEF7BCFFA020FEF7C2FF4DF26D
:101A80001640FEF7B5FFAC20FEF7BBFF4DF2174046
:101A9000FEF7AEFFB620FEF7B4FF4DF21840FEF79A
:101AA000A7FFC120FEF7ADFF4DF21940FEF7A0FFE2
:101AB0005520FEF7A6FF4DF21A40FEF799FFCB2006
:101AC000FEF79FFF4DF21B40FEF792FFCD20FEF781
:101AD00098FF4DF21C40FEF78BFFD620FEF791FFDA
:101AE0004DF21D40FEF784FFDF20FEF78AFF4DF226
:101AF0001E40FEF77DFF9520FEF783FF4DF21F404D
:101B0000FEF776FFE820FEF77CFF4DF22040FEF75F
:101B10006FFFF120FEF775FF4DF22140FEF768FFE1
:101B2000FA20FEF76EFF4DF22240FEF761FF022021
:101B3000FEF767FF4DF22340FEF75AFFAA20FEF79B
:101B400060FF4DF22440FEF753FF0B20FEF759FFD4
:101B50004DF22540FEF74CFF1320FEF752FF4DF2E9
:101B60002640FEF745FF1D20FEF74BFF4DF22740B4
:101B7000FEF73EFF2620FEF744FF4DF22840FEF719
:101B800037FFAA20FEF73DFF4DF22940FEF730FF58
:101B90003020FEF736FF4DF22A40FEF729FF3C20A9
:101BA000FEF72FFF4DF22B40FEF722FF4A20FEF7F3
:101BB00028FF4DF22C40FEF71BFF6320FEF721FFAC
:101BC0004DF22D40FEF714FFEA20FEF71AFF4DF20A
:101BD0002E40FEF70DFF7920FEF713FF4DF22F4048
:101BE000FEF706FFA620FEF70CFF4DF23040FEF791
:101BF000FFFED020FEF705FF4DF23140FEF7F8FE64
:101C00002020FEF7FEFE4DF23240FEF7F1FE0F20DF
:101C1000FEF7F7FE4DF23340FEF7EAFE8E20FEF7A8
:101C2000F0FE4DF23440FEF7E3FEFF20FEF7E9FE42
:101C30004FF45540FEF7DCFE0020FEF7E2FE4DF2C9
:101C40000150FEF7D5FE0020FEF7DBFE4DF20250FC
:101C5000FEF7CEFE1B20FEF7D4FE4DF20350FEF73A
:101C6000C7FE4420FEF7CDFE4DF20450FEF7C0FE45
:101C70006220FEF7C6FE4DF20550FEF7B9FE0020C9
:101C8000FEF7BFFE4DF20650FEF7B2FE7B20FEF7D8
:101C9000B8FE4DF20750FEF7ABFEA120FEF7B1FEF5
:101CA0004DF20850FEF7A4FEC020FEF7AAFE4DF24A
:101CB0000950FEF79DFEEE20FEF7A3FE4DF20A50FE
:101CC000FEF796FE5520FEF79CFE4DF20B50FEF7F8
:101CD0008FFE1020FEF795FE4DF20C50FEF788FEA9
:101CE0002C20FEF78EFE4DF20D50FEF781FE4320B4
:101CF000FEF787FE4DF20E50FEF77AFE5720FEF7F4
:101D000080FE4DF20F50FEF773FE5520FEF779FE70
:101D10004DF21050FEF76CFE6820FEF772FE4DF299
:101D20001150FEF765FE7820FEF76BFE4DF2125063
:101D3000FEF75EFE8720FEF764FE4DF21350FEF7BD
:101D400057FE9420FEF75DFE4DF21450FEF750FE54
:101D50005520FEF756FE4DF21550FEF749FEA02025
:101D6000FEF74FFE4DF21650FEF742FEAC20FEF796
:101D700048FE4DF21750FEF73BFEB620FEF741FE3F
:101D80004DF21850FEF734FEC120FEF73AFE4DF238
:101D90001950FEF72DFE5520FEF733FE4DF21A5076
:101DA000FEF726FECB20FEF72CFE4DF21B50FEF771
:101DB0001FFECD20FEF725FE4DF21C50FEF718FE4B
:101DC000D620FEF71EFE4DF21D50FEF711FEDF205D
:101DD000FEF717FE4DF21E50FEF70AFE9520FEF7A5
:101DE00010FE4DF21F50FEF703FEE820FEF709FE3D
:101DF0004DF22050FEF7FCFDF120FEF702FE4DF201
:101E00002150FEF7F5FDFA20FEF7FBFD4DF22250C2
:101E1000FEF7EEFD0220FEF7F4FD4DF22350FEF733
:101E2000E7FDAA20FEF7EDFD4DF22450FEF7E0FDA0
:101E30000B20FEF7E6FD4DF22550FEF7D9FD1320ED
:101E4000FEF7DFFD4DF22650FEF7D2FD1D20FEF716
:101E5000D8FD4DF22750FEF7CBFD2620FEF7D1FD31
:101E60004DF22850FEF7C4FDAA20FEF7CAFD4DF240
:101E70002950FEF7BDFD3020FEF7C3FD4DF22A507C
:101E8000FEF7B6FD3C20FEF7BCFD4DF22B50FEF7F1
:101E9000AFFD4A20FEF7B5FD4DF22C50FEF7A8FD30
:101EA0006320FEF7AEFD4DF22D50FEF7A1FDEA20B6
:101EB000FEF7A7FD4DF22E50FEF79AFD7920FEF7B2
:101EC000A0FD4DF22F50FEF793FDA620FEF799FDE1
:101ED0004DF23050FEF78CFDD020FEF792FD4DF212
:101EE0003150FEF785FD2020FEF78BFD4DF232507C
:101EF000FEF77EFD0F20FEF784FD4DF23350FEF716
:101F000077FD8E20FEF77DFD4DF23450FEF770FD1B
:101F1000FF20FEF776FD4FF45640FEF769FD0020E6
:101F2000FEF76FFD4DF20160FEF762FD0020FEF747
:101F300068FD4DF20260FEF75BFD1B20FEF761FDC0
:101F40004DF20360FEF754FD4420FEF75AFD4DF2BA
:101F50000460FEF74DFD6220FEF753FD4DF2056073
:101F6000FEF746FD0020FEF74CFD4DF20660FEF741
:101F70003FFD7B20FEF745FD4DF20760FEF738FD83
:101F8000A120FEF73EFD4DF20860FEF731FDC020B6
:101F9000FEF737FD4DF20960FEF72AFDEE20FEF751
:101FA00030FD4DF20A60FEF723FD5520FEF729FDB6
:101FB0004DF20B60FEF71CFD1020FEF722FD4DF2E6
:101FC0000C60FEF715FD2C20FEF71BFD4DF20D6099
:101FD000FEF70EFD4320FEF714FD4DF20E60FEF7F6
:101FE00007FD5720FEF70DFD4DF20F60FEF700FDD7
:101FF0005520FEF706FD4DF21060FEF7F9FC682053
:10200000FEF7FFFC4DF21160FEF7F2FC7820FEF7C0
:10201000F8FC4DF21260FEF7EBFC8720FEF7F1FCB6
:102020004DF21360FEF7E4FC9420FEF7EAFC4DF25B
:102030001460FEF7DDFC5520FEF7E3FC4DF2156061
:10204000FEF7D6FCA020FEF7DCFC4DF21660FEF792
:10205000CFFCAC20FEF7D5FC4DF21760FEF7C8FCB4
:10206000B620FEF7CEFC4DF21860FEF7C1FCC12091
:10207000FEF7C7FC4DF21960FEF7BAFC5520FEF7DB
:10208000C0FC4DF21A60FEF7B3FCCB20FEF7B9FCA2
:102090004DF21B60FEF7ACFCCD20FEF7B2FC4DF21A
:1020A0001C60FEF7A5FCD620FEF7ABFC4DF21D60D0
:1020B000FEF79EFCDF20FEF7A4FC4DF21E60FEF74B
:1020C00097FC9520FEF79DFC4DF21F60FEF790FCFB
:1020D000E820FEF796FC4DF22060FEF789FCF12027
:1020E000FEF78FFC4DF22160FEF782FCFA20FEF72E
:1020F00088FC4DF22260FEF77BFC0220FEF781FC9B
:102100004DF22360FEF774FCAA20FEF77AFC4DF234
:102110002460FEF76DFC0B20FEF773FC4DF225608A
:10212000FEF766FC1320FEF76CFC4DF22660FEF70E
:102130005FFC1D20FEF765FC4DF22760FEF758FCA2
:102140002620FEF75EFC4DF22860FEF751FCAA2027
:10215000FEF757FC4DF22960FEF74AFC3020FEF7EF
:1021600050FC4DF22A60FEF743FC3C20FEF749FC90
:102170004DF22B60FEF73CFC4A20FEF742FC4DF28C
:102180002C60FEF735FC6320FEF73BFC4DF22D6022
:10219000FEF72EFCEA20FEF734FC4DF22E60FEF72F
:1021A00027FC7920FEF72DFC4DF22F60FEF720FC76
:1021B000A620FEF726FC4DF23060FEF719FCD02079
:1021C000FEF71FFC4DF23160FEF712FC2020FEF7F7
:1021D00018FC4DF23260FEF70BFC0F20FEF711FCED
:1021E0004DF23360FEF704FC8E20FEF70AFC4DF240
:1021F0003460FEF7FDFBFF20FEF703FC4FF4304098
:10220000FEF7F6FB0520FEF7FCFB4BF20100FEF7A4
:10221000EFFB0520FEF7F5FB4BF20200FEF7E8FBB3
:102220000520FEF7EEFB4FF43140FEF7E1FB052001
:10223000FEF7E7FB4BF20110FEF7DAFB0520FEF795
:10224000E0FB4BF20210FEF7D3FB0520FEF7D9FBB3
:102250004FF43640FEF7CCFB3420FEF7D2FB4BF2B6
:102260000160FEF7C5FB3420FEF7CBFB4BF20360A9
:10227000FEF7BEFB3420FEF7C4FB4FF43740FEF7F9
:10228000B7FB2420FEF7BDFB4BF20170FEF7B0FB5D
:102290002420FEF7B6FB4BF20270FEF7A9FB2420C8
:1022A000FEF7AFFB4FF43840FEF7A2FB2420FEF709
:1022B000A8FB4BF60100FEF79BFB2420FEF7A1FBD9
:1022C0004BF60200FEF794FB2420FEF79AFB4FF436
:1022D0003A40FEF78DFB1420FEF793FB4BF60120EE
:1022E000FEF786FB1420FEF78CFB4BF60220FEF770
:1022F0007FFB1420FEF785FB4FF43940FEF778FB97
:102300002420FEF77EFB4BF60110FEF771FB242024
:10231000FEF777FB4BF60210FEF76AFB2420FEF770
:1023200070FB4FF43C40FEF763FB0020FEF769FBB7
:102330004BF60140FEF75CFBA020FEF762FB4BF67C
:102340000240FEF755FB0020FEF75BFB4FF43D40DB
:10235000FEF74EFB0020FEF754FB4BF60150FEF754
:1023600047FBA020FEF74DFB4BF60250FEF740FB6B
:102370000020FEF746FB4BF60160FEF739FB3D20DF
:10238000FEF73FFB4FF47040FEF732FB5520FEF79F
:1023900038FB4FF20100FEF72BFBAA20FEF731FBC2
:1023A0004FF20200FEF724FB5220FEF72AFB4FF209
:1023B0000300FEF71DFB0820FEF723FB4FF204008D
:1023C000FEF716FB0020FEF71CFB4FF43440FEF72F
:1023D0000FFB1020FEF715FB4FF43C40FEF708FB07
:1023E0000520FEF70EFB4BF60140FEF701FB052032
:1023F000FEF707FB4BF60240FEF7FAFA0520FEF760
:1024000000FB4FF43740FEF7F3FA2220FEF7F9FA0B
:102410004BF20170FEF7ECFA2220FEF7F2FA4CF6CE
:102420000B00FEF7E5FA2A20FEF7EBFA4CF60C005B
:10243000FEF7DEFA2A20FEF7E4FA4CF60F00FEF76C
:10244000D7FA2A20FEF7DDFA4CF61000FEF7D0FA94
:102450002A20FEF7D6FA4FF45040FEF7C9FA0120C1
:10246000FEF7CFFA4FF43340FEF7C2FA1020FEF722
:10247000C8FA4BF60250FEF7BBFA0720FEF7C1FA86
:102480004BF60260FEF7B4FA0720FEF7BAFA4BF6F5
:102490000270FEF7ADFA0720FEF7B3FA4FF4704072
:1024A000FEF7A6FA5520FEF7ACFA4FF20100FEF750
:1024B0009FFAAA20FEF7A5FA4FF20200FEF798FA5B
:1024C0005220FEF79EFA4FF20300FEF791FA082021
:1024D000FEF797FA4FF20400FEF78AFA0220FEF7A1
:1024E00090FA4CF20130FEF783FAA920FEF789FA40
:1024F0004FF60160FEF77CFA9420FEF782FA4FF463
:102500007640FEF775FA6020FEF77BFA4FF45450E0
:10251000FEF76EFA0020FEF774FA4FF48850FEF7CB
:1025200067FA782002F086FC4FF42450FEF760FA38
:10253000642002F07FFC4FF46850FEF759FA5520F2
:10254000FEF75FFA4FF45850FEF752FAA820FEF754
:1025500058FA0120FEF7F5FB0020FE4908604FF60F
:10256000FF70FEF770FC19B000BD2DE9F04F054675
:102570000E4617469846DDF824A04FF0000B781B56
:10258000401C1FFA80FB344614E021462846FEF723
:1025900078FAFEF75DFA4FF0000907E04FF0D840F7
:1025A000A0F880A009F101001FFA80F9D945F5DBF8
:1025B000601C84B24445E8DDBDE8F08F2DE9F84F9A
:1025C00007460D4690469946DDF828B0A8EB07006F
:1025D000401C1FFA80FAA9EB0500401C80B2009055
:1025E000002414E0281981B23846FEF74AFAFEF7B3
:1025F0002FFA002607E004FB0A603BF81000D649DA
:102600000880701C86B25645F5DB601C84B20098C9
:102610008442E7DBBDE8F88F2DE9FF4F84B08146A7
:102620008A460020039002900698A0EB09050798BF
:10263000A0EB0A06CDF80490CDF800A0002D01DD36
:10264000012705E00DB9002702E04FF0FF376D428A
:10265000002E02DD4FF0010806E016B94FF0000829
:1026600002E04FF0FF387642B54201DD2C4600E033
:1026700034464FF0000B21E0009A91B2019A90B2DB
:10268000FEF724FB039828440390029830440290FC
:102690000398A04205DD0398001B0390019838447D
:1026A00001900298A04205DD0298001B029000985C
:1026B000404400900BF101001FFA80FB601C834531
:1026C000DADD08B0BDE8F08FF0B504460D461646D9
:1026D0001F462B46324629462046FFF79DFF3B46C4
:1026E000224629462046FFF797FF3B4632463946A9
:1026F0002046FFF791FF3B46324629463046FFF71A
:102700008BFFF0BD2DE9F04306460F4690460024AE
:1027100045460320A0EB48093CE07A1B91B23219F0
:1027200090B2FEF7D3FA3A1B91B2721990B2FEF74B
:10273000CDFA3A1991B2721990B2FEF7C7FA7A1926
:1027400091B2321990B2FEF7C1FA7A1991B2321BE6
:1027500090B2FEF7BBFA3A1991B2721B90B2FEF733
:10276000B5FA7A1B91B2321B90B2FEF7AFFA3A1B60
:1027700091B2721B90B2FEF7A9FA641CB9F1000F76
:1027800003DAA000801D814404E0601B80000A3051
:1027900081446D1EAC42C0DDBDE8F0832DE9F84FE9
:1027A0000746884616461C46C3462046E31704EBF8
:1027B0005373DB1021464FEAE47C04EB5C7C4FEA68
:1027C000EC0CA4EBCC0CBCF1000F02D04FF0010CD0
:1027D00001E04FF0000C6344224604EBD27C4FEA48
:1027E0006C0C03FB0CF3DBB20093A6F12000C6B225
:1027F000002556E00C2C07D106EB4600574901EBAB
:10280000800010F8059013E0102C05D1544800EB1F
:10281000061010F805900BE0182C07D106EBC60047
:10282000504901EB800010F8059001E0BDE8F88FF9
:102830004FF0000A2FE009F0800030B14A480288CA
:1028400041463846FEF751FA07E00A9828B947484A
:10285000028841463846FEF748FA4FEA49604FEA97
:10286000106908F101001FFA80F841480088B84259
:1028700000DCDBE7A8EB0B00A04208D1D846781CAF
:1028800087B23B480088B84200DCCFE706E00AF197
:10289000010000F0FF0ABAF1080FCCDB00BF681C92
:1028A000C5B200988542A5DB00BFBFE710B5024660
:1028B000012000E050430B1EA1F10104E1B2F9D167
:1028C00010BD2DE9FF4F81B0074691461E460E9D73
:1028D0004FF0000A002439E0301B401EC1B20A202C
:1028E000FFF7E4FFB9FBF0F00A21B0FBF1F201FBC6
:1028F0001208BAF1000F16D1701EA04213DDB8F114
:10290000000F0ED10020AB4605EBDB71491001FB37
:102910000471009088B22B4620220299FFF73EFFF7
:1029200012E04FF0010A0020AB4605EBDB714910C5
:1029300001FB0471009088B208F13001CAB22B4645
:102940000299FFF72BFF00BF601CC4B2B442C3DB87
:1029500005B00FE0BC8240428000006CB802010864
:102960002C0701081C0D010814000020160000208F
:10297000C8030020BDE8F08F2DE9FF4F82B0064666
:1029800092461F46DDE90F480020019000254DE0EA
:10299000781B401EC1B20A20FFF788FFBAFBF0F097
:1029A0000A21B0FBF1F201FB1209019850BB781E1D
:1029B000A84227DDB9F1000F22D108F0800078B1DC
:1029C00008F00100A34604EBDB71491001FB05612F
:1029D000009088B2234630220399FFF7DFFE0EE015
:1029E00008F00100A34604EBDB71491001FB05610F
:1029F000009088B2234620220399FFF7CFFE13E010
:102A00000120019008F00100A34604EBDB7149109E
:102A100001FB0561009088B209F13001CAB223467A
:102A20000399FFF7BBFE00BF681CC5B2BD42AFDB18
:102A300006B0BDE8F08F2DE9F84704460D469046F4
:102A40009946DDE9096704F0FF0A08EB04001FFA64
:102A500080F809EB05001FFA80F916E0444502DB17
:102A60005446A81985B24D4500DB14E000200090C3
:102A70003A78334629462046FFF790FE304606EB6B
:102A8000D07104EB61018CB27F1C38787E2802DCA7
:102A900038782028E2DA00BFBDE8F8871CB50121AC
:102AA000112003F0FDFA1C20009000208DF8040096
:102AB00003208DF8050001208DF807006946354890
:102AC00003F050F80120009002208DF807006946BD
:102AD000314803F047F81CBD10B5044614B101207D
:102AE0002E4908702D480078002837D01021294839
:102AF00003F09AF878B10821264803F095F850B110
:102B00000421244803F090F828B10121224803F061
:102B10008BF8012822D10A2002F08CF900201F49ED
:102B2000087010211B4803F07FF808B9012010BD80
:102B30000821184803F078F808B90220F7E70421C3
:102B4000144803F071F808B90320F0E70121124896
:102B500003F06AF801281BD10420E8E710210D4892
:102B600003F062F8012813D108210A4803F05CF849
:102B700001280DD10421074803F056F8012807D198
:102B80000121054803F050F810B9012003490870ED
:102B90000020CCE700100240000002401800002096
:102BA00010B5044600BF0221414804F0F5F80028A2
:102BB000F9D021463E4804F0A6F800BF01213C4868
:102BC00004F0EAF80028F9D0394804F099F8C0B2C6
:102BD00010BD00B587B00121084603F061FA01215C
:102BE000080303F0B7FA3820059002208DF818008A
:102BF00000208DF81A0003208DF8190001208DF8AF
:102C00001B0005A92B4802F0ADFF0522032129482E
:102C100003F033F805220421264803F02EF805229C
:102C20001146244803F029F80121080303F0E7FACC
:102C300000214FF4805003F0E2FA0020ADF80000CC
:102C40004FF48270ADF802000020ADF804000220BD
:102C5000ADF806000120ADF808004002ADF80A000A
:102C60003820ADF80C000020ADF80E000720ADF8BC
:102C7000100069460E4803F0CBFE01210C4803F01A
:102C8000C1FFFF20FFF78CFF07B000BD10B5044661
:102C9000074800884FF6C771084005490880084674
:102CA0000088204308800121014803F0ABFF10BDDC
:102CB000003001400004024010B500240020D84933
:102CC00008609020FFF76CFF0020FFF769FF0020ED
:102CD000FFF766FF0020FFF763FFFF20FFF760FFAD
:102CE00044EA0024FF20FFF75BFF04430120CD49A5
:102CF000C1F8B802204610BD1CB50121022003F026
:102D0000CFF90121402003F0CBF94FF4804000902F
:102D100001208DF8040000208DF8060003208DF8B6
:102D2000050001208DF807006946BF4802F01AFF30
:102D3000802000906946BD4802F014FF8021BB4806
:102D400002F08CFF0120B6490860FFF742FF002027
:102D5000FFF79CFFFFF7B0FFB54908801CBD10B519
:102D600000240020AE4908600520FFF719FFFF206E
:102D7000FFF716FF04460120AA49C1F8B802204611
:102D800010BD10B504460020A54908600120FFF7DA
:102D900007FF2046FFF704FF0120A249C1F8B8024F
:102DA00010BD10B500209E4908600620FFF7F8FE10
:102DB00001209C49C1F8B80210BD10B50020984907
:102DC00008600420FFF7ECFE01209649C1F8B80224
:102DD00010BD2DE9F04106460C46174600209049EB
:102DE00008600320FFF7DCFEC4F30740FFF7D8FEBE
:102DF000C4F30720FFF7D4FEE0B2FFF7D1FE0025B1
:102E000005E0FF20FFF7CCFE7055681C85B2BD427F
:102E1000F7DB012082490860BDE8F08110B500BFF2
:102E2000FFF79DFF00F001000028F9D110BD2DE94A
:102E3000F04106460C461746FFF7B3FF00207849DD
:102E400008600220FFF7ACFEC4F30740FFF7A8FEBE
:102E5000C4F30720FFF7A4FEE0B2FFF7A1FE0025B0
:102E600004E0705DFFF79CFE681C85B2BD42F8DB94
:102E700001206B490860FFF7D1FFBDE8F0812DE923
:102E8000F04107460E461446F0B2C0F58075AC42DC
:102E900000DC254612E02A4631463846FFF7C7FFD8
:102EA000AC4200D10BE02F442E44601B84B2B4F539
:102EB000807F02DD4FF4807500E02546EBE700BF20
:102EC000BDE8F08110B5044621465AA00CF010FE72
:102ED0002403FFF766FFFFF7A1FF002050490860B9
:102EE0002020FFF75DFEC4F30740FFF759FEC4F34F
:102EF0000720FFF755FEE0B2FFF752FE01204949D7
:102F0000C1F8B802FFF78AFF10BD2DE9F05F8146D6
:102F10000F461646DFF824B14FEA1738C7F30B0AFD
:102F2000CAF58054A64200DC344644E04FEA08313A
:102F30004FF480525846FFF74CFF002508E00AEB9B
:102F400005001BF80000FF2800D003E0681C85B2D4
:102F5000A542F4DB00BFA54216DA4046FFF7B2FFF8
:102F6000002507E019F8050005EB0A010BF8010040
:102F7000681C85B2A542F5DB4FEA08314FF4805258
:102F80005846FFF77CFF04E0224639464846FFF7E3
:102F900076FFA64200D10FE008F101084FF0000AC9
:102FA000A1442744301B86B2B6F5805F02DD4FF4A2
:102FB000805400E03446B9E700BFBDE8F09F10B58B
:102FC000FFF7EFFEFFF72AFF002015490860C72032
:102FD000FFF7E6FD01201349C1F8B802FFF71EFF15
:102FE00010BD10B500200E490860B920FFF7D8FDCC
:102FF00001200C49C1F8B802032001F0D3FE10BD36
:1030000010B5002006490860AB20FFF7C9FD01207C
:103010000449C1F8B802032001F0C4FE10BD00004D
:10302000B882404200804042000402400018024042
:103030001A00002066653A25780D0A00D6030020A4
:103040000020FE490860091D0860091D0860091D6F
:103050000860FA4924310860091D0860091D0860EC
:10306000F748F649383108600020091D08607047AC
:1030700001460020012900D011B9F24B197000E07F
:10308000262070470146ED4A121D106820F0FF000F
:1030900008431060704770B5044606E0E7483430D6
:1030A000056805F0450000B100E0F7E700BF042027
:1030B00003F012FA20B1042003F019FA032070BDC6
:1030C000012003F009FA20B1012003F010FA0120D9
:1030D000F5E7DA4810300068A04201D01020EEE792
:1030E00040F2FF5003F003FAD4481430006808217E
:1030F0000840C0B2E3E72DE9FC4107460D46002633
:1031000000240020009001900820CF490860102082
:103110004860402088600020C8604FF480600861EB
:10312000084603F046F91020FFF7B5FF044614B136
:103130002046BDE8FC81C54800880004C2490860FB
:1031400037204860402088600020C8604FF48060CD
:103150000861084603F02DF93720FFF79CFF04466D
:103160000CB12046E5E74FF0FF30B9490860082070
:103170004860302088600220C8600020086101207B
:103180004861084603F041F90020AF490860332048
:103190004860402088600020C8604FF4806008616B
:1031A000084603F006F93320FFF775FF04460CB11B
:1031B0002046BEE70DE04FF4001003F08DF940B15A
:1031C0009E48803000684DF82600761C022E00D301
:1031D00007E09A483430006840F22A61084000282D
:1031E000E9D000BF082003F077F920B1082003F0F0
:1031F0007EF904209DE7022003F06EF920B1022041
:1032000003F075F9022094E7202003F065F920B15E
:10321000202003F06CF906208BE74FF4007003F0D8
:103220005BF928B14FF4007003F061F9072080E7E3
:1032300040F2FF5003F05BF900980006009901F49A
:103240007F4140EA0120009901F47F0140EA11200A
:10325000009940EA1160686001980006019901F444
:103260007F4140EA0120019901F47F0140EA1120E9
:10327000019940EA1160286020465AE77CB505466E
:10328000002400200090019000260DB1022600E0ED
:1032900000266A481430006800F0007008B10E2063
:1032A0007CBD6A49098888B26946FFF724FF044655
:1032B0000CB12046F4E7019800F4802060B3634825
:1032C000008800046049086037204860402088601A
:1032D0000020C8604FF480600861084603F069F878
:1032E0003720FFF7D8FE04460CB12046D8E75648F1
:1032F0000660062054494860402088600020C8606D
:103300004FF480600861084603F053F80620FFF789
:10331000C2FE04462046C3E72520C1E770B5044637
:1033200000254C480078032802D12725284670BD87
:103330004848007838B147480078012803D045480C
:103340000078022819D1B4F5805F02D127252846DC
:10335000EDE7E0B2FFF792FF054675B93748001D6B
:10336000006820F4C0503549091D0860084600680F
:10337000204308600846006808602846D7E710B573
:1033800004463148046007202F4948604020886087
:103390000020C8604FF480600861084603F009F817
:1033A0000720FFF778FE10BDF0B50146002000228F
:1033B000284B1B7881F85630244B1B88A1F85430D9
:1033C000254B1B681A0E93090B70C2F383034B70D5
:1033D00002F003038B70204B1B68C3F30742CA70D3
:1033E0001D4B1B88C3F307220A711B4B1A784A71C5
:1033F0005B681A0E1301CB80174B5B68C3F307425F
:10340000CB8843EA1213CB8002F00F030B72124BEE
:103410009B88C3F30722D3094B72C2F380138B72CC
:10342000C2F34013CB72C2F300130B7300234B7330
:10343000084B1B78C3B1074B1B780FE0002C0140F1
:10344000FF07C00024000020F0130020200000200F
:10345000041400201C0000201C140020012B03D0A9
:10346000FE4B1B78032B4FD193071B0D0B61FC4BBD
:103470001A790B6943EA82030B61F94B9B681A0EB8
:103480000B6943EA92130B61C2F3C2030B7502F09E
:1034900007034B75F24B9B68C3F3074253098B75C7
:1034A000C2F38203CB7593075B0F0B76EC4B1B8942
:1034B000C3F307220B7E43EAD2130B760B695B1C26
:1034C0000024C1E912340B7E9B1C012404FA03F38F
:1034D000DC17D1E91256A5FB037C06FB03C305FBF1
:1034E0000433C1E912730C7A0123A3400B65002455
:1034F000D1E912650B6DA6FB037C05FB03C306FB3C
:103500000433C1E912732EE0D44B1B78022B2AD16D
:10351000D34B1A7993069B0A0B61D14B9B681A0E09
:103520000B6943EA02230B61CD4B9B68C3F307424F
:103530000B6913430B61CA4B1B89C3F307220B6949
:103540005B1C4FF40074A3FB04464FF4806300251A
:10355000A4FB037C06FB03C304FB0533C1E9127320
:103560004FF400730B65C2F3801301F8193F930603
:103570005B0E4B70BA4B1A7A4B7843EAD2134B70FE
:1035800002F07F038B70B64BDB681A0ED309CB7049
:10359000C2F341130B71C2F382034B7193071B0FEC
:1035A0008B71AF4BDB68C3F307428B7943EA92130D
:1035B0008B71C2F34013CB7100230B7202F0010335
:1035C0004B72A74B9B89C3F30722D3098B72C2F3BB
:1035D0008013CB72C2F340130B73C2F300134B730F
:1035E000C2F381038B7302F00303CB739C4B1A7BF2
:1035F00053080B7401234B749A4B1B681A0ECA7440
:103600001939984B1B68C3F307421402CC85954BBC
:103610001B88C3F30722CB8D1343CB85914B1A78BC
:1036200014060C635B681A0E0B6B43EA02440C63CE
:103630008C4B5B68C3F307420B6B43EA02240C63B9
:10364000884B9B88C3F307220B6B13430B63854B9B
:103650001A7934235A54834B9B681A0E35235A54D3
:10366000804B9B68C3F3074214068C637D4B1B8918
:10367000C3F307228B6B43EA02448C63794B1A7ABB
:103680008B6B43EA02248C63764BDB681A0E8B6BE0
:1036900013438B63734BDB68C3F307423C235B5CD0
:1036A00043EA12143C235C5413071C0DCC876D4B6A
:1036B0009B89C3F30722CB8F1343CB87694B1A7BBC
:1036C000540840235C54012441235C54F0BD70B580
:1036D00000264FF4803505E06348046804F0450097
:1036E00000B103E0281EA5F10105F5D100BF15B119
:1036F00004F0040028B10326042002F0F8FE30464E
:1037000070BD012002F0E8FE18B10126012002F090
:10371000EEFE40F2FF5002F0EAFE3046F0E72DE9FF
:10372000F04105460E464FF0000805E04E48076898
:1037300007F0450000B100E0F8E700BF042002F008
:10374000CBFE28B1042002F0D2FE0320BDE8F081B8
:10375000012002F0C1FE20B1012002F0C8FE0120CC
:10376000F4E7414824380068A84201D01020EDE772
:1037700040F2FF5002F0BBFE3B482038046804F4DE
:10378000604018B9200C30804046DFE704F4005058
:1037900008B11320DAE704F4804008B11020D5E71F
:1037A00004F4004008B10F20D0E74046CEE738B51A
:1037B00000240120009002F0F6FD10B925242046D7
:1037C00038BD26480078042825D000202749086005
:1037D00002204860C02088600020C8604FF48060EC
:1037E0000861084602F0E5FDFFF771FF04460CB1E1
:1037F0002046E5E71C48203800681A4908601A4846
:103800001C380068486018481838006888601648F6
:1038100014380068C8601148007858B10F48007823
:10382000012807D00D480078062803D00B480078FF
:10383000022821D100200D49086003204860402063
:1038400088600020C8604FF480600861084602F07C
:10385000B0FD69460320FFF762FF09E01C0000206D
:103860001C1400202C140020342C0140F0130020E4
:1038700004460CB12046A3E7FE480078032816D181
:10388000BDF800000004FC490860032048604020A7
:1038900088600020C8604FF480600861084602F02C
:1038A00088FDFFF714FF04460CB1204688E7F14875
:1038B000007804282AD0BDF80000F0490860BDF85F
:1038C00000000004EC49086009204860C0208860BE
:1038D0000020C8604FF480600861084602F069FD6E
:1038E000FFF7F5FE04460CB1204669E7E44800689E
:1038F000E4490860E248001D00684860E04808307C
:1039000000688860DE480C300068C860002057E717
:1039100010B506E0DA482030046804F0450000B134
:1039200000E0F7E700BF042002F0D6FD20B104203C
:1039300002F0DDFD032010BD40F2FF5002F0D7FD84
:103940000020F8E770B500264FF4803506E0CC483B
:103950002030046804F0450000B103E0281EA5F102
:103960000105F4D100BF15B104F0040028B103260D
:10397000042002F0BCFD304670BD04F0400018B1D8
:103980000026402002F0B3FD3046F5E770B5002573
:103990004FF4803404E0802002F09EFD00B103E08B
:1039A000201EA4F10104F6D100BF0CB9032070BDA4
:1039B00040F2FF5002F09BFD2846F8E72DE9F04762
:1039C0000027002400260025A046A1467620AE4907
:1039D00008750020086048608860C8600861084673
:1039E00002F0BDFC032002F0DAFCA54810380068A4
:1039F00040F48070A2491039086000BF12E0002036
:103A00009D49086048608860C8604FF48060086124
:103A1000084602F0CEFCFFF7B9FF044604B903E004
:103A2000781CC7B24A2FEADB00BF14B12046BDE8BC
:103A3000F0874FF4D5709049086008204860402016
:103A400088600020C8604FF480600861084602F07A
:103A5000B0FCFFF777FF044624B9012085490870C0
:103A60004FF080490020844908603720486040209A
:103A700088600020C8604FF480600861084602F04A
:103A800098FC3720FFF707FB0446002C4BD134E0AD
:103A90000020794908603720486040208860002075
:103AA000C8604FF480600861084602F082FC37204D
:103AB000FFF7F1FA04460CB12046B8E7734849EA2B
:103AC00000006D490860292048604020886000207F
:103AD000C8604FF480600861084602F06AFCFFF796
:103AE00017FF04460CB12046A1E76548066801208F
:103AF00080EAD67080F001086D1CB8F1000F03D188
:103B00004FF6FF708542C3D34FF6FF70854202D354
:103B10001B2420468BE706F08040061E32D0022090
:103B2000544908702EE01CE05948534908600120B0
:103B30004860402088600020C8604FF480600861C1
:103B4000084602F036FCFFF7E3FE04460CB12046BF
:103B50006DE74B480668012080EAD67080F00108C6
:103B60006D1CB8F1000F03D14FF6FF708542DBD317
:103B70004FF6FF70854202D31B24204657E70320EF
:103B80003C490870204652E73EB5002401214148D7
:103B900002F086FA0121C80202F0DCFA0121C80213
:103BA00002F02DFB4FF4F850019002208DF8080030
:103BB00003208DF8090000208DF80A0001208DF8FF
:103BC0000B0001A9344801F0CDFF0420019001A9A8
:103BD000324801F0C7FF0C2208212F4802F04DF8AF
:103BE0000C2209212C4802F048F80C220A212A480C
:103BF00002F043F80C220B21274802F03EF80C2279
:103C00001146254802F039F80C220221234802F01F
:103C100034F800214FF4006002F0F1FAFFF710FAD7
:103C200031208DF8000000208DF801008DF8020091
:103C300001208DF80300684601F0EBF9FFF7BEFEA6
:103C4000044614B9FFF7B3FD04461CB91448FFF746
:103C5000ABFB044634B91249B1F854100804FFF71D
:103C60008EFB044624B94FF40060FFF757FB04466F
:103C7000E4B117E01C000020F01300202000002019
:103C8000142C01401C140020D813002000001080C8
:103C90000080FF800C00400000080240000C024041
:103CA00040140020FE480078032806D10020FFF7CA
:103CB000E9F90020FFF7DCF9044620463EBD10B5C7
:103CC000002002F06CFB002010BD70B590B00446DF
:103CD0000E46154600BFF34801F02FFB0028FAD12D
:103CE000F04801F001FA4FF000600190EE480290B8
:103CF000039404950020059006904FF4806007908F
:103D0000800008908000099000200A904FF4403015
:103D10000B9004200C9003200D904FF400000E90A7
:103D200080100F9001A9DF4801F080FA2021DD48C2
:103D300001F0CCFA0121DB4801F0B2FA10B070BDFD
:103D40000146002002E04910421CD0B20129FAD1FC
:103D500070472DE9F84F8146174698460A9C4FF068
:103D6000000AD3464D464FF0FF36B9F1000F02D19D
:103D70002620BDE8F88F0020CB4954390860C84898
:103D80000078022805D10402780A40EAC8574FEAB1
:103D900068280020C54988604860401E08600120EE
:103DA00048610020C8600861084602F02EFBBE484A
:103DB0006C38006800F0007008B10E20D9E7002CC4
:103DC00021DDB4F5006F1EDC601E2040D8B920460E
:103DD000FFF7B6FF0090B64804601020B449486071
:103DE000402088600020C8604FF480600861084669
:103DF00002F0DFFA1020FFF74EF98246BAF1000F09
:103E000003D05046B5E72620B3E700980001A74944
:103E10008860084644604FF0FF3008600120486128
:103E20000220C86000200861084602F0EEFAA048AF
:103E3000076011209E494860402088600020C860CB
:103E40004FF480600861084602F0B3FA1120FFF7D2
:103E500022F98246BAF1000F01D0504689E7954811
:103E6000007800285AD1FCF710FA17E04FF4004010
:103E700002F032FB70B14FF0000B05E08A48006899
:103E800045F82B000BF1010BBBF1080FF6D32035E1
:103E9000894E03E00EB904206BE7761E82484C3849
:103EA000006840F22A6108400028DFD0082002F0B4
:103EB00013FB20B1082002F01AFB042059E702206E
:103EC00002F00AFB20B1022002F011FB022050E7B1
:103ED000202002F001FB20B1202002F008FB062088
:103EE00047E74FF4007002F0F7FA28B14FF4007082
:103EF00002F0FDFA07203CE703E06B480068286009
:103F00002D1D4FF4001002F0E7FA0028F5D1FCF760
:103F1000BEF940F2FF5002F0EAFA39E06548007855
:103F2000012835D100206549087065490870654948
:103F300008705D484438006840F22A3108435A4905
:103F40004439086058485438006840F00800564921
:103F500054390860002221464846FFF7B6FE00E0CB
:103F6000761E50485838006800F0006038B955484F
:103F7000007820B95148007808B9002EF0D10EB968
:103F80000420F6E64D48007810B14C4890F800A0A7
:103F90005046EEE62DE9FF5F17469846DDE90E46EE
:103FA0004FF00009CA464FF0FF35474900980860B6
:103FB00000203D495439086039480078022805D16D
:103FC0000402780A40EAC8574FEA682800203749B7
:103FD00088604860401E0860012048610020C86079
:103FE0000861084602F011FA2F486C38006800F0AA
:103FF000007018B10E2004B0BDE8F09F002C21DD48
:10400000B4F5006F1EDC601E2040D8B92046FFF7D3
:1040100097FE8346264804601020254948604020CA
:1040200088600020C8604FF480600861084602F094
:10403000C0F91020FFF72FF88146B9F1000F03D027
:104040004846D8E72620D6E7012E7DD906FB04F0A6
:10405000B0F1007F01D32620CDE74FEA0B101349C2
:10406000886006FB04F048604FF0FF3008600120D4
:1040700048610220C86000200861084602F0C5F9C6
:104080000B48076012200A494860402088600020E1
:10409000C8604FF480600861084602F08AF915E0B4
:1040A0001C00002058640240802C014004140020B1
:1040B000F013002024000020FFFF7F0026000020D6
:1040C0002500002027000020280000201220FEF7F5
:1040D000E2FF8146B9F1000F01D048468BE7FE4868
:1040E000007800287ED1FCF7D0F81DE04FF40040A6
:1040F00002F0F2F9A0B14FF0000A07E0F7480068BB
:10410000F749096841F82A000AF1010ABAF1080FD3
:10411000F4D3F34800682030F1490860F14D03E022
:104120000DB9042067E76D1EEC484C38006840F27A
:104130002A3108400028D9D0082002F0CDF930B14A
:10414000082002F0D4F900E09EE0042053E70220AA
:1041500002F0C2F920B1022002F0C9F902204AE7B8
:10416000202002F0B9F920B1202002F0C0F9062089
:1041700041E74FF4007002F0AFF928B14FF400703E
:1041800002F0B5F9072036E709E0D4480068D449C1
:1041900009680860D2480068001DD14908604FF4E2
:1041A000001002F099F90028EFD14FF4807002F06E
:1041B00093F920B3CC48007838B1CB480078012877
:1041C00003D0C9480078022819D10020C7490860E7
:1041D0000C204860402088600020C8604FF4806058
:1041E000086100E012E0084602F0E3F80C20FEF758
:1041F00052FF8146B9F1000F01D04846FBE6FCF7BB
:1042000046F840F2FF5002F072F93DE0B248007803
:10421000012839D10020B64908700120B54908703D
:104220000020B5490870AD484438006840F22A3192
:104230000843AA4944390860A8485438006840F047
:104240000800A6495439086006FB04F100220098D2
:10425000FFF73BFD00E06D1EA848006800F000601D
:1042600008B9002DF7D10DB90420C4E600BFA2485B
:10427000007818B99E4800780028F8D09C4800784B
:1042800010B19B4890F800904846B4E61CB504462F
:104290000020019000909A4800880004934908602B
:1042A0000D204860402088600020C8604FF4806086
:1042B0000861084602F07DF888484C380068009094
:1042C00003E086484C3800680090009800F04500F4
:1042D0000028F6D0012002F0FFF820B1012002F002
:1042E00006F901201CBD042002F0F6F820B10420DC
:1042F00002F0FDF80320F5E77848703800680D28D3
:1043000001D01020EEE740F2FF5002F0F0F87348C1
:104310006C38006801900198C0F3432020700020A1
:10432000E0E72DE9FF5F86B017469846149D00260A
:10433000002005900490002481460390824602905C
:104340000195DDF818B0DDF818B0BBF1000F03D10E
:1043500026200AB0BDE8F09F00206049543908606B
:10436000684988604860401E08600120486100205C
:10437000C8600861084602F048F858486C38006880
:1043800000F0007008B10E20E3E7574800780228DB
:1043900005D10502780A40EAC8574FEA6828002D7F
:1043A0001FDDB5F5006F1CDC681E2840C8B9284623
:1043B000FFF7C6FC05904D48056010204B4948604A
:1043C000402088600020C8604FF480600861084683
:1043D00001F0EFFF1020FEF75EFE06461EB13046EC
:1043E000B7E72620B5E74648008800043F49086043
:1043F0000D204860402088600020C8604FF4806035
:104400000861084601F0D5FF0D20FEF744FE064680
:104410000EB130469DE731486C38006803904FF08C
:10442000FF341CE0641E3648008800042F490860F1
:104430000D204860402088600020C8604FF48060F4
:104440000861084601F0B5FF0D20FEF724FE064680
:104450000EB130467DE721486C3800680390039820
:1044600000F4807008B9002CDCD10CB9292070E769
:104470001E48076018201D494860402088600020C1
:10448000C8604FF480600861084601F092FF182070
:10449000FEF701FE06460EB130465AE700201549E8
:1044A00008700598000117498860084645604FF07C
:1044B000FF300860012048610020C860086108469C
:1044C00001F0A3FF4FF0FF3403480078002870D1BB
:1044D000FBF7DBFE5CE0000024000020802C0140A4
:1044E00028000020FFFF7F001C000020F0130020A8
:1044F0002600002025000020270000200064024044
:1045000020000020041400204FF4804001F0E4FF5C
:10451000C8B30198A0EB0900202821D20198A0EB94
:10452000090000F0030020B90198A0EB0900800801
:1045300004E00198A0EB09008008401C02904FF0B5
:10454000000A09E0F849DBF8000008600AF1010AF6
:104550000BF1040B09F1040902988245F2D30FE034
:104560004FF0000A05E05BF82A00EF4908600AF105
:10457000010ABAF1080FF6D30BF1200B09F120095B
:104580006FF0404404E0FFE70CB90420E1E6641E4C
:10459000E5484C38006840F21A6108400028B3D062
:1045A000082001F099FF28B1082001F0A0FF0420A5
:1045B000CFE623E0022001F08FFF20B1022001F0BE
:1045C00096FF0220C5E6102001F086FF20B11020E2
:1045D00001F08DFF0520BCE64FF4007001F07CFF78
:1045E00028B14FF4007001F082FF0720B1E6FBF71D
:1045F0004EFE40F2FF5001F07AFF43E0CB480078D6
:1046000001283FD10020CA490870CA490870CA4928
:104610000870C5484438006840F21A310843C2495E
:1046200044390860402229460698FFF74EFBBE48F1
:104630005438006840F00800BB495439086000E075
:10464000641EBE48006800F0006008B9002CF7D175
:104650001CB9FFF799FA04207BE64FF0FF3400E025
:10466000641EB548007820B9B148007808B9002C1C
:10467000F6D10CB904206CE6AD48007810B1AC4816
:10468000007866E640F2FF5001F031FF04A8FFF722
:10469000FDFD064603E004A8FFF7F8FD06463EB917
:1046A0009DF810000728F6D09DF810000628F2D0DB
:1046B00030464EE62DE9FF5F84B0DDE91247002663
:1046C000002003900290002580468146019007FB60
:1046D00004FBDDF810A0DDF810A0BAF1000F03D143
:1046E000262008B0BDE8F09F00208F4954390860AB
:1046F000934988604860401E08600120486100209E
:10470000C8600861084601F080FE87486C38006880
:1047100000F0007008B10E20E3E78A480078022814
:1047200008D10402DDE90601400A40EAC1504912FD
:10473000CDE90601002C1FDDB4F5006F1CDC601E06
:104740002040C8B92046FFF7FBFA03907E4804607A
:1047500010207D494860402088600020C8604FF4E8
:1047600080600861084601F024FE1020FEF793FCEB
:1047700006461EB13046B4E72620B2E7012F6FD9B6
:1047800007FB04F0B0F1007F01D32620A9E76D48B4
:10479000007838B16B480078012803D06948007868
:1047A00002282DD169480088000467490860372035
:1047B0004860402088600020C8604FF48060086135
:1047C000084601F0F6FD3720FEF765FC06460EB1FF
:1047D000304686E75C48076017205B494860402008
:1047E00088600020C8604FF480600861084601F0CE
:1047F000E0FD1720FEF74FFC06460EB1304670E78D
:1048000051490698086019204860402088600020BF
:10481000C8604FF480600861084601F0CAFD1920A5
:10482000FEF739FC06460EB130465AE70398000100
:104830004349886007FB04F048604FF0FF30086090
:10484000012048610020C8600861084601F0DDFDD4
:104850003648007800287BD1451EFBF716FD40E066
:10486000F6E04FF4804001F037FEA8B3ABEB080050
:1048700020281ED2ABEB080000F0030018B9ABEB08
:104880000800800803E0ABEB08008008401C0190A2
:104890004FF0000909E02449DAF80000086009F146
:1048A00001090AF1040A08F1040801988145F2D3CC
:1048B0000FE04FF0000905E05AF829001A49086096
:1048C00009F10109B9F1080FF6D30AF1200A08F13C
:1048D00020086FF0404504E0FFE70DB9042000E731
:1048E0006D1E11484C38006840F21A31084000280B
:1048F000B7D0082001F0F0FD20B1082001F0F7FD4D
:104900000420EEE6022001F0E7FD20B1022001F0D4
:10491000EEFD0220E5E6102001F0DEFDC8B110201A
:1049200001F0E5FD0520DCE6802C0140240000209C
:1049300026000020250000202700002000640240FF
:10494000041400201C000020F01300202000002090
:1049500037E04FF4007001F0BFFD28B14FF4007054
:1049600001F0C5FD0720BCE64FF4807001F0B4FDF6
:1049700000B3F548007838B1F3480078012803D037
:10498000F1480078022815D10020F04908600C2079
:104990004860402088600020C8604FF48060086153
:1049A000084601F006FD0C20FEF775FB06460EB129
:1049B000304696E6FBF76BFC40F2FF5001F097FDA6
:1049C00046E0E3480078012842D10020E149087020
:1049D0000120E14908700020E0490870E0480068C3
:1049E00040F21A310843DE49086007FB04F1402217
:1049F0000498FFF76AF9DA481038006840F00800B8
:104A0000D749103908604FF0FF3500E06D1ED548DA
:104A1000006800F0006008B9002DF7D11DB9FFF75C
:104A2000B3F804205DE64FF0FF3500E06D1ECB4883
:104A3000007820B9C748007808B9002DF6D10DB923
:104A400004204EE6C348007810B1C248007848E61A
:104A500040F2FF5001F04BFD02A8FFF717FC06469D
:104A600003E002A8FFF712FC06463EB99DF80800D5
:104A70000728F6D09DF808000628F2D0304630E628
:104A800010B54FF4807001F027FD80B3B248007874
:104A9000012814D10020AD4908600C204860402056
:104AA00088600020C8604FF480600861084601F00B
:104AB00080FC0C20FEF7EFFAA649087002E0002007
:104AC000A4490870A648001F006840F48070A449FB
:104AD000091F0860081D00684CF23A318843A0495C
:104AE000086001209D4908709A48007810BDFFE7D2
:104AF000022001F0F1FC68B1022001F0F8FC9848B6
:104B000000684CF23A318843954908600220914987
:104B10000870EBE7082001F0DFFC68B1082001F025
:104B2000E6FC8F4800684CF23A3188438C490860B3
:104B3000042088490870D9E7202001F0CDFC68B135
:104B4000202001F0D4FC864800684CF23A318843BA
:104B50008349086006207F490870C7E7102001F0EC
:104B6000BBFC68B1102001F0C2FC7D4800684CF22B
:104B70003A3188437A490860052076490870B5E7DC
:104B80004FF4007001F0A8FC70B14FF4007001F018
:104B9000AEFC734800684CF23A31884370490860B3
:104BA00007206C490870A1E700209FE710B5FFF7C8
:104BB00067FF10BD70B50446002514B926252846A8
:104BC00070BD694800880004604908600D20486095
:104BD000402088600020C8604FF48060086108466B
:104BE00001F0E7FB0D20FEF756FA05460DB1284609
:104BF000E6E75B482838006820602846E0E708B50B
:104C0000002000906846FFF7D5FF08B1FF2008BDDF
:104C10000098C0F34320FAE72DE9FE4F83460E4685
:104C2000914600200290002534464748007818B18C
:104C3000680240EAD45564020BF00300F0B14FF073
:104C4000000A18E04FF4007000904FEA4A2007195C
:104C500045EBE0733A464548FFF77BF802904FF486
:104C60000072424958460BF01AF90BF5007B0AF125
:104C7000010000F0FF0ACA45E4DB16E0B9F1010FBC
:104C800009D14FF4007022462B4600905846FFF79A
:104C900060F8029009E04FF4007022462B46CDE9FF
:104CA00000095846FFF776F902900298BDE8FE8F9A
:104CB0002DE9FE4F064689469246002002900025C7
:104CC0004C462148007818B1680240EAD455640285
:104CD00006F00300F0B14FF0000B18E04FF4007243
:104CE000314622480BF0DBF84FF4007000904FEA99
:104CF0004B20071945EBE0733A461C48FFF711FBC0
:104D0000029006F500760BF1010000F0FF0BD34591
:104D1000E4DB16E0BAF1010F09D14FF4007022462E
:104D20002B4600903046FFF7FCFA029009E04FF462
:104D3000007022462B46CDE9000A3046FFF7BAFC48
:104D400002900298BDE8FE8F1C000020F0130020A6
:104D5000240000202600002025000020270000203D
:104D60003C2C0140006402402000002098140020E8
:104D700010B504466FF0040000F098F9E11704EB59
:104D80005171C1F3C701394A11701046007800EB28
:104D90004001C1EBC0104FF6FF7101EAC000344979
:104DA000088010BD0146314A12784A434FF0E02393
:104DB0005A6100229A611A46126942F001021A6190
:104DC00000BF4FF0E022106900F001021AB100F4B8
:104DD0008032002AF5D04FF0E022126922F0010261
:104DE0004FF0E0231A6100229A6170470146204A81
:104DF00012884A434FF0E0235A6100229A611A4612
:104E0000126942F001021A6100BF4FF0E0221069FE
:104E100000F001021AB100F48032002AF5D04FF000
:104E2000E022126922F001024FF0E0231A61002211
:104E30009A61704770B504464FF4077094FBF0F028
:104E4000C6B24FF4077094FBF0F100FB114085B23D
:104E500005E04FF40770FFF7C9FF701EC6B2002EC1
:104E6000F7D115B12846FFF7C1FF70BD2C00002017
:104E70002E000020014600BF704700BF4E4A128836
:104E800002F04002002AF9D0C2B24B4B9A80704720
:104E900010B588B004460121084601F001F901214E
:104EA000102001F057F907220921444800F0E5FEDF
:104EB00007220A21414800F0E0FE4FF4C06006904E
:104EC00002208DF81C008DF81D0000208DF81E00BA
:104ED00001208DF81F0006A9384800F043FE029417
:104EE0000020ADF80C00ADF80E00ADF81000ADF8E4
:104EF00014000C20ADF8120002A92F4801F079FB34
:104F000001212D4801F0FDFB40212B4801F0E1FC7F
:104F1000012240F22551284801F0A9FC25208DF8F6
:104F2000040003208DF805008DF8060001208DF89F
:104F3000070001A800F06DF808B010BD10B540F2F0
:104F400025511D4801F0CEFC10B31B4801F008FCB0
:104F5000C4B21B48008800F40040C8B91848008853
:104F600000F4804060B10A2C03D00020144908806E
:104F700020E01348008840F400401149088019E0FF
:104F80000D2C06D10E48008840F480400C49088062
:104F900010E00B480088C0F30D000A490C54084883
:104FA0000088401C0649088008460088C72801DDA3
:104FB0000020088010BD00000010014000000240E9
:104FC000340000209816002009488047094800470F
:104FD000FEE7FEE7FEE7FEE7FEE7FEE7FEE7FEE7A9
:104FE000FEE7FEE704480549054A064B7047000006
:104FF0007D0800088901000868C1012068C70120F8
:1050000068C3012068C3012032490143324A11605C
:10501000704770B5002100230F22C4781CB32E4CBA
:10502000246804F4E064C4F5E064C4F30721C1F12A
:105030000404E3B20A4144789C40E1B2847814400D
:1050400021430C07210E254C05786155047804F0A6
:105050001F050124AC4005786D11AD0005F1E02578
:10506000C5F8004109E0047804F01F050124AC40B4
:105070001B4D0678761145F8264070BD194A0A4046
:105080000243154B1B1F1A60704739B1124A121D9B
:1050900012680243104B1B1D1A6006E00E4A121DD7
:1050A000126882430C4B1B1D1A607047042808D1FC
:1050B0004FF0E021096941F004014FF0E022116155
:1050C00007E04FF0E021096921F004014FF0E022F0
:1050D000116170470000FA050CED00E000E400E00B
:1050E00080E100E080FFFF1F016821F00101016005
:1050F0000021016041608160C16001612121416145
:10510000DB49884204D13D21D94A103A91608CE0B4
:10511000D7491831884205D14FF47461D44A103A06
:10512000916082E0D2493031884205D14FF4741148
:10513000CF4A103A916078E0CD494831884205D194
:105140004FF07461CA4A103A91606EE0C84960310C
:10515000884204D1C749C64A103AD16065E0C449C3
:105160007831884204D1C449C14A103AD1605CE028
:10517000BF499031884204D1C049BD4A103AD1603C
:1051800053E0BB49A831884205D14FF03D51B84AA0
:10519000103AD16049E0BA49884204D13D21B84A69
:1051A000083A116041E0B6491831884205D14FF400
:1051B0007461B34A083A116037E0B149303188422E
:1051C00005D14FF47411AE4A083A11602DE0AC4994
:1051D0004831884205D14FF07461A94A083A1160FC
:1051E00023E0A7496031884204D1A249A44A121F92
:1051F00011601AE0A2497831884204D19E49A04A40
:10520000121F116011E09E499031884204D19B49E0
:105210009B4A121F116008E09949A831884204D1C5
:105220004FF03D51964A121F1160704710B5002291
:105230000268944B1A40CC680B6823434C692343A3
:105240008C692343CC6923430C6A23434C6A234370
:105250008C6A23434C6B23438C6B23431A430260B9
:10526000426922F00702D1E90B3423431A43426119
:105270000B6943604B6883608B68C36010BD00217D
:10528000016041608160C160016141618161C16112
:10529000016241628162C16201634163816370475F
:1052A00021B1026842F00102026003E0026822F0CC
:1052B00001020260704721B1026842F400420260BC
:1052C00003E0026822F400420260704721B10268E4
:1052D00042F02002026003E0026822F02002026035
:1052E0007047416070470146486880B2704722B1FC
:1052F000036843F40023036003E0036823F40023FE
:1053000003600161704721B1026842F480220260AB
:1053100003E0026822F48022026070470AB1016152
:1053200000E0C1607047014600200A6802F40022D4
:105330000AB1012000E000207047014600200A6801
:1053400002F001020AB1012000E00020704701468E
:1053500000204A6902F03800704730B503460A461B
:1053600000200024464DAB4202D24149103901E0F1
:105370004349103902F000550DB14C6800E00C684B
:10538000414D2C4004EA02050DB1012000E000204F
:1053900030BD02463A4B9A4202D23548103801E0FD
:1053A0003748103801F000531BB1374B0B40C36036
:1053B00002E0354B0B408360704710B501F080036D
:1053C0004BB122B1436943F08003436103E0436979
:1053D00023F08003436180290BD02AB1036801F0D8
:1053E0001E042343036004E0036801F01E04A3438A
:1053F000036010BD70B50246002000240025204E39
:10540000B24202D21A4B103B01E01D4B103B1F4E23
:105410000E4036B11E2606EAD124166806EA0405B7
:1054200002E0566906F0800501F000560EB15C6896
:1054300000E01C68144E344004EA010616B10DB1B8
:10544000012000E0002070BD02460D4B9A4202D2BE
:105450000748103801E00A48103801F000531BB12A
:10546000094B0B40C36002E0074B0B408360704761
:10547000106002403D000020400F002000003D2051
:10548000106402403F801CF07D0F7D0F3C0F3C0FED
:1054900030B943F2DB028100A1F1C0410A6005E0AE
:1054A00043F2D2028100A1F1C0410A606FF0704264
:1054B000411C8900A1F1C0410A608100A1F1C041F5
:1054C000C1F804217047D0E901121143C2681143A9
:1054D000026911434269114382691143C269114350
:1054E000026A1143426A1143826A1143C26A11433C
:1054F000026B114302689200A2F1C0421160816800
:1055000008290BD101688900A1F1C041096841F067
:10551000400201688900A1F1C0410A60416B09683D
:10552000426B526841EA0211426B926841EA0221E1
:10553000426B928941EA0241426B128A41EA02516E
:10554000426B127D41EA0261426B9269114302682B
:10555000521C9200A2F1C0421160C16AB1F5804FA5
:105560001BD1816B0968826B526841EA0211826B20
:10557000926841EA0221826B128A41EA0251826BEF
:10558000127D41EA0261826B9269114302689200C6
:10559000A2F1C042C2F8041107E06FF07042016846
:1055A0008900A1F1C041C1F80421704700210160C8
:1055B0000221416000218160C1600161416181611E
:1055C000C16101624FF48051416249008162002152
:1055D000C1620163F84941638163704751B1820040
:1055E000A2F1C042126842F001038200A2F1C0425F
:1055F000136009E08200A2F1C0421268EF4B1A402A
:105600008300A3F1C0431A60704710280AD1182103
:105610004FF020421166402151664FF0FC319166F7
:10562000D16610E01821E64A116040214FF0204277
:10563000C2F884104FF0FC31E14A083211604FF09B
:105640002042C2F88C10704730B5002100220023A0
:10565000446844F0080485682C43C5682C430569F8
:105660002C43456944EA4524856944EA4531C469C7
:105670002468C5696D6844EA0524C5692D8944EA32
:105680000544C5692D7B44EA0562046A2468056AFD
:105690006D6844EA0524056A2D8944EA0544056AD3
:1056A0002D7B44EA05630468102C05D14FF020449B
:1056B0002166A266E36608E0C14C21604FF02044F9
:1056C000C4F88820BE4C0C34236030BD102101602A
:1056D000002141608160C160016141618161FC2103
:1056E000C2691160C2695160C2699160C269D160CA
:1056F000026A1160026A5160026A9160026AD160B6
:10570000704799B1102808D14FF02042126E42F034
:1057100004024FF020431A661DE0A94A126842F0C5
:1057200004024FF02043C3F8802014E0102809D170
:105730004FF02042126EA14BDB1E1A404FF0204367
:105740001A6608E09E4A12689C4BDB1E1A404FF016
:105750002043C3F88020704799B1102808D14FF03A
:105760002042126E42F040024FF020431A661DE0C4
:10577000934A126842F040024FF02043C3F8802061
:1057800014E0102809D14FF02042126E8B4B3F3BA2
:105790001A404FF020431A6608E0894A1268874B86
:1057A0003F3B1A404FF02043C3F88020704701462A
:1057B0000020102903D14FF02042506F02E0804AB0
:1057C00014321068704718207D492031086000208D
:1057D0000906C1F8A4004FF0FC307949283108606F
:1057E000091D0860091D08607047016841F010013B
:1057F000426841EA4221826841EA4231704A2032DD
:105800001160C1680968C268526841EA0221C26831
:10581000128941EA0241C268127B41EA0261684A88
:1058200028321160016909680269526841EA02215F
:105830000269128941EA02410269127B41EA02616E
:105840005F4A2C321160416909684269526841EA35
:1058500002214269128941EA02414269127B41EA0E
:1058600002614FF02042C2F8B01070470021016081
:1058700041608160FC21C2681160C2685160C268E9
:105880009160C268D1600269116002695160026969
:1058900091600269D1604269116042695160426958
:1058A00091604269D160704748B14549203109682B
:1058B00041F004014FF02042C2F8A01009E0404935
:1058C000203109683D4AD21E11404FF02042C2F8F3
:1058D000A010704710B5F2B1102807D14FF0204347
:1058E0005B6E0B434FF02044636632E0B0F5807F7F
:1058F00008D1334B1B1D1B680B434FF02044C4F8E9
:10590000843026E02E4B24331B680B434FF0204499
:10591000C4F8A4301DE0102807D14FF020435B6E7F
:105920008B434FF02044636613E0B0F5807F08D1CD
:10593000234B1B1D1B688B434FF02044C4F884305D
:1059400007E01F4B24331B688B434FF02044C4F8FF
:10595000A43010BD10B5024600200023102A03D148
:105960004FF02044636E09E0B2F5807F03D1144C00
:10597000241D236802E0124C2434236803EA010446
:105980000CB1012000E0002010BD102807D14FF01D
:105990002042526E8A434FF020435A6619E0B0F518
:1059A000807F0FD1064A121D12688A434FF02043B0
:1059B000C3F884200DE00000781A0108FEFF0F00F4
:1059C000800000A0234A12688A434FF02043C3F8A6
:1059D000A420704770B50246002000230024002553
:1059E000102A03D14FF02046736E08E0B2F5807F95
:1059F00003D1184E203E336801E0164E336803EAA7
:105A0000010403EAD10514B10DB1012000E000202A
:105A100070BD102808D14FF02042526E22EAD10208
:105A20004FF020435A6614E0B0F5807F09D1094A4F
:105A3000203A126822EAD1024FF02043C3F88420B2
:105A400007E0044A126822EAD1024FF02043C3F86B
:105A5000A4207047A40000A010B5044698488442D2
:105A600008D10121084600F086FB0021012000F04A
:105A700082FB76E09348844208D10121022000F0A5
:105A80007AFB0021022000F076FB6AE08E48844217
:105A900008D10121042000F06EFB0021042000F059
:105AA0006AFB5EE08948844208D10121082000F0A9
:105AB00062FB0021082000F05EFB52E08448844233
:105AC00008D10121102000F056FB0021102000F029
:105AD00052FB46E07F48844208D10121202000F09B
