:020000040800F2
:1000000000FD0120ED4F0008AD030008AF0300081C
:10001000B3030008B7030008BB030008000000009A
:10002000000000000000000000000000BF03000806
:10003000C103000800000000D1B50008C17A000823
:100040000750000807500008075000080750000834
:100050000750000807500008075000080750000824
:100060000750000807500008075000080750000814
:100070000750000807500008075000080750000804
:1000800007500008075000080750000807500008F4
:1000900007500008075000080750000807500008E4
:1000A00007500008075000080750000807500008D4
:1000B00007500008110900087D09000807500008D2
:1000C00007500008075000080750000807500008B4
:1000D00007500008917C00080750000807500008EE
:1000E0000750000807500008075000080750000894
:1000F0000750000807500008075000080750000884
:10010000075000083D290008075000080750000864
:100110000750000807500008075000080750000863
:100120000750000807500008075000080750000853
:100130000750000807500008075000080750000843
:100140000750000807500008075000080750000833
:100150000750000807500008075000080750000823
:100160000750000807500008075000080750000813
:100170000750000807500008075000080750000803
:10018000075000080750000800F002F800F061F87E
:100190000AA090E8000C82448344AAF10107DA45E2
:1001A00001D100F056F8AFF2090EBAE80F0013F0D3
:1001B000010F18BFFB1A43F00103184790A6010076
:1001C000B0A601000A444FF0000C10F8013B13F0F8
:1001D000070408BF10F8014B1D1108BF10F8015BA0
:1001E000641E05D010F8016B641E01F8016BF9D193
:1001F00013F0080F1EBF10F8014BAD1C0C1B09D1EA
:100200006D1E58BF01F801CBFAD505E014F8016B5B
:1002100001F8016B6D1EF9D59142D6D370470000ED
:100220000023002400250026103A28BF78C1FBD8FF
:10023000520728BF30C148BF0B60704778290EF0C5
:100240009F86002070471FB515F052FB1FBD10B5EB
:1002500010BD0FF09BF91146FFF7F5FF00F05CF8B9
:100260000FF0B9F903B4FFF7F2FF03BC07F0ACFCE1
:1002700040BA7047C0BA704730BF72B6704762B6B6
:10028000704780F3088870470EE04048006808B95E
:10029000012000E000203D4908604FF4FA7300227D
:1002A000114610460AF0E4FFEFE707E010F018FEF1
:1002B00005230022114610460AF0DAFFF6E701E0B6
:1002C0000EF064FDFCE770B505460121080305F05A
:1002D00025FD10F0CDF808F02FFF0BF051F9044682
:1002E00004232B4A0021AFF229000AF047FC022325
:1002F000284A0021AFF24D000AF040FC0323264AB1
:100300000021AFF27B000AF039FCFF200AF0B6FEB4
:1003100020460BF039F970BD10B5A82007F0D8FBC6
:100320004FF4A06004F082FE4FF4E13007F05AFC75
:1003300003F046F800F011FD02F062FC00F04AF90B
:1003400000F068F9002007F004FD012007F001FD2E
:10035000022007F0FEFC0BF077F910490122086833
:100360000FA10CF075FE0D49012248680DA10CF09B
:100370006FFE08F0A4FD00230B4A1946AFF2B90046
:100380000AF0FCFB08F0C0FE002010BDA48242422F
:100390008428002084070020840800201002002008
:1003A000303A0000313A000084050020704700BF59
:1003B000FEE700BFFEE700BFFEE700BFFEE77047B5
:1003C000704700000CB5002001900090764800684E
:1003D00040F480307449086000BF7348006800F43E
:1003E000003000900198401C0190009818B90198C5
:1003F000B0F5A04FF1D16C48006800F4003010B1A6
:100400000120009001E0002000900098012846D1D2
:1004100065484030006840F08050634940310860D2
:100420006248006840F44040604908605E48083017
:1004300000685D49083108600846006840F40040E3
:1004400008600846006840F4A05008605848091F3A
:100450000860081F006840F08070091F086000BF36
:100460005148006800F000700028F9D040F2057093
:10047000504908604C480830006820F003004A49A1
:10048000083108600846006840F00200086000BFBC
:1004900045480830006800F00C000828F8D10CBD71
:1004A00010B54548006840F47000434908603E4874
:1004B000006840F001003C49086000203A490831DA
:1004C0000860394800683D490840374908603C48A1
:1004D000091D0860081F006820F48020091F0860BB
:1004E000002031490C310860FFF76CFF4FF00060CD
:1004F00031498039086010BD70B500200022022308
:1005000000240221284D08352D6805F00C0020B18B
:10051000042806D0082834D107E02A4D2A4E356039
:1005200033E02A4D284E35602FE01F4D2D1D2D68DC
:10053000C5F380541C4D2D1D2D6805F03F0154B1AD
:10054000224DB5FBF1F5184E361D3668C6F38816F8
:1005500005FB06F209E01B4DB5FBF1F5124E361D09
:100560003668C6F3881605FB06F20F4D2D1D2D6863
:10057000C5F301456D1C6B00B2FBF3F5124E3560FF
:1005800003E0104D104E356000BF00BF064D08352A
:100590002D68C5F303150E4E705D0B4D2D68C540DB
:1005A000094E356070BD0000003802400070004008
:1005B00008544007003C024088ED00E0FFFFF6FED3
:1005C000103000240024F4000000002000127A0003
:1005D000040000201CB50121202005F09FFB4FF4F2
:1005E000C060009001208DF8040000208DF8060006
:1005F0008DF8070003208DF805006946044805F0D2
:10060000EFF84FF4C061024805F066F91CBD000028
:100610000014024000B599B00121782005F07EFB5E
:100620004FF63370179002208DF8600003208DF88C
:10063000610000208DF8620001208DF8630017A989
:10064000994805F0CDF84FF68370179017A9974891
:1006500005F0C6F84FF23F00179017A9944805F02F
:10066000BFF840F23F40179017A9924805F0B8F83C
:100670000C2200218C4805F03EF90C2201218A4809
:1006800005F039F90C220421874805F034F90C22D1
:100690000521854805F02FF90C220821824805F034
:1006A0002AF90C220921804805F025F90C220A219B
:1006B0007D4805F020F90C220B217B4805F01BF941
:1006C0000C221146784805F016F90C220D217648C7
:1006D00005F011F90C220E21734805F00CF90C22DB
:1006E0000F21714805F007F90C2200216F4805F031
:1006F00002F90C2201216D4805F0FDF80C220721BA
:100700006A4805F0F8F80C220821684805F0F3F86B
:100710000C220921654805F0EEF80C220A216348F5
:1007200005F0E9F80C220B21604805F0E4F80C22F2
:1007300011465E4805F0DFF80C220D215B4805F0FC
:10074000DAF80C220E21594805F0D5F80C220F21B9
:10075000564805F0D0F80C220021554805F0CBF89A
:100760000C220121524805F0C6F80C220221504803
:1007700005F0C1F80C2203214D4805F0BCF80C220D
:1007800004214B4805F0B7F80C220521484805F034
:10079000B2F80C221146464805F0ADF80C220D21A6
:1007A000434805F0A8F80C220E21414805F0A3F8B3
:1007B0000C220F213E4805F09EF80C2200213D48F6
:1007C00005F099F80C2201213A4805F094F80C2222
:1007D0000221384805F08FF80C220321354805F036
:1007E0008AF80C220421334805F085F80C220521F3
:1007F000304805F080F80C220A212E4805F07BF8DD
:1008000008200190002002900F2003900020049007
:1008100005900690079004200890002009900A9007
:1008200010200B9000200C900D900E900F901090C7
:100830004FF480501190002012901390149001A852
:100840001590169008A804F07CFC0121042004F007
:1008500003FD19B000BD10B506E004784FF0D04399
:100860005C54491C401C521E002AF6D110BD06E003
:100870004FF0D0435B5C00F8013B491C521E002A3C
:10088000F6D1704713B504460122214601A8FFF7AF
:10089000E2FF1CBD18B50446012221466846FFF759
:1008A000E6FF9DF8000018BD000C02400010024059
:1008B00000140240001802407FB504460D46012195
:1008C000022005F074FAADF804500020ADF80600DF
:1008D0000294ADF80C0001A92F4805F020FC01227C
:1008E00011462D4806F0BCF801212B4805F0A0FC6C
:1008F0001D208DF8000001208DF8010003208DF8E7
:10090000020001208DF80300684604F094FB7FBDCF
:1009100010B50121204806F0BAF801211E4806F062
:10092000C7F810BD7FB504460D460121042005F02F
:100930003EFAADF804500020ADF806000294ADF880
:100940000C0001A9154805F0EAFB012211461348E5
:1009500006F086F80121114805F06AFC1E208DF88A
:10096000000002208DF8010003208DF80200012014
:100970008DF80300684604F05EFB7FBD10B50121D1
:10098000064806F084F8012805D10121034806F045
:100990008FF810F0A5FA10BD0004004000080040D8
:1009A0001CB50121222005F0B9F9012000908DF835
:1009B000040000208DF806008DF805008DF8070072
:1009C0006946E84804F00CFF4FF4006000900120F5
:1009D0008DF8040000208DF806008DF805008DF8D4
:1009E00007006946E04804F0FBFE0121DD4804F001
:1009F00073FF4FF40061DC4804F06EFF1CBD1CB5B2
:100A00004FF40060009001208DF8040000208DF864
:100A100006008DF805006946D34804F0E1FE1CBDD0
:100A20001CB54FF40060009000208DF804008DF894
:100A300005006946CC4804F0D3FE1CBD014606E023
:100A4000002002E000BF421C90B20928FADB0A1E17
:100A5000A1F10103D9B2F3D1704710B5FFF7CFFF71
:100A60004FF40061C04804F037FF0121BD4804F095
:100A700033FF0420FFF7E2FF4FF40061BA4804F0AF
:100A80002DFF0420FFF7DAFF0121B64804F026FF0E
:100A900010BD10B5FFF7B3FF0121B24804F01EFFEF
:100AA0004FF40061B04804F019FF0420FFF7C6FFBF
:100AB0000121AC4804F010FF0420FFF7BFFF4FF402
:100AC0000061A94804F008FF10BD70B5A74CFFF7FE
:100AD000A7FF4FF40061A44804F0FEFE0120FFF7D9
:100AE000ADFF01219F4804F0F7FE0120FFF7A6FFAC
:100AF0004FF400619C4804F0D5FE05460EE04FF42B
:100B00000061994804F0CEFE05460120FFF796FFEC
:100B1000641E1CB9FFF7BDFF012070BD012DEED092
:100B20000121904804F0DAFE0020F6E710B501211B
:100B30008C4804F0D3FEFFF762FF4FF400618A484F
:100B400004F0CCFE0220FFF779FF0121854804F074
:100B5000C3FE0220FFF772FF0121824804F0BEFEAF
:100B600010BD10B501217F4804F0B8FEFFF747FF24
:100B70004FF400617C4804F0AFFE0220FFF75EFFF7
:100B80000121784804F0A8FE0220FFF757FF012159
:100B9000744804F0A3FE10BD70B50546FFF72FFFA3
:100BA0000121704804F09AFE002421E07048005DA5
:100BB000284028B14FF400616B4804F08DFE04E03A
:100BC0004FF40061684804F089FE0220FFF736FF09
:100BD0000121644804F080FE0220FFF72FFF01216D
:100BE000604804F07BFE0220FFF728FF601CC4B2BF
:100BF000082CDBDB70BD70B505460026FFF710FF43
:100C00004FF40061584804F067FE002418E0012109
:100C1000544804F063FE0220FFF710FF0121514801
:100C200004F05AFE4FF400614F4804F03BFE10B14F
:100C30004F48005D06430120FFF700FF601CC4B26F
:100C4000082CE4DB15B9FFF78CFF01E0FFF76EFF1E
:100C5000304670BD70B504460025FFF7FEFE7020DB
:100C6000FFF79AFFFFF731FF2046FFF795FFFFF7E9
:100C70002CFFFFF7F2FE7120FFF78EFFFFF725FF35
:100C80000020FFF7B8FF0546FFF703FF284670BDB9
:100C900070B505460C46FFF7E0FE7020FFF77CFFBD
:100CA000FFF713FF2846FFF777FFFFF70EFF2046F9
:100CB000FFF772FFFFF709FFFFF7EBFE70BD70B59E
:100CC00005460E46FFF7C9FE7120FFF765FFFFF7E7
:100CD000FCFE00240DE0701EA04204D10020FFF7AE
:100CE0008AFF285503E00120FFF785FF2855601C87
:100CF000C4B2B442EFDBFFF7CCFE70BD70B5054661
:100D00000E460024FFF7A9FE7020FFF745FFFFF70E
:100D1000DCFE0020FFF740FFFFF7D7FEFFF7B9FE2C
:100D2000FFF79BFE7120FFF737FFFFF7CEFE00BFF6
:100D30000DE0701EA04204D10020FFF75CFF285593
:100D400003E00120FFF757FF2855601C44B2B4426E
:100D5000EFD3FFF79EFE002070BD10B5FFF720FE19
:100D6000002010BD0004024000140240FFFF0F00ED
:100D7000045901080020FE490860091D0860091D8A
:100D80000860091D0860FA4924310860091D0860DF
:100D9000091D0860F748F649383108600020091D30
:100DA0000860704701460020012900D011B9F24BBC
:100DB000197000E0262070470146ED4A121D1068A8
:100DC00020F0FF00084310607047014600BFE8486C
:100DD0003430006800F045000028F8D040F2FF50A1
:100DE000E34A38321060E2481430006808221040AC
:100DF000C0B270472DE9FC4107460D46002600248D
:100E00000020009001900820DC4908601020486014
:100E1000402088600020C8604FF480600861084668
:100E200006F081F91020FFF7D0FF044614B12046E8
:100E3000BDE8FC81D24800880004D0490860372012
:100E40004860402088600020C8604FF480600861DE
:100E5000084606F068F93720FFF7B7FF04460CB1E3
:100E60002046E5E74FF0FF30C6490860082048609B
:100E7000302088600220C86000200861012048619D
:100E8000084606F07CF90020BC4908603320486021
:100E9000402088600020C8604FF4806008610846E8
:100EA00006F041F93320FFF790FF04460CB12046CD
:100EB000BEE70CE04FF4001006F0C8F938B106F0B8
:100EC00084F94DF82600761C012E00D907E0A848C9
:100ED0003430006840F22A6108400028EAD000BFA0
:100EE000082006F0B3F928B1082006F0BAF9042466
:100EF00020469DE7022006F0A9F928B1022006F05D
:100F0000B0F90224204693E7202006F09FF928B18B
:100F1000202006F0A6F90624204689E74FF4007049
:100F200006F094F930B14FF4007006F09AF90724F6
:100F300020467DE740F2FF5006F093F90098000646
:100F4000009901F47F4140EA0120009901F47F01FA
:100F500040EA1120009940EA11606860019800069B
:100F6000019901F47F4140EA0120019901F47F01D8
:100F700040EA1120019940EA11602860204657E7B5
:100F80007CB50546002400200090019006F0ECF8A6
:100F900000F0007010B10E2420467CBD784909880D
:100FA00088B26946FFF726FF04460CB12046F4E7F5
:100FB000012D36D1019800F4802000282ED07048F1
:100FC000008800046D490860372048604020886030
:100FD0000020C860A8020861084606F0A4F837207F
:100FE000FFF7F3FE04460CB12046D6E70220634922
:100FF000086006204860402088600020C8604FF4E8
:1010000080600861084606F08EF80620FFF7DDFED6
:1010100004460CB12046C0E72046BEE72524204602
:10102000BBE7019800F4803078B35548008800048D
:101030005249086037204860402088600020C8601E
:101040004FF480600861084606F06DF83720FFF71E
:10105000BCFE04460CB120469FE7002047490860CB
:1010600006204860402088600020C8604FF48060FF
:101070000861084606F057F80620FFF7A6FE04466A
:101080000CB1204689E7204687E7FFE72524204664
:1010900083E770B5044600253B480078032802D159
:1010A0002725284670BD3848007838B13648007882
:1010B000012803D03448007802282CD1B4F5805F91
:1010C00002D127252846EDE7B4F5006F13D10120A2
:1010D000FFF756FF0546F5B900202C490875086052
:1010E000486088604FF40060C860002008610846CE
:1010F00005F0EFFF0FE00020FFF742FF054655B96E
:10110000002022490875086048608860C86008614E
:10111000084605F0DEFF2846C4E770B50446002502
:101120001648046007201549486040208860002068
:10113000C8604FF480600861084605F0F4FF07209E
:10114000FFF743FE0546284670BDF0B50146002076
:1011500000220D4B1B7881F85630094B1B88A1F8F3
:1011600054300B4B1B681A0E93090B7012E00000F1
:10117000002C0140FF07C0001C000020A028002018
:1011800018000020B4280020140000208828002027
:10119000CC280020C2F383034B7002F003038B7052
:1011A000FE4B1B68C3F30742CA70FC4B1B88C3F39A
:1011B00007220A71F94B1A784A715B681A0E1301FB
:1011C000CB80F64B5B68C3F30742CB8843EA12132C
:1011D000CB8002F00F030B72F04B9B88C3F3072206
:1011E000D3094B72C2F380138B72C2F34013CB72DC
:1011F000C2F300130B7300234B73E94B1B783BB115
:10120000E74B1B78012B03D0E54B1B78032B4FD109
:1012100093071B0D0B61E14B1A790B6943EA8203BB
:101220000B61DE4B9B681A0E0B6943EA92130B614C
:10123000C2F3C2030B7502F007034B75D74B9B68D3
:10124000C3F3074253098B75C2F38203CB7593072F
:101250005B0F0B76D14B1B89C3F307220B7E43EA4E
:10126000D2130B760B695B1C0024C1E912340B7E90
:10127000D1E912569B1C012404FA03F3DC17A5FBE9
:10128000037C06FB03C305FB0433C1E912730C7A2C
:101290000123A3400B650024D1E912650B6DA6FB69
:1012A000037C05FB03C306FB0433C1E912732EE084
:1012B000BB4B1B78022B2AD1B84B1A7993069B0A99
:1012C0000B61B64B9B681A0E0B6943EA02230B6154
:1012D000B24B9B68C3F307420B6913430B61AF4BDF
:1012E0001B89C3F307220B695B1C4FF40074A3FB3B
:1012F00004464FF480630025A4FB037C06FB03C374
:1013000004FB0533C1E912734FF400730B65C2F39C
:10131000801301F8193F93065B0E4B709F4B1A7AAE
:101320004B7843EAD2134B7002F07F038B709B4BD8
:10133000DB681A0ED309CB70C2F341130B71C2F3F1
:1013400082034B7193071B0F8B71944BDB68C3F3C4
:1013500007428B7943EA92138B71C2F34013CB712E
:1013600000230B7202F001034B728C4B9B89C3F379
:101370000722D3098B72C2F38013CB72C2F34013DE
:101380000B73C2F300134B73C2F381038B7302F030
:101390000303CB73814B1A7B53080B7401234B74EB
:1013A000804B1B681A0ECA7419397E4B1B68C3F335
:1013B00007421402CC857B4B1B88C3F30722CB8DDD
:1013C0001343CB85774B1A7814060C635B681A0EAF
:1013D0000B6B43EA02440C63724B5B68C3F3074236
:1013E0000B6B43EA02240C636E4B9B88C3F307220A
:1013F0000B6B13430B636B4B1A7934235A54694BB1
:101400009B681A0E35235A54664B9B68C3F30742F8
:1014100014068C63634B1B89C3F307228B6B43EA6F
:1014200002448C635F4B1A7A8B6B43EA02248C6311
:101430005C4BDB681A0E8B6B13438B63594BDB6879
:10144000C3F307423C235B5C43EA12143C235C5425
:1014500013071C0DCC87534B9B89C3F30722CB8FFB
:101460001343CB874F4B1A7B540840235C54012411
:1014700041235C54F0BD70B500254B48046801E081
:101480004948046804F045000028F9D004F004003D
:1014900028B10325042005F0E4FE284670BD04F0C1
:1014A000010028B10125012005F0DBFE2846F5E703
:1014B00040F2FF5005F0D5FE2846EFE72DE9F04158
:1014C00006460F464FF000083748056801E03648E9
:1014D000056805F045000028F9D005F0040038B192
:1014E0004FF00308042005F0BCFE4046BDE8F08143
:1014F00005F0010030B14FF00108012005F0B1FE08
:101500004046F3E705F02BFEB04203D04FF0100841
:101510004046EBE740F2FF5005F0A3FE002005F047
:1015200023FE044604F4604018B9200C388040467D
:10153000DCE704F4005008B11320D7E704F480403E
:1015400008B11020D2E704F4004008B10F20CDE725
:101550004046CBE738B500240120009005F0DDFDC2
:1015600010B92524204638BD0D480078042833D012
:1015700000200E49086002204860C02088600020DA
:10158000C8604FF480600861084605F0CCFDFFF7A5
:1015900072FF044664B12046E5E70000CC28002035
:1015A00014000020DC280020342C0140A02800205A
:1015B000002005F0D9FDFE490860042005F0D4FDA7
:1015C000FB494860082005F0CFFDF94988600C20F0
:1015D00005F0CAFDF649C860F648007858B1F548EC
:1015E0000078012807D0F3480078062803D0F14896
:1015F0000078022816D10020EF49086003204860D7
:10160000402088600020C8604FF480600861084670
:1016100005F089FD69460320FFF750FF04460CB131
:101620002046A0E7E348007804282ED0BDF800004B
:10163000E2490860BDF800000004DF4908600920A5
:101640004860C02088600020C8604FF48060086156
:10165000084605F068FDFFF70EFF04460CB1204672
:1016600081E7002005F080FDD5490860042005F0E1
:101670007BFDD3494860082005F076FDD04988609D
:101680000C2005F071FDCE49C860002420466AE7B1
:1016900070B50025CB48046801E0CA48046804F02E
:1016A00045000028F9D004F0040028B103250420E7
:1016B00005F0D7FD284670BD40F2FF5005F0D1FD82
:1016C0002846F8E770B500264FF48035BD48046819
:1016D00002E06D1EBB48046804F0450008B9002D07
:1016E000F7D115B104F0040028B10326042005F059
:1016F000B8FD304670BD04F0400028B100264020FF
:1017000005F0AFFD3046F5E73046F3E770B500254C
:101710004FF4803400E0641E24B1802005F096FD73
:101720000028F8D014B90325284670BD40F2FF50B8
:1017300005F097FD2846F8E72DE9F0410024002642
:1017400000250027A04676209F49087500200860E4
:1017500048608860C8600861084605F0BAFC03204C
:1017600005F0D7FC012005F0D1FC0020924908606B
:1017700048608860C8604FF480600861084605F0E2
:10178000D2FCFFF7C3FF044614B12046BDE8F08148
:101790004FF4D57088490860082048604020886070
:1017A0000020C8604FF480600861084605F0BBFC6B
:1017B000FFF788FF04462CB901207E4908704FF0DE
:1017C000804812E000207C490860372048604020B3
:1017D00088600020C8604FF480600861084605F00A
:1017E000A2FC3720FFF7F1FA044600207249086096
:1017F00037204860402088600020C8604FF4806037
:101800000861084605F08FFC3720FFF7DEFA044632
:10181000002C4AD136E00020674908603720486034
:10182000402088600020C8604FF48060086108464E
:1018300005F079FC3720FFF7C8FA04460CB12046C2
:10184000A4E7624848EA00005B4908602920486034
:10185000402088600020C8604FF48060086108461E
:1018600005F061FCFFF714FF04460CB120468DE73C
:10187000002005F079FC0646012080EAD67080F051
:1018800001076D1C1FB94FF6FF708542C3D34FF699
:10189000FF70854202D31B24204677E706F0804084
:1018A000061E02D002204349087020466EE73EB56E
:1018B00000240121464804F031FA0121C80204F055
:1018C00087FA0121C80204F0D8FA4FF47C50019045
:1018D00002208DF808008DF8090001208DF80B001A
:1018E00001A93C4803F07CFF0420019001A93A487B
:1018F00003F076FF0C220821364803F0FCFF0C228F
:101900000921344803F0F7FF0C220A21314803F083
:10191000F2FF0C220B212F4803F0EDFF0C221146A1
:101920002C4803F0E8FF0C2202212B4803F0E3FFD0
:1019300000214FF4006004F0A0FAFFF71BFA05F055
:10194000BDFB31208DF8000000208DF801008DF8DE
:10195000020001208DF80300684603F06CFBFFF7DE
:10196000EBFE044614B9FFF7F5FD04461CB91B480D
:10197000FFF7EBFB044634B91849B1F854100804DA
:10198000FFF7CBFB044624B94FF40060FFF781FB5F
:1019900004461CB107480078032806D10020FFF751
:1019A0000BFA0020FFF7FEF9044620463EBD00007A
:1019B000DC28002014000020A028002018000020AF
:1019C000CC280020342C0140882800200000108002
:1019D0000C00400000080240000C0240F0280020EB
:1019E00010B50024002005F094FB204610BD70B512
:1019F00090B004460E46154600BFFE4805F0B5FF00
:101A00000028FAD1FB4805F087FE4FF000600190F6
:101A1000F9480290039404950020059006904FF435
:101A200080600790800008908000099000200A9054
:101A30004FF440300B9004200C9003200D904FF495
:101A400000000E9080100F9001A9EA4805F006FFF3
:101A50002021E84805F052FF0121E64805F038FF53
:101A600010B070BD0146002002E04910421CD0B207
:101A70000129FAD170472DE9F84F8146174698465B
:101A80000A9C4FF0000AD3464D464FF0FF36B9F19D
:101A9000000F02D12620BDE8F88F0020D649543926
:101AA0000860D6480078022805D10402780A40EA86
:101AB000C8574FEA68280020D14988604860401E16
:101AC0000860012048610020C8600861084605F0F0
:101AD00056FBC9486C38006800F0007008B10E2051
:101AE000D9E7002C21DDB4F5006F1EDC601E20401C
:101AF000D8B92046FFF7B6FF0090C2480460102016
:101B0000C0494860402088600020C8604FF4806071
:101B10000861084605F007FB1020FFF756F98246DA
:101B2000BAF1000F03D05046B5E72620B3E700987E
:101B30000001B3498860084644604FF0FF300860F8
:101B4000012048610220C86000200861084605F0B5
:101B500016FBAC4807601120AA4948604020886005
:101B60000020C8604FF480600861084605F0DBFA89
:101B70001120FFF72AF98246BAF1000F01D0504632
:101B800089E7A1480078002878D1FEF776FB18E0B5
:101B900099484C38006800F4004070B14FF0000BD9
:101BA00005E09548006845F82B000BF1010BBBF1EF
:101BB000080FF6D32035954E03E00EB904206AE7EE
:101BC000761E8D484C38006840F22A610840002893
:101BD000DED089484C38006800F0080048B18648DB
:101BE0004838006840F008008349483908600420FC
:101BF00051E781484C38006800F0020048B17E4847
:101C00004838006840F002007B49483908600220EB
:101C100041E779484C38006800F0200048B1764828
:101C20004838006840F020007349483908600620B1
:101C300031E771484C38006800F4007048B16E48D4
:101C40004838006840F400706B4948390860072044
:101C500021E703E06848006828602D1D66484C387D
:101C6000006800F400100028F4D1FEF708FB40F2F1
:101C7000FF506149483908603AE0FFE76248007860
:101C8000012835D100206249087062490870624914
:101C9000087059484438006840F22A3108435649D0
:101CA0004439086054485438006840F008005249EC
:101CB00054390860002221464846FFF798FE00E0AC
:101CC000761E4C485838006800F0006038B9524819
:101CD000007820B94E48007808B9002EF0D10EB92E
:101CE0000420D8E64A48007810B1494890F800A08E
:101CF0005046D0E62DE9FF5F17469846DDE90E46CF
:101D00004FF00009CA464FF0FF354449009808607B
:101D1000002039495439086038480078022805D134
:101D20000402780A40EAC8574FEA6828002034497C
:101D300088604860401E0860012048610020C8603B
:101D40000861084605F01BFA2B486C38006800F063
:101D5000007018B10E2004B0BDE8F09F002C21DD0A
:101D6000B4F5006F1EDC601E2040D8B92046FFF796
:101D700079FE8346234804601020224948604020B1
:101D800088600020C8604FF480600861084605F054
:101D9000CAF91020FFF719F88146B9F1000F03D0F6
:101DA0004846D8E72620D6E7012E7DD906FB04F069
:101DB000B0F1007F01D32620CDE74FEA0B10104988
:101DC000886006FB04F048604FF0FF300860012097
:101DD00048610220C86000200861084605F0CFF97C
:101DE00008480760122007494860402088600020AA
:101DF000C86015E058640240802C014014000020A7
:101E0000B4280020A02800201C000020FFFF0700AD
:101E10001E0000201D0000201F00002020000020C8
:101E20004FF480600861084605F07DF91220FEF746
:101E3000CCFF8146B9F1000F01D048468BE7FE4840
:101E4000007800287ED1FEF718FA1EE0FB480068F3
:101E500000F40040A8B14FF0000A08E0F7484C3009
:101E60000068F749096841F82A000AF1010ABAF145
:101E7000080FF3D3F24800682030F1490860F14DB3
:101E800003E00DB9042066E76D1EEC48006840F2DF
:101E90002A3108400028D9D0E848006800F008003E
:101EA00058B1E648001D00E0B6E0006840F00800C8
:101EB000E249091D086004204DE7E048006800F091
:101EC000020048B1DD48001D006840F00200DB4917
:101ED000091D086002203EE7D848006800F0200095
:101EE00048B1D648001D006840F02000D349091DC4
:101EF000086006202FE7D148006800F4007048B160
:101F0000CE48001D006840F40070CC49091D0860EF
:101F1000072020E70AE0C9484C300068C849096832
:101F20000860C7480068001DC5490860C3480068CC
:101F300000F400100028EED1C048006800F4807062
:101F400020B300E02AE0C048007838B1BE480078ED
:101F5000012803D0BC480078022817D10020BB49D3
:101F600008600C204860402088600020C8604FF462
:101F700080600861084605F0D6F80C20FEF725FFC2
:101F80008146B9F1000F01D04846E4E6FEF777F943
:101F900040F2FF50A949091D08603DE0A6480078BD
:101FA000012839D10020AA4908700120A9490870E8
:101FB0000020A9490870A1480830006840F22A3181
:101FC00008439E49083108609C480838006840F082
:101FD00008009A490839086006FB04F100220098BD
:101FE000FFF705FD00E06D1E9C48006800F00060F2
:101FF00008B9002DF7D10DB90420ACE600BF964812
:10200000007818B9924800780028F8D090480078F5
:1020100010B18F4890F8009048469CE67CB5044685
:1020200000250020019000908D4800880004874919
:1020300008600D204860402088600020C8604FF490
:1020400080600861084605F06EF87C4800680090E2
:1020500002E07A4800680090009800F045000028EF
:10206000F7D0009800F0040028B10325042005F003
:10207000F8F828467CBD009800F0010028B1012541
:10208000012005F0EEF82846F4E705F068F8009026
:1020900000980D2802D010252846EBE740F2FF50AB
:1020A00005F0DFF8002005F05FF801900198C0F31B
:1020B000432020706B490198084008B92846D9E7A9
:1020C000019800F0004008B11C20D3E7019800F00F
:1020D000804008B10920CDE7019800F0005008B118
:1020E0000A20C7E7019800F0805008B10B20C1E733
:1020F000019800F0006008B10C20BBE7019800F0E7
:10210000806008B10D20B5E7019800F0807008B13B
:102110000E20AFE7019800F4000008B10F20A9E7F6
:10212000019800F4800008B11020A3E7019800F4A2
:10213000001008B111209DE7019800F4801008B14B
:10214000122097E7019800F4002008B1132091E7CE
:10215000019800F4802008B114208BE7019800F466
:10216000003008B1152085E7019800F4803008B1EF
:1021700016207FE7019800F4004008B1172079E7A6
:10218000019800F4804008B1182073E7019800F42A
:10219000005008B119206DE7019800F0080008B15F
:1021A0001A2067E7284665E72DE9FF5F86B01746E6
:1021B0009846149D00260020059004900024814636
:1021C0000390824602900195DDF818B0DDF818B052
:1021D000BBF1000F03D126200AB0BDE8F09F00201C
:1021E000164908390860204988604860401E086028
:1021F000012048610020C8600861084604F0BFFF64
:102200000E482038006800F0007008B10E20E3E7A7
:102210000D480078022805D10502780A40EAC8571F
:102220004FEA6828002D3BDDB5F5006F38DC681EED
:102230002840A0BB284619E01C000020342C014097
:1022400020000020FFFF070014000020A02800202D
:102250001E0000201D0000201F000020006402401E
:102260001800002008E0FFFDB4280020FFF7FAFB6B
:102270000590FE4805601020FC49486040208860B9
:102280000020C8604FF480600861084604F04BFFEE
:102290001020FEF79AFD064626B130469CE7FFE780
:1022A000262099E7F24800880004F04908600D20D4
:1022B0004860402088600020C8604FF4806008615A
:1022C000084604F030FF0D20FEF77FFD06460EB1F4
:1022D000304681E7E748006803904FF0FF341BE089
:1022E000641EE34800880004E04908600D2048604F
:1022F000402088600020C8604FF480600861084674
:1023000004F011FF0D20FEF760FD06460EB13046C9
:1023100062E7D84800680390039800F4807008B919
:10232000002CDDD10CB9292056E7D04807601820D1
:10233000CE494860402088600020C8604FF480602B
:102340000861084604F0EFFE1820FEF73EFD064641
:102350000EB1304640E70020C749087005980001DB
:10236000C6498860084645604FF0FF30086001208C
:1023700048610020C8600861084604F000FF4FF083
:10238000FF34BF48007800287ED1FDF776FF45E096
:10239000B8482030006800F48040D0B30198A0EB2A
:1023A0000900202822D20198A0EB090000F00300C8
:1023B00020B90198A0EB0900800804E00198A0EB87
:1023C00009008008401C02904FF0000A0AE0A94969
:1023D0006C31DBF8000008600AF1010A0BF1040B14
:1023E00009F1040902988245F1D310E04FF0000A88
:1023F00006E05BF82A009F496C3108600AF1010A87
:10240000BAF1080FF5D30BF1200B09F120099D4C0F
:1024100004E0FFE70CB90420DEE6641E9548203096
:10242000006840F21A6108400028B1D0082004F08A
:102430000DFF20B1082004F014FF0420CCE6022098
:1024400004F004FF20B1022004F00BFF0220C3E6D9
:10245000102004F0FBFE20B1102004F002FF052044
:10246000BAE64FF4007004F0F1FE30B14FF40070A2
:1024700004F0F7FE0720AFE606E0FDF700FF40F2AC
:10248000FF5004F0EEFE3AE07D480078012836D196
:1024900000207D490870784908707C490870012146
:1024A00040F21A3004F0C1FE402229460698FFF798
:1024B0009EFA012004F0B5FE00E0641E7448006836
:1024C00000F0006008B9002CF7D11CB9FFF7EFF954
:1024D000042081E64FF0FF3400E0641E6B48007872
:1024E00020B96948007808B9002CF6D10CB904204D
:1024F00072E66548007810B1634800786CE640F2F7
:10250000FF5004F0AEFE04A8FFF788FD064603E086
:1025100004A8FFF783FD06463EB99DF81000072882
:10252000F6D09DF810000628F2D0304654E62DE98A
:10253000FF5F84B0DDE9124700260020039002907F
:10254000002580468146019007FB04FBDDF810A0C2
:10255000DDF810A0BAF1000F03D1262008B0BDE8C5
:10256000F09F002043491831086044498860486062
:10257000401E0860012048610020C86008610846CC
:1025800004F0FDFD3B48006800F0007008B10E202B
:10259000E4E740480078022808D10402DDE906019A
:1025A000400A40EAC1504912CDE90601002C1FDD66
:1025B000B4F5006F1CDC601E2040C8B92046FFF750
:1025C00051FA0390294804601020284948604020AF
:1025D00088600020C8604FF480600861084604F0FD
:1025E000A2FD1020FEF7F1FB06461EB13046B5E70E
:1025F0002620B3E7012F7DD907FB04F0B0F1007F5F
:1026000001D32620AAE72348007838B12148007872
:10261000012803D01F480078022844D114480088BC
:10262000000412490860372048604020886000207C
:10263000C8604FF480600861084604F074FD3720DC
:10264000FEF7C3FB06460EB1304687E70748076032
:10265000172006494860402088600020C8604FF479
:1026600080600861084604F05EFD15E0A0280020A7
:1026700018000020142C01401D000020B428002068
:102680001C000020FFFF07001E0000201F0000208C
:1026900000640240140000201720FEF796FB064657
:1026A0000EB130465AE7F349069808601920486091
:1026B000402088600020C8604FF4806008610846B0
:1026C00004F031FD1920FEF780FB06460EB13046BE
:1026D00044E703980001E849886007FB04F048607C
:1026E0004FF0FF300860012048610020C860086199
:1026F000084600E0E5E004F042FDE04800780028EC
:1027000071D1451EFDF7B9FD40E0DD48006800F4D9
:102710008040B0B3ABEB080020281FD2ABEB080021
:1027200000F0030018B9ABEB0800800803E0ABEB46
:1027300008008008401C01904FF000090AE0D049D1
:102740004C31DAF80000086009F101090AF1040AC5
:1027500008F1040801988145F1D310E04FF0000919
:1027600006E05AF82900C6494C31086009F1010910
:10277000B9F1080FF5D30AF1200A08F12008C14D7C
:1027800004E0FFE70DB90420E8E66D1EBC480068D0
:1027900040F21A3108400028B7D0082004F056FD56
:1027A00020B1082004F05DFD0420D7E6022004F0EB
:1027B0004DFD20B1022004F054FD0220CEE6102091
:1027C00004F044FD20B1102004F04BFD0520C5E6C7
:1027D0004FF4007004F03AFD30B14FF4007004F093
:1027E00040FD0720BAE62CE04FF4807004F02EFD87
:1027F00000B3A548007838B1A3480078012803D079
:10280000A1480078022815D100209A4908600C20C0
:102810004860402088600020C8604FF480600861F4
:10282000084604F080FC0C20FEF7CFFA06460EB1F5
:10283000304693E6FDF723FD40F2FF5004F011FD12
:102840003FE08E48007801283BD100208F49087076
:1028500001208F49087000208E490870012140F244
:102860001A3004F0E2FC07FB04F140220498FFF761
:10287000BEF8012004F0D5FC4FF0FF3500E06D1EDE
:102880008548006800F0006008B9002DF7D11DB937
:10289000FFF70DF8042061E64FF0FF3500E06D1EF4
:1028A0007C48007820B97948007808B9002DF6D125
:1028B0000DB9042052E67548007810B173480078CD
:1028C0004CE640F2FF5004F0CCFC02A8FFF7A6FB58
:1028D000064603E002A8FFF7A1FB06463EB99DF8B5
:1028E00008000728F6D09DF808000628F2D03046E8
:1028F00034E610B56648007801280DD10020604903
:102900002C39086040F24C40091D08600C20FEF78D
:102910005CFA5E49087002E000205C4908704FF4E0
:10292000807004F0ADFC00214FF4807004F07DFC59
:102930000120584908705548007810BD10B5FFF7C0
:10294000D8FF10BD2DE9FE4F83460E46914600206C
:102950000290002534464C48007818B1680240EADD
:10296000D45564020BF00300F0B14FF0000A18E0F8
:102970004FF4007000904FEA4A20071945EBE073CE
:102980003A464648FFF777F802904FF40072434901
:1029900058460CF071FB0BF5007B0AF1010000F0CA
:1029A000FF0ACA45E4DB16E0B9F1010F09D14FF483
:1029B000007022462B4600905846FFF75CF80290C4
:1029C00009E04FF4007022462B46CDE90009584635
:1029D000FFF790F902900298BDE8FE8F2DE9FE4FB7
:1029E0000646894692460020029000254C4626481D
:1029F000007818B1680240EAD455640206F003007A
:102A0000F0B14FF0000B18E04FF40072314623484C
:102A10000CF032FB4FF4007000904FEA4B20071986
:102A200045EBE0733A461D48FFF7BEFB029006F502
:102A300000760BF1010000F0FF0BD345E4DB16E05C
:102A4000BAF1010F09D14FF4007022462B460090D5
:102A50003046FFF7A9FB029009E04FF400702246D0
:102A60002B46CDE9000A3046FFF761FD029002983F
:102A7000BDE8FE8FA0280020B42800201C00002004
:102A8000342C0140FFFF0700140000201E0000202E
:102A90001D0000201F000020006402404829002083
:102AA00000B587B00121022003F038F901210803A5
:102AB00003F08EF93820059002208DF818000320CD
:102AC0008DF8190000208DF81A0001208DF81B00E8
:102AD00005A9394802F084FE05220321364802F098
:102AE0000AFF05220421344802F005FF05221146A1
:102AF000314802F000FF0020ADF800004FF4827072
:102B0000ADF802000020ADF804000220ADF8060088
:102B10000120ADF808004002ADF80A003820ADF8F9
:102B20000C000020ADF80E000720ADF8100069463B
:102B3000224804F0FDFB0121204804F0F3FC07B01B
:102B400000BD00F007001D4909884FF6C77211400B
:102B50001A4A11801146098841EAC00111801146C4
:102B6000098841F040011180704770B50546002486
:102B700005E0601CC4B2C82C01DD002070BD02213C
:102B80000E4804F099FD0028F3D029460B4804F0C4
:102B90004AFD002405E0601CC4B2C82C01DD002001
:102BA000ECE70121054804F087FD0028F3D0034835
:102BB00004F036FDC0B2E1E70004024000300140FD
:102BC00010B500240020D64908609020FFF7CDFF03
:102BD0000020FFF7CAFF0020FFF7C7FF0020FFF724
:102BE000C4FFFF20FFF7C1FF44EA0024FF20FFF7E6
:102BF000BCFF04430120CB49C1F8B802204610BDF8
:102C00001CB50121422003F089F84FF48040009068
:102C100001208DF8040003208DF8050000208DF8B8
:102C2000060001208DF807006946BF4802F0D8FD74
:102C3000802000906946BC4802F0D2FD8021BB484C
:102C400002F04AFE0120B6490860FFF729FF002084
:102C5000FFF777FFFFF7B4FFB54908801CBD10B53B
:102C600000240020AE4908600520FFF77EFFFF200A
:102C7000FFF77BFF04460120AA49C1F8B8022046AD
:102C800010BD10B504460020A54908600120FFF7DB
:102C90006CFF2046FFF769FF0120A249C1F8B80286
:102CA00010BD10B500209E4908600620FFF75DFFAB
:102CB00001209C49C1F8B80210BD10B50020984908
:102CC00008600420FFF751FF01209649C1F8B802BF
:102CD00010BD2DE9F04106460C46174600209049EC
:102CE00008600320FFF741FFC4F30740FFF73DFFF3
:102CF000C4F30720FFF739FFE0B2FFF736FF0025E6
:102D000005E0FF20FFF731FF7055681C85B2BD421A
:102D1000F7DB012082490860BDE8F08110B500BFF3
:102D2000FFF79DFF00F001000028F9D110BD2DE94B
:102D3000F04106460C461746FFF7B3FF00207849DE
:102D400008600220FFF711FFC4F30740FFF70DFFF3
:102D5000C4F30720FFF709FFE0B2FFF706FF0025E5
:102D600004E0705DFFF701FF681C85B2BD42F8DB2F
:102D700001206B490860FFF7D1FFBDE8F0812DE924
:102D8000F04107460E461446F0B2C0F58075AC42DD
:102D900000DC254612E02A4631463846FFF7C7FFD9
:102DA000AC4200D10BE02F442E44601B84B2B4F53A
:102DB000807F02DD4FF4807500E02546EBE700BF21
:102DC000BDE8F08110B5044621465AA00CF098F8F1
:102DD0002403FFF766FFFFF7A1FF002050490860BA
:102DE0002020FFF7C2FEC4F30740FFF7BEFEC4F386
:102DF0000720FFF7BAFEE0B2FFF7B7FE012049490E
:102E0000C1F8B802FFF78AFF10BD2DE9F05F8146D7
:102E10000F461646DFF824B14FEA1738C7F30B0AFE
:102E2000CAF58054A64200DC344644E04FEA08313B
:102E30004FF480525846FFF74CFF002508E00AEB9C
:102E400005001BF80000FF2800D003E0681C85B2D5
:102E5000A542F4DB00BFA54216DA4046FFF7B2FFF9
:102E6000002507E019F8050005EB0A010BF8010041
:102E7000681C85B2A542F5DB4FEA08314FF4805259
:102E80005846FFF77CFF04E0224639464846FFF7E4
:102E900076FFA64200D10FE008F101084FF0000ACA
:102EA000A1442744301B86B2B6F5805F02DD4FF4A3
:102EB000805400E03446B9E700BFBDE8F09F10B58C
:102EC000FFF7EFFEFFF72AFF002015490860C72033
:102ED000FFF74BFE01201349C1F8B802FFF71EFFB0
:102EE00010BD10B500200E490860B920FFF73DFE67
:102EF00001200C49C1F8B802032004F00FFE10BDF8
:102F000010B5002006490860AB20FFF72EFE012017
:102F10000449C1F8B802032004F000FE10BD00000F
:102F2000B882404200804042000402400018024043
:102F30002400002066653A25780D0A00482B002001
:102F400001B5BDF800000090BDF80000FE49088002
:102F500008BD01B5BDF800000090BDF80000FA49B9
:102F6000891C088008BD08B5F748801C00880090BF
:102F7000BDF8000008BD03B5BDF80000F24A10809E
:102F80004FF0D840A0F880100CBD01B5BDF800008E
:102F9000FFF7D6FF052004F0C1FDFFF7E4FF08BDF1
:102FA000EA480089E8490880704730B5014601F0D9
:102FB0001F04C1F34513CA0AE50205EB4315154486
:102FC000A8B230BD00BF011EA0F10102D0B2FAD1FB
:102FD000704710B502460C46DC494889FFF7B0FF40
:102FE0001012FFF7B6FFD9494989491C88B2FFF78B
:102FF000A7FFD0B2FFF7ADFFD4498889FFF7A0FF44
:103000002012FFF7A6FFD1498989491C88B2FFF732
:1030100097FFE0B2FFF79DFF10BD2DE9F041044698
:103020000D4600270026B046C8480088A04203DDB0
:10303000C6484088A84202DC0020BDE8F08129464D
:103040002046FFF7C6FF4FF43850FFF779FFBE4820
:10305000801C008800B100270220FFF7B3FFBA48A8
:10306000801C07880220FFF7ADFF4FF0D840B0F872
:103070008080FEB24FF6FF7000EA0626F812C0020A
:10308000B11240EA411040EAE820D6E700B54FF41B
:103090002450FFF755FF00BD00B54FF42050FFF757
:1030A0004FFF00BDF0B5054600240027A7488079F2
:1030B000012818D1082D15D2DFE805F00406080A0A
:1030C0000C0E101206250DE007250BE0042509E083
:1030D000052507E0012505E0002503E0032501E0C3
:1030E000022500BF00BF082D1CD2DFE805F0040652
:1030F000090C0F12151800BF14E044F0800411E011
:1031000044F040040EE044F0C0040BE044F020041E
:1031100008E044F0600405E044F0A00402E044F05C
:10312000E00400BF00BF4FF4585721463846FFF770
:1031300022FF04F0200018B98448807901280DD1BD
:103140008248008881494988884214DA7F48068885
:1031500040887E490880084646800CE07B4800880D
:103160007A494988884206DD784806884088774948
:1031700008800846468075494889FFF7E1FE00202F
:10318000FFF7E7FE71494989491C88B2FFF7D8FE6D
:103190000020FFF7DEFE6D494989891C88B2FFF7E0
:1031A000CFFE6A490988491EC1F30F20FFF7D1FEFF
:1031B00066494989C91C88B2FFF7C2FE634909788C
:1031C000491EC8B2FFF7C5FE60498889FFF7B8FEFF
:1031D0000020FFF7BEFE5D498989491C88B2FFF7D0
:1031E000AFFE0020FFF7B5FE58498989891C88B2D7
:1031F000FFF7A6FE55494988491EC1F30F20FFF786
:10320000A8FE52498989C91C88B2FFF799FE4F4927
:103210008978491EC8B2FFF79CFEF0BD30B5044660
:103220000D4629462046FFF7D4FEFFF7B9FE484871
:1032300000884549891C088030BD30B504460D46DC
:1032400042494889FFF77CFE2012FFF782FE3F4982
:103250004989491C88B2FFF773FEE0B2FFF779FE97
:103260003A498889FFF76CFE2812FFF772FE37494A
:103270008989491C88B2FFF763FEE8B2FFF769FE4F
:1032800032480089304908804FF0D840A0F88020AB
:1032900030BD10B5044694B900202C4988714FF414
:1032A000305008814FF4285048814FF42C508881C9
:1032B0004FF4F07008804FF44870488011E001200E
:1032C000224988714FF4305008814FF428504881CA
:1032D0004FF42C5088814FF4487008804FF4F07000
:1032E00048800020FFF7DEFE10BD70B504460D4695
:1032F0001E46A018401E82B2A819401E86B213496D
:103300004889FFF71DFE2012FFF723FE0F49498968
:10331000491C88B2FFF714FEE0B2FFF71AFE0B4912
:103320004989891C88B2FFF70BFE1012FFF711FEC6
:1033300006494989C91C88B2FFF702FED0B2FFF7DF
:1033400008FE0249888905E07E00006C483B0020A9
:1033500026000020FFF7F4FD2812FFF7FAFDFE49D2
:103360008989491C88B2FFF7EBFDE8B2FFF7F1FD50
:10337000F9498989891C88B2FFF7E2FD3012FFF70D
:10338000E8FDF5498989C91C88B2FFF7D9FDF0B27B
:10339000FFF7DFFD70BD70B504460026EE480588D6
:1033A0004088454300210846FFF713FEFFF7F8FD6C
:1033B00000BF02E0E9480480761CAE42FAD370BD3B
:1033C00000B599B00020189001217A2002F0A6FCE7
:1033D0000121084602F0DAFC4FF40040169001206B
:1033E0008DF85C0002208DF85D0000208DF85E00F5
:1033F00001208DF85F0016A9D94802F0F1F94CF2CE
:103400003370169002208DF85C0003208DF85D006B
:1034100016A9D44802F0E4F94FF68070169016A968
:10342000D14802F0DDF94FF48050169016A9CF482C
:1034300002F0D6F94FF48050169016A9CC4802F04D
:10344000CFF90C220021C74802F055FA0C220121C5
:10345000C44802F050FA0C220421C24802F04BFA90
:103460000C220521BF4802F046FA0C220821BD4873
:1034700002F041FA0C220921BA4802F03CFA0C226F
:103480000A21B84802F037FA0C220E21B54802F0A2
:1034900032FA0C220F21B34802F02DFA0C22072138
:1034A000B14802F028FA0C220821AF4802F023FAB2
:1034B0000C220921AC4802F01EFA0C220A21AA486B
:1034C00002F019FA0C220B21A74802F014FA0C2280
:1034D0001146A54802F00FFA0C220D21A24802F075
:1034E0000AFA0C220E21A04802F005FA0C220F2144
:1034F0009D4802F000FA0C2211469C4802F0FBF9AC
:103500000C2211469A4802F0F6F90820009000209B
:1035100001900F20029000200390049005900690E7
:103520000620079000200890099010200A900020A3
:103530000B900C900D900E900F904FF480501090C7
:10354000002011904FF48040129000201390CDF88D
:1035500050D0CDF854D007A801F0F3FD012106208A
:1035600001F07AFE322004F004FB01210020FFF775
:1035700002FD322004F0FDFA0020FFF706FD764937
:1035800088804FF47040FFF7DBFC5520FFF7E1FC2B
:103590004FF20100FFF7D4FCAA20FFF7DAFC4FF24C
:1035A0000200FFF7CDFC5220FFF7D3FC4FF20300DF
:1035B000FFF7C6FC0820FFF7CCFC4FF20400FFF732
:1035C000BFFC0120FFF7C5FC4FF45140FFF7B8FCEA
:1035D0000020FFF7BEFC4DF20110FFF7B1FC002008
:1035E000FFF7B7FC4DF20210FFF7AAFC1B20FFF714
:1035F000B0FC4DF20310FFF7A3FC4420FFF7A9FC39
:103600004DF20410FFF79CFC6220FFF7A2FC4DF284
:103610000510FFF795FC0020FFF79BFC4DF206100C
:10362000FFF78EFC7B20FFF794FC4DF20710FFF7AD
:1036300087FCA120FFF78DFC4DF20810FFF780FCFE
:10364000C020FFF786FC4DF20910FFF779FCEE2051
:10365000FFF77FFC4DF20A10FFF772FC5520FFF7D1
:1036600078FC4DF20B10FFF76BFC1020FFF771FC9C
:103670004DF20C10FFF764FC2C20FFF76AFC4DF2B2
:103680000D10FFF75DFC4320FFF763FC4DF20E10B9
:10369000FFF756FC5720FFF75CFC4DF20F10FFF7C9
:1036A0004FFC5520FFF755FC4DF21010FFF748FC7A
:1036B0006820FFF74EFC4DF21110FFF741FC782017
:1036C000FFF747FC4DF21210FFF73AFC8720FFF797
:1036D00040FC4DF21310FFF733FC9420FFF739FC48
:1036E0004DF21410FFF72CFC5520FFF732FC4DF281
:1036F0001510FFF725FCA020FFF72BFC4DF216104C
:10370000FFF71EFCAC20FFF724FC4DF21710FFF76B
:1037100017FCB620FFF71DFC4DF21810FFF710FC48
:10372000C120FFF716FC4DF21910FFF709FC5520D8
:10373000FFF70FFC4DF21A10FFF702FCCB20FFF74A
:1037400008FC4DF21B10FFF7FBFBCD20FFF701FC3F
:103750004DF21C100EE00000483B00208000006C81
:1037600000040240000C024000100240001402401D
:1037700000180240FFF7E4FBD620FFF7EAFB4DF20A
:103780001D10FFF7DDFBDF20FFF7E3FB4DF21E10FE
:10379000FFF7D6FB9520FFF7DCFB4DF21F10FFF77C
:1037A000CFFBE820FFF7D5FB4DF22010FFF7C8FB59
:1037B000F120FFF7CEFB4DF22110FFF7C1FBFA20FD
:1037C000FFF7C7FB4DF22210FFF7BAFB0220FFF70D
:1037D000C0FB4DF22310FFF7B3FBAA20FFF7B9FBA4
:1037E0004DF22410FFF7ACFB0B20FFF7B2FB4DF2BC
:1037F0002510FFF7A5FB1320FFF7ABFB4DF22610BA
:10380000FFF79EFB1D20FFF7A4FB4DF22710FFF7EB
:1038100097FB2620FFF79DFB4DF22810FFF790FB4A
:10382000AA20FFF796FB4DF22910FFF789FB302005
:10383000FFF78FFB4DF22A10FFF782FB3C20FFF7CA
:1038400088FB4DF22B10FFF77BFB4A20FFF781FB33
:103850004DF22C10FFF774FB6320FFF77AFB4DF25B
:103860002D10FFF76DFBEA20FFF773FB4DF22E10D2
:10387000FFF766FB7920FFF76CFB4DF22F10FFF787
:103880005FFBA620FFF765FB4DF23010FFF758FBFA
:10389000D020FFF75EFB4DF23110FFF751FB2020E7
:1038A000FFF757FB4DF23210FFF74AFB0F20FFF7EF
:1038B00050FB4DF23310FFF743FB8E20FFF749FB1F
:1038C0004DF23410FFF73CFBFF20FFF742FB4FF4B3
:1038D0005240FFF735FB0020FFF73BFB4DF2012084
:1038E000FFF72EFB0020FFF734FB4DF20220FFF71D
:1038F00027FB1B20FFF72DFB4DF20320FFF720FBDA
:103900004420FFF726FB4DF20420FFF719FB62204D
:10391000FFF71FFB4DF20520FFF712FB0020FFF71A
:1039200018FB4DF20620FFF70BFB7B20FFF711FB86
:103930004DF20720FFF704FBA120FFF70AFB4DF231
:103940000820FFF7FDFAC020FFF703FB4DF2092026
:10395000FFF7F6FAEE20FFF7FCFA4DF20A20FFF728
:10396000EFFA5520FFF7F5FA4DF20B20FFF7E8FAD2
:103970001020FFF7EEFA4DF20C20FFF7E1FA2C20B1
:10398000FFF7E7FA4DF20D20FFF7DAFA4320FFF7D1
:10399000E0FA4DF20E20FFF7D3FA5720FFF7D9FADD
:1039A0004DF20F20FFF7CCFA5520FFF7D2FA4DF277
:1039B0001020FFF7C5FA6820FFF7CBFA4DF211206F
:1039C000FFF7BEFA7820FFF7C4FA4DF21220FFF796
:1039D000B7FA8720FFF7BDFA4DF21320FFF7B0FAD0
:1039E0009420FFF7B6FA4DF21420FFF7A9FA5520FC
:1039F000FFF7AFFA4DF21520FFF7A2FAA020FFF76C
:103A0000A8FA4DF21620FFF79BFAAC20FFF7A1FAB7
:103A10004DF21720FFF794FAB620FFF79AFA4DF20D
:103A20001820FFF78DFAC120FFF793FA4DF2192005
:103A3000FFF786FA5520FFF78CFA4DF21A20FFF7B0
:103A40007FFACB20FFF785FA4DF21B20FFF778FABB
:103A5000CD20FFF77EFA4DF21C20FFF771FAD62039
:103A6000FFF777FA4DF21D20FFF76AFADF20FFF724
:103A700070FA4DF21E20FFF763FA9520FFF769FAFE
:103A80004DF21F20FFF75CFAE820FFF762FA4DF2D3
:103A90002020FFF755FAF120FFF75BFA4DF22120C5
:103AA000FFF74EFAFA20FFF754FA4DF22220FFF703
:103AB00047FA0220FFF74DFA4DF22320FFF740FAB4
:103AC000AA20FFF746FA4DF22420FFF739FA0B201F
:103AD000FFF73FFA4DF22520FFF732FA1320FFF7E8
:103AE00038FA4DF22620FFF72BFA1D20FFF731FAA6
:103AF0004DF22720FFF724FA2620FFF72AFA4DF28D
:103B00002820FFF71DFAAA20FFF723FA4DF22920FB
:103B1000FFF716FA3020FFF71CFA4DF22A20FFF7C4
:103B20000FFA3C20FFF715FA4DF22B20FFF708FAA9
:103B30004A20FFF70EFA4DF22C20FFF701FA63201E
:103B4000FFF707FA4DF22D20FFF7FAF9EA20FFF709
:103B500000FA4DF22E20FFF7F3F97920FFF7F9F97B
:103B60004DF22F20FFF7ECF9A620FFF7F2F94DF206
:103B70003020FFF7E5F9D020FFF7EBF94DF23120C7
:103B8000FFF7DEF92020FFF7E4F94DF23220FFF7CE
:103B9000D7F90F20FFF7DDF94DF23320FFF7D0F909
:103BA0008E20FFF7D6F94DF23420FFF7C9F9FF2038
:103BB000FFF7CFF94FF45340FFF7C2F90020FFF7AA
:103BC000C8F94DF20130FFF7BBF90020FFF7C1F94A
:103BD0004DF20230FFF7B4F91B20FFF7BAF94DF2AE
:103BE0000330FFF7ADF94420FFF7B3F94DF204308D
:103BF000FFF7A6F96220FFF7ACF94DF20530FFF7A9
:103C00009FF90020FFF7A5F94DF20630FFF798F96C
:103C10007B20FFF79EF94DF20730FFF791F9A120C5
:103C2000FFF797F94DF20830FFF78AF9C020FFF748
:103C300090F94DF20930FFF783F9EE20FFF789F98B
:103C40004DF20A30FFF77CF95520FFF782F94DF26B
:103C50000B30FFF775F91020FFF77BF94DF20C30B0
:103C6000FFF76EF92C20FFF774F94DF20D30FFF7D6
:103C700067F94320FFF76DF94DF20E30FFF760F959
:103C80005720FFF766F94DF20F30FFF759F955202D
:103C9000FFF75FF94DF21030FFF752F96820FFF798
:103CA00058F94DF21130FFF74BF97820FFF751F931
:103CB0004DF21230FFF744F98720FFF74AF94DF231
:103CC0001330FFF73DF99420FFF743F94DF214301C
:103CD000FFF736F95520FFF73CF94DF21530FFF7A5
:103CE0002FF9A020FFF735F94DF21630FFF728F92C
:103CF000AC20FFF72EF94DF21730FFF721F9B6206F
:103D0000FFF727F94DF21830FFF71AF9C120FFF736
:103D100020F94DF21930FFF713F95520FFF719F983
:103D20004DF21A30FFF70CF9CB20FFF712F94DF2E4
:103D30001B30FFF705F9CD20FFF70BF94DF21C30D2
:103D4000FFF7FEF8D620FFF704F94DF21D30FFF71C
:103D5000F7F8DF20FFF7FDF84DF21E30FFF7F0F81F
:103D60009520FFF7F6F84DF21F30FFF7E9F8E8204D
:103D7000FFF7EFF84DF22030FFF7E2F8F120FFF700
:103D8000E8F84DF22130FFF7DBF8FA20FFF7E1F811
:103D90004DF22230FFF7D4F80220FFF7DAF84DF2A7
:103DA0002330FFF7CDF8AA20FFF7D3F84DF22430E7
:103DB000FFF7C6F80B20FFF7CCF84DF22530FFF7E0
:103DC000BFF81320FFF7C5F84DF22630FFF7B8F81B
:103DD0001D20FFF7BEF84DF22730FFF7B1F826207F
:103DE000FFF7B7F84DF22830FFF7AAF8AA20FFF73F
:103DF000B0F84DF22930FFF7A3F83020FFF7A9F80B
:103E00004DF22A30FFF79CF83C20FFF7A2F84DF264
:103E10002B30FFF795F84A20FFF79BF84DF22C3036
:103E2000FFF78EF86320FFF794F84DF22D30FFF77F
:103E300087F8EA20FFF78DF84DF22E30FFF780F873
:103E40007920FFF786F84DF22F30FFF779F8A6209A
:103E5000FFF77FF84DF23030FFF772F8D020FFF710
:103E600078F84DF23130FFF76BF82020FFF771F84A
:103E70004DF23230FFF764F80F20FFF76AF84DF289
:103E80003330FFF75DF88E20FFF763F84DF23430E2
:103E9000FFF756F8FF20FFF75CF84FF45440FFF7A8
:103EA0004FF80020FFF755F84DF20140FFF748F8B2
:103EB0000020FFF74EF84DF20240FFF741F81B20BB
:103EC000FFF747F84DF20340FFF73AF84420FFF7B9
:103ED00040F84DF20440FFF733F86220FFF739F85D
:103EE0004DF20540FFF72CF80020FFF732F84DF2B5
:103EF0000640FFF725F87B20FFF72BF84DF207402F
:103F0000FFF71EF8A120FFF724F84DF20840FFF755
:103F100017F8C020FFF71DF84DF20940FFF710F821
:103F2000EE20FFF716F84DF20A40FFF709F855208A
:103F3000FFF70FF84DF20B40FFF702F81020FFF7E4
:103F400008F84DF20C40FEF7FBFF2C20FFF701F8BC
:103F50004DF20D40FEF7F4FF4320FEF7FAFF4DF25D
:103F60000E40FEF7EDFF5720FEF7F3FF4DF20F4036
:103F7000FEF7E6FF5520FEF7ECFF4DF21040FEF78E
:103F8000DFFF6820FEF7E5FF4DF21140FEF7D8FF96
:103F90007820FEF7DEFF4DF21240FEF7D1FF8720BA
:103FA000FEF7D7FF4DF21340FEF7CAFF9420FEF74D
:103FB000D0FF4DF21440FEF7C3FF5520FEF7C9FFB6
:103FC0004DF21540FEF7BCFFA020FEF7C2FF4DF2F8
:103FD0001640FEF7B5FFAC20FEF7BBFF4DF21740D1
:103FE000FEF7AEFFB620FEF7B4FF4DF21840FEF725
:103FF000A7FFC120FEF7ADFF4DF21940FEF7A0FF6D
:104000005520FEF7A6FF4DF21A40FEF799FFCB2090
:10401000FEF79FFF4DF21B40FEF792FFCD20FEF70B
:1040200098FF4DF21C40FEF78BFFD620FEF791FF64
:104030004DF21D40FEF784FFDF20FEF78AFF4DF2B0
:104040001E40FEF77DFF9520FEF783FF4DF21F40D7
:10405000FEF776FFE820FEF77CFF4DF22040FEF7EA
:104060006FFFF120FEF775FF4DF22140FEF768FF6C
:10407000FA20FEF76EFF4DF22240FEF761FF0220AC
:10408000FEF767FF4DF22340FEF75AFFAA20FEF726
:1040900060FF4DF22440FEF753FF0B20FEF759FF5F
:1040A0004DF22540FEF74CFF1320FEF752FF4DF274
:1040B0002640FEF745FF1D20FEF74BFF4DF227403F
:1040C000FEF73EFF2620FEF744FF4DF22840FEF7A4
:1040D00037FFAA20FEF73DFF4DF22940FEF730FFE3
:1040E0003020FEF736FF4DF22A40FEF729FF3C2034
:1040F000FEF72FFF4DF22B40FEF722FF4A20FEF77E
:1041000028FF4DF22C40FEF71BFF6320FEF721FF36
:104110004DF22D40FEF714FFEA20FEF71AFF4DF294
:104120002E40FEF70DFF7920FEF713FF4DF22F40D2
:10413000FEF706FFA620FEF70CFF4DF23040FEF71B
:10414000FFFED020FEF705FF4DF23140FEF7F8FEEE
:104150002020FEF7FEFE4DF23240FEF7F1FE0F206A
:10416000FEF7F7FE4DF23340FEF7EAFE8E20FEF733
:10417000F0FE4DF23440FEF7E3FEFF20FEF7E9FECD
:104180004FF45540FEF7DCFE0020FEF7E2FE4DF254
:104190000150FEF7D5FE0020FEF7DBFE4DF2025087
:1041A000FEF7CEFE1B20FEF7D4FE4DF20350FEF7C5
:1041B000C7FE4420FEF7CDFE4DF20450FEF7C0FED0
:1041C0006220FEF7C6FE4DF20550FEF7B9FE002054
:1041D000FEF7BFFE4DF20650FEF7B2FE7B20FEF763
:1041E000B8FE4DF20750FEF7ABFEA120FEF7B1FE80
:1041F0004DF20850FEF7A4FEC020FEF7AAFE4DF2D5
:104200000950FEF79DFEEE20FEF7A3FE4DF20A5088
:10421000FEF796FE5520FEF79CFE4DF20B50FEF782
:104220008FFE1020FEF795FE4DF20C50FEF788FE33
:104230002C20FEF78EFE4DF20D50FEF781FE43203E
:10424000FEF787FE4DF20E50FEF77AFE5720FEF77E
:1042500080FE4DF20F50FEF773FE5520FEF779FEFB
:104260004DF21050FEF76CFE6820FEF772FE4DF224
:104270001150FEF765FE7820FEF76BFE4DF21250EE
:10428000FEF75EFE8720FEF764FE4DF21350FEF748
:1042900057FE9420FEF75DFE4DF21450FEF750FEDF
:1042A0005520FEF756FE4DF21550FEF749FEA020B0
:1042B000FEF74FFE4DF21650FEF742FEAC20FEF721
:1042C00048FE4DF21750FEF73BFEB620FEF741FECA
:1042D0004DF21850FEF734FEC120FEF73AFE4DF2C3
:1042E0001950FEF72DFE5520FEF733FE4DF21A5001
:1042F000FEF726FECB20FEF72CFE4DF21B50FEF7FC
:104300001FFECD20FEF725FE4DF21C50FEF718FED5
:10431000D620FEF71EFE4DF21D50FEF711FEDF20E7
:10432000FEF717FE4DF21E50FEF70AFE9520FEF72F
:1043300010FE4DF21F50FEF703FEE820FEF709FEC7
:104340004DF22050FEF7FCFDF120FEF702FE4DF28B
:104350002150FEF7F5FDFA20FEF7FBFD4DF222504D
:10436000FEF7EEFD0220FEF7F4FD4DF22350FEF7BE
:10437000E7FDAA20FEF7EDFD4DF22450FEF7E0FD2B
:104380000B20FEF7E6FD4DF22550FEF7D9FD132078
:10439000FEF7DFFD4DF22650FEF7D2FD1D20FEF7A1
:1043A000D8FD4DF22750FEF7CBFD2620FEF7D1FDBC
:1043B0004DF22850FEF7C4FDAA20FEF7CAFD4DF2CB
:1043C0002950FEF7BDFD3020FEF7C3FD4DF22A5007
:1043D000FEF7B6FD3C20FEF7BCFD4DF22B50FEF77C
:1043E000AFFD4A20FEF7B5FD4DF22C50FEF7A8FDBB
:1043F0006320FEF7AEFD4DF22D50FEF7A1FDEA2041
:10440000FEF7A7FD4DF22E50FEF79AFD7920FEF73C
:10441000A0FD4DF22F50FEF793FDA620FEF799FD6B
:104420004DF23050FEF78CFDD020FEF792FD4DF29C
:104430003150FEF785FD2020FEF78BFD4DF2325006
:10444000FEF77EFD0F20FEF784FD4DF23350FEF7A0
:1044500077FD8E20FEF77DFD4DF23450FEF770FDA6
:10446000FF20FEF776FD4FF45640FEF769FD002071
:10447000FEF76FFD4DF20160FEF762FD0020FEF7D2
:1044800068FD4DF20260FEF75BFD1B20FEF761FD4B
:104490004DF20360FEF754FD4420FEF75AFD4DF245
:1044A0000460FEF74DFD6220FEF753FD4DF20560FE
:1044B000FEF746FD0020FEF74CFD4DF20660FEF7CC
:1044C0003FFD7B20FEF745FD4DF20760FEF738FD0E
:1044D000A120FEF73EFD4DF20860FEF731FDC02041
:1044E000FEF737FD4DF20960FEF72AFDEE20FEF7DC
:1044F00030FD4DF20A60FEF723FD5520FEF729FD41
:104500004DF20B60FEF71CFD1020FEF722FD4DF270
:104510000C60FEF715FD2C20FEF71BFD4DF20D6023
:10452000FEF70EFD4320FEF714FD4DF20E60FEF780
:1045300007FD5720FEF70DFD4DF20F60FEF700FD61
:104540005520FEF706FD4DF21060FEF7F9FC6820DD
:10455000FEF7FFFC4DF21160FEF7F2FC7820FEF74B
:10456000F8FC4DF21260FEF7EBFC8720FEF7F1FC41
:104570004DF21360FEF7E4FC9420FEF7EAFC4DF2E6
:104580001460FEF7DDFC5520FEF7E3FC4DF21560EC
:10459000FEF7D6FCA020FEF7DCFC4DF21660FEF71D
:1045A000CFFCAC20FEF7D5FC4DF21760FEF7C8FC3F
:1045B000B620FEF7CEFC4DF21860FEF7C1FCC1201C
:1045C000FEF7C7FC4DF21960FEF7BAFC5520FEF766
:1045D000C0FC4DF21A60FEF7B3FCCB20FEF7B9FC2D
:1045E0004DF21B60FEF7ACFCCD20FEF7B2FC4DF2A5
:1045F0001C60FEF7A5FCD620FEF7ABFC4DF21D605B
:10460000FEF79EFCDF20FEF7A4FC4DF21E60FEF7D5
:1046100097FC9520FEF79DFC4DF21F60FEF790FC85
:10462000E820FEF796FC4DF22060FEF789FCF120B1
:10463000FEF78FFC4DF22160FEF782FCFA20FEF7B8
:1046400088FC4DF22260FEF77BFC0220FEF781FC25
:104650004DF22360FEF774FCAA20FEF77AFC4DF2BF
:104660002460FEF76DFC0B20FEF773FC4DF2256015
:10467000FEF766FC1320FEF76CFC4DF22660FEF799
:104680005FFC1D20FEF765FC4DF22760FEF758FC2D
:104690002620FEF75EFC4DF22860FEF751FCAA20B2
:1046A000FEF757FC4DF22960FEF74AFC3020FEF77A
:1046B00050FC4DF22A60FEF743FC3C20FEF749FC1B
:1046C0004DF22B60FEF73CFC4A20FEF742FC4DF217
:1046D0002C60FEF735FC6320FEF73BFC4DF22D60AD
:1046E000FEF72EFCEA20FEF734FC4DF22E60FEF7BA
:1046F00027FC7920FEF72DFC4DF22F60FEF720FC01
:10470000A620FEF726FC4DF23060FEF719FCD02003
:10471000FEF71FFC4DF23160FEF712FC2020FEF781
:1047200018FC4DF23260FEF70BFC0F20FEF711FC77
:104730004DF23360FEF704FC8E20FEF70AFC4DF2CA
:104740003460FEF7FDFBFF20FEF703FC4FF4304022
:10475000FEF7F6FB0520FEF7FCFB4BF20100FEF72F
:10476000EFFB0520FEF7F5FB4BF20200FEF7E8FB3E
:104770000520FEF7EEFB4FF43140FEF7E1FB05208C
:10478000FEF7E7FB4BF20110FEF7DAFB0520FEF720
:10479000E0FB4BF20210FEF7D3FB0520FEF7D9FB3E
:1047A0004FF43640FEF7CCFB3420FEF7D2FB4BF241
:1047B0000160FEF7C5FB3420FEF7CBFB4BF2036034
:1047C000FEF7BEFB3420FEF7C4FB4FF43740FEF784
:1047D000B7FB2420FEF7BDFB4BF20170FEF7B0FBE8
:1047E0002420FEF7B6FB4BF20270FEF7A9FB242053
:1047F000FEF7AFFB4FF43840FEF7A2FB2420FEF794
:10480000A8FB4BF60100FEF79BFB2420FEF7A1FB63
:104810004BF60200FEF794FB2420FEF79AFB4FF4C0
:104820003A40FEF78DFB1420FEF793FB4BF6012078
:10483000FEF786FB1420FEF78CFB4BF60220FEF7FA
:104840007FFB1420FEF785FB4FF43940FEF778FB21
:104850002420FEF77EFB4BF60110FEF771FB2420AF
:10486000FEF777FB4BF60210FEF76AFB2420FEF7FB
:1048700070FB4FF43C40FEF763FB0020FEF769FB42
:104880004BF60140FEF75CFBA020FEF762FB4BF607
:104890000240FEF755FB0020FEF75BFB4FF43D4066
:1048A000FEF74EFB0020FEF754FB4BF60150FEF7DF
:1048B00047FBA020FEF74DFB4BF60250FEF740FBF6
:1048C0000020FEF746FB4BF60160FEF739FB3D206A
:1048D000FEF73FFB4FF47040FEF732FB5520FEF72A
:1048E00038FB4FF20100FEF72BFBAA20FEF731FB4D
:1048F0004FF20200FEF724FB5220FEF72AFB4FF294
:104900000300FEF71DFB0820FEF723FB4FF2040017
:10491000FEF716FB0020FEF71CFB4FF43440FEF7B9
:104920000FFB1020FEF715FB4FF43C40FEF708FB91
:104930000520FEF70EFB4BF60140FEF701FB0520BC
:10494000FEF707FB4BF60240FEF7FAFA0520FEF7EA
:1049500000FB4FF43740FEF7F3FA2220FEF7F9FA96
:104960004BF20170FEF7ECFA2220FEF7F2FA4CF659
:104970000B00FEF7E5FA2A20FEF7EBFA4CF60C00E6
:10498000FEF7DEFA2A20FEF7E4FA4CF60F00FEF7F7
:10499000D7FA2A20FEF7DDFA4CF61000FEF7D0FA1F
:1049A0002A20FEF7D6FA4FF45040FEF7C9FA01204C
:1049B000FEF7CFFA4FF43340FEF7C2FA1020FEF7AD
:1049C000C8FA4BF60250FEF7BBFA0720FEF7C1FA11
:1049D0004BF60260FEF7B4FA0720FEF7BAFA4BF680
:1049E0000270FEF7ADFA0720FEF7B3FA4FF47040FD
:1049F000FEF7A6FA5520FEF7ACFA4FF20100FEF7DB
:104A00009FFAAA20FEF7A5FA4FF20200FEF798FAE5
:104A10005220FEF79EFA4FF20300FEF791FA0820AB
:104A2000FEF797FA4FF20400FEF78AFA0220FEF72B
:104A300090FA4CF20130FEF783FAA920FEF789FACA
:104A40004FF60160FEF77CFA9420FEF782FA4FF4ED
:104A50007640FEF775FA6020FEF77BFA4FF454506B
:104A6000FEF76EFA0020FEF774FA4FF48850FEF756
:104A700067FA782003F07DF84FF42450FEF760FACF
:104A8000642003F076F84FF46850FEF759FA552089
:104A9000FEF75FFA4FF45850FEF752FAA820FEF7DF
:104AA00058FA0120FEF7F5FB0020FE4908604FF69A
:104AB000FF70FEF770FC19B000BD2DE9F04F054600
:104AC0000E4617469846DDF824A04FF0000B781BE1
:104AD000401C1FFA80FB344614E021462846FEF7AE
:104AE00078FAFEF75DFA4FF0000907E04FF0D84082
:104AF000A0F880A009F101001FFA80F9D945F5DB83
:104B0000601C84B24445E8DDBDE8F08F2DE9F84F24
:104B100007460D4690469946DDF828B0A8EB0700F9
:104B2000401C1FFA80FAA9EB0500401C80B20090DF
:104B3000002414E0281981B23846FEF74AFAFEF73D
:104B40002FFA002607E004FB0A603BF81000D64964
:104B50000880701C86B25645F5DB601C84B2009854
:104B60008442E7DBBDE8F88F2DE9FF4F84B0814632
:104B70008A460020039002900698A0EB090507984A
:104B8000A0EB0A06CDF80490CDF800A0002D01DDC1
:104B9000012705E00DB9002702E04FF0FF376D4215
:104BA000002E02DD4FF0010806E016B94FF00008B4
:104BB00002E04FF0FF387642B54201DD2C4600E0BE
:104BC00034464FF0000B21E0009A91B2019A90B266
:104BD000FEF724FB03982844039002983044029087
:104BE0000398A04205DD0398001B03900198384408
:104BF00001900298A04205DD0298001B02900098E7
:104C0000404400900BF101001FFA80FB601C8345BB
:104C1000DADD08B0BDE8F08FF0B504460D46164663
:104C20001F462B46324629462046FFF79DFF3B464E
:104C3000224629462046FFF797FF3B463246394633
:104C40002046FFF791FF3B46324629463046FFF7A4
:104C50008BFFF0BD2DE9F04306460F469046002439
:104C600045460320A0EB48093CE07A1B91B232197B
:104C700090B2FEF7D3FA3A1B91B2721990B2FEF7D6
:104C8000CDFA3A1991B2721990B2FEF7C7FA7A19B1
:104C900091B2321990B2FEF7C1FA7A1991B2321B71
:104CA00090B2FEF7BBFA3A1991B2721B90B2FEF7BE
:104CB000B5FA7A1B91B2321B90B2FEF7AFFA3A1BEB
:104CC00091B2721B90B2FEF7A9FA641CB9F1000F01
:104CD00003DAA000801D814404E0601B80000A30DC
:104CE00081446D1EAC42C0DDBDE8F0832DE9F84F74
:104CF0000746884616461C46C3462046E31704EB83
:104D00005373DB1021464FEAE47C04EB5C7C4FEAF2
:104D1000EC0CA4EBCC0CBCF1000F02D04FF0010C5A
:104D200001E04FF0000C6344224604EBD27C4FEAD2
:104D30006C0C03FB0CF3DBB20093A6F12000C6B2AF
:104D4000002556E00C2C07D106EB4600574901EB35
:104D5000800010F8059013E0102C05D1544800EBAA
:104D6000061010F805900BE0182C07D106EBC600D2
:104D7000504901EB800010F8059001E0BDE8F88F84
:104D80004FF0000A2FE009F0800030B14A48028855
:104D900041463846FEF751FA07E00A9828B94748D5
:104DA000028841463846FEF748FA4FEA49604FEA22
:104DB000106908F101001FFA80F841480088B842E4
:104DC00000DCDBE7A8EB0B00A04208D1D846781C3A
:104DD00087B23B480088B84200DCCFE706E00AF122
:104DE000010000F0FF0ABAF1080FCCDB00BF681C1D
:104DF000C5B200988542A5DB00BFBFE710B50246EB
:104E0000012000E050430B1EA1F10104E1B2F9D1F1
:104E100010BD2DE9FF4F81B0074691461E460E9DFD
:104E20004FF0000A002439E0301B401EC1B20A20B6
:104E3000FFF7E4FFB9FBF0F00A21B0FBF1F201FB50
:104E40001208BAF1000F16D1701EA04213DDB8F19E
:104E5000000F0ED10020AB4605EBDB71491001FBC2
:104E60000471009088B22B4620220299FFF73EFF82
:104E700012E04FF0010A0020AB4605EBDB71491050
:104E800001FB0471009088B208F13001CAB22B46D0
:104E90000299FFF72BFF00BF601CC4B2B442C3DB12
:104EA00005B00FE0BC8240428000006C0C59010844
:104EB000805D0108706301082600002028000020A2
:104EC000483B0020BDE8F08F2DE9FF4F82B0064639
:104ED00092461F46DDE90F480020019000254DE075
:104EE000781B401EC1B20A20FFF788FFBAFBF0F022
:104EF0000A21B0FBF1F201FB1209019850BB781EA8
:104F0000A84227DDB9F1000F22D108F0800078B166
:104F100008F00100A34604EBDB71491001FB0561B9
:104F2000009088B2234630220399FFF7DFFE0EE09F
:104F300008F00100A34604EBDB71491001FB056199
:104F4000009088B2234620220399FFF7CFFE13E09A
:104F50000120019008F00100A34604EBDB71491029
:104F600001FB0561009088B209F13001CAB2234605
:104F70000399FFF7BBFE00BF681CC5B2BD42AFDBA3
:104F800006B0BDE8F08F2DE9F84704460D4690467F
:104F90009946DDE9096704F0FF0A08EB04001FFAEF
:104FA00080F809EB05001FFA80F916E0444502DBA2
:104FB0005446A81985B24D4500DB14E0002000904E
:104FC0003A78334629462046FFF790FE304606EBF6
:104FD000D07104EB61018CB27F1C38787E2802DC32
:104FE00038782028E2DA00BFBDE8F8870948804712
:104FF00009480047FEE7FEE7FEE7FEE7FEE7FEE7BB
:10500000FEE7FEE7FEE7FEE704480549054A064BD2
:1050100070470000A10400088901000800F3012086
:1050200000FD012000F5012000F501203249014377
:10503000324A1160704770B5002100230F22C478F6
:105040001CB32E4C246804F4E064C4F5E064C4F39B
:105050000721C1F10404E3B20A4144789C40E1B263
:105060008478144021430C07210E254C05786155A6
:10507000047804F01F050124AC4005786D11AD00E3
:1050800005F1E025C5F8004109E0047804F01F05AA
:105090000124AC401B4D0678761145F8264070BDC2
:1050A000194A0A400243154B1B1F1A60704739B159
:1050B000124A121D12680243104B1B1D1A6006E0B3
:1050C0000E4A121D126882430C4B1B1D1A6070475A
:1050D000042808D14FF0E021096941F004014FF0A4
:1050E000E022116107E04FF0E021096921F004019D
:1050F0004FF0E022116170470000FA050CED00E06E
:1051000000E400E080E100E080FFFF1F30B943F2DF
:10511000DB028100A1F1C0410A6005E043F2D20246
:105120008100A1F1C0410A606FF07042411C89000A
:10513000A1F1C0410A608100A1F1C041C1F8042180
:105140007047D0E901121143C2681143026911434B
:105150004269114382691143C2691143026A1143D2
:10516000426A1143826A1143C26A1143026B1143BE
:1051700002689200A2F1C0421160816808290BD137
:1051800001688900A1F1C041096841F0400201684D
:105190008900A1F1C0410A60416B0968426B526805
:1051A00041EA0211426B926841EA0221426B928904
:1051B00041EA0241426B128A41EA0251426B127D7E
:1051C00041EA0261426B926911430268521C9200EB
:1051D000A2F1C0421160C16AB1F5804F1BD1816B51
:1051E0000968826B526841EA0211826B926841EA57
:1051F0000221826B128A41EA0251826B127D41EADE
:105200000261826B9269114302689200A2F1C0426E
:10521000C2F8041107E06FF0704201688900A1F143
:10522000C041C1F8042170470021016002214160A2
:1052300000218160C160016141618161C1610162E0
:105240004FF480514162490081620021C1620163D3
:10525000F84941638163704751B18200A2F1C042B5
:10526000126842F001038200A2F1C042136009E01B
:105270008200A2F1C0421268EF4B1A408300A3F1F2
:10528000C0431A60704710280AD118214FF02042FD
:105290001166402151664FF0FC319166D16610E0F5
:1052A0001821E64A116040214FF02042C2F88410D4
:1052B0004FF0FC31E14A083211604FF02042C2F851
:1052C0008C10704730B5002100220023446844F060
:1052D000080485682C43C5682C4305692C4345693F
:1052E00044EA4524856944EA4531C4692468C569AE
:1052F0006D6844EA0524C5692D8944EA0544C569F9
:105300002D7B44EA0562046A2468056A6D6844EAF4
:105310000524056A2D8944EA0544056A2D7B44EA83
:1053200005630468102C05D14FF020442166A26665
:10533000E36608E0C14C21604FF02044C4F88820A7
:10534000BE4C0C34236030BD10210160002141604F
:105350008160C160016141618161FC21C2691160AC
:10536000C2695160C2699160C269D160026A11600C
:10537000026A5160026A9160026AD160704799B115
:10538000102808D14FF02042126E42F004024FF074
:1053900020431A661DE0A94A126842F004024FF049
:1053A0002043C3F8802014E0102809D14FF0204298
:1053B000126EA14BDB1E1A404FF020431A6608E024
:1053C0009E4A12689C4BDB1E1A404FF02043C3F8E4
:1053D0008020704799B1102808D14FF02042126EFA
:1053E00042F040024FF020431A661DE0934A1268D3
:1053F00042F040024FF02043C3F8802014E0102810
:1054000009D14FF02042126E8B4B3F3B1A404FF0B8
:1054100020431A6608E0894A1268874B3F3B1A40CE
:105420004FF02043C3F88020704701460020102928
:1054300003D14FF02042506F02E0804A14321068CE
:10544000704718207D492031086000200906C1F806
:10545000A4004FF0FC30794928310860091D08602C
:10546000091D08607047016841F01001426841EA77
:105470004221826841EA4231704A20321160C1689B
:105480000968C268526841EA0221C268128941EA89
:105490000241C268127B41EA0261684A2832116007
:1054A000016909680269526841EA022102691289A8
:1054B00041EA02410269127B41EA02615F4A2C32F1
:1054C0001160416909684269526841EA02214269F2
:1054D000128941EA02414269127B41EA02614FF0BE
:1054E0002042C2F8B0107047002101604160816025
:1054F000FC21C2681160C2685160C2689160C268D4
:10550000D1600269116002695160026991600269AB
:10551000D16042691160426951604269916042699B
:10552000D160704748B145492031096841F0040114
:105530004FF02042C2F8A01009E04049203109682C
:105540003D4AD21E11404FF02042C2F8A0107047D1
:1055500010B5F2B1102807D14FF020435B6E0B431A
:105560004FF02044636632E0B0F5807F08D1334BC2
:105570001B1D1B680B434FF02044C4F8843026E009
:105580002E4B24331B680B434FF02044C4F8A43047
:105590001DE0102807D14FF020435B6E8B434FF086
:1055A0002044636613E0B0F5807F08D1234B1B1DB8
:1055B0001B688B434FF02044C4F8843007E01F4B36
:1055C00024331B688B434FF02044C4F8A43010BD33
:1055D00010B5024600200023102A03D14FF02044CA
:1055E000636E09E0B2F5807F03D1144C241D23685B
:1055F00002E0124C2434236803EA01040CB10120B8
:1056000000E0002010BD102807D14FF02042526E5C
:105610008A434FF020435A6619E0B0F5807F0FD1DE
:10562000064A121D12688A434FF02043C3F88420B3
:105630000DE00000CC700108FEFF0F00800000A00C
:10564000234A12688A434FF02043C3F8A4207047CE
:1056500070B502460020002300240025102A03D143
:105660004FF02046736E08E0B2F5807F03D1184EEC
:10567000203E336801E0164E336803EA010403EA72
:10568000D10514B10DB1012000E0002070BD10283B
:1056900008D14FF02042526E22EAD1024FF020434F
:1056A0005A6614E0B0F5807F09D1094A203A1268A1
:1056B00022EAD1024FF02043C3F8842007E0044AD5
:1056C000126822EAD1024FF02043C3F8A4207047A9
:1056D000A40000A010B504469848844208D10121D6
:1056E000084600F086FB0021012000F082FB76E0F6
:1056F0009348844208D10121022000F07AFB002166
:10570000022000F076FB6AE08E48844208D1012135
:10571000042000F06EFB0021042000F06AFB5EE034
:105720008948844208D10121082000F062FB002151
:10573000082000F05EFB52E08448844208D1012139
:10574000102000F056FB0021102000F052FB46E034
:105750007F48844208D10121202000F04AFB00212B
:10576000202000F046FB3AE07A48844208D101212B
:10577000402000F03EFB0021402000F03AFB2EE0EC
:105780007548844208D10121802000F032FB0021BD
:10579000802000F02EFB22E07048844208D10121D5
:1057A000801500F026FB0021A01500F022FB16E07A
:1057B0006B48844208D10121401500F01AFB0021FA
:1057C000601500F016FB0AE06648844207D101210B
:1057D000001500F00EFB0021201500F00AFB10BDA3
:1057E000F0B50A4600210023002400BF3DE001255A
:1057F00005FA01F3156805EA03049C4234D10568F3
:105800004F000326BE40B543056015794E00B540F4
:105810000668354305601579012D02D01579022DF2
:1058200016D185684F000326BE40B5438560557983
:105830004E00B540866835438560456801268E4038
:10584000B5434560456896798E40B6B235434560AC
:10585000C5684F000326BE40B543C560D5794E00EC
:10586000B540C6683543C560491C1029BFD3F0BD9B
:105870004FF6FF7101600021017141718171C171A9
:10588000704708B54FF480320092009A0A430092A4
:10589000009AC261C161009AC261C2690092C26984
:1058A000009208BD0246002013690B400BB1012095
:1058B00000E0002070470146086980B27047024648
:1058C000002053690B400BB1012000E0002070471D
:1058D0000146486980B27047018370474183704731
:1058E0000AB1018300E0418370474161704742691A
:1058F0004A4042617047F0B5002300244D07ED0E89
:1059000002FA05F3CE1000F1200555F826504E0797
:10591000F70E0F26BE40B543CF1000F1200646F823
:105920002750CE1000F1200555F8265045EA030413
:10593000CE1000F1200545F82640F0BD00000240E1
:105940000004024000080240000C02400010024027
:105950000014024000180240001C024000200240D7
:105960000024024000280240F948006840F001008D
:10597000F74908600020F64908310860F4480068DB
:10598000F4490840F2490860F348091D0860F348EB
:10599000EF4984310860F0481038091D0860EC4870
:1059A000006820F48020EA4908600020E8490C31B2
:1059B0000860E7498C31086070470021E44A921C76
:1059C000117011460870704710B50146002200237F
:1059D00000204A11012A02D1DD4C236808E0022A86
:1059E00003D1DB4C7034236802E0D94C7434236853
:1059F00001F01F02012494401C400CB1012000E082
:105A0000002010BD38B5002000900024002500BF04
:105A10003120FFF7D9FF05460098401C0090009800
:105A2000B0F5A04F01D0002DF2D03120FFF7CCFF10
:105A300008B1012400E00024204638BD01460020C2
:105A4000C34A106820F0F80040EAC10010607047B7
:105A5000C349086070470021BD4A7032117011704F
:105A6000012802D004280AD104E00121B84A70328A
:105A7000117005E00521B64A7032117000E000BFD8
:105A800000BF7047B7490860704770B5049C41EA91
:105A900082150126C6EB530645EA0645054345EA4D
:105AA0000465AB4E361D356070BDAD490866704764
:105AB000820142EA0172A64B84331A607047A849FA
:105AC0008866704710B5830143EA016343EA0273B5
:105AD0009F4C8834236010BDA14908677047A049D6
