:020000040800F2
:10000000C81C00200D02000821040008E1030008BC
:100010001D040008BD0200089B0B00080000000042
:100020000000000000000000000000003D09000882
:10003000C102000800000000A1070008510A0008E2
:1000400027020008270200082702000827020008EC
:1000500027020008270200082702000827020008DC
:1000600027020008270200082702000827020008CC
:1000700027020008270200082702000827020008BC
:1000800027020008270200082702000827020008AC
:10009000270200082702000827020008270200089C
:1000A000270200082702000827020008270200088C
:1000B000270200082702000827020008270200087C
:1000C000270200082702000827020008270200086C
:1000D00027020008B50A00082702000827020008C6
:1000E000270200082702000827020008270200084C
:1000F000270200082702000827020008270200083C
:10010000270200082702000827020008270200082B
:10011000270200082702000827020008270200081B
:10012000270200082702000827020008270200080B
:1001300000F002F800F05AF80AA090E8000C82449F
:100140008344AAF10107DA4501D100F04FF8AFF27C
:10015000090EBAE80F0013F0010F18BFFB1A43F0A5
:10016000010318472C1400004C1400000A444FF0FF
:10017000000C10F8013B13F0070408BF10F8014B06
:100180001D1108BF10F8015B641E05D010F8016B4B
:10019000641E01F8016BF9D113F0080F1EBF10F8AF
:1001A000014BAD1C0C1B09D16D1E58BF01F801CBD2
:1001B000FAD505E014F8016B01F8016B6D1EF9D555
:1001C0009142D6D37047000000230024002500266A
:1001D000103A28BF78C1FBD8520728BF30C148BFAA
:1001E0000B6070471FB51FBD10B510BD00F033F890
:1001F0001146FFF7F7FF00F01DFD00F051F803B4C2
:10020000FFF7F2FF03BC00F0CAFC0000094880477A
:1002100009480047FEE7FEE7FEE7FEE7FEE7FEE7E8
:10022000FEE7FEE7FEE7FEE704480549054A064B00
:1002300070470000550A000831010008C816002068
:10024000C81C0020C8180020C8180020704770473C
:10025000704770477047754600F02CF8AE460500B1
:100260006946534620F00700854618B020B5FFF7D1
:10027000DBFFBDE820404FF000064FF000074FF0D5
:1002800000084FF0000B21F00701AC46ACE8C009B4
:10029000ACE8C009ACE8C009ACE8C0098D467047BD
:1002A00010B50446AFF300802046BDE81040FFF7CC
:1002B000A6BF0000004870476816002000BFFEE798
:1002C00070472DE9F041024600250026002000235A
:1002D0000024002791F803C00CF00F0591F803C02B
:1002E0000CF0100CBCF1000F03D091F802C04CEAE6
:1002F000050591F800C0BCF1000F31D01468002052
:100300002BE04FF0010C0CFA00F3B1F800C00CEA3E
:1003100003069E4220D183004FF00F0C0CFA03F726
:10032000BC4305FA03FC4CEA040491F803C0BCF199
:10033000280F06D14FF0010C0CFA00FCC2F814C0D3
:100340000AE091F803C0BCF1480F05D14FF0010C51
:100350000CFA00FCC2F810C0401C0828D1D314606D
:10036000B1F800C0BCF1FF0F34DD546800202EE06E
:1003700000F1080C4FF0010808FA0CF3B1F800C0C6
:100380000CEA03069E4221D183004FF00F0C0CFAB9
:1003900003F7BC4305FA03FC4CEA040491F803C0DC
:1003A000BCF1280F05D100F1080C08FA0CF8C2F8CE
:1003B000148091F803C0BCF1480F07D100F1080C7C
:1003C0004FF0010808FA0CF8C2F81080401C082809
:1003D000CED35460BDE8F081416170470161704740
:1003E00000BFFEE708B50121042000F0EBF94FF44F
:1003F0008070ADF8000010208DF8030003208DF808
:10040000020069460448FFF75CFF4FF48071024820
:10041000FFF7E4FF08BD00000008014000BFFEE751
:10042000704710B54FF4A06000F002F810BD000056
:1004300002490143024A1160704700000000FA05BA
:100440000CED00E070B5002419E004F1B001C8B271
:10045000002100F081F90021084600F07DF900211B
:10046000102000F079F9002505E00121002000F0BE
:1004700073F9681CC5B2802DF7DB601CC4B2082C70
:10048000E3DB70BD2DE9F05F06460F4690461C4643
:10049000DDF828A04FF0000BE11704EB5171C910F3
:1004A000A4EBC10131B92046E11704EB5171C1F34E
:1004B000C70506E02046E11704EB5171C910491C3D
:1004C000CDB23D4615E02946304600F0A5F8B146CC
:1004D0000BE059460BF1010B1AF80100012100F065
:1004E0003BF909F1010000F0FF09C145F1DB681C8F
:1004F000C5B2A542E7DBBDE8F09F000008B50121C9
:10050000102000F05FF94020ADF8000010208DF8B9
:10051000030003208DF8020069463E48FFF7D1FE34
:1005200000F060F90021AE2000F016F90021084625
:1005300000F012F90021102000F00EF900214020F7
:1005400000F00AF90021812000F006F90021CF20F7
:1005500000F002F90021A12000F0FEF80021C820DF
:1005600000F0FAF80021A62000F0F6F80021A820FB
:1005700000F0F2F800213F2000F0EEF80021D32037
:1005800000F0EAF80021084600F0E6F80021D52046
:1005900000F0E2F80021802000F0DEF80021D920F0
:1005A00000F0DAF80021F12000F0D6F80021DA207E
:1005B00000F0D2F80021122000F0CEF80021DB205C
:1005C00000F0CAF80021402000F0C6F800212020E9
:1005D00000F0C2F80021022000F0BEF800218D20BA
:1005E00000F0BAF80021142000F0B6F80021A42091
:1005F00000F0B2F80021A62000F0AEF80021AF20F4
:1006000000F0AAF80021AF2000F0A6F8FFF71AFFCB
:1006100008BD00000010014070B504460D4605F10C
:10062000B001C8B2002100F097F8102141EA14107F
:10063000002100F091F804F00F0141F001000021C9
:1006400000F08AF870BD00002DE9F04180460E46AA
:100650001546002731464046FFF7DEFF00240AE03A
:10066000124A02EB8511085D012100F075F8781C33
:10067000C7B2601CC4B2102CF2DB701CC1B2404681
:10068000FFF7CAFF00240CE06900491C074A02EB8F
:100690004111085D012100F05FF8781CC7B2601CB1
:1006A000C4B2102CF0DBBDE8F0810000141400206F
:1006B0002DE9F04107460E46904600250024A8F19A
:1006C0002000C5B27F2F02DD0027B01CC6B2314624
:1006D0003846FFF7A1FF002408E004EB05110F4A9C
:1006E000505C012100F038F8601CC4B2082CF4DB27
:1006F000701CC1B23846FFF78FFF002409E004EBFD
:1007000005110831054A505C012100F025F8601CF4
:10071000C4B2082CF3DBBDE8F0810000A00F000894
:100720002DE9F04104460F46154600260EE0AA5D6D
:1007300039462046FFF7BCFF04F10800C4B2782C0C
:1007400002DD0024B81CC7B2701CC6B2A85D002828
:10075000EDD1BDE8F081000070B505460C4624B12E
:1007600040210D48FFF73AFE03E040210A48FFF719
:1007700033FE4FF480510948FFF72EFE284600F063
:100780008FF84FF480510548FFF728FE40210248BA
:10079000FFF724FE70BD000000100140000C014076
:1007A0007047000029B1064AD2690243044BDA615E
:1007B00004E0034AD2698243014BDA6170470000CA
:1007C0000010024029B1064A92690243044B9A6123
:1007D00004E0034A92698243014B9A61704700002A
:1007E0000010024000B587B001218803FFF7DAFF4F
:1007F00001210820FFF7E6FF4FF42040ADF8040088
:1008000003208DF8060018208DF8070001A9224862
:10081000FFF757FD4FF4A040ADF8040003208DF81A
:10082000060010208DF8070001A91B48FFF749FDBD
:100830004FF480411848FFF7CFFD4FF48041164830
:10084000FFF7CCFD4FF480511348FFF7C5FD0020A2
:10085000ADF808004FF48270ADF80A000020ADF842
:100860000C000220ADF80E000120ADF8100040028F
:10087000ADF812000020ADF81400ADF81600072006
:10088000ADF8180002A9054800F03AF80121034824
:1008900000F02AF807B000BD000C0140003800400D
:1008A0000246002105E0491CB1F5FA6F01D900208C
:1008B00070470C48008800F002000028F3D0094877
:1008C000001D0280002105E0491CB1F5FA6F01D935
:1008D0000020EDE70348008800F001000028F3D075
:1008E0000020E5E70838004021B1028842F04002CC
:1008F000028004E002884FF6BF731A4002807047FE
:1009000010B50022028802F441520B884C88234320
:100910008C882343CC8823430C8923434C8923436D
:100920008C892343CC8923431A430280838B4FF263
:10093000FF74234083830B8A038210BD704710B578
:1009400000F002F810BD00000CB5002001900090EE
:100950003348006840F480303149086000BF3048B7
:10096000006800F4003000900198401C019000984D
:1009700018B90198B0F5A06FF1D12948006800F4CA
:10098000003010B10120009001E00020009000989C
:10099000012843D12348006840F010002149086035
:1009A0000846006820F0030008600846006840F030
:1009B000020008601A4840681949486008464068C3
:1009C00048600846406840F48060486008464068D7
:1009D00020F47C1048600846406840F4E810486005
:1009E0000846006840F08070086000BF0C4800684E
:1009F00000F000700028F9D00948406820F003009A
:100A0000074948600846406840F00200486000BF5F
:100A10000348406800F00C000828F9D10CBD000024
:100A20000010024000200240042808D14FF0E021CD
:100A3000096941F004014FF0E022116107E04FF035
:100A4000E021096921F004014FF0E02211617047B3
:100A50007047000010B51348006840F001001149CC
:100A6000086008464068104908400E49486008463A
:100A700000680E4908400B4908600846006820F4E9
:100A8000802008600846406820F4FE0048604FF46B
:100A90001F008860FFF753FF4FF0006004490860B3
:100AA00010BD0000001002400000FFF8FFFFF6FE3E
:100AB00008ED00E010B540F225511D4800F03EF869
:100AC00010B31B4800F064F8C4B21A48008800F460
:100AD0000040C8B91748008800F4804060B10A2C73
:100AE00003D000201349088020E01248008840F419
:100AF00000401049088019E00D2C06D10D480088EF
:100B000040F480400B49088010E00A480088C0F398
:100B10000D0009490C5407480088401C054908800D
:100B200008460088C72801DD0020088010BD0000AD
:100B3000003801409C150020A015002070B5024629
:100B4000002400230025002040F66A16B14200D19F
:100B500000BFC1F3421501F01F03012606FA03F39B
:100B6000012D02D19689334006E0022D02D1168A6A
:100B7000334001E0968A33400C12012606FA04F451
:100B80001688344013B10CB1012000E0002070BD84
:100B900001468888C0F30800704700BFFEE700BF29
:100BA0007047000010B56FF00400FFF73DFF0A48E2
:100BB00000680A49B0FBF1F009490870084600785E
:100BC00000EB4001C1EBC0104FF6FF7101EAC0001D
:100BD0000449088010BD00000014002000127A00B3
:100BE00094150020961500200146114A12884A43A8
:100BF0004FF0E0235A6100229A611A46126942F0CE
:100C000001021A6100BF4FF0E022106900F00102FA
:100C10001AB100F48032002AF5D04FF0E0221269B8
:100C200022F001024FF0E0231A6100229A6170471E
:100C30009615002008B5FFF7B5FFFFF7F2FBFFF7A9
:100C4000D1FBFFF75BFC77E03C48006808B9012066
:100C500000E0002039490860FFF7F4FB002211464C
:100C60001046FFF7F1FC012200211220FFF7ECFCF7
:100C7000022200212420FFF7E7FC03220021362076
:100C8000FFF7E2FC042200214820FFF7DDFC0522EB
:100C900000215A20FFF7D8FC29A203210020FFF7EA
:100CA0003FFD2CA206210020FFF73AFD4FF44870CB
:100CB000FFF79AFF4FF44870FFF796FFFFF7C2FB6C
:100CC000284808238022002100900846FFF7DAFB1D
:100CD0004FF44870FFF788FF234808238022002143
:100CE00000900846FFF7CEFB4FF44870FFF77CFFFB
:100CF0001E4808238022002100900846FFF7C2FB0F
:100D00004FF44870FFF770FF194808238022002134
:100D100000900846FFF7B6FB4FF44870FFF764FFFA
:100D2000144808238022002100900846FFF7AAFB00
:100D30004FF44870FFF758FF86E70000A0012142FA
:100D40006D63756465762E74616F62616F2E636F7B
:100D50006D00000030393627204F4C454420544563
:100D60005354000000000020000400200008002070
:100D7000000C002000100020000000000000000017
:100D8000002F000000000700070000147F147F14EC
:100D900000242A7F2A120062640813230036495572
:100DA000225000000503000000001C22410000004A
:100DB00041221C000014083E08140008083E0808E0
:100DC000000000A06000000808080808000060603B
:100DD0000000002010080402003E5149453E00007A
:100DE000427F4000004261514946002141454B315C
:100DF000001814127F10002745454539003C4A4928
:100E00004930000171090503003649494936000699
:100E10004949291E00003636000000005636000001
:100E2000000814224100001414141414000041227C
:100E3000140800020151090600324959513E007C54
:100E40001211127C007F49494936003E414141223E
:100E5000007F4141221C007F49494941007F090927
:100E60000901003E4149497A007F0808087F0000D7
:100E7000417F4100002040413F01007F0814224192
:100E8000007F40404040007F020C027F007F04084A
:100E9000107F003E4141413E007F09090906003EA6
:100EA0004151215E007F09192946004649494931CF
:100EB0000001017F0101003F4040403F001F2040F2
:100EC000201F003F4038403F0063140814630007B0
:100ED0000870080700615149454300007F41410007
:100EE00000552A552A55000041417F0000040201A7
:100EF0000204004040404040000001020400002085
:100F000054545478007F48444438003844444420C2
:100F100000384444487F00385454541800087E096F
:100F200001020018A4A4A47C007F08040478000037
:100F3000447D4000004080847D00007F10284400F4
:100F40000000417F4000007C04180478007C080405
:100F5000047800384444443800FC24242418001841
:100F6000242418FC007C080404080048545454202D
:100F700000043F444020003C4040207C001C2040B6
:100F8000201C003C4030403C004428102844001CF9
:100F9000A0A0A07C004464544C44141414141414F1
:100FA0000000000000000000000000000000000041
:100FB000000000F8000000000000003330000000D6
:100FC00000100C06100C06000000000000000000DD
:100FD00040C07840C0784000043F04043F0404004F
:100FE000007088FC08300000001820FF211E00005F
:100FF000F008F000E018000000211C031E211E0074
:1010000000F00888700000001E21232419272110F9
:1010100010160E000000000000000000000000009C
:10102000000000E018040200000000071820400043
:1010300000020418E0000000004020180700000033
:10104000404080F0804040000202010F0102020097
:10105000000000F0000000000101011F010101007B
:10106000000000000000000080B0700000000000E0
:101070000000000000000000000101010101010169
:101080000000000000000000003030000000000000
:1010900000000000806018040060180601000000D5
:1010A00000E010080810E000000F102020100F00D2
:1010B000001010F8000000000020203F2020000059
:1010C00000700808088870000030282422213000B1
:1010D00000300888884830000018202020110E00B9
:1010E0000000C02010F8000000070424243F240062
:1010F00000F80888880808000019212020110E0037
:1011000000E0108888180000000F112020110E0048
:1011100000380808C83808000000003F0000000040
:101120000070880808887000001C222121221C0001
:1011300000E010080810E0000000312222110F002A
:10114000000000C0C00000000000003030000000BF
:10115000000000800000000000008060000000002F
:101160000000804020100800000102040810200048
:101170004040404040404000040404040404040093
:101180000008102040800000002010080402010028
:10119000007048080808F000000000303601000028
:1011A000C030C828E810E0000718272423140B00DB
:1011B0000000C038E0000000203C23020227382055
:1011C00008F8888888700000203F202020110E0039
:1011D000C030080808083800071820202010080030
:1011E00008F808080810E000203F202020100F0019
:1011F00008F88888E8081000203F202023201800E5
:1012000008F88888E8081000203F2000030000004C
:10121000C03008080838000007182020221E0200ED
:1012200008F808000008F808203F210101213F20AC
:10123000000808F8080800000020203F20200000D7
:1012400000000808F8080800C08080807F000000C7
:1012500008F888C028180800203F20012638200000
:1012600008F8080000000000203F20202020300067
:1012700008F8F800F8F80800203F003F003F200081
:1012800008F830C00008F808203F200007183F0089
:10129000E01008080810E0000F10202020100F00B8
:1012A00008F808080808F000203F210101010000AB
:1012B000E01008080810E0000F18242438504F00F0
:1012C00008F8888888887000203F2000030C3020B0
:1012D00000708808080838000038202121221C00EE
:1012E000180808F8080818000000203F2000000037
:1012F00008F808000008F808001F202020201F0020
:101300000878880000C83808000007380E0100007F
:10131000F80800F80008F800033C0700073C030049
:10132000081868808068180820302C03032C3020AF
:101330000838C800C83808000000203F200000001E
:1013400010080808C8380800203826212020180076
:10135000000000FE020202000000007F404040004A
:10136000000C30C000000000000000010638C00082
:1013700000020202FE000000004040407F0000002A
:10138000000004020202040000000000000000004F
:10139000000000000000000080808080808080804D
:1013A0000002020400000000000000000000000035
:1013B00000008080808000000019242222223F202B
:1013C00008F8008080000000003F112020110E006E
:1013D0000000008080800000000E112020201100FD
:1013E000000000808088F800000E112020103F20AF
:1013F0000000808080800000001F22222222130033
:10140000008080F0888888180020203F202000007D
:101410000000808080808000006B94949493600032
:1014200008F8008080800000203F210000203F203D
:1014300000809898000000000020203F202000003D
:10144000000000809898000000C08080807F00002D
:1014500008F8000080808000203F24022D3020000A
:10146000000808F8000000000020203F20200000B5
:101470008080808080808000203F20003F20003FCF
:101480008080008080800000203F210000203F20DD
:101490000000808080800000001F202020201F008E
:1014A000808000808000000080FFA12020110E00BD
:1014B0000000008080808000000E112020A0FF80AE
:1014C000808080008080800020203F21200001005B
:1014D00000008080808080000033242424241900B0
:1014E000008080E0808000000000001F20200000BD
:1014F0008080000000808000001F202020103F20FE
:10150000808080000080808000010E30080601008D
:1015100080800080008080800F300C030C300F0032
:1015200000808000808080000020312E0E3120005D
:10153000808080000080808080818E70180601008D
:1015400000808080808080000021302C22213000AB
:1015500000000000807C020200000000003F4040CC
:1015600000000000FF00000000000000FF0000007D
:101570000002027C800000000040403F00000000AC
:101580000006010102020404000000000000000047
:10159000B015000800000020A01500006C01000834
:1015A0000C1C0008A015002028070000C801000836
:1015B00011100A03050911FF118905C312E012F089
:1015C00072F8073D4428FF11AA44700B8301384488
:1015D00082929274018328087C44FF017D7D7D0402
:1015E0004905647D01FF9A0102818A010B01366978
:1015F000419949FA0101011D38083F3F0303F313E4
:1016000011011E01F1116181312D816111F1393B0F
:101610004141072C01C1211EAB21C11439013936CA
:101620000738D33303033F3F23E0E06A7FA81A7FE4
:10163000BF4C0618060A213640407F40401C1F2040
:101640004001AB201F14113A600E6C300C034601B0
:10165000361C0707060178090404048444444484C2
:10166000071C0484C405790E09110A791129400365
:101670004107072610181412112E0F1010100F0F0B
:10168000331F1026081012120D22186B0D120A5962
:1016900029590701605A8001013D20087F030C3061
:1016A0000C037F2538545458257C04047805223CCB
:1016B00040407C17FFAAAAAA28080A2CFF681E2609
:1016C00049494932101D020408100FD9D35CC0E00B
:1016D000F001092117C129221DF8F8F8FC049EF831
:1016E000F0E0C0803A29172AFC199918011418084B
:1016F000FCFEFFFFFF7F3F052901910A14FE17B989
:101700007D4AFC1D5E3F1F0F0F1F2932F85AF80C4F
:101710001917B91801163507070301E969091517E3
:1017200029E9290141591C491D990D091618011D66
:10173000091527E91719D339010976804BE0F00123
:10174000410A717F804B1F3F01410A710780D14AD6
:101750003F1D1BFCF801490B337F0F4B0F7F0D29F9
:10176000175AFC180220074A0F01092517811C018E
:1017700003071E1A1F018F0F0F0707030117191800
:1017800029174918011416C0C0C080801B8080082A
:10179000190A215909B913390A1913691DB91349CD
:1017A0000A31390A7913290909170AD9BE3C0707F2
:1017B00007B329B039BD3A0113390AB913490A39B7
:1017C000135D018080010A191C7C03070E0A290998
:1017D00019015913C90A4A0F0A013A29C3000F42D5
:1017E0001C3EBCC0E0E0EFEFE0E0C0B83E3E0010C1
:1017F0001DFEFCFC8C8C8CACECEC8C9C9C9CFCFC56
:101800009F0707CFF8FEFF0157FEF8CF0F0707101D
:101810000BC0F0F878383838F8F0C06C80E0F00B86
:101820001117E0F03838F0E01A80B419011BC0C07D
:10183000C2E11946200DBBFBFBF9FFFFFBFBBB3BE5
:10184000FFFF193A3E3838181818084901697EAC6C
:1018500007071F7E29013D3F06070F812407070365
:101860001680E0F87F1F200B87CFFFFC787078FF91
:10187000DF8F1B01033636FDFF3F0301E601010741
:101880000706180980FFFF07383F3F31011B3F3F24
:101890008D011D1A0F6B4814C3E7EF1F3F3FBFBFF9
:1018A0003F3F1FCFEFC301070F0F0E496016E0F057
:1018B000FCDFCFC7C1C0C0C07FFFF1C08080C0E1E6
:1018C000FF7F1E1D1F7FFEE0121914E4F0F0703937
:1018D000B76129AA39CB011D3A03CA2B0F0FCF7A62
:1018E000033C19DB8901391A192829297920291281
:1018F000493C019F480880C0E0F0F0F07801190AE7
:1019000054E0C0805DF0F8F8F816790162303932A1
:101910003BF0F82D390C4AF80C4939012EB67EFF00
:10192000FFFF811A811042FF29081B80C060390126
:1019300019096A805F2B1F3F1C09100103333F1FE9
:101940002816C0F1F3FF7F3F3E1E1E1C1C1C1E1EEE
:101950003E3F7FFFF3F1E06A5809070F0F0F0703BF
:10196000030101700803073FFFFEFCC0190F0012BE
:1019700035070F1F1F3F3F7F7F7F3F1F1F0F070749
:1019800003011A7FB86AC0D9411B80C012227FAD03
:1019900070F0F0E0191C80C0F018420F780BF8F8D6
:1019A000F8606060E0C0E0E0074904013539CB2C05
:1019B0000F0F0E0129F319F4F919491869E2190EEC
:1019C00038080C0C0C0F073F3F071A0F95690401EC
:1019D000426EC0E070F0E0F8680980E0F8380C1C56
:1019E00078F010391F953870F0C08B80C00C093F1B
:1019F0007B2EC0703C1F07E11BFFF8725680F0FC85
:101A00001F033C031FFE8336C0F87F0F012D010F1B
:101A10007FF877691001515E010F3F703E7D619E36
:101A2000073F7C783F6D2F030F3E707C3FAD015622
:101A30001816808080C0C0606030301018181808F8
:101A4000080C0C0C0808080B180B1810303020205C
:101A5000606040C0220151180BC0E030180C060233
:101A600003030101111982091A64080B46010103DD
:101A700003060C0C18F0E0891CFCFF03FA780BC07D
:101A8000C0C0E0F0F0F8FCFEFF014AFE01DAFC0104
:101A90003BF8F0B50347FF3F280F031F7CE09F6F23
:101AA000FFFFF7FFFF1F1F1F791EF7FFEF5FBF0844
:101AB0002CBF5FEF161DFFBF1F1F0F00114CF7F764
:101AC000FF6F9FFFFFDFDFFFC8E0F8CE87017F01D8
:101AD000071F3F7F7FFA3CBFBE3F017BBFBE13297C
:101AE000011EFEFE7F7F3FA405550F0F07031C015B
:101AF0000103014A07011A0F67690129170A4A0100
:101B0000F2771C7EFEFE9C98000C14484848C8984A
:101B100098103060C08020125858C8ECECFEB8B065
:101B2000B0B0B8FEECECEC48489A40132AEE130A29
:101B30003140ED19EA100B0E0E0C1C1C1E1E3E1C33
:101B4000082401070E0414070F0438091F3F34341A
:101B500034373737060B1538181301157BA24A5254
:101B600000181301020304060708098080EE888824
:101B700088E88F088878484E40C0167F2424247F48
:101B80000808158140300F304180BE0417E21CE088
:101B900037804020100C030E10030C304080402C86
:101BA000101090010009121010FF101011161018DB
:101BB000082060203F101010400D10102040F860E9
:101BC0001D828282FE0449060911A01A80B95102C1
:101BD00017FF1F181610D0B897840B1192947F111D
:101BE000080D1120108C838041462810284443C0E2
:101BF000114FFE0222428272050213FE2FFF1008CF
:0C1C000006010E05041E4E807F0000004F
:0400000508000131BD
:00000001FF
