:020000040800F2
:10000000080500204501000801150008250E00081C
:10001000FD140008610700083D25000800000000ED
:100020000000000000000000000000001D1D00088E
:10003000C90800080000000009170008051E000894
:100040005F0100085F0100085F0100085F01000810
:100050005F0100085F0100085F0100085F01000800
:100060005F0100085F010008490900085F010008FE
:100070005F0100085F0100085F0100085F010008E0
:100080005F0100085F0100085F0100085F010008D0
:100090005F0100085F0100085F0100085F010008C0
:1000A0005F0100085F0100085F0100085F010008B0
:1000B0005F0100085F0100085F0100085F010008A0
:1000C0005F0100085F0100085F0100085F01000890
:1000D0005F0100085F0100085F0100085F01000880
:1000E0005F0100085F0100085F0100085F01000870
:1000F0005F0100085F0100085F0100085F01000860
:100100005F0100085F0100085F0100085F0100084F
:100110005F0100085F0100085F0100085F0100083F
:100120005F0100085F0100085F0100085F0100082F
:10013000DFF80CD000F002FB00480047192F000840
:10014000080500200648804706480047FEE7FEE70E
:10015000FEE7FEE7FEE7FEE7FEE7FEE7FEE7FEE777
:10016000891E000831010008D2B201E000F8012B1D
:10017000491EFBD270470022F6E710B513460A4627
:1001800004461946FFF7F0FF204610BD2DE9FE4F4B
:10019000804681EA0300C00F0C46009021F0004128
:1001A00023F00045B8EB0200A94105D240462146A4
:1001B00090461C460B46024623F00040104304D1F3
:1001C0004046214603B0BDE8F08F270DC7F30A0073
:1001D000C3F30A510290401A0190402866DAC3F333
:1001E000130040F4801B0098924620B10023D2EB0C
:1001F000030A63EB0B0B01985946C0F140025046CD
:1002000000F0DFF906460D4650465946019A00F0C7
:10021000F7F910EB08006141002487EA115284EAE3
:10022000E7731A433BD0009A3AB3019A012A4FEA86
:10023000075210DC001B61EB02014FF0004202EAA2
:100240000752CDE90042001C41F5801132462B4691
:1002500000F0F5F9B6E7001B61EB0201001C41F567
:10026000801300185B412018A2F5001747EB03012B
:1002700040EAD570B6196D4111E06D084FEA3606B7
:1002800045EAC0754FEA0752001B61EB0201001CF2
:1002900041F5801149084FEA3000001951413246BA
:1002A0002B4603B0BDE8F04F00F0BCB90098012226
:1002B00040000023D0EB020263EBE073009821467C
:1002C0004FEAE074B8EB000061EB0401E9E783F06A
:1002D00000435BE781F0004158E72DE9FE4F81EADA
:1002E000030404F0004421F0004100944FF0000B9F
:1002F00023F0004350EA010402D052EA030404D17F
:100300000020014603B0BDE8F08FC3F30A54C1F3E7
:100310000A552C44A4F2F3340194A0FB0254C1F317
:10032000130141F48011C3F3130343F4801301FB61
:10033000024400FB034E840A970A44EA815447EAC8
:100340008357A4FB076802958D0A05FB07854FEAD2
:10035000932C04FB0C542705029D4FEA065847EAEC
:100360001637B5EB08056EEB070C870E920E47EAC1
:10037000811742EA8312A7FB0201B6EB0B0164EB83
:1003800000042B0D43EA0C335E1844EB1C50DA4694
:100390005146E7FB0201C5F313044FEA0B3343EA6E
:1003A00014534FEA0432019C43EA0603A4F10C04FF
:1003B0000294009CCDE900B400F041F9A2E72DE9D8
:1003C000F04D81EA030404F0004B21F0004514468F
:1003D0004FF0000A23F0004150EA050220D054EA11
:1003E00001021DD0C5F30A570246C5F31303C1F33A
:1003F0001300C1F30A5640F4801543F48013A7EBB1
:100400000608101BD64608F2FD3873EB050002D330
:1004100008F1010801E092185B41B8F1000F03DA1E
:1004200000200146BDE8F08D00204FF48011064603
:1004300084460EE0171B73EB050705D3121B63EB15
:10044000050306434CEA010C49084FEA30009218B4
:100450005B4150EA0107EDD152EA030012D082EA73
:10046000040083EA0501084303D100224FF0004352
:1004700008E0101BAB4102D20122002302E06FF022
:10048000010253101AEB06004CEB085110EB0A0066
:1004900041EB0B01BDE8F04D00F0C4B80EB5C10F43
:1004A00080EAE0700844CA07002140F233438DE837
:1004B0000E000A460B4600F0C2F803B000BD0EB5B0
:1004C00040F2334102910021CDE900110A460B466A
:1004D00000F0B5F803B000BDC1F30A5210B5C1F386
:1004E000130140F2FF3341F480119A4201DA0020F7
:1004F00010BD40F233439A42A2F2334203DC52422F
:1005000000F06EF810BD904010BD000030B500291D
:1005100004DB4FF00044404264EB0101002B04DB9C
:100520004FF00044524264EB03038B4208BF824207
:1005300030BD000030B50B460146002020220124CA
:1005400009E021FA02F59D4205D303FA02F5491BA1
:1005500004FA02F52844151EA2F10102F1DC30BDB7
:100560002DE9F05F0546002092469B4688460646E8
:10057000814640241BE0284641464746224600F07B
:100580002FF853465A46C01A914110D311461846C7
:10059000224600F016F82D1A67EB01084F46224656
:1005A0000120002100F00DF817EB00094E41201E3C
:1005B000A4F10104DFDC484631462A464346BDE843
:1005C000F09F202A04DB203A00FA02F10020704755
:1005D0009140C2F1200320FA03F319439040704781
:1005E000202A04DB203A21FA02F00021704721FA88
:1005F00002F3D040C2F120029140084319467047EF
:10060000202A06DBCB17203A41FA02F043EAE073D6
:1006100006E041FA02F3D040C2F1200291400843C3
:100620001946704710B5002B08DA401C41F1000153
:1006300092185B411A4301D120F0010010BD2DE951
:10064000F04D92469B4611B1B1FA81F202E0B0FA48
:1006500080F220329046FFF7B4FF04460F4640EA8E
:100660000A0041EA0B0153465A46084303D120468B
:100670003946BDE8F08D114653EA010015D0C8F1A6
:1006800040025046FFF7ACFF05460E46504659461D
:100690004246FFF796FF084301D0012000E000200A
:1006A000054346EAE0762C4337430A984FEA445321
:1006B000A0EB08004FEAD4240A304FF0000244EACD
:1006C00047544FEAD72502D500200146D1E701055E
:1006D00010196941DDE9084500196941BDE8F04D8F
:1006E000A0E7C1F30A52C1F3130140F2FF3341F412
:1006F00080119A4202DA00200146704740F23343EB
:100700009A42A2F2334202DC5242FFF769BFFFF77E
:1007100058BF000030B5002904DB4FF000444042D0
:1007200064EB0101002B04DB4FF00044524264EB08
:100730000303994208BF904230BD0000064C074DAC
:1007400006E0E06840F0010394E8070098471034A1
:10075000AC42F6D3FFF7F0FC1C3500083C3500082E
:1007600000BFFEE72DE9F04705460C4616464FF060
:10077000010921882289891AE38862899A1A5143DA
:10078000A2882389D31A67886289BA1A03FB1210D8
:10079000FFF784FEC6E90C0100221346D6E90C716E
:1007A0003846FFF7B3FE02D14FF0000989E02988EF
:1007B0002A89891AE38862899A1A5143AA882B895F
:1007C000D31A67886289BA1A03FB1210FFF766FE14
:1007D000C6E9000121882289891AAA882B89D21AA0
:1007E00051432A88D21AA3882789DB1B02FB1310E6
:1007F000FFF754FEC6E902012189AA885143A28865
:100800002B8902FB13116288514322885A432389A2
:100810002F8803FB1723E28803FB0212A188794388
:100820002388AF8803FB1713618903FB0120FFF7BF
:1008300035FEC6E904016A886989511AE38862892C
:100840009A1A5143EB886A899B1A67886289BA1A97
:1008500003FB1210FFF722FEC6E906012188228958
:10086000891AEB886A899A1A51436B886A899A1A9D
:10087000A3882789DB1B02FB1310FFF70FFEC6E9D5
:1008800008012189EA885143A3886A8903FB121170
:100890006288514322886B895A4323896F8803FBFE
:1008A0001723E28803FB0213A18879432788EA888B
:1008B00007FB1212618902FB0130FFF7EFFDC6E969
:1008C0000A014846BDE8F087704701B5002008E0FE
:1008D0000C2100BF0A00A1F10103D9B2FAD1411CD9
:1008E00088B200998842F3D308BD000001B50849D9
:1008F000009808604FF0E020006940F001004FF0E0
:10090000E021086100BF024800680028FBD108BD53
:100910003400002038B504460D464FF478400123DA
:10092000142229460090204600F07EFA4FF47840C9
:10093000A5F10A0291B204F10A02009090B21423C8
:10094000012200F071FA38BD10B5102000F010F847
:1009500028B1012002490870102000F003F810BDF2
:100960003000002001490860704700001404014075
:10097000014600200022074B1B6803EA0102054BD9
:1009800014331B680B4202D00AB1012000E00020A2
:100990007047000000040140002123498279002AA9
:1009A0003AD00A46126803689A430B461A600A1D39
:1009B000126803689A430B1D1A60027911440A6891
:1009C00003681A430A60184A0832126803689A4397
:1009D000154B08331A601A1D126803689A43124BAC
:1009E0000C331A604279102A0ED11A1F126803685C
:1009F0001A430D4B08331A601A1D126803681A4314
:100A0000094B0C331A600DE00749427911440A681A
:100A100003681A430A6005E0027911440A68036812
:100A20009A430A60704700000004014051B14FF042
:100A3000204252F8202042F001024FF0204343F8B8
:100A4000202009E04FF0204252F82020034B1A40AA
:100A50004FF0204343F8202070470000FEFF0F00B6
:100A6000D0E901121143C26811430269114342697E
:100A7000114382691143C2691143026A1143426AF8
:100A80001143826A1143C26A1143026B11434FF052
:100A90002043026843F822108168082908D11A46C9
:100AA000016852F8211041F04001026843F8221019
:100AB000416B0968426B526841EA0211426B9268CD
:100AC00041EA0221426B928941EA0241426B128A59
:100AD00041EA0251426B127D41EA0261426B926926
:100AE00011430268521C4FF0204343F82210C16AA0
:100AF000B1F5804F1AD1816B0968826B526841EA67
:100B00000211826B926841EA0221826B128A41EAE9
:100B10000251826B127D41EA0261826B926911433C
:100B2000026803EB8202C2F8041108E06FF0704122
:100B30004FF02043026803EB8202C2F804117047B1
:100B400030B500228B071C0F0F2303FA04F20B4B66
:100B50008C1053F824309343084C8D1044F8253002
:100B600023468C1053F824308C07240F00FA04F429
:100B70002343024C8D1044F8253030BD080001405D
:100B80002DE9F04102460025002600200023002424
:100B9000002791F803C00CF00F0591F803C01CF07A
:100BA000100F03D091F802C04CEA050591F800C07F
:100BB000BCF1000F31D0146800202BE04FF0010C85
:100BC0000CFA00F3B1F800C00CEA03069E4220D1F3
:100BD00083004FF00F0C0CFA03F7BC4305FA03FC3B
:100BE0004CEA040491F803C0BCF1280F06D14FF081
:100BF000010C0CFA00FCC2F814C00AE091F803C022
:100C0000BCF1480F05D14FF0010C0CFA00FCC2F802
:100C100010C0401C0828D1D31460B1F800C0BCF14A
:100C2000FF0F34DD546800202EE000F1080C4FF077
:100C3000010808FA0CF3B1F800C00CEA03069E4262
:100C400021D183004FF00F0C0CFA03F7BC4305FAD7
:100C500003FC4CEA040491F803C0BCF1280F05D151
:100C600000F1080C08FA0CF8C2F8148091F803C0DF
:100C7000BCF1480F07D100F1080C4FF0010808FA49
:100C80000CF8C2F81080401C0828CED35460BDE890
:100C9000F0810246002093680B4201D0012000E061
:100CA000002070474161704708B50121642000F0C1
:100CB0003DFD0120ADF800008DF8020010208DF8F8
:100CC000030069461648FFF75BFF0420ADF80000FB
:100CD00069461348FFF754FF0820ADF800000120D3
:100CE0008DF8020048208DF8030069460C48FFF794
:100CF00047FF4FF40050ADF8000001208DF80200CE
:100D000010208DF8030069460648FFF739FF4FF4BD
:100D100000510448FFF7C6FF01F0E6F808BD0000E7
:100D20000018014000140140016170472DE9F04FA7
:100D300089B081460C4692464FF0010B14B94FF032
:100D4000000B66E00022354BDAE90C512846FFF72C
:100D5000DDFB5CD06088FFF7B2FB05463048D0E988
:100D600002733A462846FFF7B8FACDE90201208817
:100D7000FFF7A5FB07462A48D0E900532A46384624
:100D8000FFF7ABFACDE90001DDE90223FFF7FEF939
:100D9000CDE904012248D0E904532A460498FFF71C
:100DA000F5F9CDE90601FFF797FBA9F80000608887
:100DB000FFF785FB074688461949D1E908532A46BB
:100DC0004146FFF78AFACDE902012088FFF777FB59
:100DD000074688461249D1E906532A464146FFF79D
:100DE0007CFACDE90001DDE90223FFF7CFF9CDE977
:100DF00004010B49D1E90A532A460599FFF7C6F9C0
:100E0000CDE90601FFF768FBA9F8020001E04FF009
:100E1000000B584609B0BDE8F08F00000000F03F1D
:100E20006800002000BFFEE7F0B5059D00242A26DB
:100E30004FF0C0473E800612154F3E80C6B23E803E
:100E40008618761EC6F30F263E808618761EF6B2EA
:100E50003E802B2677073E800E120D4F3E80CEB28D
:100E60003E80CE18761EC6F30F263E80CE18761E24
:100E7000F6B23E802C26F7063E8000BF02E0044E0C
:100E80003580641C02FB03F6A642F8D8F0BD0000D2
:100E9000000002602DE9F047064688461446994650
:100EA0000027002525463DB94B46302241463046B5
:100EB00000F024F8BDE8F08703E00A20B5FBF0F568
:100EC0007F1C002DF9D115E00A20B4FBF0F100FBE6
:100ED000114000F1300A39467F1E062202FB0161F3
:100EE000891F88B24B465246414600F007F80A2057
:100EF000B4FBF0F4002CE7D100BFDBE72DE9F04FA5
:100F000081468A4615461E46A5F120001FFA80FB41
:100F10000C2306225146484600F0E0F82C20C1067A
:100F20000880002419E00BEB4B000E4901EB800018
:100F300010F8048000270CE018F0010F02D00A48D6
:100F4000068002E00020084908804FEA6808781C03
:100F500087B2062FF0DB601C84B20C2CE3DBBDE80B
:100F6000F08F0000A830000800000260F0B50546D0
:100F70000E4614461F4613E0B5F59D7F03DD0025A0
:100F800006F10C0086B2E42E01DD00250026227851
:100F90003B4631462846FFF7B1FFA81D85B2641CC9
:100FA00020780028E8D1F0BD00B597B0022001906C
:100FB00000200290052003900020049005900690E8
:100FC0004FF08050079000200890099008200A9068
:100FD00010200B9000200C900E900F9010904FF46A
:100FE00080501190002012901390149001A8159039
:100FF000169008A8FFF734FD01210020FFF716FD29
:1010000017B000BD08B50121080200F07FFB0121E7
:10101000682000F08BFB10208DF8030003208DF872
:1010200002000220ADF8000069462448FFF7A8FD41
:1010300003208DF8020018208DF803004CF2037095
:10104000ADF8000069461E48FFF79AFD4FF6807024
:10105000ADF8000069461948FFF792FD1020ADF881
:10106000000069461648FFF78BFD2020ADF8000010
:1010700069461348FFF784FD8020ADF800006946FB
:101080000F48FFF77DFD4FF40060ADF800006946A2
:101090000B48FFF775FD10208DF8030003208DF835
:1010A00002000220ADF8000069460648FFF768FD1F
:1010B00002210448FFF7F6FD08BD000000180140BA
:1010C00000140140000C014010B5FFF79BFFFFF733
:1010D0006BFF00F01FF900F029F810BD30B52A248D
:1010E0004FF0C0452C8004120F4D2C80C4B22C80D0
:1010F0008418641EC4F30F242C808418641EE4B288
:101100002C802B2465072C800C12074D2C80CCB230
:101110002C80CC18641EC4F30F242C80CC18641EC1
:10112000E4B22C8030BD00000000026000B5CF208A
:101130004FF0C04108800020744908808120088059
:1011400030200880ED204FF0C041088064206F49B6
:101150000880032008801220088081200880E82071
:101160004FF0C04108808520684908801020088021
:1011700078200880CB204107088039206349088007
:101180002C2008800020088034200880022008805D
:10119000F7204FF0C041088020205C490880EA20F9
:1011A0004FF0C04108800020584908800880B120D5
:1011B0004FF0C04108800020544908801B2008805F
:1011C000B620010708800A2050490880A220088024
:1011D000C020C105088035204C490880C1204FF04F
:1011E000C0410880112049490880C5204FF0C04106
:1011F00008804520454908800880C7204FF0C0413D
:101200000880A22041490880F2204FF0C0410880A8
:1012100000203E49088026200107088001203B4924
:101220000880E0204FF0C04108800F203749088037
:1012300026200880242008800B2008800E200880AB
:101240000920088054200880A820088046200880B3
:101250000C20088017200880092008800F200880B3
:101260000720088000200880E1204FF0C04108805E
:10127000002026490880192008801B2008800420AF
:10128000088010200880072008802A200880472036
:101290000880392008800320088006200880088004
:1012A00030200880382008800F2008803620010771
:1012B0000880C820154908802A204FF0C0410880C6
:1012C00000201249088008800880EF2008802B2029
:1012D0004107088000200D4908800880012008800F
:1012E0003F2008803A204FF0C04108805520074930
:1012F000088011204FF0C0410880054800F070F8C8
:1013000029204FF0C041088000BD000000000260AD
:10131000FCBF020010B502210648FFF7C3FC0648D7
:1013200000F05EF802210348FFF7FEFC024800F0DF
:1013300057F810BD00180140FCBF02002A224FF0F0
:10134000C0431A8002120A4B1A80C2B21A800212DB
:101350001A80C2B21A802B2253071A800A12044B39
:101360001A80CAB21A800A121A80CAB21A8070474A
:101370000000026070B505460E4614463146284608
:10138000FFF7DCFF2C20C10608800148048070BDF7
:101390000000026008B50121182000F0C7F9012003
:1013A000ADF8000010208DF8030003208DF8020036
:1013B00069460948FFF7E4FB1820ADF800006946CC
:1013C0000648FFF7DDFB01210348FFF7ADFC1821BC
:1013D0000248FFF7A9FC08BD000C014000100140C5
:1013E00001B502E00098401E009000980028F9D155
:1013F00008BD0000012806D0022821D003283CD0D7
:10140000042874D156E036210A071180C8213A4ACF
:1014100011802A214FF0C04211800021364A1180EC
:1014200011801180EF2111802B214A0711800021AA
:10143000314A11801180012111803F21118056E035
:1014400036210A07118068212B4A11802A214FF08A
:10145000C04211800021284A118011800121118091
:101460003F2111802B214A0711800021224A11803F
:1014700011801180EF21118039E036210A07118097
:1014800028211D4A11802A214FF0C04211800021DD
:10149000194A11801180012111803F2111802B21D7
:1014A0004A0711800021144A118011801180EF2118
:1014B00011801CE036210A07118048210E4A118054
:1014C0002A214FF0C042118000210B4A1180118067
:1014D0001180EF2111802B214A0711800021064A3B
:1014E00011801180012111803F21118000BF00BFB8
:1014F0002C21CA06118070470000026000BFFEE781
:101500007047000070B5002100230F22C4780CB38F
:10151000164C246804F4E064C4F5E064210AC1F1C7
:101520000403CA40447804FA03F184781440214348
:1015300009010F4C0678A155047804F01F05012419
:10154000AC4005786D114FF0E02606EB8505C5F837
:10155000004109E0047804F01F050124AC40054D6A
:101560000678761145F8264070BD00000CED00E0CD
:1015700000E400E080E100E002490143024A11601A
:10158000704700000000FA050CED00E008B54FF6CA
:10159000FF70F0234FF4A072002100900846FFF77F
:1015A00043FC00201E230122014600902720FFF764
:1015B0003BFC0020012328221D210090FFF734FC72
:1015C0004FF4784322A20A210720FFF7CFFC4FF403
:1015D000FC601E232822194600900020FFF724FCFF
:1015E0001F201E2328223C2100900020FFF71CFC16
:1015F0004FF61F001E2328225A2100900020FFF7DB
:1016000013FC4FF6E0701E23282278210090002062
:10161000FFF70AFC40F2FF701E232822962100905B
:101620000020FFF701FC00201E232822B421009097
:10163000FFF7FAFB4FF478401E232822D2210090B6
:101640000020FFF7F1FB0348FFF750F908BD000049
:10165000434C520020A10700F8B506460D462C4623
:10166000282E30DA1E2D24DD3C2C02DA4FF4FC60EB
:101670001CE05A2C01DA1F2018E0782C02DA4FF611
:101680001F0013E0962C02DA4FF6E0700EE0B42C47
:1016900002DA40F2FF7009E0D22C01DA002005E006
:1016A000F02C02DA4FF4784000E01F201549088042
:1016B00025E00020F0234FF48C7201460090282092
:1016C000FFF7B2FBF8BD0F48028829463046FFF706
:1016D00051FE711C88B20B490A882946FFF74AFE61
:1016E000681C81B2074802883046FFF743FE6A1C37
:1016F00091B2721C90B2034A1288FFF73BFE00BF02
:10170000E0E70000B20000207047000029B1064A5F
:1017100052690243044B5A6104E0034A526982430E
:10172000014B5A61704700000010024029B1064A7F
:1017300092690243044B9A6104E0034A926982432E
:10174000014B9A61704700000010024030B5002143
:101750000022002400232D4D6D6805F00C0121B1FD
:10176000042905D0082923D105E0294D056022E090
:10177000274D05601FE0254D6D6805F47012234D5F
:101780006D6805F48034022505EB92421CB9214DA9
:10179000554305600BE01D4D6D6815F4003F03D007
:1017A0001C4D5543056002E0194D5543056002E0AC
:1017B000174D056000BF00BF144D6D6805F0F001C6
:1017C0000909154D6B5C0568DD4045600F4D6D687E
:1017D00005F4E061090A104D6B5C4568DD408560E9
:1017E0000A4D6D6805F46051C90A0B4D6B5C456884
:1017F000DD40C560054D6D6805F44041890B074D1E
:101800006B5CC568B5FBF3F5056130BD00100240A7
:1018100000127A0000093D0014000020240000207E
:101820002DE9F04397B00025502101A8FEF7A3FC55
:10183000002400BF15A916A800F0A0FD01A9169864
:1018400041F825000BA8159940F82510681CC5B271
:1018500010213D48FFF71DFA08B90A2DEADB1021D7
:101860003948FFF716FA10B10020384908700A2DE0
:1018700068D1019E3746DDF82C80C146012411E075
:1018800001A850F82400B04203DA01A850F82460FF
:1018900007E001A850F82400B84202DD01A850F882
:1018A0002470641C0A2CEBDB012411E00BA850F817
:1018B0002400404503DA0BA850F8248007E00BA869
:1018C00050F82400484502DD0BA850F82490641C11
:1018D0000A2CEBDBDDE90101084403990844049973
:1018E000084405990844069908440799084408994A
:1018F0000844099908440A990844801BC01BC0F396
:10190000CF0013490880DDE90B1001440D98014414
:101910000E9801440F980144109801441198014415
:10192000129801441398014414980844A0EB08004D
:10193000A0EB0900C0F3CF0005494880084617B066
:10194000BDE8F0830020FAE70018014030000020D5
:10195000AE00002021B1028842F04002028004E083
:1019600002884FF6BF731A400280704770B5054673
:101970000C46164610211048FFF794F9032000F09A
:101980005DF9C4F3074000F059F9C4F3072000F0F3
:1019900055F9E0B200F052F904E0FF2000F04EF9F2
:1019A00028706D1C3000A6F101018EB2F5D1102116
:1019B0000148FFF7B9F970BD000801402DE9F05F5B
:1019C00007460E4614464FF00008C146C2460025A1
:1019D000AB4606F0FF0ACAF10000C5B22046E11787
:1019E00004EB1161C1F30728E11704EB116109123F
:1019F000A4EB012101F0FF09BAF1000F20D1B8F1E9
:101A0000000F05D122463146384600F0C5F864E0A3
:101A100009E04FF480723146384600F0BDF806F513
:101A2000807607F580775FEA0800A8F1010101F0F0
:101A3000FF08EED14A463146384600F0ADF84CE09A
:101A4000B8F1000F18D1A94510DDA9EB050000F091
:101A5000FF0B2A463146384600F09EF82E442F44AC
:101A60005A463146384600F097F836E0224631466D
:101A7000384600F091F830E0601B84B22046E11750
:101A800004EB1161C1F30728E11704EB116109129E
:101A9000A4EB012101F0FF092A463146384600F047
:101AA0007BF82E442F4409E04FF4807231463846CB
:101AB00000F072F806F5807607F580775FEA080097
:101AC000A8F1010101F0FF08EED1B9F1000F04D037
:101AD0004A463146384600F05FF8BDE8F09F000006
:101AE00000B587B001212420FFF720FE0121080363
:101AF000FFF71CFE2020ADF8040003208DF806003F
:101B000018208DF8070001A92148FFF739F8402077
:101B1000ADF8040001A91E48FFF732F88020ADF8A7
:101B2000040001A91A48FFF72BF81020ADF80400B3
:101B30008DF8070001A91648FFF722F81021144874
:101B4000FFF7F2F80020ADF808004FF48270ADF80E
:101B50000A000020ADF80C000220ADF80E000120B4
:101B6000ADF810004002ADF812000820ADF81400E6
:101B70000020ADF816000720ADF8180002A90548AE
:101B800000F0AEF801210348FFF7E4FE07B000BD06
:101B9000000801400030014070B505460C4616466D
:101BA00000F080F810211348FFF77CF8022000F0C5
:101BB00045F8C4F3074000F041F8C4F3072000F0F3
:101BC0003DF8E0B200F03AF8B6F5807F01DD4FF461
:101BD000807603E0287800F031F86D1C3000A6F123
:101BE00001018EB2F6D110210248FFF79DF800F0F6
:101BF00041F870BD0008014010B5044600F052F8ED
:101C000000F038F810210C48FFF74CF8202000F0C5
:101C100015F8C4F3074000F011F8C4F3072000F0F2
:101C20000DF8E0B200F00AF810210348FFF77CF845
:101C300000F020F810BD00000008014010B5044677
:101C400000BF02210A4800F03DF80028F9D02146E3
:101C5000074800F043F800BF0121054800F032F8C2
:101C60000028F9D0024800F036F8C0B210BD0000DC
:101C70000030014010B5002410210948FFF712F888
:101C80000520FFF7DBFF00BFFF20FFF7D7FF04466B
:101C900014F0010FF8D110210148FFF745F810BDED
:101CA0000008014010B510210548FEF7FBFF062093
:101CB000FFF7C4FF10210248FFF736F810BD0000FF
:101CC000000801400246002013890B4201D0012088
:101CD00000E0002070470146888970478181704785
:101CE00010B50022028802F441520B884C8823432D
:101CF0008C882343CC8823430C8923434C8923437A
:101D00008C892343CC8923431A430280838B4FF26F
:101D1000FF74234083830B8A038210BD704710B584
:101D200000F002F810BD00000CB5002001900090FA
:101D30003248006840F480303049086000BF2F48C6
:101D4000006800F4003000900198401C0190009859
:101D500018B90198B0F5A06FF1D12848006810F4C7
:101D6000003F02D00120009001E000200090009888
:101D7000012842D12248006840F010002049086044
:101D80000846006820F0030008600846006840F03C
:101D900002000860194840681849486008464068D1
:101DA00048600846406840F48060486008464068E3
:101DB00020F47C1048600846406840F4E810486011
:101DC0000846006840F08070086000BF0B4800685B
:101DD00010F0007FFAD00948406820F0030007495E
:101DE00048600846406840F00200486000BF034871
:101DF000406800F00C000828F9D10CBD001002402A
:101E00000020024010B500F0A9F810BD30B51A4806
:101E100000681A4AB0FBF2F1B1F1807F01D30120D2
:101E20001DE021F07F40401E4FF0E022506150172E
:101E30000F22002807DA13071D0E114B00F00F04C4
:101E4000241F1D5503E013071C0E0E4B1C5400BF2E
:101E500000204FF0E022906107201061002008B1BF
:101E600000BFFEE74FF0E020006920F001004FF0D6
:101E7000E021086130BD00000000002040420F005A
:101E800018ED00E000E400E010B51348006840F0F1
:101E900001001149086008464068104908400E4991
:101EA0004860084600680E4908400B49086008462B
:101EB000006820F4802008600846406820F4FE0096
:101EC00048604FF41F008860FFF729FF4FF0006063
:101ED0000449086010BD0000001002400000FFF837
:101EE000FFFFF6FE08ED00E00EB501214120FFF7EF
:101EF0001DFC00F01FF81020ADF8080028208DF818
:101F00000B0002A90A48FEF73BFE04210846FEF733
:101F100017FE1020009000208DF804000C208DF892
:101F2000050001208DF806006846FEF735FD0EBD60
:101F30000018014008B54FF4C060FFF71DFB0A20F0
:101F40008DF8000001208DF801008DF802008DF859
:101F500003006846FFF7D6FA08BD00000448006891
:101F600020B103480068401E014908607047000026
:101F7000340000202DE9F04F8DB04FF00009CA4623
:101F8000CB4600200C90002445E00020F0234FF4C5
:101F9000A07201460090FEF747FF4FF47843CDA2B0
:101FA0006E210846FEF7E2FF4FF47843621C5A2187
:101FB000A020FEF76FFFCD48FEF798FCCC4A02EB5D
:101FC00084025188CA4A32F82400FEF7A3FC00BFFD
:101FD000FFF726FC0646C748006880F00100C549A7
:101FE0000860C548C06880F01000C349C860084652
:101FF000C06880F00800C860C0A000F009FB002E97
:10200000E6D03088C64921F82400708801EB8401AD
:102010004880601CC4B2042CB7DBC24AC049B44833
:10202000FEF7A0FBBE49C889FEF749FACDE90001D9
:10203000BC48D0E902733A460098FEF74EF9CDE964
:102040000401B7498889FEF73AFACDE90001B5489D
:10205000D0E900733A460098FEF73FF9CDE9020156
:10206000DDE90423FEF792F8CDE90601AD48D0E999
:1020700004733A460698FEF789F8CDE90801A948A5
:10208000D0E90C733A460898FEF799F9CDE90A01B0
:10209000FEF722FA1FFA80F9A149C889FEF70FFA64
:1020A000CDE900019F48D0E908733A460098FEF751
:1020B00014F9CDE904019A498889FEF700FACDE9BF
:1020C00000019848D0E906733A460098FEF705F9F2
:1020D000CDE90201DDE90423FEF758F8CDE9060158
:1020E0009048D0E90A733A460698FEF74FF8CDE9D2
:1020F00008018C49D1E90C733A460999FEF75FF95A
:10210000CDE90A01FEF7E8F91FFA80FA78488089DC
:10211000484504DA76488089A9EB000003E074485A
:102120008089A0EB09001FFA80FB7148C0895045E7
:1021300004DA6F48C089AAEB000003E06C48C0894C
:10214000A0EB0A001FFA80FB0020F0234FF4A072DE
:1021500001460090FEF768FEBBF10A0F02DC0C9806
:102160000A2814DD4FF478436FA264210846FEF775
:10217000FDFE4FF4784370A278216420FEF7F6FE4E
:102180007048FEF7B3FB01200DB0BDE8F08F654845
:1021900000226D4BD0E900713846FEF79EF8CDE97C
:1021A0000A016049D1E90C733A460B99FEF707F929
:1021B000664A03C25B49D1E902710022624B38468C
:1021C000FEF78BF8CDE90A015649D1E90C733A467E
:1021D0000B99FEF7F4F85D4AC2E90201514800226A
:1021E000594BD0E904713846FEF777F8CDE90A017A
:1021F0004C49D1E90C733A460B99FEF7E0F8534A83
:10220000C2E904014749D1E9067100224E4B384624
:10221000FEF763F8CDE90A014248D0E90C733A466B
:102220000A98FEF7CCF8494AC2E906013D49D1E9CE
:1022300008710022444B3846FEF74FF8CDE90A01F9
:102240003849D1E90C733A460B99FEF7B8F83F4A82
:10225000C2E90801334800223B4BD0E90A713846F5
:10226000FEF73BF8CDE90A012E48D0E90C733A4657
:102270000A98FEF7A4F8354AC2E90A015520344904
:1022800008700020FFF7B8FC012200213048FFF75A
:1022900095FB302201212D48FFF790FB00250AE035
:1022A0002A4800EBC501D1E900733A4629A000F0A5
:1022B000AFF9681CC5B2062DF2DB4FF4784329A2B2
:1022C00064210846FEF752FE2B48FEF70FFB002064
:1022D0005AE70000546F7563682043616C6962724D
:1022E0006174652E2E2E2E2E2E00000020A10700D8
:1022F0009A0000200C0C014000100140D5E2CAC732
:10230000D2BBB8F6B2E2CAD453544D3332204E6138
:102310006E6FB5C4B3CCD0F22020200D0A000000AF
:10232000C0000020D000002043616C6962726174BB
:1023300065206661696C000074727920616761696B
:102340006E00000080841E000000F03F6800002046
:10235000980000200D0A207478203D20254C46204E
:102360000D0A000043616C696272617465205375E7
:10237000636365640000000040420F002DE9F041F6
:1023800004460D46902000F0DBF806460120FEF7DB
:102390009CFAD02000F0D4F8074626602F60BDE8F4
:1023A000F08110B5FEF780FC10BD000000B585B0CF
:1023B000012144F20400FFF7B9F94FF40070ADF8C1
:1023C000100018208DF8130003208DF8120004A9C6
:1023D0001348FEF7D5FB4FF48060ADF810000420E1
:1023E0008DF8130004A90E48FEF7CAFB4FF4E13044
:1023F00000900020ADF80400ADF80600ADF808002C
:10240000ADF80C000C20ADF80A006946054800F054
:1024100025F80121034800F007F805B000BD0000D1
:10242000000801400038014021B1828942F4005285
:10243000828104E082894DF6FF731A4082817047E1
:1024400002460020B1F5007F00D100BF13880B4287
:1024500001D0012000E00020704700002DE9F04786
:1024600086B005460E460024A24600BFA1460027BE
:10247000B08900B100BF2F462C8A4CF6FF70044093
:10248000F08804432C82AC894EF6F3100440B088E7
:1024900031890843718908430443AC81AC8A4FF603
:1024A000FF400440B0890443AC8201A8FFF74EF915
:1024B0001F48874202D1DDF810A001E0DDF80CA032
:1024C000A88910F4004F08D00AEBCA0000EB0A10EC
:1024D00031684900B0FBF1F807E00AEBCA0000EBF5
:1024E0000A1031688900B0FBF1F86420B8FBF0F005
:1024F00004012009642101FB1089A88910F4004F10
:1025000008D0322000EBC900B0FBF1F000F007006A
:10251000044308E0322000EB09106421B0FBF1F025
:1025200000F00F0004432C8106B0BDE8F0870000E6
:1025300000380140C1F308028280704700BFFEE707
:1025400010B50446204600F031F800F001F810BD47
:1025500070B5002404211448FEF7A4FB01211248A1
:10256000FEF7E2FB002518E001210F48FEF79AFB79
:1025700008210D48FEF78DFB08B1012000E0002086
:102580000646C5F10B0006FA00F0204384B2012193
:102590000548FEF7C9FB681CC5B20C2DE4DBC4F38B
:1025A0000B04204670BD00000018014070B50646BF
:1025B00004211648FEF776FB01211448FEF772FB52
:1025C00000241FE0C4F1070046FA00F000F0010506
:1025D00025B104210D48FEF7A7FB03E004210B48B9
:1025E000FEF760FB0520FEF770F901210748FEF7B2
:1025F0009BFB0520FEF769F901210448FEF752FB19
:10260000601CC4B2082CDDDB70BD00000018014066
:102610000FB4054B10B503A9044A029800F0C6F8A0
:1026200010BC5DF814FB0000F52E0008B800002077
:1026300002E008C8121F08C1002AFAD1704770478B
:10264000002001E001C1121F002AFBD170470000E9
:102650002DE9FF5FDDE90220010DDDF838B002430E
:1026600010D10F9801244CA2012808D00021009815
:102670000F9BC0E90021C0E90243BDE8FF9F6FEA5C
:102680000B01F4E7A1F2FF3144F6105041430D1461
:102690000F9801280ED0A5EB0B00401C4FF0000452
:1026A0003E4EDFF8FC90B0F1000AA04605DACAF110
:1026B000000717E0CBF10000F0E7074612E0F8074B
:1026C00007D02246334640464946FDF706FE80467F
:1026D00089462246334610461946FDF7FEFD04465C
:1026E0000E467F10002FEAD1DDE90201BAF1000F9A
:1026F00042464B4602DAFDF7F0FD01E0FDF75FFED2
:1027000004460E460022274BFEF704F803D84FF08C
:10271000FF30014607E00022234B20463146FDF7FB
:1027200035FDFDF7DEFF102409E0002C0ADB0A224C
:102730000023FDF715FF019B30321A55641E50EA45
:102740000102F2D1641C019AC4F1110314440F9ADE
:10275000012A09D00122084301D15B450FDD4FF06A
:10276000000205F101050DE0084303D1A3EB0B05C1
:102770006D1E09E000204FF0110B0F9088E701DA81
:1027800000226D1E002A83D000980F99C0E9023103
:10279000C0E9004571E7000030000000000024405F
:1027A0000000F03F0000F0430000E03F2DE9FF4F44
:1027B00095B09B4689460646002512E2252878D129
:1027C0000024761CF94A2746012105943378203BE2
:1027D00001FA03F0104202D00443761CF6E7307889
:1027E0002A2811D06FF02F033078A0F13002092A87
:1027F00016D8059A44F0020402EB820203EB42026F
:102800001044761C0590EFE759F8042B0592002A36
:1028100003DA504244F40054059044F00204761C5C
:1028200030782E2816D116F8010F44F004042A2817
:102830000DD06FF02F023078A0F13003092B09D8AA
:1028400007EB870302EB4303C718761CF3E759F83D
:10285000047B761C30786C280FD006DC4C2817D00F
:1028600068280DD06A2814D104E0742810D07A2882
:102870000FD10DE044F400140AE044F4801401E0A8
:1028800044F440147278824202D1761C04F580141C
:10289000761C307866280BD013DC582877D009DCFA
:1028A000002875D04528F6D04628F4D047281AD1FC
:1028B0009FE118E0632835D0642879D0652812D1CB
:1028C00097E1702873D008DC6728F1D069286FD0B1
:1028D0006E280DD06F2806D1B5E073282CD075284E
:1028E00075D0782874D05A46179990476D1C76E1B8
:1028F000C4F30250022809D003280DD0D9F80010E3
:1029000004280DD00D6009F1040968E1D9F8001020
:10291000EA17C1E90052F6E7D9F800100D80F2E796
:102920000D70F0E719F8041B8DF8001000208DF8E9
:102930000100EA46012003E059F804AB4FF0FF30F4
:1029400061074FF0000102D40DE008F10101884653
:10295000B9420FDA8045F8DB1AF808100029F4D1E3
:1029600008E008F1010188468142FADB1AF80810F4
:102970000029F6D105985B46A0EB080721463846AA
:10298000179A00F09EFA284400EB080507E04DE096
:102990002BE10DE01AF8010B5A4617999047B8F150
:1029A0000108F7D25B4621463846179A14E142E007
:1029B0000A220092C4F302524FF0000A022A08D001
:1029C00059F804CB032A4FEAEC710AD00DE029E054
:1029D0002AE009F1070121F00702F2E802C191465D
:1029E00009E00FFA8CFC4FEAEC71042A03D14FFA8C
:1029F0008CFC4FEAEC71002907DA0A460021DCF171
:102A0000000C61EB02012D2202E0220504D52B22ED
:102A10008DF80420012203E0E20701D02022F7E72D
:102A2000904653E00A2102E010220DE010214FF001
:102A3000000A00910BE010224FF0000A44F0040459
:102A40000827009203E008224FF0000A0092C4F326
:102A50000252022A05D059F804CB0021032A08D0DB
:102A600009E009F1070121F00702F2E802C19146ED
:102A700005E01FFA8CFC042A01D10CF0FF0C4FF08A
:102A80000008220722D5702827D0009B83F010036E
:102A900053EA0A0309D15CEA010206D030228DF81C
:102AA00004208DF8050002229046009B83F0080365
:102AB00053EA0A030AD15CEA010201D1620705D593
:102AC00030228DF804204FF001087F1E582809D0CD
:102AD00037A003900EA8029013E040228DF8042046
:102AE0000122E1E737A0F4E753466046009AFDF77C
:102AF00037FD84460398825C0298A0F101000290A1
:102B000002705CEA0100EFD1029806A9A1EB000077
:102B100000F1200A600702D524F4803400E0012788
:102B2000574502DDA7EB0A0000E0002000EB0A0198
:102B3000009005984144A0EB01000590E00306D405
:102B40005B462146179A059800F0BBF9054400271B
:102B500006E001A85A46C05D179990476D1C7F1C7E
:102B60004745F6DBE0030CD55B462146179A0598EE
:102B700000F0A7F9054404E030205A461799904721
:102B80006D1C0099481E00900029F5DC08E00298B1
:102B900002995A460078491C0291179990476D1C7A
:102BA000BAF10001AAF1010AF1DC6BE10928010088
:102BB00030313233343536373839616263646566B3
:102BC0000000000030313233343536373839414275
:102BD000434445460000000000F060F9054406F15A
:102BE0000106307800287FF4E9AD19B02846BDE829
:102BF000F08F620700D4062709F1070222F0070CC4
:102C0000FCE80223E14603F000485FEA080C02D02A
:102C10000FF27C2C0DE05FEA045C02D50FF2742CFD
:102C200007E05FEAC47C02D00FF26C2C01E0AFF247
:102C3000700C4FF0FF3823F00043CDF850C06528EA
:102C40000CD006DC452809D046281DD047283ED1A7
:102C50003EE0662818D0672839D139E00021112FCD
:102C600001DB112000E0781CCDE9000106A90EA8C7
:102C7000FFF7EEFCDDE90F010E9A039100210092AF
:102C800007F1010A04914EE04FF000400097CDE9B2
:102C9000011006A90EA8FFF7DBFCDDE90F02039285
:102CA0000E9B11990022DDF80CA00093049219B933
:102CB00007F1010100EB010AB7EB0A0004D4C0F1EF
:102CC000FF3007F1010A0490AAEB0700019046E0EB
:102CD000012F00DA01270021112F01DD112000E072
:102CE0003846CDE9000106A90EA8FFF7B1FCDDE9E1
:102CF0000F010E9A0391002104910092BA46210718
:102D00000CD40399514500DA8A46BAF1010F05DD6A
:102D1000009AAAF10101515C302908D0B84202DAC8
:102D200010F1040F06DA0121CDE9011017E0AAF134
:102D30000101E9E7002805DC049901440491AAEBAC
:102D4000000102E0411C514500DD8A460499A0EBD8
:102D5000010000F1010001904FF0004002902007B7
:102D600004D40198504501DBCDF8048000208DF893
:102D70004F0002980DF14F07B0F1004F25D02B20E6
:102D80000E9002984FF0020800280CDA40420290A0
:102D90002D200E9007E00A210298FDF7CBFB303181
:102DA000029007F8011DB8F10001A8F10108F2DC5A
:102DB00002980028EFD1791E0E980870307800F044
:102DC000200040F0450007F8020D12A8A0EB070014
:102DD00000F107081498007800B1012000EB0A0107
:102DE000019801EBE07105984144A0EB0100A0F1CE
:102DF00001000590E00306D45B462146179A05982A
:102E000000F05FF805441498007820B15A461799ED
:102E1000904705F10105E00323D55B462146179A4B
:102E2000059800F04EF805441BE00498002807DBE5
:102E3000DDE90301884203DD0098405C179901E059
:102E4000179930205A46904704986D1C401C0490F6
:102E50000198401E019004D12E205A4617999047A0
:102E60006D1CBAF10001AAF1010ADEDC05E017F8D9
:102E7000010B5A46179990476D1CB8F10001A8F153
:102E80000108F4DC5B462146179A0598A4E6000089
:102E90002D0000002B000000200000002DE9F04173
:102EA000044600251E461746880405D406E0394628
:102EB0002020B04705F10105641EF8D52846BDE87D
:102EC000F0812DE9F041044600251E469046C803D6
:102ED00001D5302700E02027880405D506E04146CB
:102EE0003846B04705F10105641EF8D52846BDE80F
:102EF000F081000070B504460D46E1B20548FFF7C9
:102F000019FB00BF40210348FFF79AFA0028F9D0C7
:102F1000204670BD0038014008B5FEF777FFFEF788
:102F200039FAFEF7D1F80220FEF764FA0020F02308
:102F30004FF4A07201460090FDF776FFFFF736FAD6
:102F4000FEF7CEFDFFF72DFA012200213E48FEF7E5
:102F50000DFD3D480078552817D1302201213B480E
:102F6000FEF704FD10213A48FDF7DEFE00240AE0DA
:102F7000364800EBC400D0E900532A4635A0FFF7DD
:102F800047FB601CC4B2062CF2DB15E03548006834
:102F900080F00100334908603348C06880F01000B9
:102FA0003149C8600846C06880F00800C8602F48F2
:102FB00001682FA0FFF72CFBFEF7DCFF0028E5D10E
:102FC000FEF7E4FA3FE033480078012813D1FEF71A
:102FD00027FC0546304A29463048FDF7A7FE50B188
:102FE0002E4A51881088FEF737FB1E48006880F093
:102FF00001001C4908602A480068401C28490860F4
:1030000008460068274988421DD31648006880F0AA
:103010000100144908601448C06880F0100012498B
:10302000C8600846C06880F00800C86000201C49DD
:1030300008600E4801680EA0FFF7EAFA0B48006826
:10304000401C0A490860BEE7980000206800002084
:10305000000801400D0A207278203D20254C4620B2
:103060000D0A00000C0C0140001001402C00002053
:10307000D5E2CAC7D2BBB8F6B2E2CAD453544D3374
:1030800032204E616E6FB5C4B3CCD0F220202564DF
:103090000D0A000030000020D0000020B400002005
:1030A00028000020FFFF01000000000000000000D9
:1030B00000000000000004040404040400040000F4
:1030C00000140A0A000000000000000000001414B0
:1030D0003F140A3F0A0A000000041E1505060C14DE
:1030E000150F0400000012150D0A142C2A120000FE
:1030F0000000040A0A1E151509360000000202012C
:103100000000000000000000002010080808080867
:10311000081020000002040808080808080402003B
:1031200000000004150E0E15040000000000040449
:10313000041F040404000000000000000000000060
:103140000002020100000000001F0000000000005B
:10315000000000000000000000020000001008084D
:10316000080404020202010000000E1111111111E5
:10317000110E00000000040604040404040E000004
:1031800000000E1111080402011F000000000E11C2
:10319000100C1010110E00000000080C0A0A091E85
:1031A0000818000000001F01010F1010110E000090
:1031B00000000E09010F1111110E000000001F097F
:1031C000080404040404000000000E11110E111183
:1031D000110E000000000E1111111E10120E000041
:1031E00000000000040000000004000000000000D7
:1031F0000004000000040400002010080402040879
:1032000010200000000000001F00001F0000000050
:1032100000020408102010080402000000000E1133
:10322000110804040004000000000E111915151DFA
:10323000011E0000000004040C0A0A1E12330000E4
:1032400000000F12120E1212120F000000001E11C9
:1032500001010101110E000000000F1212121212E2
:10326000120F000000001F120A0E0A02121F0000B7
:1032700000001F120A0E0A020207000000001C12C2
:1032800001013911120C000000003312121E12123B
:103290001233000000001F0404040404041F000093
:1032A00000003E0808080808080907000000371257
:1032B0000A060A0A12370000000007020202020290
:1032C000223F000000001B1B1B1B151515150000DD
:1032D00000003B1216161A1A1217000000000E11F9
:1032E00011111111110E000000000F12120E020236
:1032F0000207000000000E1111111117190E18001D
:1033000000000F12120E0A121237000000001E11E8
:1033100001060810110F000000001F15040404042A
:10332000040E00000000331212121212120C0000E0
:1033300000003312120A0A0C0404000000001515E4
:10334000150E0A0A0A0A000000001B0A0A04040AF1
:103350000A1B000000001B0A0A040404040E0000FB
:1033600000001F0908040402121F0000001C0404CE
:103370000404040404041C000002020204040808FB
:1033800008100000000E08080808080808080E00C9
:1033900000040A000000000000000000000000001F
:1033A000000000000000003F0004000000000000DA
:1033B0000000000000000000000C121C123C000085
:1033C00000000302020E1212120E000000000000A4
:1033D000001C1202021C000000001810101C121227
:1033E000123C000000000000000C121E021C000035
:1033F00000003804041E0404041E00000000000045
:10340000003C120C021E221C00000302020E1212CB
:10341000123700000000040000060404040E00003F
:1034200000000800000C0808080808070000030254
:10343000023A0A0E123700000000070404040404D4
:10344000041F000000000000000F151515150000F6
:1034500000000000000F12121237000000000000F0
:10346000000C1212120C000000000000000F1212DB
:10347000120E020700000000001C1212121C10386D
:1034800000000000001B0602020700000000000010
:10349000001E020C101E000000000004040E0404B4
:1034A0000418000000000000001B1212123C000073
:1034B000000000000037120A0C04000000000000A9
:1034C0000015150E0A0A000000000000001B0A0487
:1034D0000A1B0000000000000037120A0C0404035D
:1034E00000000000001E0804041E00000018080868
:1034F0000804080808081800080808080808080848
:10350000080808080006040404080404040406006B
:103510000225180000000000000000003C350008F3
:1035200000000020BC00000030260008F83500082C
:10353000BC0000204C0400004026000800A24A0401
:103540000000000000000000010203040607080953
:103550000000000001020304010203040607080939
:103560000204060800000000000000000000000047
:10357000000000000000000000000000000000004B
:10358000000000000000000000000000000000003B
:10359000000000000000000000000000000000002B
:1035A000000000000000000000000000000000001B
:1035B000000000000000000000000000000000000B
:1035C00000000000000000000000000000000000FB
:1035D00000000000CC002D0023000A00C8002201DA
:1035E000C800C80023000000000000000000000028
:0835F0000000000000000000D3
:0400000508000131BD
:00000001FF
