:020000040800F2
:1000000070080020C50000087D0F0008350D0008AD
:1000100000000000000000000000000000000000E0
:10002000000000000000000000000000810F000838
:1000300000000000000000007F0F0008830F000890
:10004000D700000800000000D7000008D700000813
:10005000D7000008D7000008D7000008D700000824
:1000600000000000D7000008D7000008D7000008F3
:10007000D7000008D7000008D700000800000000E3
:10008000D70000080000000000000000D7000008B2
:1000900000000000D7000008D7000008D7000008C3
:1000A00000000000D700000800000000D700000892
:1000B0000348854600F08EF8004800477510000898
:1000C000700800200448804704480047FEE7FEE728
:1000D000FEE7FEE7FEE7FEE7DF0F0008B1000008DD
:1000E00030B50B46014600202022012409E00D46D0
:1000F000D5409D4205D31D469540491B2546954058
:1001000040191546521E002DF1DC30BDF0B51FB46C
:100110000646002082B005464024019100901BE075
:10012000019922460F46304600F020F8049A059BBC
:10013000801A994110D310461946224600F039F82A
:10014000361A8F410197224601200021009F00F0BE
:1001500030F838184D4100902046641E0028DFDC3E
:10016000019B00982946324607B0F0BD10B5202A01
:1001700004DB0846203AD040002110BD0B46D34096
:10018000D0402024A21A91400843194610BDD2B293
:1001900001E00270401C491EFBD270470022F6E7C6
:1001A00010B513460A4604461946FFF7F0FF2046ED
:1001B00010BD10B5202A04DB0146203A91400020F2
:1001C00010BD914020239C1A0346E3401943904000
:1001D00010BD0000064C0125064E05E0E36807CC83
:1001E0002B430C3C98471034B442F7D3FFF764FF1D
:1001F000B4200008D420000870B5044600F0B2F81E
:100200000546601C02D004480078241800F0AAF8C3
:10021000401BA042FAD370BD10000020F8B50023A7
:100220008DE001249C40A44622407DD04C68022CE5
:1002300001D0122C0CD1DC08A40027183C6A5D0701
:10024000ED0E0F26AE40B4430E69AE4026433E622B
:1002500005685E000324B4400F79A543BF07BF0FB4
:10026000B7402F4307604D68012D05D0022D03D004
:10027000112D01D0122D0ED18568CF68A543B7404E
:100280002F43876047686546AF430D79ED06ED0F54
:100290009D403D434560C568A5438C68B4402C43F0
:1002A000C4604C68E40049D5284CA5690126354353
:1002B000A561A4699D0834400094254CAD002F1918
:1002C000BC689D072E0F0F25B540AC430925ED06F0
:1002D000A84201D100250FE01E4DA84201D1012501
:1002E0000AE01D4DA84201D1022505E01B4DA842A0
:1002F00001D1032500E00525B5402543BD60184C1C
:1003000025684E689543F60300D51543256065685A
:100310004E689543B60300D515436560A5684E68E1
:100320009543F60202D500E008E01543A560E568B4
:100330004E689543B60200D51543E5605B1C0A681C
:100340001446DC4000D06CE7F8BD0000001002400D
:10035000000001400004004800080048000C00486C
:100360000004014001488068704700001000002030
:1003700070B5024640325378202B1CD11378012BE4
:1003800019D00123137024245470046825689D43F8
:100390002560046825681E03B54325600468256848
:1003A0000D432560006801681943016020205070EA
:1003B0000020107070BD022070BD70B50246403242
:1003C0005378202B1BD11378012B18D001241470E3
:1003D0002423537003681D68A5431D6005682B68BE
:1003E0000F263602B34309021943296000680168E9
:1003F00021430160202050700020107070BD022049
:1004000070BD000070B5040006D025464035687800
:100410000026002802D005E0012070BD2E70204685
:1004200000F0F0F82420687020680168490849004D
:1004300001600F216068090688432168086121680E
:100440008A680120C00382438A60E1680129A168AB
:1004500008D021229202114322689160E1680229AA
:1004600002D005E00143F7E701212268C90251608B
:1004700021684A680F4B1A434A602168CA68824360
:10048000CA60616920690843A169090208432168BB
:10049000C860216AE0690843216808602068016833
:1004A0000122114301606664202068702663AE70EB
:1004B000002070BD00800002FFB5054604464035AF
:1004C000687883B0202872D10C98002814D00D9839
:1004D000002811D02878012869D001202870FFF762
:1004E00041FF0746012200901923D103204600F066
:1004F000AFFC002871D103E00120400260646CE091
:10050000212068704020A870002666640C98606204
:100510000D98608566630E980090019704A90EC936
:10052000204600F051FC002801D02E7055E0608D6F
:10053000FF2805D9FF22228501231B06009606E02D
:10054000608D20850096208D0123C2B25B06204677
:10055000049900F069FC3A4620460E9900F0C5FC6B
:1005600000283AD1606A216800788862606A401C7D
:100570006062608D401E6085208D401E80B22085A7
:10058000618D00291FD000281DD1009700228021F5
:1005900020460E9B00F05CFC00281ED1608DFF28D9
:1005A00006D9FF22228501231B06009607E024E0DE
:1005B000608D20850096208D0123C2B25B06204607
:1005C000049900F031FC608D0028C4D13A462046E1
:1005D0000E9900F064FC002802D0012007B0F0BDA5
:1005E00020682021C16120684268054B1A404260A2
:1005F0006970AE702E700020F0E70220EEE7000078
:1006000000E800FE10B586B0044614216846FFF7E6
:10061000C5FD13492068884220D1124C6169012030
:10062000400401436161616901400320059140027A
:1006300000901220019001200290032003900420DA
:10064000049009206946C006FFF7E8FDE169012032
:1006500040050143E161E1690140059106B010BD2B
:100660000054004000100240024881680278891856
:10067000816070471000002010B506480168102204
:1006800011430160002000F007F800F027F8002077
:1006900010BD00000020024070B504460D4D7D20C5
:1006A0002978C000FFF71CFD01460B480068FFF7E2
:1006B00017FD00F027FB002809D1042C07D20022E7
:1006C0002146401E00F01EF800206C6070BD012025
:1006D00070BD0000100000201C00002008B5084874
:1006E0008169012211438161816911400091C269D0
:1006F00001040A43C261C0690840009008BD0000BF
:100700000010024010B500F083FC10BDF8B505469E
:100710000068354CC00352D5E0690026C00007D4FC
:10072000E16920040143E161E16901400126009192
:100730002E480168C90510D4016882151143016073
:10074000FFF710FE074604E0FFF70CFEC01B64280D
:1007500024D826480068C005F6D5206A03273F0242
:10076000384020D06968394081421CD0206A226A12
:10077000B843012109040A432262226A8A432262A1
:100780002062C0070FD0FFF7EDFD009008E0FFF7F3
:10079000E9FD0099411A1648814201D90320F8BDAC
:1007A000206A8007F3D5206A6968B843084320624D
:1007B000002E04D0E169012000078143E16128781F
:1007C000C00705D0206BA96880088000084320631B
:1007D0002878800605D5206B10218843E9680843F6
:1007E00020630020F8BD00000010024000700040AF
:1007F00088130000F8B50F46060059D03A4D286816
:10080000C007C00FB84209D22868400840003843EA
:1008100028602868C007C00FB84249D13068334CFF
:1008200081070CD5400704D56068072109020843F9
:1008300060606068F0218843B16808436060307888
:10084000C00726D0706801280ED0216802280ED07B
:10085000890700292CDA61688908890001436160F1
:10086000FFF780FD00900DE021688903F1E7890121
:10087000EFE7FFF777FD0099411A1D48814201D942
:100880000320F8BD60680C21084071688900884227
:10089000EFD12868C007C00FB8420BD928684008BC
:1008A0004000384328602868C007C00FB84201D014
:1008B0000120F8BD3078400706D56068072109029D
:1008C0008843F1680843606000F018F86168094ADD
:1008D0000906090F515CC840074908600020FFF76E
:1008E000DBFE0020F8BD00000020024000100240A6
:1008F00088130000A42000081C00002010B514A3D9
:100900000FCB88B06C460FC415A30FCB0FC4184A89
:1009100051680C200B4603401648042B16D0082BB8
:1009200014D18B021B0F6C46E45CD26A04AB120735
:10093000120F9A5CC90305D500231946FFF7E6FBA1
:10094000214601E020460C4900F04AFB08B010BDEA
:1009500002030405060708090A0B0C0D0E0F101000
:100960000102030405060708090A0B0C0D0E0F10FF
:100970000010024000127A0000093D00FEB504009C
:1009800070D02078DC4DC0074AD068680007800F1F
:10099000012807D068680007800F022809D168681D
:1009A000C00306D5286880033AD560680028E7D0E0
:1009B00036E06168012914D001208004002901D0AB
:1009C000052914D02A68012109048A432A6029686C
:1009D000814329606068002816D0FFF7C3FC0646F3
:1009E0000EE028680121090408432860F2E729681D
:1009F00001432960F5E7FFF7B5FC801B64286ED83A
:100A000028688003F7D50BE0FFF7ACFC064604E04E
:100A1000FFF7A8FC801B6428F1D828688003F7D46E
:100A200020780126800700283CDA68680007800FDC
:100A300007D068680007800F022809D16868C003E2
:100A400006D42868800716D5E06801280AD112E08C
:100A5000E0680028286816D030432860FFF782FC41
:100A6000074605E043E1FFF77DFCC01B0228C6D81E
:100A700028688007F7D52868F82188432169C900CC
:100A8000084328600EE0400840002860FFF76AFC39
:100A9000074604E0FFF766FCC01B0228AFD82868B1
:100AA0008007F7D42078000722D5E0690028686A1B
:100AB0000ED030436862FFF755FC074604E0FFF7AD
:100AC00051FCC01B02289AD8686A8007F7D50FE04E
:100AD000400840006862FFF745FC074605E09DE0DE
:100AE000FFF740FCC01B022889D8686A8007F7D44A
:100AF000207804274007002860DA00200190E86988
:100B0000C00008D4E969B8060143E961E969014018
:100B100001200091019079480168C90511D401684C
:100B2000821511430160FFF71DFC009005E0FFF7FF
:100B300019FC0099401A642870D870480068C005F4
:100B4000F5D5A06801280AD0002801D0052810D0CA
:100B5000286A400840002862286AB84301E0286AF1
:100B600030432862A068002812D0FFF7FBFB0090FA
:100B70000AE0286A38432862F1E7FFF7F3FB00999F
:100B8000411A5F48814249D8286A8007F5D50DE0AF
:100B9000FFF7E8FB009006E0FFF7E4FB0099411A3D
:100BA000574881423AD8286A8007F5D4019800282E
:100BB00004D0E969012000078143E9612078C0067B
:100BC00035D5606901280CD0401D686B23D03843AF
:100BD0006863686B400840006863FFF7C3FB064624
:100BE00022E0686B38436863686B30436863FFF7E3
:100BF000B9FB064604E0FFF7B5FB801B02285BD873
:100C0000686B8007F7D5686BF8218843A169C90034
:100C1000084368630BE0B8436863F4E74CE0FFF710
:100C2000A1FB801B022847D8686B8007F7D4206A95
:100C300000285ED069680907890F022942D0012681
:100C400036060228286805D0B0432860FFF78AFBE3
:100C5000044633E0B0432860FFF784FB074604E016
:100C6000FFF780FBC01B022826D828688001F7D434
:100C7000E86AE16A000900010843E862616AA06A63
:100C8000084369683D22120491430843686028685C
:100C900030432860FFF766FB044604E0FFF762FB81
:100CA000001B022808D828688001F7D521E0FFF74B
:100CB00059FB001B022801D90320FEBD28688001D2
:100CC000F5D416E00128F8D06868E96A0122120418
:100CD000636A02409A420AD10907E26A090F914207
:100CE00005D10F2189040840A16A884201D0012062
:100CF000FEBD0020FEBD000000100240007000405C
:100D000088130000094910B5401E884201D901200E
:100D100010BD074C60610321081F00F079F9002025
:100D2000A06107202061002010BD0000FFFFFF0030
:100D300000E000E0FEE701688A69D243920701D42F
:100D400000228A6200688169C943C90703D08169AA
:100D50000122114381617047F7B5044600680E46D1
:100D60008069C043C0062BD4202725464035206823
:100D70008069C043800612D5701CF8D0FFF7F2FAE4
:100D80000299401AB04201D8002EF0D1606C38436D
:100D900060646F700020A87028700120FEBD21687B
:100DA0001020C8612068C7612046FFF7C4FF206893
:100DB0004168044A11404160606C04210843E7E740
:100DC0000020FEBD00E800FEF8B5044616461548B2
:100DD0001D46DAB2C3020090079F204600F024F8B7
:100DE0003A462046069900F080F8002818D1284697
:100DF000F5B2012809D02168300A88623A462046B7
:100E0000069900F072F800280AD1206885620097E0
:100E1000002280212046069B00F01AF8002800D00E
:100E20000120F8BD00200080F0B50668059C7568BB
:100E3000064F600D384385438805800D1104084333
:100E40001843204305437560F0BD0000FF63FF03B6
:100E5000F8B51D4617460E46044609E0681C07D043
:100E6000FFF780FA0699401AA8420BD8002D09D046
:100E700020688169304688430FD00020B842EDD009
:100E80000020F8BD616C2020014361644034607033
:100E90000020A07020700120F8BD0120EEE770B5A1
:100EA00016460D4604460FE0324629462046FFF717
:100EB00053FF002801D0012070BDFFF753FA801BBB
:100EC000A84208D8002D06D020688069C04380065B
:100ED000EAD4002070BD616C20200143616440347D
:100EE00060700020A0702070E5E770B516460D46D2
:100EF000044611E0324629462046FFF72DFF002820
:100F000001D0012070BD681C06D0FFF72BFA801BB2
:100F1000A84208D8002D06D020688069C043800709
:100F2000E8D4002070BD616C20200143616440342E
:100F300060700020A0702070E3E7000010B50D483D
:100F40000B4901600C4941600021816001614161F0
:100F500081610122C161C2600162FFF753FA002181
:100F60000448FFF705FA00210248FFF726FA10BDF2
:100F700000540040200400200E09002070477047F4
:100F8000704710B5FFF770FB10BD10B594B030215D
:100F90006846FFF703F900240F9402200D94009097
:100FA0001294012003900E94139410200C9404903A
:100FB0001094119408946846FFF7E0FC07200C9009
:100FC0000D940E9400210F940CA8FFF713FC202021
:100FD0001090139410A8FFF799FB14B010BD704740
:100FE000F8B5040C8BB2264682B25E430D0C104657
:100FF000370C5843360480190021794116466E4358
:10100000370C36048019794126466E438919F8BD9C
:101010008307FF22DB0E9A408907090E99400028BA
:1010200008DB830809489B001B1818689043084395
:10103000186070470007000F0838830804489B00B9
:101040001B18D86990430843D861704700E400E05A
:1010500000ED00E002E008C8121F08C1002AFAD122
:1010600070477047002001E001C1121F002AFBD128
:101070007047000008B5FFF7FFFAFFF786FF134837
:101080004269012149040A434261406908400090D5
:10109000FFF754FF00F056F87D24E4002046FFF7E8
:1010A000ABF8012000F03CF800F0BAF82046FFF75A
:1010B000A3F81721084600F0ADF80548002306C83C
:1010C00004A000F02BF900F0ABF8FEE7001002409E
:1010D0000800002034696C6F0000000070B58028A3
:1010E00015D2402913D24D0701246D0F0A4BAC4095
:1010F000C9081E79C901094B0818002E02D0002A20
:1011000006D001E0012A03D0195CA143195470BD37
:10111000195C2143FAE700000000002020000020B5
:1011200010B50021064B01229202002805D0FF24B1
:101130005C54491C9142F8D310BD0024F8E700002C
:101140002000002010B56420FFF756F8AE2000F014
:10115000D3F8202000F0D0F8102000F0CDF8B02017
:1011600000F0CAF8C82000F0C7F8002000F0C4F86A
:10117000102000F0C1F8402000F0BEF8812000F0FF
:10118000BBF8FF2000F0B8F8A12000F0B5F8A620C9
:1011900000F0B2F8A82000F0AFF83F2000F0ACF863
:1011A000A42000F0A9F8D32000F0A6F8002000F059
:1011B000A3F8D52000F0A0F8F02000F09DF8D92089
:1011C00000F09AF8222000F097F8DA2000F094F866
:1011D000122000F091F8DB2000F08EF8202000F0C3
:1011E0008BF88D2000F088F8142000F085F8AF20EF
:1011F00000F082F80020FFF793FF00F011F8044898
:1012000000210180418001214171084610BD00008C
:1012100000000020014A108051807047000000202B
:10122000FEB5002464250E4F80262046B030C0B2A3
:1012300000F062F8002000F05FF8102000F05CF889
:10124000E001C01900900123402278210196029507
:101250000448FFF731F9641CE4B2082CE5D3FEBD65
:101260002000002020040020FFB581B021486A46FC
:101270000188177AC919802904D24088567A8019C2
:10128000402802D3002005B0F0BD002528E00199D8
:1012900030462039484340194000039A0024105A30
:1012A00000901AE00098A040000408D51148049A64
:1012B0008178007849190019C9B2C0B20AE00498CF
:1012C000002815D000220B488178007849190019B0
:1012D000C9B2C0B2FFF702FF641CA742E2D86D1C7E
:1012E000AE42D4D803480188C91901800198CAE7E1
:1012F0000122E8E70000002001B584B001210A22A4
:1013000004A80B4602920191009000227821024825
:10131000FFF7D2F805B000BD20040020F0B51D464F
:101320000E46174604460AE02B463A463146FFF77A
:101330009BFF2178884201D0C8B2F0BD641C2078A0
:101340000028F1D1C0B2F0BD000000000000000094
:10135000000000000000000000000000000000008D
:101360000000000000000000000000000000000C71
:10137000000C000C000C000C000C000C000C000C0D
:10138000000C000C0000000C000C0000000000002D
:101390000000001B001B001B001B001B00000000C6
:1013A000000000000000000000000000000000003D
:1013B0000000000000008019801980198019C07F8A
:1013C000C07F80190033C07FC07F003300330033FB
:1013D00000330000000000000000001E003F807588
:1013E00080650074003C001E0007800580658065F4
:1013F0008075003F001E0004000400000000007023
:1014000000D840D8C0D880D900730006000C801BDB
:10141000C036C066C046C006800300000000000061
:101420000000001E003F003300330033001E000C9C
:10143000C03CC066806380618063C03E801C000049
:10144000000000000000000C000C000C000C000C60
:10145000000000000000000000000000000000008C
:1014600000000000000000008000000100030006F2
:1014700000060004000C000C000C000C000C000C1A
:101480000004000600060003000180000020001098
:101490000018000C000C0004000600060006000600
:1014A000000600060004000C000C001800100020CC
:1014B0000000000C002D003F001E00330000000063
:1014C000000000000000000000000000000000001C
:1014D00000000000000000000000000C000C000CE8
:1014E000000CC0FFC0FF000C000C000C000C000042
:1014F00000000000000000000000000000000000EC
:1015000000000000000000000000000000000000DB
:101510000000000C000C00040004000800000000A3
:101520000000000000000000000000000000001E9D
:10153000001E00000000000000000000000000008D
:10154000000000000000000000000000000000009B
:1015500000000000000000000000000C000C000073
:101560000000000000000003000300030006000666
:1015700000060006000C000C000C000C00180018FF
:1015800000180000000000000000001E003F0033B3
:10159000806180618061806D806D8061806180612B
:1015A0000033003F001E00000000000000000006A5
:1015B000000E001E0036002600060006000600068B
:1015C00000060006000600060006000000000000FD
:1015D0000000001E003F8073806180618001000375
:1015E0000006000C001800300060807F807F000043
:1015F000000000000000001C003E006300630003C8
:10160000000E000E00038001800180618073003FA6
:10161000001E00000000000000000006000E000E8A
:10162000001E001E0016003600360066807F807F98
:101630000006000600060000000000000000007F19
:10164000007F006000600060006E007F80638001AA
:10165000800180618073003F001E000000000000D8
:101660000000001E003F803380610060006E007F3C
:1016700080738061806180618033003F001E0000C4
:10168000000000000000807F807F800100030003D5
:1016900000060006000C000C000C000800180018E2
:1016A00000180000000000000000001E003F8063E2
:1016B000806180610021001E003F80618061806147
:1016C0008061003F001E0000000000000000001EBE
:1016D000003F00738061806180618073803F801D66
:1016E000800180610073003F001E000000000000C8
:1016F00000000000000000000000000C000C0000D2
:1017000000000000000000000000000C000C0000C1
:1017100000000000000000000000000000000000C9
:10172000000C000C00000000000000000000000C95
:10173000000C00040004000800000000000000008D
:1017400080008003000E003800600038000E800327
:101750008000000000000000000000000000000009
:10176000000000000000807F807F00000000807F7C
:10177000807F00000000000000000000000000006A
:10178000000000000000000000400070001C000786
:1017900080010007001C00700040000000000000F5
:1017A000000000000000001F803FC071C060C0004A
:1017B000C00180030007000E000C000C0000000CAC
:1017C000000C0000000000000000001E003F8031FF
:1017D00080718063806F806D806D806F8067006036
:1017E0000032003E001C0000000000000000000E5F
:1017F000000E001B001B001B001B80318031803F4E
:10180000803F8031C060C060C06000000000000008
:101810000000007C007E0063006300630063007EC4
:10182000007E0063806180618063007F007E000035
:10183000000000000000001E003F80318061006059
:101840000060006000600060006080618031003FE7
:10185000001E0000000000000000007C007F00630C
:1018600080638061806180618061806180610063EC
:101870000063007E007C0000000000000000807F0C
:10188000807F0060006000600060007F007F00607B
:10189000006000600060807F807F0000000000002A
:1018A0000000807F807F0060006000600060007F3B
:1018B000007F006000600060006000600060000069
:1018C000000000000000001E003F803180610060C9
:1018D0000060006080638063806180618031803F50
:1018E000001E000000000000000080618061806137
:1018F000806180618061807F807F806180618061A4
:101900008061806180610000000000000000003FF5
:10191000003F000C000C000C000C000C000C000C34
:10192000000C000C000C003F003F00000000000015
:101930000000800180018001800180018001800120
:1019400080018001806180618073003F001E000083
:10195000000000000000C060806100630066006657
:10196000006C0078007C0066006600638061806126
:10197000C060000000000000000000600060006027
:101980000060006000600060006000600060006057
:101990000060807F807F0000000000000000C071B8
:1019A000C071C07BC07AC06AC06AC06EC064C060CB
:1019B000C060C060C060C060C06000000000000087
:1019C000000080718071807980798079806D806D70
:1019D000806D8065806780678067806380630000BA
:1019E000000000000000001E003F003380618061A5
:1019F0008061806180618061806180610033003F2F
:101A0000001E0000000000000000007E007F8063D8
:101A10008061806180618063007F007E0060006083
:101A20000060006000600000000000000000001E78
:101A3000003F0033806180618061806180618061EE
:101A4000806580670033803F401E0000000000007A
:101A50000000007E007F8063806180618063007F82
:101A6000007E00660063006380618061C0600000EA
:101A7000000000000000000E001F803180310030A7
:101A80000038001E00078003806180618031003FC4
:101A9000001E0000000000000000C0FFC0FF000C9E
:101AA000000C000C000C000C000C000C000C000CD6
:101AB000000C000C000C0000000000000000806121
:101AC000806180618061806180618061806180610E
:101AD000806180618073003F001E000000000000F4
:101AE0000000C060C060C060803180318031001B68
:101AF000001B001B001B000E000E000E0004000067
:101B0000000000000000C0C0C0C0C0C0C0C0C0C055
:101B1000C0CC804C804C805E80528052807380614B
:101B200080610000000000000000C0C08060806193
:101B30000033003B001E000C000C001E001F003B89
:101B400080718061C0C00000000000000000C0C0C3
:101B50008061806100330033001E001E000C000C09
:101B6000000C000C000C000C000C00000000000039
:101B70000000803F803F8001000300030006000C4E
:101B8000000C0018001800300060807F807F00008B
:101B900000000000000F000F000C000C000C000CF7
:101BA000000C000C000C000C000C000C000C000CD5
:101BB000000C000C000F000F0000001800180018A7
:101BC000000C000C000C000C0006000600060006CD
:101BD000000300030003000000000000001E001EC0
:101BE00000060006000600060006000600060006C5
:101BF000000600060006000600060006001E001E85
:101C00000000000C000C001E001200330033806145
:101C100080610000000000000000000000000000E3
:101C200000000000000000000000000000000000B4
:101C300000000000000000000000000000000000A4
:101C400000000000E0FF0000000000380018000C59
:101C50000000000000000000000000000000000084
:101C60000000000000000000000000000000000074
:101C7000000000000000001F803F80618001801F85
:101C8000803F80618063807FC038000000000000DA
:101C900000000060006000600060006E007F8073E4
:101CA00080618061806180618073007F006E0000D0
:101CB0000000000000000000000000000000001E06
:101CC000003F807380610060006080618073003F2E
:101CD000001E000000000000000080018001800163
:101CE0008001801D803F80738061806180618061A0
:101CF0008073803F801D0000000000000000000095
:101D0000000000000000001E003F00738061807F23
:101D1000807F00608071003F001E00000000000016
:101D20000000C007C00F000C000C807F807F000CFB
:101D3000000C000C000C000C000C000C000C00004F
:101D4000000000000000000000000000801D803F37
:101D5000807380618061806180618073803F801DBD
:101D600080018063007F003E000000600060006032
:101D70000060006F807F8071806180618061806120
:101D800080618061806100000000000000000006AA
:101D9000000600000000003E003E000600060006AF
:101DA0000006000600060006000600000000000015
:101DB0000006000600000000003E003E000600068F
:101DC00000060006000600060006000600060046A3
:101DD000007E003C000000600060006000608061E8
:101DE00000630066006C007C007600630063806125
:101DF000C0600000000000000000003E003E000641
:101E000000060006000600060006000600060006A2
:101E100000060006000600000000000000000000B0
:101E200000000000000080DDC0FFC0CEC0CCC0CCF0
:101E3000C0CCC0CCC0CCC0CCC0CC000000000000E6
:101E400000000000000000000000006F807F807133
:101E5000806180618061806180618061806100005B
:101E60000000000000000000000000000000001E54
:101E7000003F807380618061806180618073003F7A
:101E8000001E000000000000000000000000000034
:101E9000006E007F807380618061806180618073EB
:101EA000007F006E006000600060006000000000C5
:101EB00000000000801D803F807380618061806130
:101EC00080618073803F801D8001800180018001DE
:101ED000000000000000000000000067803F0039A3
:101EE00000300030003000300030003000300000A2
:101EF0000000000000000000000000000000001EC4
:101F0000803F80610060007F803F80018061007FB2
:101F1000001E000000000000000000000008001883
:101F20000018007F007F0018001800180018001823
:101F30000018801F800F000000000000000000005B
:101F4000000000000000806180618061806180612C
:101F5000806180618063807F803D00000000000020
:101F600000000000000000000000C06080318031EF
:101F70008031001B001B001B000E000E000600003D
:101F8000000000000000000000000000000080DDF4
:101F900080DD80DD00550055005500770077002278
:101FA000002200000000000000000000000000000F
:101FB0000000806100330033001E000C000C001E86
:101FC00000330033806100000000000000000000CA
:101FD0000000000080618061803100330033001B0D
:101FE000001B001B000E000E000E001C007C007089
:101FF00000000000000000000000C07FC07F8001E2
:1020000000030006000C00180030C07FC07F0000F5
:10201000000000008003800700060006000600069E
:102020000006000E001C001C000E00060006000644
:102030000006000680078003000600060006000672
:102040000006000600060006000600060006000660
:102050000006000600060006000600060038003CE8
:10206000000C000C000C000C000C000E0007000718
:10207000000E000C000C000C000C000C003C0038A2
:102080000000000000000000000000000000803898
:10209000807F0047000000000000000000000000FA
:1020A0000000000000000000000000000102030426
:1020B00006070809D42000080000002020000000C6
:1020C00054100008F42000082000002050080000F0
:1020D0006410000800000000000000000B12000067
:1020E0004813000801000000040000000000000088
:0420F00000127A0060
:04000005080000B13E
:00000001FF
