:020000040800F2
:1000000008040020450100082F090008CD0300085E
:100010002B0900088D010008C50A00080000000037
:10002000000000000000000000000000750900084A
:10003000910100080000000031090008610A000871
:100040005F0100085F0100085F0100085F01000810
:100050005F0100085F0100085F0100085F01000800
:100060005F0100085F0100085F0100085F010008F0
:100070005F0100085F0100085F0100085F010008E0
:100080005F0100085F0100085F0100085F010008D0
:100090005F0100085F0100085F0100085F010008C0
:1000A0005F0100085F0100085F0100085F010008B0
:1000B0005F0100085F0100085F0100085F010008A0
:1000C0005F0100085F0100085F0100085F01000890
:1000D0005F0100085F0100085F0100085F01000880
:1000E0005F0100085F0100085F0100085F01000870
:1000F0005F0100085F0100085F0100085F01000860
:100100005F0100085F0100085F0100085F0100084F
:100110005F0100085F0100085F0100085F0100083F
:100120005F0100085F0100085F0100085F0100082F
:10013000DFF80CD000F018F800480047E90A000882
:10014000080400200648804706480047FEE7FEE70F
:10015000FEE7FEE7FEE7FEE7FEE7FEE7FEE7FEE777
:10016000650A000831010008064C074D06E0E0680A
:1001700040F0010394E8070098471034AC42F6D3EE
:10018000FFF7DAFF081000082810000800BFFEE79C
:100190007047000051B18200A2F1C042126842F0E3
:1001A00001038200A2F1C042136009E08200A2F1C3
:1001B000C0421268034B1A408300A3F1C0431A6087
:1001C00070470000FEFF0F00D0E901121143C26822
:1001D0001143026911434269114382691143C269A3
:1001E0001143026A1143426A1143826A1143C26A8F
:1001F0001143026B114302689200A2F1C0421160E8
:10020000816808290BD101688900A1F1C041096802
:1002100041F0400201688900A1F1C0410A60416BD0
:100220000968426B526841EA0211426B926841EAE6
:100230000221426B928941EA0241426B128A41EAF1
:100240000251426B127D41EA0261426B9269114395
:100250000268521C9200A2F1C0421160C16AB1F55D
:10026000804F1BD1816B0968826B526841EA021191
:10027000826B926841EA0221826B128A41EA025142
:10028000826B127D41EA0261826B926911430268BE
:100290009200A2F1C042C2F8041107E06FF0704270
:1002A00001688900A1F1C041C1F8042170472DE91E
:1002B000F0410246002500260020002300240027EC
:1002C00091F803C00CF00F0591F803C00CF0100C6E
:1002D000BCF1000F03D091F802C04CEA050591F87B
:1002E00000C0BCF1000F31D0146800202BE04FF0AB
:1002F000010C0CFA00F3B1F800C00CEA03069E42B0
:1003000020D183004FF00F0C0CFA03F7BC4305FA21
:1003100003FC4CEA040491F803C0BCF1280F06D199
:100320004FF0010C0CFA00FCC2F814C00AE091F87E
:1003300003C0BCF1480F05D14FF0010C0CFA00FCD2
:10034000C2F810C0401C0828D1D31460B1F800C016
:10035000BCF1FF0F34DD546800202EE000F1080CE2
:100360004FF0010808FA0CF3B1F800C00CEA0306DC
:100370009E4221D183004FF00F0C0CFA03F7BC43CF
:1003800005FA03FC4CEA040491F803C0BCF1280F01
:1003900005D100F1080C08FA0CF8C2F8148091F8A5
:1003A00003C0BCF1480F07D100F1080C4FF0010861
:1003B00008FA0CF8C2F81080401C0828CED354600C
:1003C000BDE8F081416170470161704700BFFEE701
:1003D000F0B5059D00242A264FF0D8473E8006122E
:1003E0004FF0DA473E80C6B23E808618761EC6F3CE
:1003F0000F263E808618761EF6B23E802B264FF0E2
:10040000D8473E800E124FF0DA473E80CEB23E8093
:10041000CE18761EC6F30F263E80CE18761EF6B294
:100420003E802C264FF0D8473E8000BF03E04FF0BF
:10043000DA463580641C02FB03F6A642F7D8F0BD0D
:100440002DE9F047064688461446994600270025C0
:1004500025463DB94B4630224146304600F024F84F
:10046000BDE8F08703E00A20B5FBF0F57F1C002D06
:10047000F9D115E00A20B4FBF0F100FB114000F1C6
:10048000300A39467F1E062202FB0161891F88B2AD
:100490004B465246414600F007F80A20B4FBF0F400
:1004A000002CE7D100BFDBE72DE9F04F81468A46FB
:1004B00015461E46A5F120001FFA80FB0C230622DC
:1004C0005146484600F0E0F82C204FF0D841088013
:1004D00000241BE00BEB4B000E4901EB800010F8F1
:1004E000048000270EE008F0010018B14FF0DA4058
:1004F000068003E000204FF0DA4108804FEA6808E8
:10050000781C87B2062FEEDB601C84B20C2CE1DB7A
:10051000BDE8F08F940B0008F0B505460E46144672
:100520001F4613E0EA2D03DD002506F10C0086B21C
:10053000B6F59A7F01DD0025002622783B4631463C
:100540002846FFF7B1FFA81D85B2641C207800285B
:10055000E8D1F0BD00B597B00220019000200290D4
:100560000520039000200490059006904FF08050E5
:100570000790062008900020099008200A9010207B
:100580000B9000200C900E900F9010904FF4805024
:100590001190002012901390149001A815901690BD
:1005A00008A8FFF711FE01210620FFF7F3FD17B0A1
:1005B00000BD000008B50121080200F0BBF90121CF
:1005C0004FF4F47000F0C6F910208DF803000320FA
:1005D0008DF802000220ADF8000069462148FFF7BF
:1005E00066FE4FF40060ADF8000069461E48FFF754
:1005F0005EFE03208DF8020018208DF803004CF2F7
:100600000370ADF8000069461848FFF750FE4FF63A
:100610008070ADF8000069461548FFF748FE1020CD
:10062000ADF8000069461148FFF741FE2020ADF803
:10063000000069460D48FFF73AFE4FF48050ADF8D0
:10064000000069460848FFF732FE0420ADF80000BC
:1006500069460748FFF72BFE02210248FFF7B2FE6A
:1006600008BD0000000C01400020014000140140C2
:100670000018014010B5FFF79DFFFFF76BFF00F07A
:1006800035F900F029F810BD30B52A244FF0D845CF
:100690002C8004124FF0DA452C80C4B22C808418D0
:1006A000641EC4F30F242C808418641EE4B22C80D2
:1006B0002B244FF0D8452C800C124FF0DA452C80BB
:1006C000CCB22C80CC18641EC4F30F242C80CC1820
:1006D000641EE4B22C8030BD00B5CF204FF0D8416D
:1006E000088000204FF0DA41088081200880302007
:1006F0000880ED204FF0D841088064204FF0DA41A7
:100700000880032008801220088081200880E820CB
:100710004FF0D841088085204FF0DA410880102042
:10072000088078200880CB204FF0D84108803920FD
:100730004FF0DA4108802C20088000200880342007
:10074000088002200880F7204FF0D8410880202040
:100750004FF0DA410880EA204FF0D84108800020AD
:100760004FF0DA4108800880B1204FF0D84108806E
:1007700000204FF0DA4108801B200880B620410697
:1007800008800A204FF0DA410880A2200880C020AB
:100790004FF0D841088035204FF0DA410880C12061
:1007A0004FF0D841088011204FF0DA410880C52071
:1007B0004FF0D841088045204FF0DA41088008808A
:1007C000C7204FF0D8410880A2204FF0DA410880BE
:1007D000F2204FF0D841088000204FF0DA41088025
:1007E00026204FF0D841088001204FF0DA410880E0
:1007F000E0204FF0D84108800F204FF0DA41088008
:1008000026200880242008800B2008800E200880E5
:100810000920088054200880A820088046200880ED
:100820000C20088017200880092008800F200880ED
:100830000720088000200880E1204FF0D841088080
:1008400000204FF0DA410880192008801B20088022
:100850000420088010200880072008802A200880B3
:10086000472008803920088003200880062008805F
:10087000088030200880382008800F20088036202B
:1008800041060880C8204FF0DA4108802A204FF046
:10089000D841088000204FF0DA41088008800880A5
:1008A000EF2008802B204FF0D841088000204FF027
:1008B000DA4108800880012008803F2008803A2023
:1008C0004FF0D841088055204FF0DA4108801120C0
:1008D0004FF0D8410880044800F01EF829204FF05E
:1008E000D841088000BD0000FCBF020010B54FF4E5
:1008F00000610748FFF766FD064800F00DF84FF469
:1009000000610348FFF760FD024800F005F810BDE4
:1009100000200140FCBF020001B502E00098401E2B
:10092000009000980028F9D108BD00BFFEE770478D
:100930007047000029B1064A52690243044B5A61CC
:1009400004E0034A52698243014B5A617047000038
:100950000010024029B1064A92690243044B9A6191
:1009600004E0034A92698243014B9A617047000098
:1009700000100240704710B500F002F810BD0000F2
:100980000CB50020019000903348006840F480309E
:100990003149086000BF3048006800F40030009022
:1009A0000198401C0190009818B90198B0F5A06F0B
:1009B000F1D12948006800F4003010B10120009006
:1009C00001E0002000900098012843D123480068EE
:1009D00040F01000214908600846006820F003003C
:1009E00008600846006840F0020008601A48406845
:1009F000194948600846406848600846406840F425
:100A0000806048600846406820F47C1048600846D2
:100A1000406840F4E81048600846006840F0807084
:100A2000086000BF0C48006800F000700028F9D092
:100A30000948406820F003000749486008464068BC
:100A400040F00200486000BF0348406800F00C001E
:100A50000828F9D10CBD000000100240002002401F
:100A60007047000010B51348006840F001001149BC
:100A7000086008464068104908400E49486008462A
:100A800000680E4908400B4908600846006820F4D9
:100A9000802008600846406820F4FE0048604FF45B
:100AA0001F008860FFF767FF4FF00060044908608F
:100AB00010BD0000001002400000FFF8FFFFF6FE2E
:100AC00008ED00E000BFFEE702E008C8121F08C101
:100AD000002AFAD170477047002001E001C1121FBF
:100AE000002AFBD17047000008B5FFF7C3FD0020C6
:100AF0004FF4A073F02201460090FFF769FC4FF419
:100B0000784341223C210846FFF7CEFC4FF478435E
:100B100013A20A210846FFF7FFFC4FF4784319A2FD
:100B200064212820FFF7F8FC00201849086010E035
:100B30004FF478431548642102680846FFF780FCAB
:100B400040F6FF20FFF7E8FE10480068401C0F4900
:100B500008600E4800680E498842E9D300BFFEE7EE
:100B6000546869732069732061206C636420646534
:100B70006D6F20746F20646973706C61792061738C
:100B800063696900636F756E743A000000000020AD
:100B900020A107000000000000000000000000008D
:100BA00000000404040404040004000000140A0A01
:100BB0000000000000000000000014143F140A3F71
:100BC0000A0A000000041E1505060C14150F040087
:100BD000000012150D0A142C2A1200000000040A4D
:100BE0000A1E15150936000000020201000000006F
:100BF0000000000000201008080808080810200065
:100C000000020408080808080804020000000004A4
:100C1000150E0E150400000000000404041F040457
:100C200004000000000000000000000000020201BB
:100C300000000000001F0000000000000000000095
:100C40000000000000020000001008080804040270
:100C50000202010000000E1111111111110E00000D
:100C60000000040604040404040E000000000E1139
:100C700011080402011F000000000E11100C1010DA
:100C8000110E00000000080C0A0A091E08180000D6
:100C900000001F01010F1010110E000000000E09CE
:100CA000010F1111110E000000001F0908040404B7
:100CB0000404000000000E11110E1111110E0000AD
:100CC00000000E1111111E10120E00000000000095
:100CD0000400000000040000000000000004000008
:100CE0000004040000201008040204081020000082
:100CF000000000001F00001F0000000000020408A8
:100D0000102010080402000000000E111108040455
:100D10000004000000000E111915151D011E000031
:100D2000000004040C0A0A1E1233000000000F1217
:100D3000120E1212120F000000001E11010101011B
:100D4000110E000000000F1212121212120F0000FA
:100D500000001F120A0E0A02121F000000001F12DC
:100D60000A0E0A020207000000001C1201013911DC
:100D7000120C000000003312121E12121233000077
:100D800000001F0404040404041F000000003E08C7
:100D90000808080808090700000037120A060A0AAE
:100DA000123700000000070202020202223F000088
:100DB00000001B1B1B1B15151515000000003B1226
:100DC00016161A1A1217000000000E111111111137
:100DD000110E000000000F12120E020202070000A6
:100DE00000000E1111111117190E180000000F123A
:100DF000120E0A121237000000001E110106081020
:100E0000110F000000001F1504040404040E00006C
:100E10000000331212121212120C000000003312E2
:100E2000120A0A0C0404000000001515150E0A0A27
:100E30000A0A000000001B0A0A04040A0A1B000038
:100E400000001B0A0A040404040E000000001F092D
:100E500008040402121F0000001C0404040404041B
:100E600004041C0000020202040408080810000028
:100E7000000E08080808080808080E0000040A0008
:100E80000000000000000000000000000000000062
:100E90000000003F0004000000000000000000000F
:100EA00000000000000C121C123C000000000302B5
:100EB000020E1212120E000000000000001C1202AE
:100EC000021C000000001810101C1212123C00003E
:100ED00000000000000C121E021C0000000038047C
:100EE000041E0404041E000000000000003C120C5C
:100EF000021E221C00000302020E12121237000012
:100F00000000040000060404040E000000000800B5
:100F1000000C08080808080700000302023A0A0E3D
:100F2000123700000000070404040404041F00003A
:100F300000000000000F151515150000000000004E
:100F4000000F12121237000000000000000C1212F5
:100F5000120C000000000000000F1212120E020717
:100F600000000000001C1212121C103800000000CB
:100F7000001B06020207000000000000001E020C19
:100F8000101E000000000004040E040404180000F9
:100F900000000000001B1212123C000000000000C4
:100FA0000037120A0C040000000000000015150EA6
:100FB0000A0A000000000000001B0A040A1B0000CF
:100FC000000000000037120A0C04040300000000B7
:100FD000001E0804041E0000001808080804080881
:100FE0000808180008080808080808080808080879
:100FF0000006040404080404040406000225180082
:101000000000000000000000281000080000002080
:1010100004000000C80A00082C100008040000208A
:0C10200004040000D80A000800000000D2
:0400000508000131BD
:00000001FF
