:020000040800F2
:1000000000FA0120352D0008A9030008AB03000801
:10001000AF030008B3030008B703000800000000A6
:10002000000000000000000000000000BB0300080A
:10003000BD030008000000004DB400086141000845
:100040004F2D00084F2D00084F2D00084F2D0008A0
:100050004F2D00084F2D00084F2D00084F2D000890
:100060004F2D00084F2D00084F2D00084F2D000880
:100070004F2D00084F2D00084F2D00084F2D000870
:100080004F2D00084F2D00084F2D00084F2D000860
:100090004F2D00084F2D00084F2D00084F2D000850
:1000A0004F2D00084F2D00084F2D00084F2D000840
:1000B0004F2D00084F2D00084F2D00084F2D000830
:1000C0004F2D00084F2D00084F2D00084F2D000820
:1000D0004F2D0008314300084F2D00084F2D000818
:1000E0004F2D00084F2D00084F2D00084F2D000800
:1000F0004F2D00084F2D00084F2D00084F2D0008F0
:100100004F2D00084F2D00084F2D00084F2D0008DF
:100110004F2D00084F2D00084F2D00084F2D0008CF
:100120004F2D00084F2D00084F2D00084F2D0008BF
:100130004F2D00084F2D00084F2D00084F2D0008AF
:100140004F2D00084F2D00084F2D00084F2D00089F
:100150004F2D00084F2D00084F2D00084F2D00088F
:100160004F2D00084F2D00084F2D00084F2D00087F
:100170004F2D00084F2D00084F2D00084F2D00086F
:100180004F2D00084F2D000800F002F800F063F832
:100190000AA090E8000C82448344AAF10107DA45E2
:1001A00001D100F058F8AFF2090EBAE80F0013F0D1
:1001B000010F18BFFB1A43F001031847E0D80500F0
:1001C00000D905000A444FF0000C10F8013B13F071
:1001D000070408BF10F8014B1D1108BF10F8015BA0
:1001E000641E05D010F8016B641E01F8016BF9D193
:1001F00013F0080F1EBF10F8014BAD1C0C1B09D1EA
:100200006D1E58BF01F801CBFAD505E014F8016B5B
:1002100001F8016B6D1EF9D59142D6D370470000ED
:100220000023002400250026103A28BF78C1FBD8FF
:10023000520728BF30C148BF0B60704769290BF0D7
:100240008B81002070471FB525F099F90BF0D5F987
:100250001FBD10B510BD0BF069FC1146FFF7F3FF91
:1002600000F06DF80BF087FC03B4FFF7F2FF03BC5E
:1002700003F0FAFF0B49D1F800C04A685CF8043B70
:100280001068184442F8040B8C4528BFA1F1DC0C1F
:100290008A4228BFA1F1DC02C1F800C04A6020F008
:1002A0000040704794EB01200EE03A48006808B91E
:1002B000012000E00020374908604FF4FA73002263
:1002C000114610460AF012FFEFE707E011F0D0F8F0
:1002D00005230022114610460AF008FFF6E701E068
:1002E00005F04CFCFCE770B505460121080303F05E
:1002F000B9FB042017F088FB0FF0C2FD08F05AFE8E
:100300000BF07CF804460423234A0021AFF23100AD
:100310000AF072FB0223214A0021AFF251000AF0D9
:100320006BFB03231E4A0021AFF283000AF064FB3B
:10033000FF200AF0E1FD20460BF064F870BD10B517
:10034000A82003F015FF4FF4A06002F013FD4FF456
:10035000E13003F097FF00F0D7FE00F088FC00F0DA
:1003600037F900F055F9002004F043F8012004F0BB
:1003700040F8022004F03DF808F0DFFC0023094AB1
:100380001946AFF29D000AF037FB08F0FBFD002094
:1003900010BD0000A4824242103300201012002041
:1003A0001013002010100020704700BFFEE700BFB0
:1003B000FEE700BFFEE700BFFEE7704770470000A2
:1003C0000CB50020019000907648006840F4803021
:1003D0007449086000BF7348006800F40030009062
:1003E0000198401C0190009818B90198B0F5A04FF1
:1003F000F1D16C48006800F4003010B10120009089
:1004000001E0002000900098012846D16548403066
:10041000006840F0805063494031086062480068DD
:1004200040F44040604908605E48083000685D491B
:10043000083108600846006840F40040086008463B
:10044000006840F4A05008605848091F0860081F61
:10045000006840F08070091F086000BF51480068C4
:1004600000F000700028F9D040F205705049086093
:100470004C480830006820F003004A490831086001
:100480000846006840F00200086000BF4548083098
:10049000006800F00C000828F8D10CBD10B54548E4
:1004A000006840F47000434908603E48006840F02E
:1004B00001003C49086000203A4908310860394889
:1004C00000683D490840374908603C48091D0860FC
:1004D000081F006820F48020091F086000203149AF
:1004E0000C310860FFF76CFF4FF000603149803934
:1004F000086010BD70B500200022022300240221F4
:10050000284D08352D6805F00C0020B1042806D0D0
:10051000082834D107E02A4D2A4E356033E02A4DB1
:10052000284E35602FE01F4D2D1D2D68C5F38054DA
:100530001C4D2D1D2D6805F03F0154B1224DB5FB1A
:10054000F1F5184E361D3668C6F3881605FB06F21F
:1005500009E01B4DB5FBF1F5124E361D3668C6F3AA
:10056000881605FB06F20F4D2D1D2D68C5F30145BC
:100570006D1C6B00B2FBF3F5124E356003E0104DBD
:10058000104E356000BF00BF064D08352D68C5F31D
:1005900003150E4E705D0B4D2D68C540094E35603C
:1005A00070BD000000380240007000400854400751
:1005B000003C024088ED00E0FFFFF6FE1030002412
:1005C0000024F4000000002000127A000400002043
:1005D0001CB50121202003F045FA4FF4C0600090C3
:1005E00001208DF8040000208DF806008DF807002A
:1005F00003208DF805006946044802F095FF4FF48A
:10060000C061024803F00CF81CBD00000014024059
:1006100000B599B00121782003F024FA4FF6337029
:10062000179002208DF8600003208DF861000020F3
:100630008DF8620001208DF8630017A9994802F037
:1006400073FF4FF68370179017A9974802F06CFF5D
:100650004FF23F00179017A9944802F065FF40F24F
:100660003F40179017A9924802F05EFF0C2200212C
:100670008C4802F0E4FF0C2201218A4802F0DFFFDF
:100680000C220421874802F0DAFF0C22052185485C
:1006900002F0D5FF0C220821824802F0D0FF0C2284
:1006A0000921804802F0CBFF0C220A217D4802F08C
:1006B000C6FF0C220B217B4802F0C1FF0C22114621
:1006C000784802F0BCFF0C220D21764802F0B7FFFB
:1006D0000C220E21734802F0B2FF0C220F21714848
:1006E00002F0ADFF0C2200216F4802F0A8FF0C229F
:1006F00001216D4802F0A3FF0C2207216A4802F095
:100700009EFF0C220821684802F099FF0C22092163
:10071000654802F094FF0C220A21634802F08FFF23
:100720000C220B21604802F08AFF0C2211465E4821
:1007300002F085FF0C220D215B4802F080FF0C22A5
:100740000E21594802F07BFF0C220F21564802F07F
:1007500076FF0C220021554802F071FF0C22012186
:10076000524802F06CFF0C220221504802F067FF51
:100770000C2203214D4802F062FF0C2204214B4859
:1007800002F05DFF0C220521484802F058FF0C22C0
:100790001146464802F053FF0C220D21434802F057
:1007A0004EFF0C220E21414802F049FF0C220F217E
:1007B0003E4802F044FF0C2200213D4802F03FFF7A
:1007C0000C2201213A4802F03AFF0C22022138485B
:1007D00002F035FF0C220321354802F030FF0C22D5
:1007E0000421334802F02BFF0C220521304802F08F
:1007F00026FF0C220A212E4802F021FF082001903A
:10080000002002900F200390002004900590069095
:10081000079004200890002009900A9010200B9067
:1008200000200C900D900E900F9010904FF480507F
:100830001190002012901390149001A8159016901A
:1008400008A802F022FB0121042002F0A9FB19B044
:1008500000BD10B506E004784FF0D0435C54491C4D
:10086000401C521E002AF6D110BD06E04FF0D043C6
:100870005B5C00F8013B491C521E002AF6D1704710
:1008800013B504460122214601A8FFF7E2FF1CBD73
:1008900018B50446012221466846FFF7E6FF9DF899
:1008A000000018BD000C024000100240001402407D
:1008B000001802401CB50121222003F0D3F80120CA
:1008C00000908DF8040000208DF806008DF80500DA
:1008D0008DF807006946E84802F026FE4FF40060F4
:1008E000009001208DF8040000208DF806008DF89E
:1008F00005008DF807006946E04802F015FE012169
:10090000DD4802F08DFE4FF40061DC4802F088FE05
:100910001CBD1CB54FF40060009001208DF8040050
:1009200000208DF806008DF805006946D34802F0D6
:10093000FBFD1CBD1CB54FF40060009000208DF83D
:1009400004008DF805006946CC4802F0EDFD1CBDA1
:10095000014606E0002002E000BF421C90B20928D8
:10096000FADB0A1EA1F10103D9B2F3D1704710B529
:10097000FFF7CFFF4FF40061C04802F051FE0121A4
:10098000BD4802F04DFE0420FFF7E2FF4FF4006186
:10099000BA4802F047FE0420FFF7DAFF0121B6480B
:1009A00002F040FE10BD10B5FFF7B3FF0121B248C1
:1009B00002F038FE4FF40061B04802F033FE04202C
:1009C000FFF7C6FF0121AC4802F02AFE0420FFF722
:1009D000BFFF4FF40061A94802F022FE10BD70B5C0
:1009E000A74CFFF7A7FF4FF40061A44802F018FEE0
:1009F0000120FFF7ADFF01219F4802F011FE012009
:100A0000FFF7A6FF4FF400619C4802F0EFFD05469A
:100A10000EE04FF40061994802F0E8FD0546012020
:100A2000FFF796FF641E1CB9FFF7BDFF012070BDE4
:100A3000012DEED00121904802F0F4FD0020F6E7F0
:100A400010B501218C4802F0EDFDFFF762FF4FF475
:100A500000618A4802F0E6FD0220FFF779FF0121DC
:100A6000854802F0DDFD0220FFF772FF0121824878
:100A700002F0D8FD10BD10B501217F4802F0D2FD73
:100A8000FFF747FF4FF400617C4802F0C9FD0220E8
:100A9000FFF75EFF0121784802F0C2FD0220FFF758
:100AA00057FF0121744802F0BDFD10BD70B5054629
:100AB000FFF72FFF0121704802F0B4FD002421E070
:100AC0007048005D284028B14FF400616B4802F087
:100AD000A7FD04E04FF40061684802F0A3FD022086
:100AE000FFF736FF0121644802F09AFD0220FFF76C
:100AF0002FFF0121604802F095FD0220FFF728FF3B
:100B0000601CC4B2082CDBDB70BD70B50546002646
:100B1000FFF710FF4FF40061584802F081FD0024F8
:100B200018E00121544802F07DFD0220FFF710FF7C
:100B30000121514802F074FD4FF400614F4802F06A
:100B400055FD10B14F48005D06430120FFF700FF3F
:100B5000601CC4B2082CE4DB15B9FFF78CFF01E080
:100B6000FFF76EFF304670BD70B504460025FFF7F5
:100B7000FEFE7020FFF79AFFFFF731FF2046FFF7D8
:100B800095FFFFF72CFFFFF7F2FE7120FFF78EFFB6
:100B9000FFF725FF0020FFF7B8FF0546FFF703FF2B
:100BA000284670BD70B505460C46FFF7E0FE702084
:100BB000FFF77CFFFFF713FF2846FFF777FFFFF7EC
:100BC0000EFF2046FFF772FFFFF709FFFFF7EBFE6E
:100BD00070BD70B505460E46FFF7C9FE7120FFF7E0
:100BE00065FFFFF7FCFE00240DE0701EA04204D15B
:100BF0000020FFF78AFF285503E00120FFF785FF5B
:100C00002855601CC4B2B442EFDBFFF7CCFE70BDC8
:100C100070B505460E460024FFF7A9FE7020FFF7C9
:100C200045FFFFF7DCFE0020FFF740FFFFF7D7FE90
:100C3000FFF7B9FEFFF79BFE7120FFF737FFFFF7C5
:100C4000CEFE00BF0DE0701EA04204D10020FFF7D1
:100C50005CFF285503E00120FFF757FF2855601C73
:100C600044B2B442EFD3FFF79EFE002070BD10B532
:100C7000FFF720FE002010BD0004024000140240D7
:100C8000FFFF0F009255020801B5BDF8000000906B
:100C9000BDF80000FE49088008BD01B5BDF80000A0
:100CA0000090BDF80000FA49891C088008BD08B50D
:100CB000F748801C00880090BDF8000008BD03B50F
:100CC000BDF80000F24A10804FF0D840A0F8801024
:100CD0000CBD01B5BDF80000FFF7D6FF052003F0FD
:100CE0006DFAFFF7E4FF08BDEA480089E84908808B
:100CF000704730B5014601F01F04C1F34513CA0A1D
:100D0000E50205EB43151544A8B230BD00BF011E36
:100D1000A0F10102D0B2FAD1704710B502460C46DC
:100D2000DC494889FFF7B0FF1012FFF7B6FFD94939
:100D30004989491C88B2FFF7A7FFD0B2FFF7ADFF82
:100D4000D4498889FFF7A0FF2012FFF7A6FFD149F9
:100D50008989491C88B2FFF797FFE0B2FFF79DFF32
:100D600010BD2DE9F04104460D4600270026B0468F
:100D7000C8480088A04203DDC6484088A84202DC7B
:100D80000020BDE8F08129462046FFF7C6FF4FF45A
:100D90003850FFF779FFBE48801C008800B100275B
:100DA0000220FFF7B3FFBA48801C07880220FFF734
:100DB000ADFF4FF0D840B0F88080FEB24FF6FF7024
:100DC00000EA0626F812C002B11240EA411040EAD9
:100DD000E820D6E700B54FF42450FFF755FF00BDDB
:100DE00000B54FF42050FFF74FFF00BDF0B50546AA
:100DF00000240027A7488079012818D1082D15D292
:100E0000DFE805F00406080A0C0E101206250DE0B6
:100E100007250BE0042509E0052507E0012505E08D
:100E2000002503E0032501E0022500BF00BF082DD7
:100E30001CD2DFE805F00406090C0F12151800BFDC
:100E400014E044F0800411E044F040040EE044F06B
:100E5000C0040BE044F0200408E044F0600405E026
:100E600044F0A00402E044F0E00400BF00BF4FF4EF
:100E7000585721463846FFF722FF04F0200018B9E2
:100E80008448807901280DD18248008881494988A9
:100E9000884214DA7F48068840887E4908800846E0
:100EA00046800CE07B4800887A494988884206DD04
:100EB0007848068840887749088008464680754902
:100EC0004889FFF7E1FE0020FFF7E7FE71494989F5
:100ED000491C88B2FFF7D8FE0020FFF7DEFE6D49FF
:100EE0004989891C88B2FFF7CFFE6A490988491EE3
:100EF000C1F30F20FFF7D1FE66494989C91C88B2AA
:100F0000FFF7C2FE63490978491EC8B2FFF7C5FE64
:100F100060498889FFF7B8FE0020FFF7BEFE5D49F3
:100F20008989491C88B2FFF7AFFE0020FFF7B5FEA4
:100F300058498989891C88B2FFF7A6FE5549498816
:100F4000491EC1F30F20FFF7A8FE52498989C91C29
:100F500088B2FFF799FE4F498978491EC8B2FFF75A
:100F60009CFEF0BD30B504460D4629462046FFF7ED
:100F7000D4FEFFF7B9FE484800884549891C08801F
:100F800030BD30B504460D4642494889FFF77CFE26
:100F90002012FFF782FE3F494989491C88B2FFF7BA
:100FA00073FEE0B2FFF779FE3A498889FFF76CFEDD
:100FB0002812FFF772FE37498989491C88B2FFF76A
:100FC00063FEE8B2FFF769FE3248008930490880C5
:100FD0004FF0D840A0F8802030BD10B5044694B939
:100FE00000202C4988714FF4305008814FF428506C
:100FF00048814FF42C5088814FF4F07008804FF4F2
:101000004870488011E00120224988714FF4305027
:1010100008814FF4285048814FF42C5088814FF4B8
:10102000487008804FF4F07048800020FFF7DEFE23
:1010300010BD70B504460D461E46A018401E82B273
:10104000A819401E86B213494889FFF71DFE2012D9
:10105000FFF723FE0F494989491C88B2FFF714FEA8
:10106000E0B2FFF71AFE0B494989891C88B2FFF7E5
:101070000BFE1012FFF711FE06494989C91C88B200
:10108000FFF702FED0B2FFF708FE0249888905E0AB
:101090007E00006C1433002014000020FFF7F4FDE4
:1010A0002812FFF7FAFDFE498989491C88B2FFF72B
:1010B000EBFDE8B2FFF7F1FDF9498989891C88B297
:1010C000FFF7E2FD3012FFF7E8FDF5498989C91CF9
:1010D00088B2FFF7D9FDF0B2FFF7DFFD70BD70B544
:1010E00004460026EE48058840884543002108460E
:1010F000FFF713FEFFF7F8FD00BF02E0E9480480A8
:10110000761CAE42FAD370BD00B599B0002018909D
:1011100001217A2002F0A6FC0121084602F0DAFC47
:101120004FF40040169001208DF85C0002208DF8ED
:101130005D0000208DF85E0001208DF85F0016A98B
:10114000D94802F0F1F94CF23370169002208DF874
:101150005C0003208DF85D0016A9D44802F0E4F984
:101160004FF68070169016A9D14802F0DDF94FF4C1
:101170008050169016A9CF4802F0D6F94FF480504F
:10118000169016A9CC4802F0CFF90C220021C748CE
:1011900002F055FA0C220121C44802F050FA0C2248
:1011A0000421C24802F04BFA0C220521BF4802F08C
:1011B00046FA0C220821BD4802F041FA0C2209210E
:1011C000BA4802F03CFA0C220A21B84802F037FA79
:1011D0000C220E21B54802F032FA0C220F21B3483E
:1011E00002F02DFA0C220721B14802F028FA0C2255
:1011F0000821AF4802F023FA0C220921AC4802F082
:101200001EFA0C220A21AA4802F019FA0C220B211C
:10121000A74802F014FA0C221146A54802F00FFA72
:101220000C220D21A24802F00AFA0C220E21A0483D
:1012300002F005FA0C220F219D4802F000FA0C2260
:1012400011469C4802F0FBF90C2211469A4802F024
:10125000F6F908200090002001900F200290002055
:1012600003900490059006900620079000200890B7
:101270000820099010200A9000200B900C900D90EF
:101280000E900F904FF480501090002011904FF46A
:101290008040129000201390CDF850D0CDF854D05B
:1012A00007A801F0F2FD0121062001F079FE3220AD
:1012B00002F0AFFF01210020FFF701FD322002F014
:1012C000A8FF0020FFF705FD754988804FF47040A6
:1012D000FFF7DAFC5520FFF7E0FC4FF20100FFF7C3
:1012E000D3FCAA20FFF7D9FC4FF20200FFF7CCFC99
:1012F0005220FFF7D2FC4FF20300FFF7C5FC082095
:10130000FFF7CBFC4FF20400FFF7BEFC0120FFF714
:10131000C4FC4FF45140FFF7B7FC0020FFF7BDFCC1
:101320004DF20110FFF7B0FC0020FFF7B6FC4DF2C4
:101330000210FFF7A9FC1B20FFF7AFFC4DF20310D2
:10134000FFF7A2FC4420FFF7A8FC4DF20410FFF7C2
:101350009BFC6220FFF7A1FC4DF20510FFF794FC07
:101360000020FFF79AFC4DF20610FFF78DFC7B2062
:10137000FFF793FC4DF20710FFF786FCA120FFF763
:101380008CFC4DF20810FFF77FFCC020FFF785FCB6
:101390004DF20910FFF778FCEE20FFF77EFC4DF2CE
:1013A0000A10FFF771FC5520FFF777FC4DF20B1088
:1013B000FFF76AFC1020FFF770FC4DF20C10FFF7EE
:1013C00063FC2C20FFF769FC4DF20D10FFF75CFC6D
:1013D0004320FFF762FC4DF20E10FFF755FC57203B
:1013E000FFF75BFC4DF20F10FFF74EFC5520FFF7A7
:1013F00054FC4DF21010FFF747FC6820FFF74DFC3E
:101400004DF21110FFF740FC7820FFF746FC4DF23B
:101410001210FFF739FC8720FFF73FFC4DF2131045
:10142000FFF732FC9420FFF738FC4DF21410FFF761
:101430002BFC5520FFF731FC4DF21510FFF724FC73
:10144000A020FFF72AFC4DF21610FFF71DFCAC2080
:10145000FFF723FC4DF21710FFF716FCB620FFF73D
:101460001CFC4DF21810FFF70FFCC120FFF715FC14
:101470004DF21910FFF708FC5520FFF70EFC4DF256
:101480001A10FFF701FCCB20FFF707FC4DF21B10F1
:10149000FFF7FAFBCD20FFF700FC4DF21C100DE02A
:1014A000143300208000006C00040240000C024055
:1014B000001002400014024000180240FFF7E4FB55
:1014C000D620FFF7EAFB4DF21D10FFF7DDFBDF2012
:1014D000FFF7E3FB4DF21E10FFF7D6FB9520FFF759
:1014E000DCFB4DF21F10FFF7CFFBE820FFF7D5FB29
:1014F0004DF22010FFF7C8FBF120FFF7CEFB4DF2B5
:101500002110FFF7C1FBFA20FFF7C7FB4DF22210B5
:10151000FFF7BAFB0220FFF7C0FB4DF22310FFF7E5
:10152000B3FBAA20FFF7B9FB4DF22410FFF7ACFB89
:101530000B20FFF7B2FB4DF22510FFF7A5FB1320A0
:10154000FFF7ABFB4DF22610FFF79EFB1D20FFF7C8
:10155000A4FB4DF22710FFF797FB2620FFF79DFB1A
:101560004DF22810FFF790FBAA20FFF796FB4DF2F3
:101570002910FFF789FB3020FFF78FFB4DF22A106F
:10158000FFF782FB3C20FFF788FB4DF22B10FFF7A3
:101590007BFB4A20FFF781FB4DF22C10FFF774FB19
:1015A0006320FFF77AFB4DF22D10FFF76DFBEA2069
:1015B000FFF773FB4DF22E10FFF766FB7920FFF764
:1015C0006CFB4DF22F10FFF75FFBA620FFF765FBCA
:1015D0004DF23010FFF758FBD020FFF75EFB4DF2C5
:1015E0003110FFF751FB2020FFF757FB4DF232106F
:1015F000FFF74AFB0F20FFF750FB4DF23310FFF7C8
:1016000043FB8E20FFF749FB4DF23410FFF73CFB04
:10161000FF20FFF742FB4FF45240FFF735FB00205D
:10162000FFF73BFB4DF20120FFF72EFB0020FFF7F9
:1016300034FB4DF20220FFF727FB1B20FFF72DFBA9
:101640004DF20320FFF720FB4420FFF726FB4DF26D
:101650000420FFF719FB6220FFF71FFB4DF2052066
:10166000FFF712FB0020FFF718FB4DF20620FFF7F3
:101670000BFB7B20FFF711FB4DF20720FFF704FB6C
:10168000A120FFF70AFB4DF20820FFF7FDFAC0206A
:10169000FFF703FB4DF20920FFF7F6FAEE20FFF704
:1016A000FCFA4DF20A20FFF7EFFA5520FFF7F5FAA2
:1016B0004DF20B20FFF7E8FA1020FFF7EEFA4DF29B
:1016C0000C20FFF7E1FA2C20FFF7E7FA4DF20D208E
:1016D000FFF7DAFA4320FFF7E0FA4DF20E20FFF7AA
:1016E000D3FA5720FFF7D9FA4DF20F20FFF7CCFAC3
:1016F0005520FFF7D2FA4DF21020FFF7C5FA682007
:10170000FFF7CBFA4DF21120FFF7BEFA7820FFF772
:10171000C4FA4DF21220FFF7B7FA8720FFF7BDFA9F
:101720004DF21320FFF7B0FA9420FFF7B6FA4DF20E
:101730001420FFF7A9FA5520FFF7AFFA4DF2152054
:10174000FFF7A2FAA020FFF7A8FA4DF21620FFF744
:101750009BFAAC20FFF7A1FA4DF21720FFF794FA9D
:10176000B620FFF79AFA4DF21820FFF78DFAC12044
:10177000FFF793FA4DF21920FFF786FA5520FFF78D
:101780008CFA4DF21A20FFF77FFACB20FFF785FA8B
:101790004DF21B20FFF778FACD20FFF77EFA4DF2CD
:1017A0001C20FFF771FAD620FFF777FA4DF21D20C3
:1017B000FFF76AFADF20FFF770FA4DF21E20FFF7FD
:1017C00063FA9520FFF769FA4DF21F20FFF75CFAE4
:1017D000E820FFF762FA4DF22020FFF755FAF120DA
:1017E000FFF75BFA4DF22120FFF74EFAFA20FFF7E0
:1017F00054FA4DF22220FFF747FA0220FFF74DFA84
:101800004DF22320FFF740FAAA20FFF746FA4DF2E7
:101810002420FFF739FA0B20FFF73FFA4DF225207D
:10182000FFF732FA1320FFF738FA4DF22620FFF7C0
:101830002BFA1D20FFF731FA4DF22720FFF724FA8B
:101840002620FFF72AFA4DF22820FFF71DFAAA20DA
:10185000FFF723FA4DF22920FFF716FA3020FFF7A1
:101860001CFA4DF22A20FFF70FFA3C20FFF715FA79
:101870004DF22B20FFF708FA4A20FFF70EFA4DF23F
:101880002C20FFF701FA6320FFF707FA4DF22D2015
:10189000FFF7FAF9EA20FFF700FA4DF22E20FFF7E2
:1018A000F3F97920FFF7F9F94DF22F20FFF7ECF962
:1018B000A620FFF7F2F94DF23020FFF7E5F9D0202E
:1018C000FFF7EBF94DF23120FFF7DEF92020FFF7AB
:1018D000E4F94DF23220FFF7D7F90F20FFF7DDF9D9
:1018E0004DF23320FFF7D0F98E20FFF7D6F94DF2F5
:1018F0003420FFF7C9F9FF20FFF7CFF94FF4534029
:10190000FFF7C2F90020FFF7C8F94DF20130FFF7E9
:10191000BBF90020FFF7C1F94DF20230FFF7B4F92F
:101920001B20FFF7BAF94DF20330FFF7ADF9442061
:10193000FFF7B3F94DF20430FFF7A6F96220FFF785
:10194000ACF94DF20530FFF79FF90020FFF7A5F93C
:101950004DF20630FFF798F97B20FFF79EF94DF224
:101960000730FFF791F9A120FFF797F94DF2083002
:10197000FFF78AF9C020FFF790F94DF20930FFF721
:1019800083F9EE20FFF789F94DF20A30FFF77CF971
:101990005520FFF782F94DF20B30FFF775F9102053
:1019A000FFF77BF94DF20C30FFF76EF92C20FFF7B3
:1019B00074F94DF20D30FFF767F94320FFF76DF929
:1019C0004DF20E30FFF760F95720FFF766F94DF240
:1019D0000F30FFF759F95520FFF75FF94DF210303E
:1019E000FFF752F96820FFF758F94DF21130FFF771
:1019F0004BF97820FFF751F94DF21230FFF744F917
:101A00008720FFF74AF94DF21330FFF73DF9942094
:101A1000FFF743F94DF21430FFF736F95520FFF781
:101A20003CF94DF21530FFF72FF9A020FFF735F9FB
:101A30004DF21630FFF728F9AC20FFF72EF94DF2E2
:101A40001730FFF721F9B620FFF727F94DF21830CC
:101A5000FFF71AF9C120FFF720F94DF21930FFF70F
:101A600013F95520FFF719F94DF21A30FFF70CF969
:101A7000CB20FFF712F94DF21B30FFF705F9CD200F
:101A8000FFF70BF94DF21C30FFF7FEF8D620FFF7F9
:101A900004F94DF21D30FFF7F7F8DF20FFF7FDF8EE
:101AA0004DF21E30FFF7F0F89520FFF7F6F84DF2F3
:101AB0001F30FFF7E9F8E820FFF7EFF84DF220308C
:101AC000FFF7E2F8F120FFF7E8F84DF22130FFF7D9
:101AD000DBF8FA20FFF7E1F84DF22230FFF7D4F8F7
:101AE0000220FFF7DAF84DF22330FFF7CDF8AA20F5
:101AF000FFF7D3F84DF22430FFF7C6F80B20FFF7BD
:101B0000CCF84DF22530FFF7BFF81320FFF7C5F8EA
:101B10004DF22630FFF7B8F81D20FFF7BEF84DF262
:101B20002730FFF7B1F82620FFF7B7F84DF228303D
:101B3000FFF7AAF8AA20FFF7B0F84DF22930FFF717
:101B4000A3F83020FFF7A9F84DF22A30FFF79CF8F0
:101B50003C20FFF7A2F84DF22B30FFF795F84A2012
:101B6000FFF79BF84DF22C30FFF78EF86320FFF75C
:101B700094F84DF22D30FFF787F8EA20FFF78DF843
:101B80004DF22E30FFF780F87920FFF786F84DF2FE
:101B90002F30FFF779F8A620FFF77FF84DF23030AD
:101BA000FFF772F8D020FFF778F84DF23130FFF7E9
:101BB0006BF82020FFF771F84DF23230FFF764F830
:101BC0000F20FFF76AF84DF23330FFF75DF88E20F3
:101BD000FFF763F84DF23430FFF756F8FF20FFF7B8
:101BE0005CF84FF45440FFF74FF80020FFF755F82A
:101BF0004DF20140FFF748F80020FFF74EF84DF294
:101C00000240FFF741F81B20FFF747F84DF2034071
:101C1000FFF73AF84420FFF740F84DF20440FFF791
:101C200033F86220FFF739F84DF20540FFF72CF842
:101C30000020FFF732F84DF20640FFF725F87B2031
:101C4000FFF72BF84DF20740FFF71EF8A120FFF732
:101C500024F84DF20840FFF717F8C020FFF71DF8F1
:101C60004DF20940FFF710F8EE20FFF716F84DF29D
:101C70000A40FFF709F85520FFF70FF84DF20B4027
:101C8000FFF702F81020FFF708F84DF20C40FEF7BE
:101C9000FBFF2C20FFF701F84DF20D40FEF7F4FF9B
:101CA0004320FEF7FAFF4DF20E40FEF7EDFF5720FE
:101CB000FEF7F3FF4DF20F40FEF7E6FF5520FEF76B
:101CC000ECFF4DF21040FEF7DFFF6820FEF7E5FF66
:101CD0004DF21140FEF7D8FF7820FEF7DEFF4DF2FF
:101CE0001240FEF7D1FF8720FEF7D7FF4DF21340D9
:101CF000FEF7CAFF9420FEF7D0FF4DF21440FEF726
:101D0000C3FF5520FEF7C9FF4DF21540FEF7BCFF9B
:101D1000A020FEF7C2FF4DF21640FEF7B5FFAC2043
:101D2000FEF7BBFF4DF21740FEF7AEFFB620FEF701
:101D3000B4FF4DF21840FEF7A7FFC120FEF7ADFF3C
:101D40004DF21940FEF7A0FF5520FEF7A6FF4DF219
:101D50001A40FEF799FFCB20FEF79FFF4DF21B4084
:101D6000FEF792FFCD20FEF798FF4DF21C40FEF7E4
:101D70008BFFD620FEF791FF4DF21D40FEF784FF4A
:101D8000DF20FEF78AFF4DF21E40FEF77DFF952013
:101D9000FEF783FF4DF21F40FEF776FFE820FEF7C7
:101DA0007CFF4DF22040FEF76FFFF120FEF775FF3C
:101DB0004DF22140FEF768FFFA20FEF76EFF4DF26C
:101DC0002240FEF761FF0220FEF767FF4DF223403D
:101DD000FEF75AFFAA20FEF760FF4DF22440FEF7FF
:101DE00053FF0B20FEF759FF4DF22540FEF74CFF45
:101DF0001320FEF752FF4DF22640FEF745FF1D204F
:101E0000FEF74BFF4DF22740FEF73EFF2620FEF780
:101E100044FF4DF22840FEF737FFAA20FEF73DFFB2
:101E20004DF22940FEF730FF3020FEF736FF4DF22D
:101E30002A40FEF729FF3C20FEF72FFF4DF22B40F2
:101E4000FEF722FF4A20FEF728FF4DF22C40FEF756
:101E50001BFF6320FEF721FF4DF22D40FEF714FF1C
:101E6000EA20FEF71AFF4DF22E40FEF70DFF792013
:101E7000FEF713FF4DF22F40FEF706FFA620FEF7F8
:101E80000CFF4DF23040FEF7FFFED020FEF705FFBD
:101E90004DF23140FEF7F8FE2020FEF7FEFE4DF237
:101EA0003240FEF7F1FE0F20FEF7F7FE4DF2334011
:101EB000FEF7EAFE8E20FEF7F0FE4DF23440FEF70C
:101EC000E3FEFF20FEF7E9FE4FF45540FEF7DCFE8F
:101ED0000020FEF7E2FE4DF20150FEF7D5FE002095
:101EE000FEF7DBFE4DF20250FEF7CEFE1B20FEF7A2
:101EF000D4FE4DF20350FEF7C7FE4420FEF7CDFEA0
:101F00004DF20450FEF7C0FE6220FEF7C6FE4DF211
:101F10000550FEF7B9FE0020FEF7BFFE4DF2065059
:101F2000FEF7B2FE7B20FEF7B8FE4DF20750FEF73B
:101F3000ABFEA120FEF7B1FE4DF20850FEF7A4FE65
:101F4000C020FEF7AAFE4DF20950FEF79DFEEE20DE
:101F5000FEF7A3FE4DF20A50FEF796FE5520FEF75F
:101F60009CFE4DF20B50FEF78FFE1020FEF795FE03
:101F70004DF20C50FEF788FE2C20FEF78EFE4DF23F
:101F80000D50FEF781FE4320FEF787FE4DF20E5006
:101F9000FEF77AFE5720FEF780FE4DF20F50FEF757
:101FA00073FE5520FEF779FE4DF21050FEF76CFEE1
:101FB0006820FEF772FE4DF21150FEF765FE7820A4
:101FC000FEF76BFE4DF21250FEF75EFE8720FEF725
:101FD00064FE4DF21350FEF757FE9420FEF75DFEAF
:101FE0004DF21450FEF750FE5520FEF756FE4DF20E
:101FF0001550FEF749FEA020FEF74FFE4DF2165099
:10200000FEF742FEAC20FEF748FE4DF21750FEF7F9
:102010003BFEB620FEF741FE4DF21850FEF734FEAF
:10202000C120FEF73AFE4DF21950FEF72DFE552065
:10203000FEF733FE4DF21A50FEF726FECB20FEF7D8
:102040002CFE4DF21B50FEF71FFECD20FEF725FEA5
:102050004DF21C50FEF718FED620FEF71EFE4DF284
:102060001D50FEF711FEDF20FEF717FE4DF21E5049
:10207000FEF70AFE9520FEF710FE4DF21F50FEF708
:1020800003FEE820FEF709FE4DF22050FEF7FCFDAE
:10209000F120FEF702FE4DF22150FEF7F5FDFA2089
:1020A000FEF7FBFD4DF22250FEF7EEFD0220FEF79B
:1020B000F4FD4DF22350FEF7E7FDAA20FEF7EDFDFB
:1020C0004DF22450FEF7E0FD0B20FEF7E6FD4DF249
:1020D0002550FEF7D9FD1320FEF7DFFD4DF2265007
:1020E000FEF7D2FD1D20FEF7D8FD4DF22750FEF77A
:1020F000CBFD2620FEF7D1FD4DF22850FEF7C4FDA2
:10210000AA20FEF7CAFD4DF22950FEF7BDFD302092
:10211000FEF7C3FD4DF22A50FEF7B6FD3C20FEF758
:10212000BCFD4DF22B50FEF7AFFD4A20FEF7B5FD8A
:102130004DF22C50FEF7A8FD6320FEF7AEFD4DF2E8
:102140002D50FEF7A1FDEA20FEF7A7FD4DF22E501F
:10215000FEF79AFD7920FEF7A0FD4DF22F50FEF715
:1021600093FDA620FEF799FD4DF23050FEF78CFD51
:10217000D020FEF792FD4DF23150FEF785FD202074
:10218000FEF78BFD4DF23250FEF77EFD0F20FEF77D
:1021900084FD4DF23350FEF777FD8E20FEF77DFD76
:1021A0004DF23450FEF770FDFF20FEF776FD4FF440
:1021B0005640FEF769FD0020FEF76FFD4DF201600D
:1021C000FEF762FD0020FEF768FD4DF20260FEF7AB
:1021D0005BFD1B20FEF761FD4DF20360FEF754FD31
:1021E0004420FEF75AFD4DF20460FEF74DFD6220DB
:1021F000FEF753FD4DF20560FEF746FD0020FEF7A9
:102200004CFD4DF20660FEF73FFD7B20FEF745FDDD
:102210004DF20760FEF738FDA120FEF73EFD4DF2BE
:102220000860FEF731FDC020FEF737FD4DF2096072
:10223000FEF72AFDEE20FEF730FD4DF20A60FEF7B4
:1022400023FD5520FEF729FD4DF20B60FEF71CFD26
:102250001020FEF722FD4DF20C60FEF715FD2C203C
:10226000FEF71BFD4DF20D60FEF70EFD4320FEF75D
:1022700014FD4DF20E60FEF707FD5720FEF70DFD31
:102280004DF20F60FEF700FD5520FEF706FD4DF202
:102290001060FEF7F9FC6820FEF7FFFC4DF21160BC
:1022A000FEF7F2FC7820FEF7F8FC4DF21260FEF724
:1022B000EBFC8720FEF7F1FC4DF21360FEF7E4FC27
:1022C0009420FEF7EAFC4DF21460FEF7DDFC552089
:1022D000FEF7E3FC4DF21560FEF7D6FCA020FEF7FA
:1022E000DCFC4DF21660FEF7CFFCAC20FEF7D5FC0F
:1022F0004DF21760FEF7C8FCB620FEF7CEFC4DF29B
:102300001860FEF7C1FCC120FEF7C7FC4DF2196052
:10231000FEF7BAFC5520FEF7C0FC4DF21A60FEF73E
:10232000B3FCCB20FEF7B9FC4DF21B60FEF7ACFC12
:10233000CD20FEF7B2FC4DF21C60FEF7A5FCD620C6
:10234000FEF7ABFC4DF21D60FEF79EFCDF20FEF7B2
:10235000A4FC4DF21E60FEF797FC9520FEF79DFC55
:102360004DF21F60FEF790FCE820FEF796FC4DF260
:102370002060FEF789FCF120FEF78FFC4DF2216012
:10238000FEF782FCFA20FEF788FC4DF22260FEF791
:102390007BFC0220FEF781FC4DF22360FEF774FC0B
:1023A000AA20FEF77AFC4DF22460FEF76DFC0B20AC
:1023B000FEF773FC4DF22560FEF766FC1320FEF776
:1023C0006CFC4DF22660FEF75FFC1D20FEF765FCFD
:1023D0004DF22760FEF758FC2620FEF75EFC4DF21A
:1023E0002860FEF751FCAA20FEF757FC4DF2296049
:1023F000FEF74AFC3020FEF750FC4DF22A60FEF753
:1024000043FC3C20FEF749FC4DF22B60FEF73CFC00
:102410004A20FEF742FC4DF22C60FEF735FC6320AB
:10242000FEF73BFC4DF22D60FEF72EFCEA20FEF796
:1024300034FC4DF22E60FEF727FC7920FEF72DFCD0
:102440004DF22F60FEF720FCA620FEF726FC4DF291
:102450003060FEF719FCD020FEF71FFC4DF2316012
:10246000FEF712FC2020FEF718FC4DF23260FEF75A
:102470000BFC0F20FEF711FC4DF23360FEF704FC5D
:102480008E20FEF70AFC4DF23460FEF7FDFBFF20C4
:10249000FEF703FC4FF43040FEF7F6FB0520FEF795
:1024A000FCFB4BF20100FEF7EFFB0520FEF7F5FB0E
:1024B0004BF20200FEF7E8FB0520FEF7EEFB4FF4BF
:1024C0003140FEF7E1FB0520FEF7E7FB4BF2011080
:1024D000FEF7DAFB0520FEF7E0FB4BF20210FEF7F9
:1024E000D3FB0520FEF7D9FB4FF43640FEF7CCFBBB
:1024F0003420FEF7D2FB4BF20160FEF7C5FB34201F
:10250000FEF7CBFB4BF20360FEF7BEFB3420FEF779
:10251000C4FB4FF43740FEF7B7FB2420FEF7BDFBAA
:102520004BF20170FEF7B0FB2420FEF7B6FB4BF236
:102530000270FEF7A9FB2420FEF7AFFB4FF43840F2
:10254000FEF7A2FB2420FEF7A8FB4BF60100FEF7E6
:102550009BFB2420FEF7A1FB4BF60200FEF794FB49
:102560002420FEF79AFB4FF43A40FEF78DFB14202F
:10257000FEF793FB4BF60120FEF786FB1420FEF7D7
:102580008CFB4BF60220FEF77FFB1420FEF785FB49
:102590004FF43940FEF778FB2420FEF77EFB4BF624
:1025A0000110FEF771FB2420FEF777FB4BF60210BB
:1025B000FEF76AFB2420FEF770FB4FF43C40FEF769
:1025C00063FB0020FEF769FB4BF60140FEF75CFB66
:1025D000A020FEF762FB4BF60240FEF755FB002001
:1025E000FEF75BFB4FF43D40FEF74EFB0020FEF78D
:1025F00054FB4BF60150FEF747FBA020FEF74DFBC6
:102600004BF60250FEF740FB0020FEF746FB4BF670
:102610000160FEF739FB3D20FEF73FFB4FF47040B1
:10262000FEF732FB5520FEF738FB4FF20100FEF7B4
:102630002BFBAA20FEF731FB4FF20200FEF724FB32
:102640005220FEF72AFB4FF20300FEF71DFB082085
:10265000FEF723FB4FF20400FEF716FB0020FEF707
:102660001CFB4FF43440FEF70FFB1020FEF715FB68
:102670004FF43C40FEF708FB0520FEF70EFB4BF63F
:102680000140FEF701FB0520FEF707FB4BF6024079
:10269000FEF7FAFA0520FEF700FB4FF43740FEF78D
:1026A000F3FA2220FEF7F9FA4BF20170FEF7ECFA8A
:1026B0002220FEF7F2FA4CF60B00FEF7E5FA2A208C
:1026C000FEF7EBFA4CF60C00FEF7DEFA2A20FEF7D6
:1026D000E4FA4CF60F00FEF7D7FA2A20FEF7DDFAEF
:1026E0004CF61000FEF7D0FA2A20FEF7D6FA4FF487
:1026F0005040FEF7C9FA0120FEF7CFFA4FF43340FD
:10270000FEF7C2FA1020FEF7C8FA4BF60250FEF7A9
:10271000BBFA0720FEF7C1FA4BF60260FEF7B4FAE7
:102720000720FEF7BAFA4BF60270FEF7ADFA072063
:10273000FEF7B3FA4FF47040FEF7A6FA5520FEF705
:10274000ACFA4FF20100FEF79FFAAA20FEF7A5FAB5
:102750004FF20200FEF798FA5220FEF79EFA4FF26F
:102760000300FEF791FA0820FEF797FA4FF20400F3
:10277000FEF78AFA0220FEF790FA4CF20130FEF7DB
:1027800083FAA920FEF789FA4FF60160FEF77CFA7A
:102790009420FEF782FA4FF47640FEF775FA602037
:1027A000FEF77BFA4FF45450FEF76EFA0020FEF766
:1027B00074FA4FF48850FEF767FA782001F029FD8B
:1027C0004FF42450FEF760FA642001F022FD4FF42C
:1027D0006850FEF759FA5520FEF75FFA4FF458504B
:1027E000FEF752FAA820FEF758FA0120FEF7F5FB93
:1027F0000020FE4908604FF6FF70FEF770FC19B02C
:1028000000BD2DE9F04F05460E4617469846DDF807
:1028100024A04FF0000B781B401C1FFA80FB3446AD
:1028200014E021462846FEF778FAFEF75DFA4FF0ED
:10283000000907E04FF0D840A0F880A009F101009E
:102840001FFA80F9D945F5DB601C84B24445E8DD08
:10285000BDE8F08F2DE9F84F07460D4690469946A2
:10286000DDF828B0A8EB0700401C1FFA80FAA9EB9E
:102870000500401C80B20090002414E0281981B2A9
:102880003846FEF74AFAFEF72FFA002607E004FB67
:102890000A603BF81000D6490880701C86B2564585
:1028A000F5DB601C84B200988442E7DBBDE8F88F5A
:1028B0002DE9FF4F84B081468A46002003900290A4
:1028C0000698A0EB09050798A0EB0A06CDF804903E
:1028D000CDF800A0002D01DD012705E00DB900278E
:1028E00002E04FF0FF376D42002E02DD4FF001088D
:1028F00006E016B94FF0000802E04FF0FF387642CC
:10290000B54201DD2C4600E034464FF0000B21E0DB
:10291000009A91B2019A90B2FEF724FB03982844E2
:1029200003900298304402900398A04205DD03987A
:10293000001B03900198384401900298A04205DDE5
:102940000298001B02900098404400900BF1010097
:102950001FFA80FB601C8345DADD08B0BDE8F08F0C
:10296000F0B504460D4616461F462B46324629460C
:102970002046FFF79DFF3B46224629462046FFF7AB
:1029800097FF3B46324639462046FFF791FF3B46CC
:10299000324629463046FFF78BFFF0BD2DE9F04364
:1029A00006460F469046002445460320A0EB480902
:1029B0003CE07A1B91B2321990B2FEF7D3FA3A1B7F
:1029C00091B2721990B2FEF7CDFA3A1991B272191A
:1029D00090B2FEF7C7FA7A1991B2321990B2FEF7A7
:1029E000C1FA7A1991B2321B90B2FEF7BBFA3A19CA
:1029F00091B2721B90B2FEF7B5FA7A1B91B2321BFC
:102A000090B2FEF7AFFA3A1B91B2721B90B2FEF78A
:102A1000A9FA641CB9F1000F03DAA000801D8144FB
:102A200004E0601B80000A3081446D1EAC42C0DDB2
:102A3000BDE8F0832DE9F84F0746884616461C4648
:102A4000C3462046E31704EB5373DB1021464FEADD
:102A5000E47C04EB5C7C4FEAEC0CA4EBCC0CBCF10A
:102A6000000F02D04FF0010C01E04FF0000C634466
:102A7000224604EBD27C4FEA6C0C03FB0CF3DBB276
:102A80000093A6F12000C6B2002556E00C2C07D119
:102A900006EB4600574901EB800010F8059013E063
:102AA000102C05D1544800EB061010F805900BE0EF
:102AB000182C07D106EBC600504901EB800010F836
:102AC000059001E0BDE8F88F4FF0000A2FE009F013
:102AD000800030B14A48028841463846FEF751FA34
:102AE00007E00A9828B94748028841463846FEF769
:102AF00048FA4FEA49604FEA106908F101001FFAED
:102B000080F841480088B84200DCDBE7A8EB0B0006
:102B1000A04208D1D846781C87B23B480088B8420A
:102B200000DCCFE706E00AF1010000F0FF0ABAF18D
:102B3000080FCCDB00BF681CC5B200988542A5DB3E
:102B400000BFBFE710B50246012000E050430B1E56
:102B5000A1F10104E1B2F9D110BD2DE9FF4F81B01F
:102B6000074691461E460E9D4FF0000A002439E0AC
:102B7000301B401EC1B20A20FFF7E4FFB9FBF0F0A2
:102B80000A21B0FBF1F201FB1208BAF1000F16D1D5
:102B9000701EA04213DDB8F1000F0ED10020AB462D
:102BA00005EBDB71491001FB0471009088B22B46E4
:102BB00020220299FFF73EFF12E04FF0010A0020A9
:102BC000AB4605EBDB71491001FB0471009088B244
:102BD00008F13001CAB22B460299FFF72BFF00BF64
:102BE000601CC4B2B442C3DB05B00FE0BC824042FB
:102BF0008000006C9A5502080E5A0208FE5F020817
:102C0000140000201600002014330020BDE8F08FCF
:102C10002DE9FF4F82B0064692461F46DDE90F4878
:102C20000020019000254DE0781B401EC1B20A2013
:102C3000FFF788FFBAFBF0F00A21B0FBF1F201FBCD
:102C40001209019850BB781EA84227DDB9F1000F88
:102C500022D108F0800078B108F00100A34604EB0F
:102C6000DB71491001FB0561009088B223463022D8
:102C70000399FFF7DFFE0EE008F00100A34604EB26
:102C8000DB71491001FB0561009088B223462022C8
:102C90000399FFF7CFFE13E00120019008F0010037
:102CA000A34604EBDB71491001FB0561009088B27B
:102CB00009F13001CAB223460399FFF7BBFE00BFFA
:102CC000681CC5B2BD42AFDB06B0BDE8F08F2DE990
:102CD000F84704460D4690469946DDE9096704F039
:102CE000FF0A08EB04001FFA80F809EB05001FFA41
:102CF00080F916E0444502DB5446A81985B24D45DB
:102D000000DB14E0002000903A7833462946204644
:102D1000FFF790FE304606EBD07104EB61018CB2F8
:102D20007F1C38787E2802DC38782028E2DA00BF61
:102D3000BDE8F8870948804709480047FEE7FEE7F5
:102D4000FEE7FEE7FEE7FEE7FEE7FEE7FEE7FEE75B
:102D500004480549054A064B704700009D040008D9
:102D60008901000800EC012000FA012000F0012098
:102D700000F0012032490143324A1160704770B5BA
:102D8000002100230F22C4781CB32E4C246804F4C5
:102D9000E064C4F5E064C4F30721C1F10404E3B2C4
:102DA0000A4144789C40E1B28478144021430C07E6
:102DB000210E254C05786155047804F01F05012487
:102DC000AC4005786D11AD0005F1E025C5F8004176
:102DD00009E0047804F01F050124AC401B4D06787F
:102DE000761145F8264070BD194A0A400243154B3A
:102DF0001B1F1A60704739B1124A121D1268024334
:102E0000104B1B1D1A6006E00E4A121D1268824309
:102E10000C4B1B1D1A607047042808D14FF0E021AD
:102E2000096941F004014FF0E022116107E04FF021
:102E3000E021096921F004014FF0E022116170479F
:102E40000000FA050CED00E000E400E080E100E0A5
:102E500080FFFF1F30B943F2DB028100A1F1C041C6
:102E60000A6005E043F2D2028100A1F1C0410A608C
:102E70006FF07042411C8900A1F1C0410A608100DD
:102E8000A1F1C041C1F804217047D0E901121143FA
:102E9000C2681143026911434269114382691143B7
:102EA000C2691143026A1143426A1143826A1143A3
:102EB000C26A1143026B114302689200A2F1C04240
:102EC0001160816808290BD101688900A1F1C04116
:102ED000096841F0400201688900A1F1C0410A601F
:102EE000416B0968426B526841EA0211426B926879
:102EF00041EA0221426B928941EA0241426B128A05
:102F000041EA0251426B127D41EA0261426B9269D1
:102F100011430268521C9200A2F1C0421160C16AC2
:102F2000B1F5804F1BD1816B0968826B526841EA11
:102F30000211826B926841EA0221826B128A41EA95
:102F40000251826B127D41EA0261826B92691143E8
:102F500002689200A2F1C042C2F8041107E06FF0CB
:102F6000704201688900A1F1C041C1F80421704795
:102F7000002101600221416000218160C160016186
:102F800041618161C16101624FF480514162490038
:102F900081620021C1620163F84941638163704726
:102FA00051B18200A2F1C042126842F001038200D6
:102FB000A2F1C042136009E08200A2F1C04212688F
:102FC000EF4B1A408300A3F1C0431A6070471028EA
:102FD0000AD118214FF020421166402151664FF06E
:102FE000FC319166D16610E01821E64A116040215B
:102FF0004FF02042C2F884104FF0FC31E14A083211
:1030000011604FF02042C2F88C10704730B500219B
:1030100000220023446844F0080485682C43C568F6
:103020002C4305692C43456944EA4524856944EAF3
:103030004531C4692468C5696D6844EA0524C569D9
:103040002D8944EA0544C5692D7B44EA0562046A7A
:103050002468056A6D6844EA0524056A2D8944EAF6
:103060000544056A2D7B44EA05630468102C05D1EC
:103070004FF020442166A266E36608E0C14C21605F
:103080004FF02044C4F88820BE4C0C34236030BD7F
:1030900010210160002141608160C16001614161D6
:1030A0008161FC21C2691160C2695160C26991608D
:1030B000C269D160026A1160026A5160026A91605D
:1030C000026AD160704799B1102808D14FF02042B0
:1030D000126E42F004024FF020431A661DE0A94A26
:1030E000126842F004024FF02043C3F8802014E03D
:1030F000102809D14FF02042126EA14BDB1E1A405E
:103100004FF020431A6608E09E4A12689C4BDB1E73
:103110001A404FF02043C3F88020704799B110281F
:1031200008D14FF02042126E42F040024FF020438F
:103130001A661DE0934A126842F040024FF02043A5
:10314000C3F8802014E0102809D14FF02042126EFD
:103150008B4B3F3B1A404FF020431A6608E0894AE8
:103160001268874B3F3B1A404FF02043C3F8802042
:10317000704701460020102903D14FF02042506FC4
:1031800002E0804A14321068704718207D492031CF
:10319000086000200906C1F8A4004FF0FC3079490E
:1031A00028310860091D0860091D08607047016822
:1031B00041F01001426841EA4221826841EA42310D
:1031C000704A20321160C1680968C268526841EAD9
:1031D0000221C268128941EA0241C268127B41EAB7
:1031E0000261684A283211600169096802695268FF
:1031F00041EA02210269128941EA02410269127B15
:1032000041EA02615F4A2C321160416909684269F2
:10321000526841EA02214269128941EA0241426947
:10322000127B41EA02614FF02042C2F8B0107047B1
:103230000021016041608160FC21C2681160C268A8
:103240005160C2689160C268D16002691160026910
:103250005160026991600269D160426911604269FE
:103260005160426991604269D160704748B14549F7
:103270002031096841F004014FF02042C2F8A0104B
:1032800009E04049203109683D4AD21E11404FF003
:103290002042C2F8A010704710B5F2B1102807D133
:1032A0004FF020435B6E0B434FF02044636632E0E7
:1032B000B0F5807F08D1334B1B1D1B680B434FF0CB
:1032C0002044C4F8843026E02E4B24331B680B4383
:1032D0004FF02044C4F8A4301DE0102807D14FF06F
:1032E00020435B6E8B434FF02044636613E0B0F5E0
:1032F000807F08D1234B1B1D1B688B434FF020445C
:10330000C4F8843007E01F4B24331B688B434FF015
:103310002044C4F8A43010BD10B50246002000239C
:10332000102A03D14FF02044636E09E0B2F5807F8C
:1033300003D1144C241D236802E0124C243423686A
:1033400003EA01040CB1012000E0002010BD1028A8
:1033500007D14FF02042526E8A434FF020435A6605
:1033600019E0B0F5807F0FD1064A121D12688A431A
:103370004FF02043C3F884200DE000005C6D02088C
:10338000FEFF0F00800000A0234A12688A434FF01E
:103390002043C3F8A420704770B5024600200023E4
:1033A00000240025102A03D14FF02046736E08E058
:1033B000B2F5807F03D1184E203E336801E0164EEF
:1033C000336803EA010403EAD10514B10DB1012009
:1033D00000E0002070BD102808D14FF02042526E4E
:1033E00022EAD1024FF020435A6614E0B0F5807F04
:1033F00009D1094A203A126822EAD1024FF020434B
:10340000C3F8842007E0044A126822EAD1024FF090
:103410002043C3F8A4207047A40000A010B50446C0
:103420009848844208D10121084600F086FB00211B
:10343000012000F082FB76E09348844208D101210C
:10344000022000F07AFB0021022000F076FB6AE007
:103450008E48844208D10121042000F06EFB002137
:10346000042000F06AFB5EE08948844208D1012113
:10347000082000F062FB0021082000F05EFB52E013
:103480008448844208D10121102000F056FB00211D
:10349000102000F052FB46E07F48844208D1012111
:1034A000202000F04AFB0021202000F046FB3AE0FB
:1034B0007A48844208D10121402000F03EFB0021DF
:1034C000402000F03AFB2EE07548844208D10121EB
:1034D000802000F032FB0021802000F02EFB22E053
:1034E0007048844208D10121801500F026FB00219C
:1034F000A01500F022FB16E06B48844208D10121A0
:10350000401500F01AFB0021601500F016FB0AE0E0
:103510006648844207D10121001500F00EFB00210E
:10352000201500F00AFB10BDF0B50A46002100236B
:10353000002400BF3DE0012505FA01F3156805EA06
:1035400003049C4234D105684F000326BE40B543B6
:10355000056015794E00B54006683543056015795C
:10356000012D02D01579022D16D185684F00032652
:10357000BE40B543856055794E00B54086683543F9
:103580008560456801268E40B5434560456896795B
:103590008E40B6B235434560C5684F000326BE4035
:1035A000B543C560D5794E00B540C6683543C560A2
:1035B000491C1029BFD3F0BD4FF6FF7101600021F7
:1035C000017141718171C171704708B54FF480324A
:1035D0000092009A0A430092009AC261C161009A67
:1035E000C261C2690092C269009208BD0246002011
:1035F00013690B400BB1012000E000207047014629
:10360000086980B270470246002053690B400BB135
:10361000012000E0002070470146486980B27047F1
:1036200001837047418370470AB1018300E0418301
:1036300070474161704742694A4042617047F0B546
:10364000002300244D07ED0E02FA05F3CE1000F121
:10365000200555F826504E07F70E0F26BE40B543FD
:10366000CF1000F1200646F82750CE1000F12005BB
:1036700055F8265045EA0304CE1000F1200545F820
:103680002640F0BD00000240000402400008024055
:10369000000C0240001002400014024000180240DA
:1036A000001C02400020024000240240002802408A
:1036B000F948006840F00100F74908600020F64929
:1036C00008310860F4480068F4490840F24908608D
:1036D000F348091D0860F348EF4984310860F04859
:1036E0001038091D0860EC48006820F48020EA4981
:1036F00008600020E8490C310860E7498C31086017
:1037000070470021E44A921C1170114608707047FE
:1037100010B501460022002300204A11012A02D1DF
:10372000DD4C236808E0022A03D1DB4C70342368A7
:1037300002E0D94C7434236801F01F020124944044
:103740001C400CB1012000E0002010BD38B5002065
:1037500000900024002500BF3120FFF7D9FF054667
:103760000098401C00900098B0F5A04F01D0002DAB
:10377000F2D03120FFF7CCFF08B1012400E0002493
:10378000204638BD01460020C34A106820F0F800EA
:1037900040EAC10010607047C349086070470021CB
:1037A000BD4A703211701170012802D004280AD16C
:1037B00004E00121B84A7032117005E00521B64AD3
:1037C0007032117000E000BF00BF7047B749086059
:1037D000704770B5049C41EA82150126C6EB53067A
:1037E00045EA0645054345EA0465AB4E361D35609E
:1037F00070BDAD4908667047820142EA0172A64B6E
:1038000084331A607047A8498866704710B58301F1
:1038100043EA016343EA02739F4C8834236010BD7E
:10382000A14908677047A049C86470470246002054
:10383000994B0833186820F0EC6042EA0103184302
:10384000954B08331860704702460020924B0833AE
:10385000186820F0784042EA010318438E4B083381
:1038600018607047014600208B4A0832106820F02B
:10387000030008431060704787480830006800F074
:103880000C00704701460020834A0832106820F07F
:10389000F000084310607047014600207E4A08325D
:1038A000106820F4E0500843106070470146002083
:1038B000794A0832106820F4604040EAC100106084
:1038C0007047F0B5002100220024022500260223C3
:1038D000714F08373F6807F00C0121B1042905D06A
:1038E000082937D105E0724F076036E0714F076055
:1038F00033E0694F3F1D3F68C7F38056664F3F1D59
:103900003F6807F03F036EB16A4FB7FBF3F7DFF88C
:1039100088C10CF1040CDCF800C0CCF3881C07FB58
:103920000CF40CE0624FB7FBF3F7DFF86CC10CF15D
:10393000040CDCF800C0CCF3881C07FB0CF4564FD9
:103940003F1D3F68C7F301477F1C7D00B4FBF5F7BF
:10395000076002E0564F076000BF00BF4E4F0837B8
:103960003F6807F0F0010909534F7A5C0768D740B8
:103970004760494F08373F6807F4E051890A4E4FC6
:103980007A5C4768D7408760434F08373F6807F441
:103990006041490B484F7A5C4768D740C760F0BD2B
:1039A000002100F44072B2F5407F0AD13A4A083251
:1039B000116821F4F811414A02401143364A083295
:1039C0001160354A70321268C0F30B031A43324B50
:1039D00070331A607047354944390860704733497D
:1039E000403908607047364908607047014600203A
:1039F000294A8C32106820F01F004A1E1043264AC4
:103A00008C321060704701460020234A8C321068C7
:103A100020F4F8504A1E40EA02201F4A8C321060FF
:103A20007047014600201C4A8C32106820F4401078
:103A300008431060704701460020174A8C32106816
:103A400020F4400008431060704701460020124AED
:103A50008C32106820F440300843106070471949D8
:103A60000860704739B10C4A3032126802430A4B81
:103A700030331A6006E0084A303212688243064B3F
:103A800030331A607047F9B1034A34321268024386
:103A9000014B34331A601CE000380240FFFFF6EAA5
:103AA000103000240030002000004742800E4742C2
:103AB0000024F40000127A0018000020FFFCFF0F21
:103AC0005C014742E01147428F4A126882438E4BA5
:103AD0001A60704739B18C4A121D126802438A4B32
:103AE0001B1D1A6006E0884A121D12688243864B2D
:103AF0001B1D1A60704739B1834A0C3212680243A9
:103B0000814B0C331A6006E07F4A0C321268824304
:103B10007D4B0C331A60704739B17B4A1032126802
:103B20000243794B10331A6006E0774A103212686C
:103B30008243754B10331A60704739B1724A243A88
:103B400012680243704B243B1A6006E06E4A243A26
:103B5000126882436C4B243B1A60704739B16A4A41
:103B6000203A12680243684B203B1A6006E0664A1E
:103B7000203A12688243644B203B1A60704739B187
:103B8000614A1C3A126802435F4B1C3B1A6006E014
:103B90005D4A1C3A126882435B4B1C3B1A607047BB
:103BA00039B1594A143A12680243574B143B1A6010
:103BB00006E0554A143A12688243534B143B1A608C
:103BC000704739B1504A103A126802434E4B103BCD
:103BD0001A6006E04C4A103A126882434A4B103B86
:103BE0001A60704739B1484A1C3212680243464B8A
:103BF0001C331A6006E0444A1C3212688243424B6E
:103C00001C331A60704739B13F4A203212680243B0
:103C10003D4B20331A6006E03B4A20321268824353
:103C2000394B20331A60704739B1374A2432126851
:103C30000243354B24331A6006E0334A24321268BB
:103C40008243314B24331A60704739B12E4A2C32EB
:103C5000126802432C4B2C331A6006E02A4A2C329D
:103C600012688243284B2C331A60704739B1264AB8
:103C7000303212680243244B30331A6006E0224A85
:103C8000303212688243204B30331A60704701286B
:103C900008D11D493C31096841F008011A4A3C32FB
:103CA000116007E018493C31096821F00801164A03
:103CB0003C321160704739B1134A273A12780243F7
:103CC000114B273B1A7006E00F4A273A12788243BD
:103CD0000D4B273B1A7070470B484030006840F08E
:103CE0008070094940310860704701460020064A4B
:103CF000283A12680A400AB1012000E0002070470B
:103D000001492639087070473438024010B504461E
:103D1000FA48844208D101211020FFF752FF002108
:103D20001020FFF74EFF57E0F548844209D10121EA
:103D30004804FFF735FF00214FF40030FFF730FF54
:103D40004AE0F048844209D101218804FFF728FFA6
:103D500000214FF48020FFF723FF3DE0EA48844232
:103D600009D10121C804FFF71BFF00214FF40020F7
:103D7000FFF716FF30E0E548844209D1012108052C
:103D8000FFF70EFF00214FF48010FFF709FF23E03B
:103D9000DF48844208D101212020FFF712FF0021D3
:103DA0002020FFF70EFF17E0DA48844209D10121F5
:103DB0008807FFF7F5FE00214FF08040FFF7F0FE87
:103DC0000AE0D548844207D101214005FFF7E8FE0B
:103DD00000216005FFF7E4FE10BD2DE9FF47054611
:103DE0000E460024A14600BFA046B08900B100BF26
:103DF0002C8A24F44054F08804432C82AC8941F28C
:103E00000C608443B08831890843718908430443B6
:103E1000AC81AC8A24F44074B0890443AC82684617
:103E2000FFF74FFDB548854202D0B948854202D11F
:103E3000DDF80C9001E0DDF80890A88900F400405E
:103E400040B109EBC90000EB091031684900B0FB33
:103E5000F1F707E009EBC90000EB091031688900B0
:103E6000B0FBF1F76420B7FBF0F0040120096421F6
:103E700001FB1078A88900F4004040B1322000EB2B
:103E8000C800B0FBF1F000F00700044308E0322066
:103E900000EB08106421B0FBF1F000F00F000443C8
:103EA0002C81BDE8FF874FF416510160002181800D
:103EB000C18001810C21418100218181704710B5B1
:103EC00002460020108A20F470600B884C8823433F
:103ED0008C882343CC8823431843108210BD0021D3
:103EE000018041808180C180704721B1828942F484
:103EF0000052828104E082894DF6FF731A4082816C
:103F00007047028B02F47F420283028B0A430283D2
:103F1000704721B1828942F40042828103E08289A4
:103F2000C2F30E028281704721B1828A42F400629C
:103F3000828204E0828A4FF2FF731A4082827047C5
:103F4000C1F308028280704701468888C0F30800E8
:103F50007047028A4FF6F0731A400282028A0A43BF
:103F60000282704721B1828942F00202828104E01C
:103F700082894FF6FD731A408281704782894FF221
:103F8000FF731A40828182890A4382817047028AC4
:103F90004FF6DF731A400282028A0A430282704798
:103FA00021B1028A42F48042028204E0028A4BF686
:103FB000FF731A4002827047818941F001018181BB
:103FC000704721B1828A42F00802828204E0828A2C
:103FD0004FF6F7731A4082827047028BD2B2028387
:103FE000028B42EA01220283704721B1828A42F0A9
:103FF0002002828204E0828A4FF6DF731A408282B6
:10400000704721B1828A42F01002828204E0828AE3
:104010004FF6EF731A4082827047828A4FF6FB7325
:104020001A408282828A0A438282704721B1828A40
:1040300042F00202828204E0828A4FF6FD731A4047
:10404000828270471AB1838A0B43838202E0838A9B
:104050008B4383827047F0B5034600240026002579
:10406000002040F66A17B94200D100BF1846C1F3DC
:10407000421401F01F06012707FA06F5012C01D1B1
:104080000C3004E0022C01D1103000E014301AB1E1
:1040900007682F43076002E00768AF430760F0BD81
:1040A00002460020B1F5007F00D100BF13880B400D
:1040B0000BB1012000E00020704701F40072B2F55E
:1040C000007F00D100BFCA430280704770B502462E
:1040D000002400230025002040F66A16B14200D1DA
:1040E00000BFC1F3421501F01F03012606FA03F3D6
:1040F000012D13D19689334017E0000000100140D4
:104100000044004000480040004C00400050004087
:104110000014014000780040007C0040022D02D1D4
:10412000168A334001E0968A33400C12012606FAC3
:1041300004F41688344013B10CB1012000E00020D3
:1041400070BD10B50022002340F66A14A14200D1D0
:1041500000BF0A1201249440A3B2DC43048010BDC6
:1041600010B504F000FE04F044FF04F017FE10BD8B
:1041700070B504466FF00400FEF74EFEE11704EB45
:104180005171C1F3C701344A1170E11704EB517149
:10419000CD104FF47A7045430120304908804FF02C
:1041A000E020006940F002004FF0E021086108467D
:1041B0004561006940F00100086170BD2DE9F047DC
:1041C000074600264FF0E020D0F8149022480078EF
:1041D00007FB00F800BF04F019FE4FF0E0208569EE
:1041E00011E04FF0E0208469AC420CD0AC4202D226
:1041F000281B064403E0A9EB040028440644254696
:10420000464500D300E0ECE700BF04F044FEBDE803
:10421000F08770B5044612480078012814D111487F
:10422000007888B90D480088844206DB0B48008876
:1042300094FBF0F5284606F027FF0848008894FB19
:10424000F0F100FB114084B24FF47A7104FB01F0ED
:10425000FFF7B4FF70BD0000280000202A000020F6
:104260003207002026070020014600BF704700BF2C
:10427000504A128802F04002002AF9D0C2B24D4BD7
:104280009A80704710B588B0044601210846FFF7B0
:10429000E9FB01211020FFF73FFC072209214648D6
:1042A000FFF7CDF907220A214348FFF7C8F94FF479
:1042B000C060069002208DF81C008DF81D000020C3
:1042C0008DF81E0001208DF81F0006A93A48FFF75F
:1042D0002BF902940020ADF80C00ADF80E00ADF8FB
:1042E0001000ADF814000C20ADF8120002A93148FE
:1042F000FFF773FD01212F48FFF7F7FD40212D48FF
:10430000FFF7DBFE012240F225512A48FFF7A3FE0A
:1043100025208DF8040003208DF805008DF8060097
:1043200001208DF8070001A8FEF729FD08B010BD97
:1043300010B504F018FD40F225511E48FFF7C6FEE7
:1043400010B31C48FFF700FEC4B21C48008800F4FC
:104350000040C8B91948008800F4804060B10A2CB8
:1043600003D000201549088020E01448008840F45C
:1043700000401249088019E00D2C06D10F48008832
:1043800040F480400D49088010E00C480088C0F3DC
:104390000D000B490C5409480088401C074908804F
:1043A00008460088C72801DD0020088004F0F6FCDC
:1043B00010BD00000010014000000240300000204D
:1043C0002233002070B503460C4603E014F8015B6D
:1043D00003F8015B151EA2F10102F7D170BD30B5E3
:1043E000034601E003F8011B141EA2F10102F9D1FA
:1043F00030BD10B504467C4951F824104A007B4971
:1044000051F824000021FFF7EAFF794951F82420F0
:1044100076490C3951F824000021FFF7E0FF012113
:1044200072480C30015510BD10B501460023002222
:1044300007E06E4850F8210030F8120000B15B1C14
:10444000521C694850F821009042F2D86420584329
:10445000654C54F82140B0FBF4F0C0B210BD2DE91A
:10446000F04704460F460025A94660480C30005D21
:1044700020B95E4814380168204688471FB94FF0BC
:10448000FF30BDE8F0875B4850F82400B7FBF0F040
:1044900086B2584850F82400B7FBF0F100FB1170C9
:1044A00008B1701C86B2504850F82400451E22E026
:1044B0004E4850F8240030F8150020B909F10100E9
:1044C0001FFA80F901E04FF00009B14512D14FF019
:1044D000000808E0454850F8240005EB080120F8E2
:1044E000116008F10108B045F4D3424850F82400A7
:1044F0006843C6E76D1E002DDADA4FF0FF30C0E7E3
:104500002DE9F04104460E4638480C30005D38B9BC
:10451000364814380168204688470120BDE8F081FC
:10452000334850F82400B04217D9324850F82400DC
:10453000B6FBF0F12D4850F8240030F8112000258A
:1045400007E00023294850F824004F1920F81730BD
:104550006D1C9542F5DB0020E0E70220DEE770B538
:1045600005460C4604B970BD20480C3850F82500AB
:10457000261A31462846FFF7C3FF00BFF3E770B5A0
:1045800004460E4631462046FFF769FF0546681C83
:1045900008B9002070BD15480C3850F82400284494
:1045A000F8E72DE9F04104460F461646314620460D
:1045B000FFF755FF0546681C10B90020BDE8F081E3
:1045C0000A490C3951F82410481932463946FFF788
:1045D000F9FE39462046FFF7C2FF04480C3850F870
:1045E00024002844EAE70000786D02084800002013
:1045F000906D0208846D020810B54FF4C831002098
:10460000FFF7BDFF04464FF4C831204609F086FF8E
:1046100040200AF0B9F802480CF00AFD10BD000075
:104620009499050810B506F0E0FD10BD70B504467C
:104630004FF47A7060434FF47A71B0FBF1F528467D
:1046400006F022FD70BD10B50120FFF7EFFF10BD91
:1046500010B5012005F085FF31490860002005F004
:10466000A4FA3049086010BD08B56A4600212C48FC
:10467000006805F0FCFF08BD10B52948006806F089
:10468000A5F810BD2848006890F83200704708B5BA
:104690006A4600212348006805F00DFB08BD10B5EF
:1046A00001212048006805F0C1FB10BD10B50020B5
:1046B00005F057FF1D49086010BD10B51C48007873
:1046C00020B901201A490870FFF7F0FF10BD10B59E
:1046D00018480468FFF7F1FF0020164908602046DB
:1046E00010BD38B5FFF7E9FF1248006828B96A46DF
:1046F00000210E48006805F0BAFF0E48046800204B
:104700000C490860204638BD10B5044609480460CD
:104710000648006806F05AF810BD704770477047A9
:10472000580000205C0000203807002060000020B6
:10473000680000206400002030B5FE4C6489FE4D06
:104740002D682C80C1F30F24FC4D2D682C80F94C72
:104750006489641CF84D2D682C80CCB2F74D2D680F
:104760002C80F44CA489F44D2D682C80C2F30F24C6
:10477000F24D2D682C80EF4CA489641CEE4D2D6801
:104780002C80D4B2ED4D2D682C80EA4C2489EA4D62
:104790002D682C80E94D2D682B8030BD2DE9F0412E
:1047A00007460C461546A9B2A0B2FCF7DAFA06464F
:1047B0003046BDE8F0812DE9F04104460D4616462D
:1047C000324629462046FFF7E9FF074621698868F7
:1047D0008047804687EA0803324629462046FFF78D
:1047E000ABFFBDE8F081F0B50646059CD14D6D8963
:1047F000D14F3F683D80C1F30F25D04F3F683D80CA
:10480000CC4D6D896D1CCC4F3F683D80CDB2CB4FF8
:104810003F683D80C74D6D89AD1CC74F3F683D80E7
:10482000C3F30F25C54F3F683D80C24D6D89ED1C18
:10483000C14F3F683D80DDB2C04F3F683D80BD4DF8
:10484000AD89BD4F3F683D80C2F30F25BB4F3F6828
:104850003D80B84DAD896D1CB74F3F683D80D5B2E6
:10486000B64F3F683D80B34DAD89AD1CB24F3F6838
:104870003D80C4F30F25B14F3F683D80AD4DAD89FC
:10488000ED1CAD4F3F683D80E5B2AC4F3F683D80C9
:10489000A84D6D89A84F3F683D80C1F30F25A74FF4
:1048A0003F683D80A34D6D896D1CA34F3F683D80DF
:1048B000CDB2A24F3F683D809E4DAD899E4F3F686F
:1048C0003D80C2F30F259D4F3F683D80994DAD89D6
:1048D0006D1C994F3F683D80D5B2984F3F683D8031
:1048E000A51A6D1C5F1A7F1C05FB07F0914D2D89E1
:1048F000914F3F683D8006E0914D2D68ED6B2D880E
:104900008E4F3F683D80051EA0F10100F4D1894D16
:104910006D89894F3F683D800025884F3F683D8005
:10492000844D6D896D1C844F3F683D800025834F09
:104930003F683D807F4D6D89AD1C7F4F3F683D8056
:104940007C4D2D882D127D4F3F683D80794D6D89BE
:10495000ED1C794F3F683D80764D2D78774F3F684D
:104960003D80744DAD89744F3F683D800025734F85
:104970003F683D806F4DAD896D1C6F4F3F683D8036
:1049800000256E4F3F683D806A4DAD89AD1C6A4F72
:104990003F683D80674D6D882D12684F3F683D80B0
:1049A000644DAD89ED1C644F3F683D80614DAD782D
:1049B000624F3F683D80F0BDF8B505460E4614468F
:1049C0001F463B462246314628460094FFF70BFF20
:1049D000F8BDF8B506460C4617461D4623463A462E
:1049E000214630460095FFF7FEFEF8BD2DE9FF4F4A
:1049F00083B081460E461C46DDE9117A109DDAF837
:104A000000000290DAF8040001902E444C4800683F
:104A1000007C00F0030030B1012836D002281CD001
:104A2000032855D130E000BF207880222A41104071
:104A300008B1019800E0029803463146761C4846CA
:104A4000059AFFF779FE681C0546082801D1002564
:104A5000641C781E071EE7D13AE000BF2078802151
:104A60002941084028B131464846019B059AFFF785
:104A700063FE761C681C0546082801D10025641CCD
:104A8000781E071EEAD123E000BFD9F8101088680D
:104A90008047804600BF207880212941084060B1CE
:104AA00031464846059AFFF779FE83468BEA0803AC
:104AB00031464846059AFFF73FFE761C681C0546BE
:104AC000082801D10025641C781E071EE3D100BF11
:104AD00000BF07B0BDE8F08F2DE9FF4F81B00F4652
:104AE0009846DDE90F9A98F800B00E9D0E9D2F4470
:104AF00013480068007C00F0030010B1022855D173
:104B000055E0BAF1000F2FD000BFC5F103004400FB
:104B1000C4F10601C020084100EA0B0020FA04F6A7
:104B20005AF82600009039467F1CDDE90030039AD0
:104B300008E00000143300206C000020700000200A
:104B4000AC070020FFF7F8FD681C0546042805D1D6
:104B5000002508F10100804690F800B0A9F101009D
:104B6000B0F10009D1D121E000BFC5F1030044003C
:104B7000C4F10601C020084100EA0B0020FA04F647
:104B800039467F1C3346039A0198FFF7D5FD681C10
:104B90000546042805D1002508F10100804690F85B
:104BA00000B0A9F10100B0F10009DED14DE0BAF189
:104BB000000F26D000BFC5F103004400C4F1060178
:104BC000C020084100EA0B0020FA04F646B15AF86A
:104BD000260000903946DDE90030039AFFF7ACFD6E
:104BE0007F1C681C0546042805D1002508F101003A
:104BF000804690F800B0A9F10100B0F10009DAD1C7
:104C000022E000BFC5F103004400C4F10601C0204A
:104C1000084100EA0B0020FA04F62EB1334639466B
:104C2000039A0198FFF788FD7F1C681C054604283D
:104C300005D1002508F10100804690F800B0A9F1E7
:104C40000100B0F10009DDD100BF00BF05B0BDE833
:104C5000F08F2DE9FF4F81B00F469846DDE90F9A9E
:104C600098F800B00E9D0E9D2F44F8480068007C17
:104C700000F0030010B102284BD14BE0BAF1000F55
:104C800025D000BFC5F101008400C4F10401F0206B
:104C9000084100EA0B0020FA04F65AF826000090BA
:104CA00039467F1CDDE90030039AFFF745FD681C9B
:104CB0000546022805D1002508F10100804690F83C
:104CC00000B0A9F10100B0F10009DBD121E000BF83
:104CD000C5F101008400C4F10401F020084100EA9C
:104CE0000B0020FA04F639467F1C3346039A0198DC
:104CF000FFF722FD681C0546022805D1002508F1B2
:104D00000100804690F800B0A9F10100B0F100095F
:104D1000DED14DE0BAF1000F26D000BFC5F1010091
:104D20008400C4F10401F020084100EA0B0020FADD
:104D300004F646B15AF8260000903946DDE9003005
:104D4000039AFFF7F9FC7F1C681C0546022805D171
:104D5000002508F10100804690F800B0A9F101009B
:104D6000B0F10009DAD122E000BFC5F101008400F2
:104D7000C4F10401F020084100EA0B0020FA04F617
:104D80002EB133463946039A0198FFF7D5FC7F1CB4
:104D9000681C0546022805D1002508F1010080465F
:104DA00090F800B0A9F10100B0F10009DDD100BF19
:104DB00000BF05B0BDE8F08F2DE9F04781460F46F2
:104DC00092461C46DDE90858A0480068007C00F0C7
:104DD000030010B1022841D11EE0B8F1000F0ED03F
:104DE0000AE0267858F82630524639464846FFF7FA
:104DF000A3FC6D1E7F1C641C002DF2DC0BE008E0A0
:104E00002378524639464846FFF796FC6D1E7F1CB4
:104E1000641C002DF4DC21E0B8F1000F0FD00BE092
:104E2000267836B158F82630524639464846FFF7BC
:104E300083FC6D1E7F1C641C002DF1DC0DE00AE07C
:104E400026782EB13346524639464846FFF774FC61
:104E50006D1E7F1C641C002DF2DC00BF00BFBDE88E
:104E6000F0872DE9F04781460C4617461D46DDF8D0
:104E70002080B9B2A0B2FBF750FF75480089754990
:104E80000968088007E02E88734800680680A8F14A
:104E90000108641CAD1CB8F1000FF4DCBDE8F0871C
:104EA0002DE9F04107460D4690461C46069E08E057
:104EB0004246294638462368FFF73EFC761E6D1CA5
:104EC000241D002EF4DCBDE8F0812DE9FF4F83B0F6
:104ED00015461E46DDE914BADDE91297DDF840807B
:104EE000119808283FD006DC012809D0022818D0E4
:104EF000042863D126E0102844D020285ED14FE05A
:104F000000240BE062193B46CDE900B6CDF808A0BD
:104F1000DDE90301FFF76AFD4F44641C4445F1DB02
:104F20004CE000240BE062193B46CDE900B6CDF819
:104F300008A0DDE90301FFF7CFFD4F44641C4445A1
:104F4000F1DB3BE000240BE062193B46CDE900B603
:104F5000CDF808A0DDE90301FFF77BFE4F44641C98
:104F60004445F1DB2AE0002409E062193B46CDE923
:104F7000006ADDE90301FFF71FFF4F44641C44454D
:104F8000F3DB1BE0002408E062193B460096DDE9F4
:104F90000301FFF766FF4F44641C4445F4DB0DE05A
:104FA000002408E062193B460096DDE90301FFF7A3
:104FB00077FF4F44641C4445F4DB00BF00BF07B0DB
:104FC000BDE8F08F70B50446A06858B91C2009F000
:104FD000F3FAA060A56821698868804706460EF04C
:104FE0006DFEA861A06808B9012070BD0020FCE733
:104FF00003460A4699680F2A1FD2DFE802F01E080E
:105000000A0C0E1E1E1E10121416181A1C004868D8
:1050100070478868FCE7C868FAE70869F8E78869B4
:10502000F6E70020F4E70120F2E70120F0E7002096
:10503000EEE70020ECE70020EAE74FF0FF30E7E77B
:10504000024601290CD1054870470000AC0700203A
:10505000143300206C00002070000020F4BC050810
:105060000020F1E7826800230B804B8093895B1E50
:105070001BB28B80138A5B1E1BB2CB8070477CB542
:1050800004460D46164600200090019000950196BA
:105090006A460321A06900F0DCF87CBDF8B504463F
:1050A0000D46002000902046FFF78CFFA06838B125
:1050B000A668356000956A460221A06900F0C9F82B
:1050C000F8BD2DE9F04105460E4617462846FFF784
:1050D00079FFA86818B1AC68E66027616661BDE831
:1050E000F0812DE9FC4105460E4617460020009050
:1050F00001902846FFF766FFA86878B1AC68606940
:1051000008B9304600E0606960616660A76000969B
:1051100001976A460721A86900F09BF8BDE8FC8169
:1051200070B504462046FFF74DFF054600220121D9
:10513000A06900F08EF80543284670BD10B50446FE
:1051400000220521A06900F084F810BD10B50446C6
:1051500000220621A06900F07CF810BD7CB5044651
:105160000D4616460020009001908DF804500096E0
:105170006A460421A06900F06CF87CBD0246A1F1EA
:105180000900082813D2DFE800F00406080A120C10
:105190000E10084870470848FCE70848FAE7084836
:1051A000F8E70848F6E70848F4E70848F2E700207F
:1051B000F0E700009D500008C3500008E3500008CD
:1051C000215100083D5100084D5100085D51000873
:1051D00008B500231A462549254809F005FF25484A
:1051E0004288018800200EF03DFC22484288018858
:1051F00000200EF04DFC1F48807998B940F2B310A2
:1052000000234FF4F0721946009018460CF0D8F8BD
:1052100040F21F300023421C1946009001200CF080
:10522000CFF815E006200CF0D1F940F2B3100023BE
:105230004FF4F0721946009018460CF0C1F840F295
:105240001F300023421C1946009001200CF0B8F8D2
:1052500008BD10B503461446012901D1002010BD38
:105260004FF0FF3200BF00BF1046F8E7B45F0508FB
:105270009C6D0208143300207047704710B5072159
:105280001F48FBF7C5FC1E48807800F00F0001287E
:105290002BD11B4880791A49497901F00F0140EA66
:1052A000012018490880164800791549C97801F08D
:1052B0000F0140EA0120144908801248008808B90B
:1052C0000020088010480088B0F5F07F03DB40F232
:1052D000DF100D4908800B480088B0F5487F09DBD6
:1052E00040F21F300749088004E00020054908808B
:1052F000054908800448008810BD024800887047AE
:10530000ECDC012078000020760000200020F74926
:105310000860F7490860F7490860704710B504460F
:105320004FF408000BF050FE09F088FD24B105226F
:105330001146F1480AF02AF910BD7CB504460EF07A
:10534000B7F805460EF0C0F806464FF40800EB49E2
:1053500033462A46CDE90010002108460AF06EFACD
:1053600024B105221146E4480AF010F97CBD2DE96C
:10537000F04F85B080460EF09BF803900EF0A4F835
:1053800006460EF089F88346B34509DD4FF4080060
:105390000BF01AFE5B4600210846039A09F05CFDFB
:1053A000D7480068002867D1C925D648D6490122C8
:1053B0002B46CDE9002102902A46002108460AF03A
:1053C00055FF824601203346009000210846039A8B
:1053D0000AF00CFFCA490860CA48CB49012264237D
:1053E000CDE900210290002108460AF03FFF8146E6
:1053F00050460BF06BF904904FF408000BF0E4FDFD
:1054000009F01CFD48460BF061F94FF40800BB4958
:1054100064230022CDE90010114610460AF00EFA6E
:1054200048460BF0B4F8074650460BF04FF90024FD
:1054300009E038680BF0DFFD2246642108460AF0D7
:1054400041F9641C3F1D642CF3DBAD4800680BF090
:105450003DF90021039833460A46CDE900600291E8
:1054600050460BF033F850460AF01CFF48460AF04D
:1054700019FF04980BF02AF9A14800680BF08CF989
:10548000B8F1000F04D0052211469B480AF07EF8BF
:1054900005B0BDE8F08F10B54FF404719B4800686B
:1054A00011F012FC0446204611F064FF10BD10B547
:1054B0004FF404719548006811F006FC044620463C
:1054C00012F0D3FB10BD70B5044620680E280DD035
:1054D0000F2802D01E2815D105E08D4800788D498F
:1054E0000968884712E00020E0600FE0E56868681E
:1054F00038B128686E2803D101208749086000BFB1
:1055000000BF03E0204611F07DFA00BF00BF70BD70
:1055100010B502E00A2009F047FE7448006801282F
:10552000F8D07D480068012804D100207A4908603D
:10553000012010BD0020FCE7FEB506460C4625689C
:105540000AF000FB68460BF0DBFA9DF8080018B182
:10555000012020600020FEBD9DF8080038B9012D13
:1055600005D10020206001206B490860F3E7FFF7B8
:10557000CFFF6949086008460068ECE72DE9FC4761
:10558000044620680E2806D00F283CD01D2809D0DC
:1055900026287BD14BE011F081FB8246214612F098
:1055A00079F982E04FF40471606811F08DFB814657
:1055B0000E2148460FF052FC584948460FF01CFC9B
:1055C0004FF40061606811F07FFB8146002148467E
:1055D00006F0D6FC40F60101606811F075FB8146CB
:1055E0000021484606F0CCFC4FF4B071606811F021
:1055F0006BFB81464AA1484610F085FA4A49484665
:1056000010F06AFA51E0606811F0B0FC064660687C
:1056100011F0C3FC074645486FF07F417B1E721EA8
:10562000CDE90010002108460AF008F93DE0A06825
:1056300011F099FB0546D4F80C80B8F1020F2ED179
:10564000B5F5006F03D0A5F6010030BB1FE0274879
:10565000006868B10020254908600AF0BAFB2549B6
:105660000968401A22490860002011F0C1FF0CE0CF
:1056700001201E4908600AF0ACFB1D490968401A68
:105680001C490860606811F0B3FF06E009E00120E2
:1056900021490860FFF73AFE00BF00BF00BF00BF0E
:1056A00003E0204611F0AEF900BF00BFBDE8FC8763
:1056B0002DE9FC410446206801280BD00E2802D0B9
:1056C0000F2849D134E011F0E9FA0746214612F0DB
:1056D000E1F845E00DF0ECFE054641206B10691045
:1056E00000900022606812F0B1FA39E098000020C2
:1056F00090000020940000206CFC03085555FF002A
:10570000A8000020B863050868BD05087C000020DB
:10571000A4000020840000209C00002094BF020808
:10572000496E74726F0000001C700508C0CEDC006A
:10573000606811F01BFC0546606811F02EFC0646FF
:10574000F8486FF07F41731E6A1ECDE900100021FA
:1057500008460AF073F803E0204611F053F900BF41
:1057600000BFBDE8FC8110B50446606840B90E2159
:10577000206807F06CF90021206807F081F903E048
:10578000204606F08BFE10BD00BF0020FBE770B581
:105790000246002300E05B1CD55C002DFBD10124F8
:1057A000012003E004EB84056C00401CB1FBF4F520
:1057B0000A2DF7D20025D61835540DE00A25B1FB85
:1057C000F5F605FB16153035D618064406F8015CCB
:1057D0000A25B1FBF5F1401E0028EFD170BD10B5D0
:1057E00002460020002300E0401C145C002CFBD18A
:1057F00003E0CC5C1454401C5B1CCC5C002CF8D146
:10580000145410BD10B586B0142101A806F05CF840
:105810004FF4B071C448006811F056FA0446C3A1B1
:1058200001A8FFF7DCFFC3480168491C01A8FFF786
:10583000AEFFC1A101A8FFF7D2FFC048016801A8CF
:10584000FFF7A5FFBEA101A8FFF7C9FFBD4840684B
:10585000411E01A8FFF79BFF01A9204610F053F954
:1058600006B010BD7CB511F019FA064611F0F0FF34
:1058700009F0E4FA09F09AFA0DF01AFE04460DF068
:1058800023FE054611F00AFA0646A5F13D01A4F1F2
:1058900050003346AC4ACDE900010521AB4809F080
:1058A00025FBA149086011F0F9F906460021012005
:1058B000C0EB64003346A64ACDE900010221A548A9
:1058C00009F014FBA44908600846006811F052FD75
:1058D0009548006811F012FE11F0E0F9064611F04B
:1058E00031F90AF02FF911F0D9F9064611F03CF917
:1058F00001F0C4FE00208F49086014E0FFF706FDA8
:10590000FFF780FF8F4909688A4A126851F8220020
:1059100080470020894908609049086085480068F0
:10592000401C84490860874800688249096850F82B
:1059300021000028E2D17F4908607B48006811F00F
:1059400099F88548006811F095F809F047F97CBD91
:1059500008B1012100E00021814A11707047002147
:105960000170704710B57F48006810B17E4800682C
:1059700010BD0AF02EFA7D490968401AF8E72DE9B2
:10598000F04104464FF404716748006811F09CF937
:105990008046642C01DDFFF78AFD002140460FF0B0
:1059A00072FA2246002140460FF03AFA0AF011FA44
:1059B000064600BFFFF7D6FF871B642C03DD394680
:1059C00040460FF060FA052009F0EEFBFFF7A0FD5E
:1059D0000546A74201D2002DECD0642C01DDFFF773
:1059E0005AFD0AF0AFF8BDE8F08110B50446204634
:1059F0005F490968884710BD014652480089084040
:105A000008B1012070470020FCE710B54648006847
:105A100011F0B0FC11F042F9044612F03FF910BD4C
:105A200010B54D48006811F0A5FC11F037F9044697
:105A300012F034F910BD10B540480068401C3F49D1
:105A40000860FFF763FCFFF7DDFE10BD10B53648B8
:105A5000006812F00AF90AF075F810BD70B5044636
:105A60003D48006811F0A5FD50B14FF4B0713A48BF
:105A7000006811F029F905462146284610F043F840
:105A800070BD10B53448006812F0EFF810BD10B5C5
:105A900004462046FFF773FFFFF7CDFF10BD2DE949
:105AA000F84F07460C460DF003FD82460DF00CFD45
:105AB00083464FEA6A0000904FEA6B09FFF7B0FF98
:105AC000FFF7C4FF0AF03EF80120FFF78EFF6FF0EA
:105AD0007F400BF090FA02200BF046FB25480BF0BC
