:020000040800F2
:1000000078080020450100084D0F0008F10C000899
:100010004B0F0008B1010008E10F000800000000CC
:10002000000000000000000000000000510F000868
:10003000B3010008000000004F0F0008530F000834
:100040005F0100085F0100085F0100085F01000810
:100050005F0100085F0100085F0100085F01000800
:100060005F0100085F0100085F0100085F010008F0
:100070005F0100085F0100085F0100085F010008E0
:100080005F0100085F0100085F0100085F010008D0
:100090005F0100085F0100085F0100085F010008C0
:1000A0005F0100085F0100085F0100085F010008B0
:1000B0005F0100085F0100085F0100085F010008A0
:1000C0005F0100085F0100085F0100085F01000890
:1000D0005F0100085F0100085F0100085F01000880
:1000E0005F0100085F0100085F0100085F01000870
:1000F0005F0100085F0100085F0100085F01000860
:100100005F0100085F0100085F0100085F0100084F
:100110005F0100085F0100085F0100085F0100083F
:100120005F0100085F0100085F0100085F0100082F
:10013000DFF80CD000F02AF8004800472110000832
:10014000780800200648804706480047FEE7FEE79B
:10015000FEE7FEE7FEE7FEE7FEE7FEE7FEE7FEE777
:10016000990F000831010008D2B201E000F8012B1C
:10017000491EFBD270470022F6E710B513460A4627
:1001800004461946FFF7F0FF204610BD064C074D08
:1001900006E0E06840F0010394E807009847103457
:1001A000AC42F6D3FFF7C8FF9C200008BC20000833
:1001B000FEE7704770B5044600F00AF90546601C7A
:1001C00002D004480078044400F002F9401BA04229
:1001D000FAD370BD100000202DE9F84FDFF8C89168
:1001E000002409F1040A0AF1040B23460F270BF13E
:1001F000040ED1E00125A54006EA0502AA4276D107
:10020000DFF8A8C14E68A6EB0C0866452BD00DDCC4
:10021000032E34D005DC36B3012E19D0022E2FD197
:100220001BE0112E16D0122E2AD119E0B8F5881F26
:1002300019D006DCB8F5803F15D0B8F5801F1FD166
:1002400011E0B8F5001F0ED0B8F5041F18D10AE070
:10025000CB6815E0CB681B1D12E0CB6808330FE0BC
:10026000CB680C330CE08B682BB1012B4FF00803EB
:1002700003D0456104E0042302E0056100E00023AF
:10028000FF2A01D8064601E000F104064FEA840582
:1002900001D9A5F12005D6F8008007FA05FC28EA67
:1002A0000C0803FA05F548EA0508C6F800804D6811
:1002B000ED0070D53E4DAE6946F00106AE61AD6908
:1002C00024F0030605F0010500953A4D06EB050CF8
:1002D000DCF80850A607360F07FA06F825EA0805E5
:1002E000DFF8D480404503D14FF0000825E052E00C
:1002F000DFF8C880404502D14FF001081DE0DFF86B
:10030000C080404502D14FF0020816E0DFF8B4800B
:10031000404502D14FF003080FE0DFF8AC804045C4
:1003200002D14FF0040808E0DFF8A080404502D178
:100330004FF0050801E04FF0060808FA06F848EA11
:100340000508CCF808804D68D9F80060ED034D46EB
:1003500001D5164300E096432E604D68DAF8006040
:10036000AD03554601D5164300E096432E604D6817
:10037000DBF80060ED025D4601D5164300E09643D0
:100380002E604D68DEF80060AD02754601D516435B
:1003900000E096432E60641C0A681646E2407FF433
:1003A00029AFBDE8F88F00000004014000001110E3
:1003B000001002400000014000080140000C014014
:1003C000001001400014014000180140001C0140D1
:1003D00001488068704700001000002070B50400DC
:1003E0001BD094F83D00002520B984F83C502046ED
:1003F00000F046F9242084F83D002068016821F0CF
:100400000101016000F08AFA4D4A6168914201D809
:100410004C4900E04C49884201D2012070BD4B4953
:100420002368B0FBF1F15E6826F03F060E435E6084
:100430006368934206D94FF4967359434FF47A7325
:10044000B1FBF3F12368491C1E6A26F03F063143D5
:1004500019626168914210D84900401EB0FBF1F268
:10046000521CC2F30B02042A01D2042022E0B0FB8A
:10047000F1F0401CC0F30B001CE0A368F3B301EBE8
:10048000C10202EB0116421EB2FBF6F2521C42F40C
:100490008042120549D093B301EBC10202EB011176
:1004A000401EB0FBF1F0401CC0F30B0040F4804054
:1004B00040F400402168CA694CF6FF739A43104328
:1004C000C861D4E90701084321680A6822F0C00224
:1004D00010430860D4E9030101432068826848F2B0
:1004E000FF339A4311438160D4E905010843216831
:1004F000CA6822F0FF021043C86001E00EE016E077
:100500002068016841F0010101602564202084F821
:100510003D00256384F83E50002070BD01EB41068C
:10052000421EB2FBF6F2521CB3E70120C2E701EB18
:100530004101401EB0FBF1F0401CC0F30B00B7E7D7
:10054000A086010080841E0000093D0040420F008B
:100550002DE9FF4F83B09A46DDE911979346044693
:10056000DDF84080FFF734FF054694F83D00202871
:100570007FD11923012240492046009500F040FC1C
:10058000002876D194F83C00012872D0012084F82C
:100590003C0020680168C90703D1016841F00101EE
:1005A00001602068016821F400610160212084F865
:1005B0003D00402084F83E0000262664C4F82480D4
:1005C000A4F82A90608D20852C48E062CDE9007562
:1005D00053465A462046049900F0A2FB70B930E019
:1005E0002A463946204600F08AFC58B1206C04287F
:1005F00004D12068016841F400710160012007B056
:10060000BDE8F08F606A216800780861606A401C6C
:100610006062218D491E89B22185628D521E6285DC
:1006200022685369DB435B070BD469B10078106122
:10063000606A401C6062208D401E2085608D401ED7
:100640006085208D0028CBD12A463946204600F00F
:10065000B1FB0028CAD154F83D0B016841F4007188
:100660000160202004F81E09E67766770020C6E7BF
:10067000FFE70220C3E70000020010000000FFFFB8
:1006800010B586B00021009101910291039100689C
:100690000F4988421AD10F4CA06940F00800A061B0
:1006A000A069694600F008000490C0200090122064
:1006B0000190032003900848FFF78EFDE06940F4A5
:1006C0000010E061E06900F40010049006B010BD75
:1006D0000054004000100240000C014002488168B4
:1006E000027811448160704710000020074810B55F
:1006F000016841F010010160032000F067F800205C
:1007000000F006F800F024F8002010BD00200240A0
:1007100070B50D4D04464FF47A712878B1FBF0F0B6
:100720000A490968B1FBF0F000F0CEFA48B9102C84
:1007300007D200222146501E00F028F800206C60ED
:1007400070BD012070BD0000100000201C000020C2
:100750000C4808B5816941F001018161816901F0AE
:1007600001010091C16941F08051C161C06900F08F
:10077000805000900448416821F0E06141F08061C0
:10078000416008BD0010024000000140F0B40E4B73
:100790001B680C46C3F30223C3F10705042D00D9DF
:1007A0000425191D072901D2002300E0DB1E0126C4
:1007B00006FA05F1491E214099409E40761E1640DA
:1007C0003143F0BC00F00DBC0CED00E0064900F038
:1007D000070208684FF6FF03184040EA0220034A68
:1007E00010430860704700000CED00E00000FA05BF
:1007F0002DE9F0470F46050061D0434E306800F008
:100800000700B84209D2306820F007003843306052
:10081000306800F00700B84251D128683B4C81078E
:1008200012D5400703D5606840F4E0606060287826
:10083000000703D5606840F4605060606068A96894
:1008400020F0F000084360602878C00728D068686E
:10085000012810D02168022810D0890700292EDA3B
:10086000616821F0030101436160FFF7B1FD80463B
:1008700041F288390DE021688903EFE78901EDE74E
:10088000FFF7A6FDA0EB0801494502D90320BDE80A
:10089000F0876068696800F00C00B0EB810FEFD161
:1008A000306800F00700B8420BD9306820F007002C
:1008B00038433060306800F00700B84201D00120B2
:1008C000E5E72878400705D56068E96820F4E0602E
:1008D000084360602878000706D56068296920F41D
:1008E000605040EAC100606000F028F86168084A82
:1008F000C1F30311515CC84006490860064800680E
:10090000FFF706FF0020C2E700200240001002406F
:10091000842000081C000020140000200448054921
:1009200000684968044AC1F30221515CC84070471D
:100930001C000020001002409420000812A185B085
:100940000FC98DE80F0014A0144A00680490516884
:10095000134801F00C03042B10D0082B0ED1C1F367
:100960008343C9031DF803000AD5516804AAC1F3E3
:100970004041515C0A4A5043B0FBF1F005B070476A
:1009800008494843FAE7000002030405060708097E
:100990000A0B0C0D0E0F1010010200000010024097
:1009A00000127A0000093D002DE9F84F040070D0D4
:1009B0002078C04DC00749D06868C0F38100012885
:1009C00007D06868C0F38100022809D16868C003B5
:1009D00006D52868800339D560680028E7D035E05F
:1009E0006068B0F5803F0BD010B1B0F5A02F11D0EA
:1009F000286820F480302860286820F4802002E0F5
:100A0000286840F480302860606890B1FFF7E0FC0F
:100A100006460AE0286840F480202860F0E700BF1E
:100A2000FFF7D6FC801B642873D828688003F7D5AD
:100A30000CE0FFF7CDFC064605E000BFFFF7C8FC61
:100A4000801B6428F0D828688003F7D420789A4E59
:100A500080074FF001094FF0000839D5686810F0A1
:100A60000C0F07D06868C0F38100022809D16868BC
:100A7000C00306D42868800714D52069012808D14E
:100A800010E02069B0B1C6F80090FFF7A1FC07465E
:100A900005E00AE1FFF79CFCC01B0228C4D82868C7
:100AA0008007F7D52868616920F0F80040EAC100A6
:100AB00028600DE0C6F80080FFF78AFC074604E0D6
:100AC000FFF786FCC01B022823D828688007F7D4CC
:100AD000207800072CD57948A169D9B1C0F80090D9
:100AE000FFF776FC074604E0FFF772FCC01B022804
:100AF0000FD8686A8007F7D571484FF4FA5100683B
:100B0000B0FBF1F0009000BF0098411E0091FAD2B6
:100B10000EE080E0C0F80080FFF75AFC074604E0D2
:100B2000FFF756FCC01B022875D8686A8007F7D407
:100B30002078400760D5E8690027C00008D4E8693C
:100B400040F08050E861E869012700F08050009093
:100B50005C480168C90513D40168834641F480717B
:100B60000160FFF735FC824606E000BFFFF730FC6E
:100B7000A0EB0A0064284ED8DBF80000C005F5D5CC
:100B8000E06801280AD008B1052813D0286A20F0AF
:100B900001002862286A20F0040002E0286A40F080
:100BA00001002862E06841F2883B98B1FFF710FC31
:100BB00082460BE0286A40F004002862EEE700BF9E
:100BC000FFF706FCA0EB0A0159455AD8286A8007AE
:100BD000F6D50CE0FFF7FCFB824605E0FFF7F8FBDB
:100BE000A0EB0A0159454CD8286A8007F6D41FB1FA
:100BF000E86920F08050E861E06988B36968C1F372
:100C00008101022944D00228C6F8608004D0FFF791
:100C1000DFFB044638E034E0FFF7DAFB074604E088
:100C2000FFF7D6FBC01B02282BD828688001F7D419
:100C3000206AB0F5803F05D16868A16820F40030D3
:100C400008436860D4E908010843696821F4741115
:100C500008436860C6F86090FFF7BAFB044606E0F8
:100C600025E000BFFFF7B4FB001B022809D8286865
:100C70008001F7D51BE000BFFFF7AAFB001B02288D
:100C800002D90320BDE8F88F28688001F4D40EE073
:100C90000128F7D06868226A00F48031914204D1BB
:100CA000616A00F47010884201D00120EAE7002058
:100CB000E8E7000000100240000042428004424287
:100CC0001C0000200070004010B5401EB0F1807F75
:100CD00001D3012010BD4FF0E02460610F216017A7
:100CE00000F07FF90020A06107202061002010BDE6
:100CF000FEE701684A69D24352050FD46FF480625F
:100D00004A61002140F8301F20224273817302693A
:100D100042F0040202610173012070470020704715
:100D20002DE9F843044600680D46DDE9089701689F
:100D30009846164641F4807101604B4600224FF000
:100D400001112046009700F05BF8E0B9216805F03A
:100D5000FE0008613B464A461549204600F084F8EB
:100D600088B920684169806900903A464946204622
:100D700000F0C5F850B1206C042804D12068016847
:100D800041F4007101600120BDE8F883F5B2B8F1CB
:100D9000010F09D02168300A08613A4649462046C9
:100DA00000F0ADF80028E6D1206805610020EBE7EF
:100DB0000200010070B516460D4604460DE02046BF
:100DC000FFF797FF08B1012070BD681C05D0FFF741
:100DD000FFFA801BA84207D835B120684069C0439C
:100DE0004007ECD4002070BD002044F8300F2021D3
:100DF0006173A073216941F0200121612073E2E752
:100E00002DE9F0471E4690460D460446C1F30747BC
:100E1000DDF8209008E0701C06D0FFF7D9FAA0EBAF
:100E20000900B0420FD876B12068012F18D0806930
:100E300025EA00000004000C14D000214145EAD04E
:100E40000020BDE8F087002044F8300F20216173B6
:100E5000A073216941F02001216120730120F0E796
:100E60004069E5E70121E9E72DE9F0479A46914617
:100E70000E46044600254FF02008C1F3074725E041
:100E800020684069C043400514D42068016841F4DB
:100E90000071016021686FF480604861256384F807
:100EA0003D8084F83E50206C40F00400206484F8BB
:100EB0003C501FE0B9F1FF3F08D0FFF789FAA0EBE3
:100EC0000A0149450CD8B9F1000F09D02068012F5B
:100ED00013D0806926EA00000004000C0BD0CFE795
:100EE00044F8305F84F80D80A573206940F020003D
:100EF000206125730120BDE8F0874069EAE770B5FD
:100F000016460D4604460DE02046FFF7F2FE08B1F6
:100F1000012070BD681C05D0FFF75AFA801BA8425B
:100F200007D835B120684069C0430006ECD40020E2
:100F300070BD002044F8300F20216173A073216937
:100F400041F0200121612073E2E7FEE7704770471E
:100F50007047FFF7C3BB10B590B028216846FFF774
:100F60000AF914210AA8FFF706F9022000900120CF
:100F7000049010200024059007946846FFF714FDA4
:100F80000F20CDE90A040C940D9400210AA80E94B8
:100F9000FFF72EFC10B010BD0D48016841F00101B3
:100FA000016041680B4A1140416001680A4A1140E2
:100FB0000160016821F480210160416821F4FE0193
:100FC00041604FF41F0181600449C003086070470D
:100FD000001002400000FFF8FFFFF6FE08ED00E001
:100FE000FEE70907090E002804DB00F1E02080F885
:100FF0000014704700F00F0000F1E02080F8141D8D
:10100000704702E008C8121F08C1002AFAD17047D1
:101010007047002001E001C1121F002AFBD1704778
:1010200008B5FFF763FBFFF796FF1B48816941F0A6
:10103000080181618069194900F008000090184892
:101040004FF4804201601749416000218160C0E98E
:10105000031241618161C1610162FFF7BFF900F0D4
:1010600059F84FF47A742046FFF7A4F8012000F0F5
:1010700041F800F0BDF82046FFF79CF8172108461C
:1010800000F0B0F808480023D0E9001207A000F0F3
:1010900035F900F0ADF8FEE70010024000540040C2
:1010A00020000020A08601000000002034696C6F41
:1010B0000000000070B5802813D2402911D20B4BDC
:1010C000012401F007051E79AC40094BC90800EB6B
:1010D000C1100EB132B101E0012A03D0195CA14365
:1010E000195470BD195C2143FAE700000800002084
:1010F0007400002010B5064A00214FF4806328B127
:10110000FF245454491C9942F9D310BD0024F8E738
:101110007400002010B56420FFF74CF8AE2000F0FA
:10112000DBF8202000F0D8F8102000F0D5F8B0202F
:1011300000F0D2F8C82000F0CFF8002000F0CCF882
:10114000102000F0C9F8402000F0C6F8812000F01F
:10115000C3F8FF2000F0C0F8A12000F0BDF8A620E1
:1011600000F0BAF8A82000F0B7F83F2000F0B4F87B
:10117000A42000F0B1F8D32000F0AEF8002000F079
:10118000ABF8D52000F0A8F8F02000F0A5F8D920A1
:1011900000F0A2F8222000F09FF8DA2000F09CF87E
:1011A000122000F099F8DB2000F096F8202000F0E3
:1011B00093F88D2000F090F8142000F08DF8AF2007
:1011C00000F08AF80020FFF795FF00F011F80448BE
:1011D00000210180418001214171084610BD0000BD
:1011E00008000020014A108051807047080000204C
:1011F000FEB5002464250F4F802600BF04F1B00027
:10120000C0B200F069F8002000F066F8102000F08D
:1012100063F807EBC410CDE90006012340227821D2
:1012200002950548FFF794F9641CE4B2082CE5D355
:10123000FEBD000074000020200000202DE9FF4FBB
:10124000834624489246CEB202883244802A06D28F
:1012500081464088C1F307273844402803D3002043
:1012600004B0BDE8F08F002528E000BFABF12000FE
:1012700000FB075000243AF810801CE008FA04F044
:10128000000409D599F8021099F800002944204477
:10129000C9B2C0B2039A0BE00398C0B15FF000027C
:1012A00099F8021099F8000029442044C9B2C0B24C
:1012B000FFF700FF641CA642E0D86D1CAF42D5D8F2
:1012C000B9F8001058463144A9F80010C8E70122C7
:1012D000E6E700000800002001B584B001210A22E1
:1012E00004A88DE807000B46002278210248FFF78A
:1012F0002FF905B000BD000020000020F0B51D460C
:101300000E46174604460AE02B463A463146FFF79A
:1013100095FF2178884201D0C8B2F0BD641C2078C6
:101320000028F1D1C0B2F0BD0000000000000000B4
:1013300000000000000000000000000000000000AD
:101340000000000000000000000000000000000C91
:10135000000C000C000C000C000C000C000C000C2D
:10136000000C000C0000000C000C0000000000004D
:101370000000001B001B001B001B001B00000000E6
:10138000000000000000000000000000000000005D
:101390000000000000008019801980198019C07FAA
:1013A000C07F80190033C07FC07F0033003300331B
:1013B00000330000000000000000001E003F8075A8
:1013C00080650074003C001E000780058065806514
:1013D0008075003F001E0004000400000000007043
:1013E00000D840D8C0D880D900730006000C801BFC
:1013F000C036C066C046C006800300000000000082
:101400000000001E003F003300330033001E000CBC
:10141000C03CC066806380618063C03E801C000069
:10142000000000000000000C000C000C000C000C80
:1014300000000000000000000000000000000000AC
:101440000000000000000000800000010003000612
:1014500000060004000C000C000C000C000C000C3A
:1014600000040006000600030001800000200010B8
:101470000018000C000C0004000600060006000620
:10148000000600060004000C000C001800100020EC
:101490000000000C002D003F001E00330000000083
:1014A000000000000000000000000000000000003C
:1014B00000000000000000000000000C000C000C08
:1014C000000CC0FFC0FF000C000C000C000C000062
:1014D000000000000000000000000000000000000C
:1014E00000000000000000000000000000000000FC
:1014F0000000000C000C00040004000800000000C4
:101500000000000000000000000000000000001EBD
:10151000001E0000000000000000000000000000AD
:1015200000000000000000000000000000000000BB
:1015300000000000000000000000000C000C000093
:101540000000000000000003000300030006000686
:1015500000060006000C000C000C000C001800181F
:1015600000180000000000000000001E003F0033D3
:10157000806180618061806D806D8061806180614B
:101580000033003F001E00000000000000000006C5
:10159000000E001E003600260006000600060006AB
:1015A000000600060006000600060000000000001D
:1015B0000000001E003F8073806180618001000395
:1015C0000006000C001800300060807F807F000063
:1015D000000000000000001C003E006300630003E8
:1015E000000E000E00038001800180618073003FC7
:1015F000001E00000000000000000006000E000EAB
:10160000001E001E0016003600360066807F807FB8
:101610000006000600060000000000000000007F39
:10162000007F006000600060006E007F80638001CA
:10163000800180618073003F001E000000000000F8
:101640000000001E003F803380610060006E007F5C
:1016500080738061806180618033003F001E0000E4
:10166000000000000000807F807F800100030003F5
:1016700000060006000C000C000C00080018001802
:1016800000180000000000000000001E003F806302
:10169000806180610021001E003F80618061806167
:1016A0008061003F001E0000000000000000001EDE
:1016B000003F00738061806180618073803F801D86
:1016C000800180610073003F001E000000000000E8
:1016D00000000000000000000000000C000C0000F2
:1016E00000000000000000000000000C000C0000E2
:1016F00000000000000000000000000000000000EA
:10170000000C000C00000000000000000000000CB5
:10171000000C0004000400080000000000000000AD
:1017200080008003000E003800600038000E800347
:101730008000000000000000000000000000000029
:10174000000000000000807F807F00000000807F9C
:10175000807F00000000000000000000000000008A
:10176000000000000000000000400070001C0007A6
:1017700080010007001C0070004000000000000015
:10178000000000000000001F803FC071C060C0006A
:10179000C00180030007000E000C000C0000000CCC
:1017A000000C0000000000000000001E003F80311F
:1017B00080718063806F806D806D806F8067006056
:1017C0000032003E001C0000000000000000000E7F
:1017D000000E001B001B001B001B80318031803F6E
:1017E000803F8031C060C060C06000000000000029
:1017F0000000007C007E0063006300630063007EE5
:10180000007E0063806180618063007F007E000055
:10181000000000000000001E003F80318061006079
:101820000060006000600060006080618031003F07
:10183000001E0000000000000000007C007F00632C
:10184000806380618061806180618061806100630C
:101850000063007E007C0000000000000000807F2C
:10186000807F0060006000600060007F007F00609B
:10187000006000600060807F807F0000000000004A
:101880000000807F807F0060006000600060007F5B
:10189000007F006000600060006000600060000089
:1018A000000000000000001E003F803180610060E9
:1018B0000060006080638063806180618031803F70
:1018C000001E000000000000000080618061806157
:1018D000806180618061807F807F806180618061C4
:1018E0008061806180610000000000000000003F16
:1018F000003F000C000C000C000C000C000C000C55
:10190000000C000C000C003F003F00000000000035
:101910000000800180018001800180018001800140
:1019200080018001806180618073003F001E0000A3
:10193000000000000000C060806100630066006677
:10194000006C0078007C0066006600638061806146
:10195000C060000000000000000000600060006047
:101960000060006000600060006000600060006077
:101970000060807F807F0000000000000000C071D8
:10198000C071C07BC07AC06AC06AC06EC064C060EB
:10199000C060C060C060C060C060000000000000A7
:1019A000000080718071807980798079806D806D90
:1019B000806D8065806780678067806380630000DA
:1019C000000000000000001E003F003380618061C5
:1019D0008061806180618061806180610033003F4F
:1019E000001E0000000000000000007E007F8063F9
:1019F0008061806180618063007F007E00600060A4
:101A00000060006000600000000000000000001E98
:101A1000003F00338061806180618061806180610E
:101A2000806580670033803F401E0000000000009A
:101A30000000007E007F8063806180618063007FA2
:101A4000007E00660063006380618061C06000000A
:101A5000000000000000000E001F803180310030C7
:101A60000038001E00078003806180618031003FE4
:101A7000001E0000000000000000C0FFC0FF000CBE
:101A8000000C000C000C000C000C000C000C000CF6
:101A9000000C000C000C0000000000000000806141
:101AA000806180618061806180618061806180612E
:101AB000806180618073003F001E00000000000014
:101AC0000000C060C060C060803180318031001B88
:101AD000001B001B001B000E000E000E0004000087
:101AE000000000000000C0C0C0C0C0C0C0C0C0C076
:101AF000C0CC804C804C805E80528052807380616C
:101B000080610000000000000000C0C080608061B3
:101B10000033003B001E000C000C001E001F003BA9
:101B200080718061C0C00000000000000000C0C0E3
:101B30008061806100330033001E001E000C000C29
:101B4000000C000C000C000C000C00000000000059
:101B50000000803F803F8001000300030006000C6E
:101B6000000C0018001800300060807F807F0000AB
:101B700000000000000F000F000C000C000C000C17
:101B8000000C000C000C000C000C000C000C000CF5
:101B9000000C000C000F000F0000001800180018C7
:101BA000000C000C000C000C0006000600060006ED
:101BB000000300030003000000000000001E001EE0
:101BC00000060006000600060006000600060006E5
:101BD000000600060006000600060006001E001EA5
:101BE0000000000C000C001E001200330033806166
:101BF0008061000000000000000000000000000004
:101C000000000000000000000000000000000000D4
:101C100000000000000000000000000000000000C4
:101C200000000000E0FF0000000000380018000C79
:101C300000000000000000000000000000000000A4
:101C40000000000000000000000000000000000094
:101C5000000000000000001F803F80618001801FA5
:101C6000803F80618063807FC038000000000000FA
:101C700000000060006000600060006E007F807304
:101C800080618061806180618073007F006E0000F0
:101C90000000000000000000000000000000001E26
:101CA000003F807380610060006080618073003F4E
:101CB000001E000000000000000080018001800183
:101CC0008001801D803F80738061806180618061C0
:101CD0008073803F801D00000000000000000000B5
:101CE000000000000000001E003F00738061807F44
:101CF000807F00608071003F001E00000000000037
:101D00000000C007C00F000C000C807F807F000C1B
:101D1000000C000C000C000C000C000C000C00006F
:101D2000000000000000000000000000801D803F57
:101D3000807380618061806180618073803F801DDD
:101D400080018063007F003E000000600060006052
:101D50000060006F807F8071806180618061806140
:101D600080618061806100000000000000000006CA
:101D7000000600000000003E003E000600060006CF
:101D80000006000600060006000600000000000035
:101D90000006000600000000003E003E00060006AF
:101DA00000060006000600060006000600060046C3
:101DB000007E003C00000060006000600060806108
:101DC00000630066006C007C007600630063806145
:101DD000C0600000000000000000003E003E000661
:101DE00000060006000600060006000600060006C3
:101DF00000060006000600000000000000000000D1
:101E000000000000000080DDC0FFC0CEC0CCC0CC10
:101E1000C0CCC0CCC0CCC0CCC0CC00000000000006
:101E200000000000000000000000006F807F807153
:101E3000806180618061806180618061806100007B
:101E40000000000000000000000000000000001E74
:101E5000003F807380618061806180618073003F9A
:101E6000001E000000000000000000000000000054
:101E7000006E007F8073806180618061806180730B
:101E8000007F006E006000600060006000000000E5
:101E900000000000801D803F807380618061806150
:101EA00080618073803F801D8001800180018001FE
:101EB000000000000000000000000067803F0039C3
:101EC00000300030003000300030003000300000C2
:101ED0000000000000000000000000000000001EE4
:101EE000803F80610060007F803F80018061007FD3
:101EF000001E0000000000000000000000080018A4
:101F00000018007F007F0018001800180018001843
:101F10000018801F800F000000000000000000007B
:101F2000000000000000806180618061806180614C
:101F3000806180618063807F803D00000000000040
:101F400000000000000000000000C060803180310F
:101F50008031001B001B001B000E000E000600005D
:101F6000000000000000000000000000000080DD14
:101F700080DD80DD00550055005500770077002298
:101F8000002200000000000000000000000000002F
:101F90000000806100330033001E000C000C001EA6
:101FA00000330033806100000000000000000000EA
:101FB0000000000080618061803100330033001B2D
:101FC000001B001B000E000E000E001C007C0070A9
:101FD00000000000000000000000C07FC07F800102
:101FE00000030006000C00180030C07FC07F000016
:101FF00000000000800380070006000600060006BF
:102000000006000E001C001C000E00060006000664
:102010000006000680078003000600060006000692
:102020000006000600060006000600060006000680
:102030000006000600060006000600060038003C08
:10204000000C000C000C000C000C000E0007000738
:10205000000E000C000C000C000C000C003C0038C2
:1020600000000000000000000000000000008038B8
:10207000807F00470000000000000000000000001A
:102080000000000000000000000000000102030446
:10209000060708090000000001020304BC20000834
:1020A000000000202000000002100008DC200008D2
:1020B0002000002058080000121000080B12000039
:1020C00028130008000000000000000001000000CC
:0C20D00010000000000000000024F400DC
:0400000508000131BD
:00000001FF
